{
  "_format": "hh3-artifact-1",
  "contractName": "ProtocolParameterRegistry",
  "sourceName": "contracts/governance/ProtocolParameterRegistry.sol",
  "abi": [
    {
      "inputs": [
        {
          "internalType": "address",
          "name": "admin",
          "type": "address"
        }
      ],
      "stateMutability": "nonpayable",
      "type": "constructor"
    },
    {
      "inputs": [
        {
          "internalType": "bytes32",
          "name": "key",
          "type": "bytes32"
        },
        {
          "internalType": "uint256",
          "name": "value",
          "type": "uint256"
        }
      ],
      "name": "ValueOutOfBounds",
      "type": "error"
    },
    {
      "inputs": [
        {
          "internalType": "uint256",
          "name": "value",
          "type": "uint256"
        }
      ],
      "name": "ValueTooLarge",
      "type": "error"
    },
    {
      "inputs": [],
      "name": "ZeroAdmin",
      "type": "error"
    },
    {
      "anonymous": false,
      "inputs": [
        {
          "indexed": true,
          "internalType": "bytes32",
          "name": "key",
          "type": "bytes32"
        },
        {
          "indexed": false,
          "internalType": "uint256",
          "name": "oldValue",
          "type": "uint256"
        },
        {
          "indexed": false,
          "internalType": "uint256",
          "name": "newValue",
          "type": "uint256"
        },
        {
          "indexed": true,
          "internalType": "enum IProtocolParameterRegistry.ChainLayer",
          "name": "layer",
          "type": "uint8"
        },
        {
          "indexed": false,
          "internalType": "string",
          "name": "reason",
          "type": "string"
        }
      ],
      "name": "ParameterUpdated",
      "type": "event"
    },
    {
      "anonymous": false,
      "inputs": [
        {
          "indexed": true,
          "internalType": "bytes32",
          "name": "role",
          "type": "bytes32"
        },
        {
          "indexed": true,
          "internalType": "bytes32",
          "name": "previousAdminRole",
          "type": "bytes32"
        },
        {
          "indexed": true,
          "internalType": "bytes32",
          "name": "newAdminRole",
          "type": "bytes32"
        }
      ],
      "name": "RoleAdminChanged",
      "type": "event"
    },
    {
      "anonymous": false,
      "inputs": [
        {
          "indexed": true,
          "internalType": "bytes32",
          "name": "role",
          "type": "bytes32"
        },
        {
          "indexed": true,
          "internalType": "address",
          "name": "account",
          "type": "address"
        },
        {
          "indexed": true,
          "internalType": "address",
          "name": "sender",
          "type": "address"
        }
      ],
      "name": "RoleGranted",
      "type": "event"
    },
    {
      "anonymous": false,
      "inputs": [
        {
          "indexed": true,
          "internalType": "bytes32",
          "name": "role",
          "type": "bytes32"
        },
        {
          "indexed": true,
          "internalType": "address",
          "name": "account",
          "type": "address"
        },
        {
          "indexed": true,
          "internalType": "address",
          "name": "sender",
          "type": "address"
        }
      ],
      "name": "RoleRevoked",
      "type": "event"
    },
    {
      "inputs": [],
      "name": "DEFAULT_ADMIN_ROLE",
      "outputs": [
        {
          "internalType": "bytes32",
          "name": "",
          "type": "bytes32"
        }
      ],
      "stateMutability": "view",
      "type": "function"
    },
    {
      "inputs": [],
      "name": "GOVERNOR_ROLE",
      "outputs": [
        {
          "internalType": "bytes32",
          "name": "",
          "type": "bytes32"
        }
      ],
      "stateMutability": "view",
      "type": "function"
    },
    {
      "inputs": [],
      "name": "KEY_FEES_PROTOCOL_BPS",
      "outputs": [
        {
          "internalType": "bytes32",
          "name": "",
          "type": "bytes32"
        }
      ],
      "stateMutability": "view",
      "type": "function"
    },
    {
      "inputs": [],
      "name": "KEY_GREENFIELD_PROOF_REF_TTL_SEC",
      "outputs": [
        {
          "internalType": "bytes32",
          "name": "",
          "type": "bytes32"
        }
      ],
      "stateMutability": "view",
      "type": "function"
    },
    {
      "inputs": [],
      "name": "KEY_LIQUIDATION_CLOSE_FACTOR_BPS",
      "outputs": [
        {
          "internalType": "bytes32",
          "name": "",
          "type": "bytes32"
        }
      ],
      "stateMutability": "view",
      "type": "function"
    },
    {
      "inputs": [],
      "name": "KEY_OPBNB_UPDATE_MAX_LAG_SEC",
      "outputs": [
        {
          "internalType": "bytes32",
          "name": "",
          "type": "bytes32"
        }
      ],
      "stateMutability": "view",
      "type": "function"
    },
    {
      "inputs": [],
      "name": "KEY_ORACLE_MAX_DEVIATION_BPS",
      "outputs": [
        {
          "internalType": "bytes32",
          "name": "",
          "type": "bytes32"
        }
      ],
      "stateMutability": "view",
      "type": "function"
    },
    {
      "inputs": [],
      "name": "KEY_ORACLE_MIN_QUORUM_PROVIDERS",
      "outputs": [
        {
          "internalType": "bytes32",
          "name": "",
          "type": "bytes32"
        }
      ],
      "stateMutability": "view",
      "type": "function"
    },
    {
      "inputs": [
        {
          "internalType": "bytes32",
          "name": "role",
          "type": "bytes32"
        }
      ],
      "name": "getRoleAdmin",
      "outputs": [
        {
          "internalType": "bytes32",
          "name": "",
          "type": "bytes32"
        }
      ],
      "stateMutability": "view",
      "type": "function"
    },
    {
      "inputs": [
        {
          "internalType": "bytes32",
          "name": "role",
          "type": "bytes32"
        },
        {
          "internalType": "address",
          "name": "account",
          "type": "address"
        }
      ],
      "name": "grantRole",
      "outputs": [],
      "stateMutability": "nonpayable",
      "type": "function"
    },
    {
      "inputs": [
        {
          "internalType": "bytes32",
          "name": "role",
          "type": "bytes32"
        },
        {
          "internalType": "address",
          "name": "account",
          "type": "address"
        }
      ],
      "name": "hasRole",
      "outputs": [
        {
          "internalType": "bool",
          "name": "",
          "type": "bool"
        }
      ],
      "stateMutability": "view",
      "type": "function"
    },
    {
      "inputs": [
        {
          "internalType": "bytes32",
          "name": "role",
          "type": "bytes32"
        },
        {
          "internalType": "address",
          "name": "account",
          "type": "address"
        }
      ],
      "name": "renounceRole",
      "outputs": [],
      "stateMutability": "nonpayable",
      "type": "function"
    },
    {
      "inputs": [
        {
          "internalType": "bytes32",
          "name": "role",
          "type": "bytes32"
        },
        {
          "internalType": "address",
          "name": "account",
          "type": "address"
        }
      ],
      "name": "revokeRole",
      "outputs": [],
      "stateMutability": "nonpayable",
      "type": "function"
    },
    {
      "inputs": [
        {
          "internalType": "bytes32",
          "name": "key",
          "type": "bytes32"
        },
        {
          "internalType": "uint256",
          "name": "value",
          "type": "uint256"
        },
        {
          "internalType": "enum IProtocolParameterRegistry.ChainLayer",
          "name": "layer",
          "type": "uint8"
        },
        {
          "internalType": "string",
          "name": "reason",
          "type": "string"
        }
      ],
      "name": "setUint",
      "outputs": [],
      "stateMutability": "nonpayable",
      "type": "function"
    },
    {
      "inputs": [
        {
          "internalType": "bytes4",
          "name": "interfaceId",
          "type": "bytes4"
        }
      ],
      "name": "supportsInterface",
      "outputs": [
        {
          "internalType": "bool",
          "name": "",
          "type": "bool"
        }
      ],
      "stateMutability": "view",
      "type": "function"
    },
    {
      "inputs": [
        {
          "internalType": "bytes32",
          "name": "key",
          "type": "bytes32"
        }
      ],
      "name": "uintParam",
      "outputs": [
        {
          "internalType": "uint256",
          "name": "",
          "type": "uint256"
        }
      ],
      "stateMutability": "view",
      "type": "function"
    }
  ],
  "bytecode": "0x60803461014457601f610ff838819003918201601f1916830192916001600160401b03841183851017610149578083926040958652833960209283918101031261014457516001600160a01b0381169081900361014457801561013357600091828052828152838320828452815260ff8484205416156100fd575b7f7935bd0ae54bc31f548c14dba4d37c5c64b3f8ca900cb468fb8abd54d5894f5590818452838152848420838552815260ff8585205416156100c5575b8451610e7890816101608239f35b8184528381528484209083855252838320600160ff19825416179055600080516020610fd8833981519152339380a4388080806100b7565b8280528281528383208284528152838320805460ff19166001179055338284600080516020610fd88339815191528180a461007a565b8251633944ed8760e11b8152600490fd5b600080fd5b634e487b7160e01b600052604160045260246000fdfe608060408181526004918236101561001657600080fd5b600092833560e01c91826301ffc9a7146109c7575081632472827e1461098c578163248a9ca3146109625781632f2ff15d146108c457816336568abe1461083c5781633ee91f991461081457816355fa7ce9146107d9578163832e38bd1461079e578163847facd6146102465750806391d148541461020d578063a217fddf146101f3578063b0436074146101b9578063ccc574901461017f578063d547741f1461014c578063f7d0fc6f146101125763ffe71ad5146100d557600080fd5b3461010e578160031936011261010e57602090517f07006cceb46c04e3c82af923a3e96970f56864fae831c7cd55953d89ea1179038152f35b5080fd5b503461010e578160031936011261010e57602090517f6a4aba04f86512e1fb476e7ab22698c654186f8a94bdc8c31f12fbe1eee620958152f35b503461010e57600161017c9161017761016436610a1a565b9390928387528660205286200154610a45565b610c78565b80f35b503461010e578160031936011261010e57602090517f7935bd0ae54bc31f548c14dba4d37c5c64b3f8ca900cb468fb8abd54d5894f558152f35b503461010e578160031936011261010e57602090517f749835337e094dc2d2937d1c7894486133c311c368d3eb36af49d12fe58b4eee8152f35b503461010e578160031936011261010e5751908152602090f35b503461010e5760ff8160209361022236610a1a565b9082528186528282206001600160a01b039091168252855220549151911615158152f35b90503461079a57608036600319011261079a5780359060248035906044908135956005871015610796576064359067ffffffffffffffff93848311610792573660238401121561079257828701359485116107925736848685010111610792577f7935bd0ae54bc31f548c14dba4d37c5c64b3f8ca900cb468fb8abd54d5894f5596878b526020978b8952838c20338d52895260ff848d205416156105bc57506fffffffffffffffffffffffffffffffff87116105a6577f6a4aba04f86512e1fb476e7ab22698c654186f8a94bdc8c31f12fbe1eee6209589036103b3576032871080156103a8575b61039057505092600080516020610e23833981519152959492819260606080965b8a8d5260018952808d209680885498558151998a98895288015286015282606086015201848401378181018301889052601f01601f19168101030190a380f35b86858a8551936373bbe52960e11b8552840152820152fd5b50611388871161032f565b7f07006cceb46c04e3c82af923a3e96970f56864fae831c7cd55953d89ea11790389036104135760018710801561040a575b61039057505092600080516020610e2383398151915295949281926060608096610350565b508787116103e5565b7ff98e0d49e6d7c2e0a354953569d408c1d7e5f136b96f32d14c9d727ea809aaf68903610475576103e88710801561046a5761039057505092600080516020610e2383398151915295949281926060608096610350565b5061271087116103e5565b7fb9d2dd9cdc4efcee8e3ccb40796500281812d578b2fe34620a21883019d1076d89036104c6576107d0871161039057505092600080516020610e2383398151915295949281926060608096610350565b7f749835337e094dc2d2937d1c7894486133c311c368d3eb36af49d12fe58b4eee890361052857603c8710801561051c5761039057505092600080516020610e2383398151915295949281926060608096610350565b5062093a8087116103e5565b7f40ec3f7d4999b3486c1770ebec1366dee94dec82cfb9ab2e937766f4ff7f58aa8914610571575b505092600080516020610e2383398151915295949281926060608096610350565b610e108710801561059a575b156105505786858a8551936373bbe52960e11b8552840152820152fd5b506276a700871161057d565b82516326281a1160e21b81529081018790528490fd5b88938c87926105ca33610d13565b8351916105d683610c24565b60428352888301936060368637835115610780576030855383519060019182101561076e5790607860218601536041915b818311610705575050506106c6579261069760488976020b1b1b2b9b9a1b7b73a3937b61d1030b1b1b7bab73a1604d1b979561065f956106886106b899875198858a9687019d8e528251928391603789019101610c01565b8401917001034b99036b4b9b9b4b733903937b6329607d1b603784015251809386840190610c01565b01036028810185520183610c56565b5196879562461bcd60e51b8752860152519283809286015285850190610c01565b601f01601f19168101030190fd5b6064867f537472696e67733a20686578206c656e67746820696e73756666696369656e74898b89818a519562461bcd60e51b8752860152840152820152fd5b909192600f8116601081101561075c576f181899199a1a9b1b9c1cb0b131b232b360811b901a6107358588610cec565b53891c92801561074a57600019019190610607565b634e487b7160e01b825260118a528882fd5b634e487b7160e01b835260328b528983fd5b634e487b7160e01b8152603289528790fd5b634e487b7160e01b8152603288528690fd5b8980fd5b8780fd5b8280fd5b50503461010e578160031936011261010e57602090517f40ec3f7d4999b3486c1770ebec1366dee94dec82cfb9ab2e937766f4ff7f58aa8152f35b50503461010e578160031936011261010e57602090517fb9d2dd9cdc4efcee8e3ccb40796500281812d578b2fe34620a21883019d1076d8152f35b90503461079a57602036600319011261079a5760209282913581526001845220549051908152f35b8391503461010e5761084d36610a1a565b91336001600160a01b0384160361086957509061017c91610c78565b608490602086519162461bcd60e51b8352820152602f60248201527f416363657373436f6e74726f6c3a2063616e206f6e6c792072656e6f756e636560448201526e103937b632b9903337b91039b2b63360891b6064820152fd5b50503461010e576108d436610a1a565b9091828452836020526108ec60018286200154610a45565b82845260208481528185206001600160a01b039093168086529290528084205460ff1615610918578380f35b828452836020528084208285526020528320600160ff1982541617905533917f2f8788117e7eff1d82e926ec794901d17c78024a50270940304540a733656f0d8480a43880808380f35b90503461079a57602036600319011261079a57816020936001923581528085522001549051908152f35b50503461010e578160031936011261010e57602090517ff98e0d49e6d7c2e0a354953569d408c1d7e5f136b96f32d14c9d727ea809aaf68152f35b84913461079a57602036600319011261079a573563ffffffff60e01b811680910361079a5760209250637965db0b60e01b8114908115610a09575b5015158152f35b6301ffc9a760e01b14905083610a02565b6040906003190112610a4057600435906024356001600160a01b0381168103610a405790565b600080fd5b60008181526020818152604092838320338452825260ff848420541615610a6c5750505050565b610a7533610d13565b90845190610a8282610c24565b60428252838201946060368737825115610bed5760308653825190600191821015610bed5790607860218501536041915b818311610b7f57505050610b3d5784610b1960486106b8936044979851988991610b0a8984019876020b1b1b2b9b9a1b7b73a3937b61d1030b1b1b7bab73a1604d1b8a5261065f815180928d603789019101610c01565b01036028810189520187610c56565b5194859362461bcd60e51b8552600485015251809281602486015285850190610c01565b60648386519062461bcd60e51b825280600483015260248201527f537472696e67733a20686578206c656e67746820696e73756666696369656e746044820152fd5b909192600f81166010811015610bd9576f181899199a1a9b1b9c1cb0b131b232b360811b901a610baf8587610cec565b5360041c928015610bc557600019019190610ab3565b634e487b7160e01b82526011600452602482fd5b634e487b7160e01b83526032600452602483fd5b634e487b7160e01b81526032600452602490fd5b60005b838110610c145750506000910152565b8181015183820152602001610c04565b6080810190811067ffffffffffffffff821117610c4057604052565b634e487b7160e01b600052604160045260246000fd5b90601f8019910116810190811067ffffffffffffffff821117610c4057604052565b9060009180835282602052604083209160018060a01b03169182845260205260ff604084205416610ca857505050565b80835282602052604083208284526020526040832060ff1981541690557ff6391f5c32d9c69d2a47ea670b442974b53935d1edc7fd64eb21e047a839171b339380a4565b908151811015610cfd570160200190565b634e487b7160e01b600052603260045260246000fd5b604051906060820182811067ffffffffffffffff821117610c4057604052602a8252602082016040368237825115610cfd57603090538151600190811015610cfd57607860218401536029905b808211610db4575050610d705790565b606460405162461bcd60e51b815260206004820152602060248201527f537472696e67733a20686578206c656e67746820696e73756666696369656e746044820152fd5b9091600f81166010811015610e0d576f181899199a1a9b1b9c1cb0b131b232b360811b901a610de38486610cec565b5360041c918015610df8576000190190610d60565b60246000634e487b7160e01b81526011600452fd5b60246000634e487b7160e01b81526032600452fdfe6400680b92f7fbee9e119ebde79c76a9125fc223955de309709c1987b5819f1ea26469706673582212206c4aaa40117f00c3598fd2fc360210ae953f945d4a2e44fb0e92bbcb56f6ea3264736f6c634300081300332f8788117e7eff1d82e926ec794901d17c78024a50270940304540a733656f0d",
  "linkReferences": {},
  "deployedLinkReferences": {},
  "immutableReferences": {},
  "inputSourceName": "project/contracts/governance/ProtocolParameterRegistry.sol",
  "buildInfoId": "solc-0_8_19-1ef7364bee65fe47cce44adf0cd306f2b04bd606"
}