{"project/contracts/MACH.sol":{"MACH":{"abi":[{"inputs":[{"internalType":"uint256","name":"initialSupply","type":"uint256"}],"stateMutability":"nonpayable","type":"constructor"},{"inputs":[],"name":"InvalidShortString","type":"error"},{"inputs":[{"internalType":"string","name":"str","type":"string"}],"name":"StringTooLong","type":"error"},{"anonymous":false,"inputs":[{"indexed":true,"internalType":"address","name":"owner","type":"address"},{"indexed":true,"internalType":"address","name":"spender","type":"address"},{"indexed":false,"internalType":"uint256","name":"value","type":"uint256"}],"name":"Approval","type":"event"},{"anonymous":false,"inputs":[{"indexed":true,"internalType":"address","name":"delegator","type":"address"},{"indexed":true,"internalType":"address","name":"fromDelegate","type":"address"},{"indexed":true,"internalType":"address","name":"toDelegate","type":"address"}],"name":"DelegateChanged","type":"event"},{"anonymous":false,"inputs":[{"indexed":true,"internalType":"address","name":"delegate","type":"address"},{"indexed":false,"internalType":"uint256","name":"previousBalance","type":"uint256"},{"indexed":false,"internalType":"uint256","name":"newBalance","type":"uint256"}],"name":"DelegateVotesChanged","type":"event"},{"anonymous":false,"inputs":[],"name":"EIP712DomainChanged","type":"event"},{"anonymous":false,"inputs":[{"indexed":true,"internalType":"address","name":"from","type":"address"},{"indexed":false,"internalType":"uint256","name":"amount","type":"uint256"},{"indexed":true,"internalType":"address","name":"burner","type":"address"}],"name":"MACHBurned","type":"event"},{"anonymous":false,"inputs":[{"indexed":true,"internalType":"address","name":"to","type":"address"},{"indexed":false,"internalType":"uint256","name":"amount","type":"uint256"},{"indexed":true,"internalType":"address","name":"minter","type":"address"}],"name":"MACHMinted","type":"event"},{"anonymous":false,"inputs":[{"indexed":true,"internalType":"bytes32","name":"role","type":"bytes32"},{"indexed":true,"internalType":"bytes32","name":"previousAdminRole","type":"bytes32"},{"indexed":true,"internalType":"bytes32","name":"newAdminRole","type":"bytes32"}],"name":"RoleAdminChanged","type":"event"},{"anonymous":false,"inputs":[{"indexed":true,"internalType":"bytes32","name":"role","type":"bytes32"},{"indexed":true,"internalType":"address","name":"account","type":"address"},{"indexed":true,"internalType":"address","name":"sender","type":"address"}],"name":"RoleGranted","type":"event"},{"anonymous":false,"inputs":[{"indexed":true,"internalType":"bytes32","name":"role","type":"bytes32"},{"indexed":true,"internalType":"address","name":"account","type":"address"},{"indexed":true,"internalType":"address","name":"sender","type":"address"}],"name":"RoleRevoked","type":"event"},{"anonymous":false,"inputs":[{"indexed":true,"internalType":"address","name":"from","type":"address"},{"indexed":true,"internalType":"address","name":"to","type":"address"},{"indexed":false,"internalType":"uint256","name":"value","type":"uint256"}],"name":"Transfer","type":"event"},{"inputs":[],"name":"BURNER_ROLE","outputs":[{"internalType":"bytes32","name":"","type":"bytes32"}],"stateMutability":"view","type":"function"},{"inputs":[],"name":"CLOCK_MODE","outputs":[{"internalType":"string","name":"","type":"string"}],"stateMutability":"view","type":"function"},{"inputs":[],"name":"DEFAULT_ADMIN_ROLE","outputs":[{"internalType":"bytes32","name":"","type":"bytes32"}],"stateMutability":"view","type":"function"},{"inputs":[],"name":"DOMAIN_SEPARATOR","outputs":[{"internalType":"bytes32","name":"","type":"bytes32"}],"stateMutability":"view","type":"function"},{"inputs":[],"name":"MINTER_ROLE","outputs":[{"internalType":"bytes32","name":"","type":"bytes32"}],"stateMutability":"view","type":"function"},{"inputs":[{"internalType":"address","name":"owner","type":"address"},{"internalType":"address","name":"spender","type":"address"}],"name":"allowance","outputs":[{"internalType":"uint256","name":"","type":"uint256"}],"stateMutability":"view","type":"function"},{"inputs":[{"internalType":"address","name":"spender","type":"address"},{"internalType":"uint256","name":"amount","type":"uint256"}],"name":"approve","outputs":[{"internalType":"bool","name":"","type":"bool"}],"stateMutability":"nonpayable","type":"function"},{"inputs":[{"internalType":"address","name":"account","type":"address"}],"name":"balanceOf","outputs":[{"internalType":"uint256","name":"","type":"uint256"}],"stateMutability":"view","type":"function"},{"inputs":[{"internalType":"uint256","name":"amount","type":"uint256"}],"name":"burn","outputs":[],"stateMutability":"nonpayable","type":"function"},{"inputs":[{"internalType":"address","name":"account","type":"address"},{"internalType":"uint256","name":"amount","type":"uint256"}],"name":"burnFrom","outputs":[],"stateMutability":"nonpayable","type":"function"},{"inputs":[{"internalType":"address","name":"account","type":"address"},{"internalType":"uint32","name":"pos","type":"uint32"}],"name":"checkpoints","outputs":[{"components":[{"internalType":"uint32","name":"fromBlock","type":"uint32"},{"internalType":"uint224","name":"votes","type":"uint224"}],"internalType":"struct ERC20Votes.Checkpoint","name":"","type":"tuple"}],"stateMutability":"view","type":"function"},{"inputs":[],"name":"clock","outputs":[{"internalType":"uint48","name":"","type":"uint48"}],"stateMutability":"view","type":"function"},{"inputs":[],"name":"decimals","outputs":[{"internalType":"uint8","name":"","type":"uint8"}],"stateMutability":"view","type":"function"},{"inputs":[{"internalType":"address","name":"spender","type":"address"},{"internalType":"uint256","name":"subtractedValue","type":"uint256"}],"name":"decreaseAllowance","outputs":[{"internalType":"bool","name":"","type":"bool"}],"stateMutability":"nonpayable","type":"function"},{"inputs":[{"internalType":"address","name":"delegatee","type":"address"}],"name":"delegate","outputs":[],"stateMutability":"nonpayable","type":"function"},{"inputs":[{"internalType":"address","name":"delegatee","type":"address"},{"internalType":"uint256","name":"nonce","type":"uint256"},{"internalType":"uint256","name":"expiry","type":"uint256"},{"internalType":"uint8","name":"v","type":"uint8"},{"internalType":"bytes32","name":"r","type":"bytes32"},{"internalType":"bytes32","name":"s","type":"bytes32"}],"name":"delegateBySig","outputs":[],"stateMutability":"nonpayable","type":"function"},{"inputs":[{"internalType":"address","name":"account","type":"address"}],"name":"delegates","outputs":[{"internalType":"address","name":"","type":"address"}],"stateMutability":"view","type":"function"},{"inputs":[],"name":"eip712Domain","outputs":[{"internalType":"bytes1","name":"fields","type":"bytes1"},{"internalType":"string","name":"name","type":"string"},{"internalType":"string","name":"version","type":"string"},{"internalType":"uint256","name":"chainId","type":"uint256"},{"internalType":"address","name":"verifyingContract","type":"address"},{"internalType":"bytes32","name":"salt","type":"bytes32"},{"internalType":"uint256[]","name":"extensions","type":"uint256[]"}],"stateMutability":"view","type":"function"},{"inputs":[{"internalType":"uint256","name":"timepoint","type":"uint256"}],"name":"getPastTotalSupply","outputs":[{"internalType":"uint256","name":"","type":"uint256"}],"stateMutability":"view","type":"function"},{"inputs":[{"internalType":"address","name":"account","type":"address"},{"internalType":"uint256","name":"timepoint","type":"uint256"}],"name":"getPastVotes","outputs":[{"internalType":"uint256","name":"","type":"uint256"}],"stateMutability":"view","type":"function"},{"inputs":[{"internalType":"bytes32","name":"role","type":"bytes32"}],"name":"getRoleAdmin","outputs":[{"internalType":"bytes32","name":"","type":"bytes32"}],"stateMutability":"view","type":"function"},{"inputs":[{"internalType":"address","name":"account","type":"address"}],"name":"getVotes","outputs":[{"internalType":"uint256","name":"","type":"uint256"}],"stateMutability":"view","type":"function"},{"inputs":[{"internalType":"bytes32","name":"role","type":"bytes32"},{"internalType":"address","name":"account","type":"address"}],"name":"grantRole","outputs":[],"stateMutability":"nonpayable","type":"function"},{"inputs":[{"internalType":"bytes32","name":"role","type":"bytes32"},{"internalType":"address","name":"account","type":"address"}],"name":"hasRole","outputs":[{"internalType":"bool","name":"","type":"bool"}],"stateMutability":"view","type":"function"},{"inputs":[{"internalType":"address","name":"spender","type":"address"},{"internalType":"uint256","name":"addedValue","type":"uint256"}],"name":"increaseAllowance","outputs":[{"internalType":"bool","name":"","type":"bool"}],"stateMutability":"nonpayable","type":"function"},{"inputs":[{"internalType":"address","name":"to","type":"address"},{"internalType":"uint256","name":"amount","type":"uint256"}],"name":"mint","outputs":[],"stateMutability":"nonpayable","type":"function"},{"inputs":[],"name":"name","outputs":[{"internalType":"string","name":"","type":"string"}],"stateMutability":"view","type":"function"},{"inputs":[{"internalType":"address","name":"owner","type":"address"}],"name":"nonces","outputs":[{"internalType":"uint256","name":"","type":"uint256"}],"stateMutability":"view","type":"function"},{"inputs":[{"internalType":"address","name":"account","type":"address"}],"name":"numCheckpoints","outputs":[{"internalType":"uint32","name":"","type":"uint32"}],"stateMutability":"view","type":"function"},{"inputs":[{"internalType":"address","name":"owner","type":"address"},{"internalType":"address","name":"spender","type":"address"},{"internalType":"uint256","name":"value","type":"uint256"},{"internalType":"uint256","name":"deadline","type":"uint256"},{"internalType":"uint8","name":"v","type":"uint8"},{"internalType":"bytes32","name":"r","type":"bytes32"},{"internalType":"bytes32","name":"s","type":"bytes32"}],"name":"permit","outputs":[],"stateMutability":"nonpayable","type":"function"},{"inputs":[{"internalType":"bytes32","name":"role","type":"bytes32"},{"internalType":"address","name":"account","type":"address"}],"name":"renounceRole","outputs":[],"stateMutability":"nonpayable","type":"function"},{"inputs":[{"internalType":"bytes32","name":"role","type":"bytes32"},{"internalType":"address","name":"account","type":"address"}],"name":"revokeRole","outputs":[],"stateMutability":"nonpayable","type":"function"},{"inputs":[{"internalType":"bytes4","name":"interfaceId","type":"bytes4"}],"name":"supportsInterface","outputs":[{"internalType":"bool","name":"","type":"bool"}],"stateMutability":"view","type":"function"},{"inputs":[],"name":"symbol","outputs":[{"internalType":"string","name":"","type":"string"}],"stateMutability":"view","type":"function"},{"inputs":[],"name":"totalSupply","outputs":[{"internalType":"uint256","name":"","type":"uint256"}],"stateMutability":"view","type":"function"},{"inputs":[{"internalType":"address","name":"to","type":"address"},{"internalType":"uint256","name":"amount","type":"uint256"}],"name":"transfer","outputs":[{"internalType":"bool","name":"","type":"bool"}],"stateMutability":"nonpayable","type":"function"},{"inputs":[{"internalType":"address","name":"from","type":"address"},{"internalType":"address","name":"to","type":"address"},{"internalType":"uint256","name":"amount","type":"uint256"}],"name":"transferFrom","outputs":[{"internalType":"bool","name":"","type":"bool"}],"stateMutability":"nonpayable","type":"function"}],"evm":{"bytecode":{"linkReferences":{},"object":"610160806040523462000088576020620041fb80380380916200002282620000a3565b843912620000885762000036905162000161565b604051612f449081620012778239608051816127c7015260a05181612882015260c05181612791015260e051816128160152610100518161283c01526101205181610c5601526101405181610c7f0152f35b600080fd5b634e487b7160e01b600052604160045260246000fd5b601f01601f1916610160908101906001600160401b03821190821017620000c957604052565b6200008d565b604081019081106001600160401b03821117620000c957604052565b60405190620000fa82620000cf565b565b604051906200010b82620000cf565b60048252565b604051906200012082620000cf565b60018252565b604051906200013582620000cf565b601482527f4d616368696e65466920476f7665726e616e63650000000000000000000000006020830152565b906200016c62000126565b916200017762000126565b9262000182620000fc565b906020906309a8286960e31b828401526200019c62000111565b9180830193603160f81b8552875160018060401b038111620000c957620001d081620001ca60035462000318565b62000355565b82601f8211600114620002855790806200020f9392620000fa9a9b60009262000279575b50508160011b916000199060031b1c191617600355620004b9565b6200021a8262000df2565b61012052620002298362000f05565b61014052815191012060e052519020610100524660a0526200024a620010b6565b6080523060c0526200025c33620005ac565b62000267336200063f565b6200027233620006f7565b33620007be565b015190503880620001f4565b6003600052601f198216997fc2575a0e9e593c00f959f8c92f12db2869c3395a3b0502d05e2516446f71f85b9a60005b8181106200030057509a60019284926200020f9695620000fa9d9e10620002e6575b505050811b01600355620004b9565b015160001960f88460031b161c19169055388080620002d7565b838301518d556001909c019b928601928601620002b5565b90600182811c921680156200034a575b60208310146200033457565b634e487b7160e01b600052602260045260246000fd5b91607f169162000328565b601f811162000362575050565b6000906003825260208220906020601f850160051c83019410620003a3575b601f0160051c01915b8281106200039757505050565b8181556001016200038a565b909250829062000381565b601f8111620003bb575050565b6000906004825260208220906020601f850160051c83019410620003fc575b601f0160051c01915b828110620003f057505050565b818155600101620003e3565b9092508290620003da565b601f811162000414575050565b6000906005825260208220906020601f850160051c8301941062000455575b601f0160051c01915b8281106200044957505050565b8181556001016200043c565b909250829062000433565b601f81116200046d575050565b6000906006825260208220906020601f850160051c83019410620004ae575b601f0160051c01915b828110620004a257505050565b81815560010162000495565b90925082906200048c565b80519091906001600160401b038111620000c957620004e581620004df60045462000318565b620003ae565b602080601f831160011462000524575081929360009262000518575b50508160011b916000199060031b1c191617600455565b01519050388062000501565b6004600052601f198316949091907f8a35acfbc15ff81a39ae7d344fd709f28e8600b4aa8c65c6b64bfe7fe36bd19b926000905b8782106200059357505083600195961062000579575b505050811b01600455565b015160001960f88460031b161c191690553880806200056e565b8060018596829496860151815501950193019062000558565b6001600160a01b03811660009081527f13649b2456f1b42fef0f0040b3aaeabcd21a76a0f3f5defd4f583839455116e8602052604081205460ff1615620005f1575050565b808052600c602090815260408083206001600160a01b038516600090815292529020805460ff1916600117905533916001600160a01b031690600080516020620041bb8339815191528180a4565b6001600160a01b03811660009081527f28716b1ac0502292c83929abc9e37796cf2f7a586c58ec02e6ceeac1b694cbc3602052604081207f9f2df0fed2c77648de5860a4cc508cd0818c85b8b8a1ab4ceeef8d981c8956a69060ff905b541615620006a957505050565b808252600c602090815260408084206001600160a01b038616600090815292529020805460ff1916600117905533926001600160a01b031691600080516020620041bb8339815191529080a4565b6001600160a01b03811660009081527e1cc5d77f691f3f29bd797d00fb54dbfca601fc89d79085dfe95ee6241d87cb602052604081207f3c11d16cbaffd01df69ce1c404f6340ee057498f5f00246190ea54220576a8489060ff906200069c565b156200076057565b60405162461bcd60e51b815260206004820152603060248201527f4552433230566f7465733a20746f74616c20737570706c79207269736b73206f60448201526f766572666c6f77696e6720766f74657360801b6064820152608490fd5b906001600160a01b0382168015620008685760025482810180911162000862576200085e936200084092620007f38593600255565b6001600160a01b038216600090815260208181526040808320805487019055518581527fddf252ad1be2c89b69c2b068fc378daa952ba7f163c4a11628f55a4df523b3ef9190a3620008c3565b60025462000858906001600160e01b03101562000758565b62000adb565b5050565b620008ad565b60405162461bcd60e51b815260206004820152601f60248201527f45524332303a206d696e7420746f20746865207a65726f2061646472657373006044820152606490fd5b634e487b7160e01b600052601160045260246000fd5b60096020527fec8156718a8372b1db44bb411437d0870f3e3790d4a08526d024ce1b0b668f6b546001600160a01b039182166000908152604081205483169392909116908184141580620009c7575b6200091e575b50505050565b82908262000986575b5050508162000939575b808062000918565b6001600160a01b0382166000908152600a60205260409020600080516020620041db833981519152916200096d9162000d85565b60408051928352602083019190915290a2388062000931565b600080516020620041db8339815191529160408285620009ad9452600a6020522062000c61565b60408051928352602083019190915290a238818162000927565b5082151562000912565b604080519192919081016001600160401b03811182821017620000c957604052602081935463ffffffff81168352811c910152565b600b549068010000000000000000821015620000c9576001820180600b5582101562000a7457600b600052805160209182015190911b63ffffffff191663ffffffff91909116177f0175b7a638427703f0dbe7bb9bbf987a2551717b34e79f33b5b1008d1fa01db990910155565b634e487b7160e01b600052603260045260246000fd5b90815468010000000000000000811015620000c9576001810180845581101562000a7457600092835260209283902082519284015190931b63ffffffff191663ffffffff9290921691909117910155565b600b549091811591821562000c235762000af4620000eb565b60008152600060208201525b602081015162000b2d9062000b25906001600160e01b03165b6001600160e01b031690565b95866200125a565b9315908162000bfc575b501562000b9457620000fa9062000b7d62000b528562001122565b600b600052917f0175b7a638427703f0dbe7bb9bbf987a2551717b34e79f33b5b1008d1fa01db80190565b9063ffffffff82549181199060201b169116179055565b50620000fa62000bbd62000bb762000bac436200118c565b65ffffffffffff1690565b620011f4565b62000bf662000bcc8562001122565b62000be662000bda620000eb565b63ffffffff9094168452565b6001600160e01b03166020830152565b62000a06565b5163ffffffff16905063ffffffff62000c1962000bac436200118c565b9116143862000b37565b600b60005262000c5b7f0175b7a638427703f0dbe7bb9bbf987a2551717b34e79f33b5b1008d1fa01db88201620009d1565b620009d1565b62000b00565b90918154918215928360001462000d655762000c7c620000eb565b60008152600060208201525b602081015162000cae9062000ca6906001600160e01b031662000b19565b968762001268565b9415908162000d3e575b501562000ce55762000b7d620000fa9262000cd38662001122565b92600019019060005260206000200190565b50620000fa9062000cfe62000bb762000bac436200118c565b9062000d3862000d0e8662001122565b62000d2862000d1c620000eb565b63ffffffff9095168552565b6001600160e01b03166020840152565b62000a8a565b5163ffffffff16905063ffffffff62000d5b62000bac436200118c565b9116143862000cb8565b62000d7f62000c5560001983018460005260206000200190565b62000c88565b90918154918215928360001462000dd25762000da0620000eb565b60008152600060208201525b602081015162000cae9062000dca906001600160e01b031662000b19565b96876200125a565b62000dec62000c5560001983018460005260206000200190565b62000dac565b908151602080821060001462000e135750509062000e109062001039565b90565b6001600160401b038211620000c95762000e3a8262000e3460055462000318565b62000407565b80601f831160011462000e7a575081929360009262000e6e575b50508160011b916000199060031b1c19161760055560ff90565b01519050388062000e54565b6005600052601f198316949091907f036b6384b5eca791c62761152d0c79bb0604c104a5fb6f4eb0703f3154bb3db0926000905b87821062000eec57505083600195961062000ed2575b505050811b0160055560ff90565b015160001960f88460031b161c1916905538808062000ec4565b8060018596829496860151815501950193019062000eae565b908151602080821060001462000f235750509062000e109062001039565b6001600160401b038211620000c95762000f4a8262000f4460065462000318565b62000460565b80601f831160011462000f8a575081929360009262000f7e575b50508160011b916000199060031b1c19161760065560ff90565b01519050388062000f64565b6006600052601f198316949091907ff652222313e28459528d920b65115c16c04f3efc82aaedc97be59f3f377c0d3f926000905b87821062000ffc57505083600195961062000fe2575b505050811b0160065560ff90565b015160001960f88460031b161c1916905538808062000fd4565b8060018596829496860151815501950193019062000fbe565b6020815191015190602081106200102a575090565b6000199060200360031b1b1690565b601f81511162001054576200104e8162001015565b90511790565b6040519063305a27a960e01b82528160208060048301528251908160248401526000935b8285106200109c575050604492506000838284010152601f80199101168101030190fd5b848101820151868601604401529381019385935062001078565b60e051610100516040519060208201927f8b73c3c69bb8fe3d512ecc4cf759cc79239f7b179b0ffacaa9a75d522b39400f8452604083015260608201524660808201523060a082015260a0815260c0810181811060018060401b03821117620000c95760405251902090565b6001600160e01b039081811162001137571690565b60405162461bcd60e51b815260206004820152602760248201527f53616665436173743a2076616c756520646f65736e27742066697420696e20326044820152663234206269747360c81b6064820152608490fd5b65ffffffffffff90818111620011a0571690565b60405162461bcd60e51b815260206004820152602660248201527f53616665436173743a2076616c756520646f65736e27742066697420696e203460448201526538206269747360d01b6064820152608490fd5b63ffffffff9081811162001206571690565b60405162461bcd60e51b815260206004820152602660248201527f53616665436173743a2076616c756520646f65736e27742066697420696e203360448201526532206269747360d01b6064820152608490fd5b908101809111620008625790565b90810390811162000862579056fe6080604052600436101561001257600080fd5b60003560e01c806301ffc9a71461026757806306fdde0314610262578063095ea7b31461025d57806318160ddd1461025857806323b872dd14610253578063248a9ca31461024e578063282c51f3146102495780632f2ff15d14610244578063313ce5671461023f5780633644e5151461023a57806336568abe1461023557806339509351146102305780633a46b1a81461022b57806340c10f191461022657806342966c68146102215780634bf5d7e91461021c578063587cde1e146102175780635c19a95c146102125780636fcfff451461020d57806370a082311461020857806379cc6790146102035780637ecebe00146101fe57806384b0196e146101f95780638e539e8c146101f457806391d14854146101ef57806391ddadf4146101ea57806395d89b41146101e55780639ab24eb0146101e0578063a217fddf146101db578063a457c2d7146101d6578063a9059cbb146101d1578063c3cda520146101cc578063d505accf146101c7578063d5391393146101c2578063d547741f146101bd578063dd62ed3e146101b85763f1127ed8146101b357600080fd5b611409565b6113b1565b611372565b611337565b6111f1565b6110c6565b611080565b610fc6565b610faa565b610f48565b610ea1565b610e75565b610e23565b610d33565b610c3b565b610c01565b610b8e565b610b54565b610b0c565b610aea565b610aaf565b6109fd565b6109a7565b610865565b610714565b6106bc565b610628565b610605565b6105e9565b610520565b6104e5565b6104b6565b61047e565b610460565b61042f565b61031e565b346102bd5760203660031901126102bd5760043563ffffffff60e01b81168091036102bd57602090637965db0b60e01b81149081156102ac575b506040519015158152f35b6301ffc9a760e01b149050386102a1565b600080fd5b60005b8381106102d55750506000910152565b81810151838201526020016102c5565b906020916102fe815180928185528580860191016102c2565b601f01601f1916010190565b90602061031b9281815201906102e5565b90565b346102bd57600080600319360112610400576040519080600354610341816117b9565b808552916001918083169081156103d6575060011461037b575b6103778561036b81870382611704565b6040519182918261030a565b0390f35b9250600383527fc2575a0e9e593c00f959f8c92f12db2869c3395a3b0502d05e2516446f71f85b5b8284106103be57505050810160200161036b8261037761035b565b805460208587018101919091529093019281016103a3565b8695506103779693506020925061036b94915060ff191682840152151560051b820101929361035b565b80fd5b600435906001600160a01b03821682036102bd57565b602435906001600160a01b03821682036102bd57565b346102bd5760403660031901126102bd5761045561044b610403565b60243590336119e5565b602060405160018152f35b346102bd5760003660031901126102bd576020600254604051908152f35b346102bd5760603660031901126102bd5761045561049a610403565b6104a2610419565b604435916104b1833383611b15565b6118d7565b346102bd5760203660031901126102bd57600435600052600c6020526020600160406000200154604051908152f35b346102bd5760003660031901126102bd5760206040517f3c11d16cbaffd01df69ce1c404f6340ee057498f5f00246190ea54220576a8488152f35b346102bd5760403660031901126102bd5760043561053c610419565b600091808352600c60205261055760016040852001546115c6565b808352600c602090815260408085206001600160a01b0385166000908152925290205460ff1615610586578280f35b808352600c602090815260408085206001600160a01b038516600090815292529020805460ff1916600117905533916001600160a01b0316907f2f8788117e7eff1d82e926ec794901d17c78024a50270940304540a733656f0d8480a438808280f35b346102bd5760003660031901126102bd57602060405160128152f35b346102bd5760003660031901126102bd57602061062061278e565b604051908152f35b346102bd5760403660031901126102bd57610641610419565b336001600160a01b0382160361065f5761065d90600435611726565b005b60405162461bcd60e51b815260206004820152602f60248201527f416363657373436f6e74726f6c3a2063616e206f6e6c792072656e6f756e636560448201526e103937b632b9903337b91039b2b63360891b6064820152608490fd5b346102bd5760403660031901126102bd576106d5610403565b3360009081526001602090815260408083206001600160a01b0385168452909152902054602435810180911161070f5761045591336119e5565b6117f3565b346102bd5760403660031901126102bd5761072d610403565b6024359061074c65ffffffffffff61074443612c71565b168310611c57565b6001600160a01b03166000908152600a6020526040812080549290918360058111610814575b50905b8382106107c35750508161079c575050602060005b6040516001600160e01b039091168152f35b6107b76107be91602093600019019060005260206000200190565b5460201c90565b61078a565b90926107cf8185612aa1565b908263ffffffff6107f46107ea858860005260206000200190565b5463ffffffff1690565b1611156108045750925b90610775565b935061080f90611809565b6107fe565b8061082461082a92969396612ab6565b90611ca3565b908263ffffffff6108456107ea858860005260206000200190565b1611156108555750925b38610772565b935061086090611809565b61084f565b346102bd5760403660031901126102bd5761087e610403565b6024359061088a611490565b6001600160a01b0381169081156109625782610911916108b46108af83600254611817565b600255565b6001600160a01b03811660009081526020819052604090208281540190558360007fddf252ad1be2c89b69c2b068fc378daa952ba7f163c4a11628f55a4df523b3ef6040518061090987829190602083019252565b0390a3611cfc565b600254610927906001600160e01b031015612d3d565b61093082612117565b505060405191825233917f6703b91408ac4e5359864141deafd5b7123597226dd89819d2d13ecaea67655a90602090a3005b60405162461bcd60e51b815260206004820152601f60248201527f45524332303a206d696e7420746f20746865207a65726f2061646472657373006044820152606490fd5b346102bd5760203660031901126102bd576004356109c3611572565b6109cd8133612da2565b60405190815233907ff6fe6df77b383bc86273ae6628679c19d5da8f27700cf72cd4ddabe45e9e23ce60203392a3005b346102bd5760003660031901126102bd574365ffffffffffff610a1f43612c71565b1603610a6a57610377604051610a34816116ab565b601d81527f6d6f64653d626c6f636b6e756d6265722666726f6d3d64656661756c7400000060208201526040519182918261030a565b60405162461bcd60e51b815260206004820152601d60248201527f4552433230566f7465733a2062726f6b656e20636c6f636b206d6f64650000006044820152606490fd5b346102bd5760203660031901126102bd5760206001600160a01b0380610ad3610403565b166000526009825260406000205416604051908152f35b346102bd5760203660031901126102bd5761065d610b06610403565b33611dc7565b346102bd5760203660031901126102bd576001600160a01b03610b2d610403565b16600052600a6020526020610b46604060002054612cd8565b63ffffffff60405191168152f35b346102bd5760203660031901126102bd576001600160a01b03610b75610403565b1660005260006020526020604060002054604051908152f35b346102bd5760403660031901126102bd57610ba7610403565b602435610bb2611572565b610bbd813384611b15565b610bc78183612da2565b60405190815233916001600160a01b0316907ff6fe6df77b383bc86273ae6628679c19d5da8f27700cf72cd4ddabe45e9e23ce90602090a3005b346102bd5760203660031901126102bd576001600160a01b03610c22610403565b1660005260076020526020604060002054604051908152f35b346102bd5760008060031936011261040057610ce590610c7a7f00000000000000000000000000000000000000000000000000000000000000006128ce565b610ca37f00000000000000000000000000000000000000000000000000000000000000006129c7565b9160405191610cb1836116cc565b818352604051948594600f60f81b8652610cd760209360e08589015260e08801906102e5565b9086820360408801526102e5565b904660608601523060808601528260a086015284820360c08601528080855193848152019401925b828110610d1c57505050500390f35b835185528695509381019392810192600101610d0d565b346102bd5760203660031901126102bd57600435610d6265ffffffffffff610d5a43612c71565b168210611c57565b600b549060008260058111610de0575b50905b828210610da1578280610d8f575060405160008152602090f35b6107be6107b760209260001901612319565b9091610dad8184612aa1565b908263ffffffff610dc06107ea85612319565b161115610dd05750915b90610d75565b9250610ddb90611809565b610dca565b80610824610df092959395612ab6565b908263ffffffff610e036107ea85612319565b161115610e135750915b38610d72565b9250610e1e90611809565b610e0d565b346102bd5760403660031901126102bd57602060ff610e69610e43610419565b600435600052600c845260406000209060018060a01b0316600052602052604060002090565b54166040519015158152f35b346102bd5760003660031901126102bd576020610e9143612c71565b65ffffffffffff60405191168152f35b346102bd57600080600319360112610400576040519080600454610ec4816117b9565b808552916001918083169081156103d65750600114610eed576103778561036b81870382611704565b9250600483527f8a35acfbc15ff81a39ae7d344fd709f28e8600b4aa8c65c6b64bfe7fe36bd19b5b828410610f3057505050810160200161036b8261037761035b565b80546020858701810191909152909301928101610f15565b346102bd5760203660031901126102bd576001600160a01b03610f69610403565b16600052600a602052604060002080548015600014610f9057505060405160008152602090f35b602091610fa1916000190190611c1d565b5054811c61078a565b346102bd5760003660031901126102bd57602060405160008152f35b346102bd5760403660031901126102bd57610fdf610403565b6024359033600052600160205261100c8160406000209060018060a01b0316600052602052604060002090565b549180831061102d57611021920390336119e5565b60405160018152602090f35b60405162461bcd60e51b815260206004820152602560248201527f45524332303a2064656372656173656420616c6c6f77616e63652062656c6f77604482015264207a65726f60d81b6064820152608490fd5b346102bd5760403660031901126102bd5761045561109c610403565b60243590336118d7565b6064359060ff821682036102bd57565b6084359060ff821682036102bd57565b346102bd5760c03660031901126102bd576110df610403565b604435906024356110ee6110a6565b928042116111ac5761117e6111a79161065d9560405190611166826111586020820195898b8860609194939260808201957fe48329057bfd03d55e49b547132e39cffd9c1820ad7b9d4c5307691425d15adf835260018060a01b0316602083015260408201520152565b03601f198101845283611704565b61117960a43593608435935190206128a8565b6125a8565b6001600160a01b0381166000908152600760205260409020805460018101909155909214611cb0565b611dc7565b60405162461bcd60e51b815260206004820152601d60248201527f4552433230566f7465733a207369676e617475726520657870697265640000006044820152606490fd5b346102bd5760e03660031901126102bd5761120a610403565b611212610419565b60443590606435926112226110b6565b938042116112f2576112da6112ed9161115861065d976112c76112608760018060a01b03166000526007602052604060002090815491600183019055565b604080517f6e71edae12b1b97f4d1f60370fef10105fa2faae0126114a169c64845d6126c9602082019081526001600160a01b03808c1693830193909352918b166060820152608081018c905260a081019290925260c082019590955292839060e0820190565b61117960c4359360a435935190206128a8565b6001600160a01b03838116911614611bae565b6119e5565b60405162461bcd60e51b815260206004820152601d60248201527f45524332305065726d69743a206578706972656420646561646c696e650000006044820152606490fd5b346102bd5760003660031901126102bd5760206040517f9f2df0fed2c77648de5860a4cc508cd0818c85b8b8a1ab4ceeef8d981c8956a68152f35b346102bd5760403660031901126102bd5761065d600435611391610419565b9080600052600c6020526113ac6001604060002001546115c6565b611726565b346102bd5760403660031901126102bd5760206114006113cf610403565b6113d7610419565b6001600160a01b0391821660009081526001855260408082209290931681526020919091522090565b54604051908152f35b346102bd5760403660031901126102bd57611422610403565b63ffffffff60243581811681036102bd5761146c6114729160409460006020875161144c816116ab565b82815201526001600160a01b03166000908152600a602052859020611c1d565b50611c35565b8251815190921682526020908101516001600160e01b031690820152f35b3360009081527f28716b1ac0502292c83929abc9e37796cf2f7a586c58ec02e6ceeac1b694cbc3602052604090205460ff16156114c957565b61156e60486115566114da336123f5565b6115486114e5612486565b6040519485937f416363657373436f6e74726f6c3a206163636f756e742000000000000000000060208601526115258151809260206037890191016102c2565b84017001034b99036b4b9b9b4b733903937b6329607d1b6037820152019061167e565b03601f198101835282611704565b60405162461bcd60e51b81529182916004830161030a565b0390fd5b3360009081527e1cc5d77f691f3f29bd797d00fb54dbfca601fc89d79085dfe95ee6241d87cb602052604090205460ff16156115aa57565b61156e60486115566115bb336123f5565b6115486114e5612517565b6000818152600c6020908152604080832033845290915290205460ff16156115eb5750565b6115f4336123f5565b6115fc612343565b9160306116088461236f565b5360786116148461237c565b5360415b600181116116375761156e604861155685611548886114e588156123aa565b90600f811690601082101561167957611674916f181899199a1a9b1b9c1cb0b131b232b360811b901a61166a848761238c565b5360041c9161239d565b611618565b611c07565b90611691602092828151948592016102c2565b0190565b634e487b7160e01b600052604160045260246000fd5b6040810190811067ffffffffffffffff8211176116c757604052565b611695565b6020810190811067ffffffffffffffff8211176116c757604052565b60c0810190811067ffffffffffffffff8211176116c757604052565b90601f8019910116810190811067ffffffffffffffff8211176116c757604052565b600090808252600c60205260ff61175284604085209060018060a01b0316600052602052604060002090565b541661175d57505050565b808252600c602090815260408084206001600160a01b038616600090815292529020805460ff1916905533926001600160a01b0316917ff6391f5c32d9c69d2a47ea670b442974b53935d1edc7fd64eb21e047a839171b9080a4565b90600182811c921680156117e9575b60208310146117d357565b634e487b7160e01b600052602260045260246000fd5b91607f16916117c8565b634e487b7160e01b600052601160045260246000fd5b906001820180921161070f57565b9190820180921161070f57565b1561182b57565b60405162461bcd60e51b815260206004820152602360248201527f45524332303a207472616e7366657220746f20746865207a65726f206164647260448201526265737360e81b6064820152608490fd5b1561188357565b60405162461bcd60e51b815260206004820152602660248201527f45524332303a207472616e7366657220616d6f756e7420657863656564732062604482015265616c616e636560d01b6064820152608490fd5b6001600160a01b03929190838116801561199257611990948316906118fd821515611824565b6001600160a01b03831660009081526020819052604090208590546119248282101561187c565b036119418460018060a01b03166000526000602052604060002090565b556001600160a01b0384166000908152602081815260409182902080548801905590518681527fddf252ad1be2c89b69c2b068fc378daa952ba7f163c4a11628f55a4df523b3ef9190a3611d95565b565b60405162461bcd60e51b815260206004820152602560248201527f45524332303a207472616e736665722066726f6d20746865207a65726f206164604482015264647265737360d81b6064820152608490fd5b6001600160a01b038082169291908315611ac4578216938415611a745780611a5e7f8c5be1e5ebec7d5bd14f71427d1e84f3dd0314c0f7b2291e5b200ac8c7c3b92594611a47611a6f9560018060a01b03166000526001602052604060002090565b9060018060a01b0316600052602052604060002090565b556040519081529081906020820190565b0390a3565b60405162461bcd60e51b815260206004820152602260248201527f45524332303a20617070726f766520746f20746865207a65726f206164647265604482015261737360f01b6064820152608490fd5b60405162461bcd60e51b8152602060048201526024808201527f45524332303a20617070726f76652066726f6d20746865207a65726f206164646044820152637265737360e01b6064820152608490fd5b6001600160a01b038082166000908152600160209081526040808320938616835292905220909190549260018401611b4e575b50505050565b808410611b6957611b609303916119e5565b38808080611b48565b60405162461bcd60e51b815260206004820152601d60248201527f45524332303a20696e73756666696369656e7420616c6c6f77616e63650000006044820152606490fd5b15611bb557565b60405162461bcd60e51b815260206004820152601e60248201527f45524332305065726d69743a20696e76616c6964207369676e617475726500006044820152606490fd5b60405190611990826116ab565b634e487b7160e01b600052603260045260246000fd5b80548210156116795760005260206000200190600090565b90604051611c42816116ab565b602081935463ffffffff81168352811c910152565b15611c5e57565b60405162461bcd60e51b815260206004820152601960248201527f4552433230566f7465733a20667574757265206c6f6f6b7570000000000000006044820152606490fd5b9190820391821161070f57565b15611cb757565b60405162461bcd60e51b815260206004820152601960248201527f4552433230566f7465733a20696e76616c6964206e6f6e6365000000000000006044820152606490fd5b60096020527fec8156718a8372b1db44bb411437d0870f3e3790d4a08526d024ce1b0b668f6b546001600160a01b039182166000908152604090205461199093929081169116611e3b565b6001600160a01b039081166000908152600960205260408120549080527fec8156718a8372b1db44bb411437d0870f3e3790d4a08526d024ce1b0b668f6b5461199093929081169116611e3b565b6001600160a01b0390811660009081526009602052604080822054938316825290205461199093929082169116611e3b565b6119909160018060a01b038092166000928184526009602052806040852054168092856020527f3134e8a2e6d97e929a7e54011ea5485d7d196dd5f0ba4d4ef95803e8e3fc257f60408720549660096020526040812094871694856bffffffffffffffffffffffff60a01b82541617905580a45b6001600160a01b0380831693929116808414158061204d575b611e5e5750505050565b80611ecc575b5082611e71575b80611b48565b6001600160a01b03166000908152600a602052604090207fdec2bacdd2f05b59de34da9b523dff8be42e5e38e818c82fdb0bae774387a72491611eb391612207565b60408051928352602083019190915290a2388080611e6b565b80600052600a6020527fdec2bacdd2f05b59de34da9b523dff8be42e5e38e818c82fdb0bae774387a724604060002080548015918260001461202a57611f10611bfa565b6000815260006020820152915b6020830151611f3c906001600160e01b03165b6001600160e01b031690565b92611f478985612ef4565b94159081612007575b5015611fa557611f78611f8f92611f6686612c08565b92600019019060005260206000200190565b9063ffffffff82549181199060201b169116179055565b604080519182526020820192909252a238611e64565b5061200290611fc9611fc4611fb943612c71565b65ffffffffffff1690565b612cd8565b90611ffd611fd686612c08565b611fed611fe1611bfa565b63ffffffff9095168552565b6001600160e01b03166020840152565b6120bd565b611f8f565b5163ffffffff16905063ffffffff612021611fb943612c71565b91161438611f50565b61204761204260001984018360005260206000200190565b611c35565b91611f1d565b50821515611e54565b600b5490600160401b8210156116c7576001820180600b5582101561167957600b600052805160209182015190911b63ffffffff191663ffffffff91909116177f0175b7a638427703f0dbe7bb9bbf987a2551717b34e79f33b5b1008d1fa01db990910155565b8054600160401b8110156116c7576120da91600182018155611c1d565b61210157815160209283015190921b63ffffffff191663ffffffff92909216919091179055565b634e487b7160e01b600052600060045260246000fd5b600b54909181159182156121f25761212d611bfa565b60008152600060208201525b602081015161215b90612154906001600160e01b0316611f30565b9586612f01565b931590816121cf575b50156121845761199090611f7861217a85612c08565b9160001901612319565b50611990612197611fc4611fb943612c71565b6121ca6121a385612c08565b6121ba6121ae611bfa565b63ffffffff9094168452565b6001600160e01b03166020830152565b612056565b5163ffffffff16905063ffffffff6121e9611fb943612c71565b91161438612164565b6122026120426000198301612319565b612139565b9091815491821592836000146122a35761221f611bfa565b60008152600060208201525b602081015161224d90612246906001600160e01b0316611f30565b9687612f01565b94159081612280575b501561226c57611f7861199092611f6686612c08565b5061199090611fc9611fc4611fb943612c71565b5163ffffffff16905063ffffffff61229a611fb943612c71565b91161438612256565b6122bb61204260001983018460005260206000200190565b61222b565b600b5490918115918215612304576122d6611bfa565b60008152600060208201525b602081015161215b906122fd906001600160e01b0316611f30565b9586612ef4565b6123146120426000198301612319565b6122e2565b600b6000527f0175b7a638427703f0dbe7bb9bbf987a2551717b34e79f33b5b1008d1fa01db90190565b604051906080820182811067ffffffffffffffff8211176116c757604052604282526060366020840137565b8051156116795760200190565b8051600110156116795760210190565b908151811015611679570160200190565b801561070f576000190190565b156123b157565b606460405162461bcd60e51b815260206004820152602060248201527f537472696e67733a20686578206c656e67746820696e73756666696369656e746044820152fd5b604051906060820182811067ffffffffffffffff8211176116c757604052602a82526040366020840137603061242a8361236f565b5360786124368361237c565b536029905b6001821161244e5761031b9150156123aa565b600f811690601082101561167957612480916f181899199a1a9b1b9c1cb0b131b232b360811b901a61166a848661238c565b9061243b565b7f9f2df0fed2c77648de5860a4cc508cd0818c85b8b8a1ab4ceeef8d981c8956a66124af612343565b9060306124bb8361236f565b5360786124c78361237c565b536041905b600182116124df5761031b9150156123aa565b600f811690601082101561167957612511916f181899199a1a9b1b9c1cb0b131b232b360811b901a61166a848661238c565b906124cc565b7f3c11d16cbaffd01df69ce1c404f6340ee057498f5f00246190ea54220576a848612540612343565b90603061254c8361236f565b5360786125588361237c565b536041905b600182116125705761031b9150156123aa565b600f8116906010821015611679576125a2916f181899199a1a9b1b9c1cb0b131b232b360811b901a61166a848661238c565b9061255d565b9161031b93916125b7936126ff565b9190916125df565b600511156125c957565b634e487b7160e01b600052602160045260246000fd5b6125e8816125bf565b806125f05750565b6125f9816125bf565b600181036126465760405162461bcd60e51b815260206004820152601860248201527f45434453413a20696e76616c6964207369676e617475726500000000000000006044820152606490fd5b61264f816125bf565b6002810361269c5760405162461bcd60e51b815260206004820152601f60248201527f45434453413a20696e76616c6964207369676e6174757265206c656e677468006044820152606490fd5b806126a86003926125bf565b146126af57565b60405162461bcd60e51b815260206004820152602260248201527f45434453413a20696e76616c6964207369676e6174757265202773272076616c604482015261756560f01b6064820152608490fd5b9291907f7fffffffffffffffffffffffffffffff5d576e7357a4501ddfe92f46681b20a083116127825791608094939160ff602094604051948552168484015260408301526060820152600093849182805260015afa156127755781516001600160a01b0381161561276f579190565b50600190565b50604051903d90823e3d90fd5b50505050600090600390565b307f00000000000000000000000000000000000000000000000000000000000000006001600160a01b0316148061287f575b156127e9577f000000000000000000000000000000000000000000000000000000000000000090565b60405160208101907f8b73c3c69bb8fe3d512ecc4cf759cc79239f7b179b0ffacaa9a75d522b39400f82527f000000000000000000000000000000000000000000000000000000000000000060408201527f000000000000000000000000000000000000000000000000000000000000000060608201524660808201523060a082015260a08152612879816116e8565b51902090565b507f000000000000000000000000000000000000000000000000000000000000000046146127c0565b6042906128b361278e565b906040519161190160f01b8352600283015260228201522090565b60ff811461290c5760ff811690601f82116128fa57604051916128f0836116ab565b8252602082015290565b604051632cd44ac360e21b8152600490fd5b5060405160055481600061291f836117b9565b808352926001908181169081156129a55750600114612946575b5061031b92500382611704565b6005600090815291507f036b6384b5eca791c62761152d0c79bb0604c104a5fb6f4eb0703f3154bb3db05b84831061298a575061031b935050810160200138612939565b81935090816020925483858901015201910190918492612971565b90506020925061031b94915060ff191682840152151560051b82010138612939565b60ff81146129e95760ff811690601f82116128fa57604051916128f0836116ab565b506040516006548160006129fc836117b9565b808352926001908181169081156129a55750600114612a22575061031b92500382611704565b6006600090815291507ff652222313e28459528d920b65115c16c04f3efc82aaedc97be59f3f377c0d3f5b848310612a66575061031b935050810160200138612939565b81935090816020925483858901015201910190918492612a4d565b8115612a8b570490565b634e487b7160e01b600052601260045260246000fd5b90808216911860011c810180911161070f5790565b8015612bf05780612b89612b82612b78612b6e612b64612b5a612b50612b46600161031b9a6000908b60801c80612be4575b508060401c80612bd7575b508060201c80612bca575b508060101c80612bbd575b508060081c80612bb0575b508060041c80612ba3575b508060021c80612b96575b50821c612b8f575b811c1b612b3f818b612a81565b0160011c90565b612b3f818a612a81565b612b3f8189612a81565b612b3f8188612a81565b612b3f8187612a81565b612b3f8186612a81565b612b3f8185612a81565b8092612a81565b90612bf6565b8101612b32565b6002915091019038612b2a565b6004915091019038612b1f565b6008915091019038612b14565b6010915091019038612b09565b6020915091019038612afe565b6040915091019038612af3565b91505060809038612ae8565b50600090565b9080821015612c03575090565b905090565b6001600160e01b0390818111612c1c571690565b60405162461bcd60e51b815260206004820152602760248201527f53616665436173743a2076616c756520646f65736e27742066697420696e20326044820152663234206269747360c81b6064820152608490fd5b65ffffffffffff90818111612c84571690565b60405162461bcd60e51b815260206004820152602660248201527f53616665436173743a2076616c756520646f65736e27742066697420696e203460448201526538206269747360d01b6064820152608490fd5b63ffffffff90818111612ce9571690565b60405162461bcd60e51b815260206004820152602660248201527f53616665436173743a2076616c756520646f65736e27742066697420696e203360448201526532206269747360d01b6064820152608490fd5b15612d4457565b60405162461bcd60e51b815260206004820152603060248201527f4552433230566f7465733a20746f74616c20737570706c79207269736b73206f60448201526f766572666c6f77696e6720766f74657360801b6064820152608490fd5b6001600160a01b03811691908215612e4e5781816000612e4a9583612ddc612e459660018060a01b03166000526000602052604060002090565b54612de982821015612e9d565b03612e068460018060a01b03166000526000602052604060002090565b55612e148460025403600255565b6040518481527fddf252ad1be2c89b69c2b068fc378daa952ba7f163c4a11628f55a4df523b3ef90602090a3611d47565b6122c0565b5050565b60405162461bcd60e51b815260206004820152602160248201527f45524332303a206275726e2066726f6d20746865207a65726f206164647265736044820152607360f81b6064820152608490fd5b15612ea457565b60405162461bcd60e51b815260206004820152602260248201527f45524332303a206275726e20616d6f756e7420657863656564732062616c616e604482015261636560f01b6064820152608490fd5b90810390811161070f5790565b90810180911161070f579056fea264697066735822122020199a609e0c2ed6e48e574bb5a0e77f5a8b73913a1f2fe2a4a66c152c8c7ced64736f6c634300081300332f8788117e7eff1d82e926ec794901d17c78024a50270940304540a733656f0ddec2bacdd2f05b59de34da9b523dff8be42e5e38e818c82fdb0bae774387a724","opcodes":"PUSH2 0x160 DUP1 PUSH1 0x40 MSTORE CALLVALUE PUSH3 0x88 JUMPI PUSH1 0x20 PUSH3 0x41FB DUP1 CODESIZE SUB DUP1 SWAP2 PUSH3 0x22 DUP3 PUSH3 0xA3 JUMP JUMPDEST DUP5 CODECOPY SLT PUSH3 0x88 JUMPI PUSH3 0x36 SWAP1 MLOAD PUSH3 0x161 JUMP JUMPDEST PUSH1 0x40 MLOAD PUSH2 0x2F44 SWAP1 DUP2 PUSH3 0x1277 DUP3 CODECOPY PUSH1 0x80 MLOAD DUP2 PUSH2 0x27C7 ADD MSTORE PUSH1 0xA0 MLOAD DUP2 PUSH2 0x2882 ADD MSTORE PUSH1 0xC0 MLOAD DUP2 PUSH2 0x2791 ADD MSTORE PUSH1 0xE0 MLOAD DUP2 PUSH2 0x2816 ADD MSTORE PUSH2 0x100 MLOAD DUP2 PUSH2 0x283C ADD MSTORE PUSH2 0x120 MLOAD DUP2 PUSH2 0xC56 ADD MSTORE PUSH2 0x140 MLOAD DUP2 PUSH2 0xC7F ADD MSTORE RETURN JUMPDEST PUSH1 0x0 DUP1 REVERT JUMPDEST PUSH4 0x4E487B71 PUSH1 0xE0 SHL PUSH1 0x0 MSTORE PUSH1 0x41 PUSH1 0x4 MSTORE PUSH1 0x24 PUSH1 0x0 REVERT JUMPDEST PUSH1 0x1F ADD PUSH1 0x1F NOT AND PUSH2 0x160 SWAP1 DUP2 ADD SWAP1 PUSH1 0x1 PUSH1 0x1 PUSH1 0x40 SHL SUB DUP3 GT SWAP1 DUP3 LT OR PUSH3 0xC9 JUMPI PUSH1 0x40 MSTORE JUMP JUMPDEST PUSH3 0x8D JUMP JUMPDEST PUSH1 0x40 DUP2 ADD SWAP1 DUP2 LT PUSH1 0x1 PUSH1 0x1 PUSH1 0x40 SHL SUB DUP3 GT OR PUSH3 0xC9 JUMPI PUSH1 0x40 MSTORE JUMP JUMPDEST PUSH1 0x40 MLOAD SWAP1 PUSH3 0xFA DUP3 PUSH3 0xCF JUMP JUMPDEST JUMP JUMPDEST PUSH1 0x40 MLOAD SWAP1 PUSH3 0x10B DUP3 PUSH3 0xCF JUMP JUMPDEST PUSH1 0x4 DUP3 MSTORE JUMP JUMPDEST PUSH1 0x40 MLOAD SWAP1 PUSH3 0x120 DUP3 PUSH3 0xCF JUMP JUMPDEST PUSH1 0x1 DUP3 MSTORE JUMP JUMPDEST PUSH1 0x40 MLOAD SWAP1 PUSH3 0x135 DUP3 PUSH3 0xCF JUMP JUMPDEST PUSH1 0x14 DUP3 MSTORE PUSH32 0x4D616368696E65466920476F7665726E616E6365000000000000000000000000 PUSH1 0x20 DUP4 ADD MSTORE JUMP JUMPDEST SWAP1 PUSH3 0x16C PUSH3 0x126 JUMP JUMPDEST SWAP2 PUSH3 0x177 PUSH3 0x126 JUMP JUMPDEST SWAP3 PUSH3 0x182 PUSH3 0xFC JUMP JUMPDEST SWAP1 PUSH1 0x20 SWAP1 PUSH4 0x9A82869 PUSH1 0xE3 SHL DUP3 DUP5 ADD MSTORE PUSH3 0x19C PUSH3 0x111 JUMP JUMPDEST SWAP2 DUP1 DUP4 ADD SWAP4 PUSH1 0x31 PUSH1 0xF8 SHL DUP6 MSTORE DUP8 MLOAD PUSH1 0x1 DUP1 PUSH1 0x40 SHL SUB DUP2 GT PUSH3 0xC9 JUMPI PUSH3 0x1D0 DUP2 PUSH3 0x1CA PUSH1 0x3 SLOAD PUSH3 0x318 JUMP JUMPDEST PUSH3 0x355 JUMP JUMPDEST DUP3 PUSH1 0x1F DUP3 GT PUSH1 0x1 EQ PUSH3 0x285 JUMPI SWAP1 DUP1 PUSH3 0x20F SWAP4 SWAP3 PUSH3 0xFA SWAP11 SWAP12 PUSH1 0x0 SWAP3 PUSH3 0x279 JUMPI JUMPDEST POP POP DUP2 PUSH1 0x1 SHL SWAP2 PUSH1 0x0 NOT SWAP1 PUSH1 0x3 SHL SHR NOT AND OR PUSH1 0x3 SSTORE PUSH3 0x4B9 JUMP JUMPDEST PUSH3 0x21A DUP3 PUSH3 0xDF2 JUMP JUMPDEST PUSH2 0x120 MSTORE PUSH3 0x229 DUP4 PUSH3 0xF05 JUMP JUMPDEST PUSH2 0x140 MSTORE DUP2 MLOAD SWAP2 ADD KECCAK256 PUSH1 0xE0 MSTORE MLOAD SWAP1 KECCAK256 PUSH2 0x100 MSTORE CHAINID PUSH1 0xA0 MSTORE PUSH3 0x24A PUSH3 0x10B6 JUMP JUMPDEST PUSH1 0x80 MSTORE ADDRESS PUSH1 0xC0 MSTORE PUSH3 0x25C CALLER PUSH3 0x5AC JUMP JUMPDEST PUSH3 0x267 CALLER PUSH3 0x63F JUMP JUMPDEST PUSH3 0x272 CALLER PUSH3 0x6F7 JUMP JUMPDEST CALLER PUSH3 0x7BE JUMP JUMPDEST ADD MLOAD SWAP1 POP CODESIZE DUP1 PUSH3 0x1F4 JUMP JUMPDEST PUSH1 0x3 PUSH1 0x0 MSTORE PUSH1 0x1F NOT DUP3 AND SWAP10 PUSH32 0xC2575A0E9E593C00F959F8C92F12DB2869C3395A3B0502D05E2516446F71F85B SWAP11 PUSH1 0x0 JUMPDEST DUP2 DUP2 LT PUSH3 0x300 JUMPI POP SWAP11 PUSH1 0x1 SWAP3 DUP5 SWAP3 PUSH3 0x20F SWAP7 SWAP6 PUSH3 0xFA SWAP14 SWAP15 LT PUSH3 0x2E6 JUMPI JUMPDEST POP POP POP DUP2 SHL ADD PUSH1 0x3 SSTORE PUSH3 0x4B9 JUMP JUMPDEST ADD MLOAD PUSH1 0x0 NOT PUSH1 0xF8 DUP5 PUSH1 0x3 SHL AND SHR NOT AND SWAP1 SSTORE CODESIZE DUP1 DUP1 PUSH3 0x2D7 JUMP JUMPDEST DUP4 DUP4 ADD MLOAD DUP14 SSTORE PUSH1 0x1 SWAP1 SWAP13 ADD SWAP12 SWAP3 DUP7 ADD SWAP3 DUP7 ADD PUSH3 0x2B5 JUMP JUMPDEST SWAP1 PUSH1 0x1 DUP3 DUP2 SHR SWAP3 AND DUP1 ISZERO PUSH3 0x34A JUMPI JUMPDEST PUSH1 0x20 DUP4 LT EQ PUSH3 0x334 JUMPI JUMP JUMPDEST PUSH4 0x4E487B71 PUSH1 0xE0 SHL PUSH1 0x0 MSTORE PUSH1 0x22 PUSH1 0x4 MSTORE PUSH1 0x24 PUSH1 0x0 REVERT JUMPDEST SWAP2 PUSH1 0x7F AND SWAP2 PUSH3 0x328 JUMP JUMPDEST PUSH1 0x1F DUP2 GT PUSH3 0x362 JUMPI POP POP JUMP JUMPDEST PUSH1 0x0 SWAP1 PUSH1 0x3 DUP3 MSTORE PUSH1 0x20 DUP3 KECCAK256 SWAP1 PUSH1 0x20 PUSH1 0x1F DUP6 ADD PUSH1 0x5 SHR DUP4 ADD SWAP5 LT PUSH3 0x3A3 JUMPI JUMPDEST PUSH1 0x1F ADD PUSH1 0x5 SHR ADD SWAP2 JUMPDEST DUP3 DUP2 LT PUSH3 0x397 JUMPI POP POP POP JUMP JUMPDEST DUP2 DUP2 SSTORE PUSH1 0x1 ADD PUSH3 0x38A JUMP JUMPDEST SWAP1 SWAP3 POP DUP3 SWAP1 PUSH3 0x381 JUMP JUMPDEST PUSH1 0x1F DUP2 GT PUSH3 0x3BB JUMPI POP POP JUMP JUMPDEST PUSH1 0x0 SWAP1 PUSH1 0x4 DUP3 MSTORE PUSH1 0x20 DUP3 KECCAK256 SWAP1 PUSH1 0x20 PUSH1 0x1F DUP6 ADD PUSH1 0x5 SHR DUP4 ADD SWAP5 LT PUSH3 0x3FC JUMPI JUMPDEST PUSH1 0x1F ADD PUSH1 0x5 SHR ADD SWAP2 JUMPDEST DUP3 DUP2 LT PUSH3 0x3F0 JUMPI POP POP POP JUMP JUMPDEST DUP2 DUP2 SSTORE PUSH1 0x1 ADD PUSH3 0x3E3 JUMP JUMPDEST SWAP1 SWAP3 POP DUP3 SWAP1 PUSH3 0x3DA JUMP JUMPDEST PUSH1 0x1F DUP2 GT PUSH3 0x414 JUMPI POP POP JUMP JUMPDEST PUSH1 0x0 SWAP1 PUSH1 0x5 DUP3 MSTORE PUSH1 0x20 DUP3 KECCAK256 SWAP1 PUSH1 0x20 PUSH1 0x1F DUP6 ADD PUSH1 0x5 SHR DUP4 ADD SWAP5 LT PUSH3 0x455 JUMPI JUMPDEST PUSH1 0x1F ADD PUSH1 0x5 SHR ADD SWAP2 JUMPDEST DUP3 DUP2 LT PUSH3 0x449 JUMPI POP POP POP JUMP JUMPDEST DUP2 DUP2 SSTORE PUSH1 0x1 ADD PUSH3 0x43C JUMP JUMPDEST SWAP1 SWAP3 POP DUP3 SWAP1 PUSH3 0x433 JUMP JUMPDEST PUSH1 0x1F DUP2 GT PUSH3 0x46D JUMPI POP POP JUMP JUMPDEST PUSH1 0x0 SWAP1 PUSH1 0x6 DUP3 MSTORE PUSH1 0x20 DUP3 KECCAK256 SWAP1 PUSH1 0x20 PUSH1 0x1F DUP6 ADD PUSH1 0x5 SHR DUP4 ADD SWAP5 LT PUSH3 0x4AE JUMPI JUMPDEST PUSH1 0x1F ADD PUSH1 0x5 SHR ADD SWAP2 JUMPDEST DUP3 DUP2 LT PUSH3 0x4A2 JUMPI POP POP POP JUMP JUMPDEST DUP2 DUP2 SSTORE PUSH1 0x1 ADD PUSH3 0x495 JUMP JUMPDEST SWAP1 SWAP3 POP DUP3 SWAP1 PUSH3 0x48C JUMP JUMPDEST DUP1 MLOAD SWAP1 SWAP2 SWAP1 PUSH1 0x1 PUSH1 0x1 PUSH1 0x40 SHL SUB DUP2 GT PUSH3 0xC9 JUMPI PUSH3 0x4E5 DUP2 PUSH3 0x4DF PUSH1 0x4 SLOAD PUSH3 0x318 JUMP JUMPDEST PUSH3 0x3AE JUMP JUMPDEST PUSH1 0x20 DUP1 PUSH1 0x1F DUP4 GT PUSH1 0x1 EQ PUSH3 0x524 JUMPI POP DUP2 SWAP3 SWAP4 PUSH1 0x0 SWAP3 PUSH3 0x518 JUMPI JUMPDEST POP POP DUP2 PUSH1 0x1 SHL SWAP2 PUSH1 0x0 NOT SWAP1 PUSH1 0x3 SHL SHR NOT AND OR PUSH1 0x4 SSTORE JUMP JUMPDEST ADD MLOAD SWAP1 POP CODESIZE DUP1 PUSH3 0x501 JUMP JUMPDEST PUSH1 0x4 PUSH1 0x0 MSTORE PUSH1 0x1F NOT DUP4 AND SWAP5 SWAP1 SWAP2 SWAP1 PUSH32 0x8A35ACFBC15FF81A39AE7D344FD709F28E8600B4AA8C65C6B64BFE7FE36BD19B SWAP3 PUSH1 0x0 SWAP1 JUMPDEST DUP8 DUP3 LT PUSH3 0x593 JUMPI POP POP DUP4 PUSH1 0x1 SWAP6 SWAP7 LT PUSH3 0x579 JUMPI JUMPDEST POP POP POP DUP2 SHL ADD PUSH1 0x4 SSTORE JUMP JUMPDEST ADD MLOAD PUSH1 0x0 NOT PUSH1 0xF8 DUP5 PUSH1 0x3 SHL AND SHR NOT AND SWAP1 SSTORE CODESIZE DUP1 DUP1 PUSH3 0x56E JUMP JUMPDEST DUP1 PUSH1 0x1 DUP6 SWAP7 DUP3 SWAP5 SWAP7 DUP7 ADD MLOAD DUP2 SSTORE ADD SWAP6 ADD SWAP4 ADD SWAP1 PUSH3 0x558 JUMP JUMPDEST PUSH1 0x1 PUSH1 0x1 PUSH1 0xA0 SHL SUB DUP2 AND PUSH1 0x0 SWAP1 DUP2 MSTORE PUSH32 0x13649B2456F1B42FEF0F0040B3AAEABCD21A76A0F3F5DEFD4F583839455116E8 PUSH1 0x20 MSTORE PUSH1 0x40 DUP2 KECCAK256 SLOAD PUSH1 0xFF AND ISZERO PUSH3 0x5F1 JUMPI POP POP JUMP JUMPDEST DUP1 DUP1 MSTORE PUSH1 0xC PUSH1 0x20 SWAP1 DUP2 MSTORE PUSH1 0x40 DUP1 DUP4 KECCAK256 PUSH1 0x1 PUSH1 0x1 PUSH1 0xA0 SHL SUB DUP6 AND PUSH1 0x0 SWAP1 DUP2 MSTORE SWAP3 MSTORE SWAP1 KECCAK256 DUP1 SLOAD PUSH1 0xFF NOT AND PUSH1 0x1 OR SWAP1 SSTORE CALLER SWAP2 PUSH1 0x1 PUSH1 0x1 PUSH1 0xA0 SHL SUB AND SWAP1 PUSH1 0x0 DUP1 MLOAD PUSH1 0x20 PUSH3 0x41BB DUP4 CODECOPY DUP2 MLOAD SWAP2 MSTORE DUP2 DUP1 LOG4 JUMP JUMPDEST PUSH1 0x1 PUSH1 0x1 PUSH1 0xA0 SHL SUB DUP2 AND PUSH1 0x0 SWAP1 DUP2 MSTORE PUSH32 0x28716B1AC0502292C83929ABC9E37796CF2F7A586C58EC02E6CEEAC1B694CBC3 PUSH1 0x20 MSTORE PUSH1 0x40 DUP2 KECCAK256 PUSH32 0x9F2DF0FED2C77648DE5860A4CC508CD0818C85B8B8A1AB4CEEEF8D981C8956A6 SWAP1 PUSH1 0xFF SWAP1 JUMPDEST SLOAD AND ISZERO PUSH3 0x6A9 JUMPI POP POP POP JUMP JUMPDEST DUP1 DUP3 MSTORE PUSH1 0xC PUSH1 0x20 SWAP1 DUP2 MSTORE PUSH1 0x40 DUP1 DUP5 KECCAK256 PUSH1 0x1 PUSH1 0x1 PUSH1 0xA0 SHL SUB DUP7 AND PUSH1 0x0 SWAP1 DUP2 MSTORE SWAP3 MSTORE SWAP1 KECCAK256 DUP1 SLOAD PUSH1 0xFF NOT AND PUSH1 0x1 OR SWAP1 SSTORE CALLER SWAP3 PUSH1 0x1 PUSH1 0x1 PUSH1 0xA0 SHL SUB AND SWAP2 PUSH1 0x0 DUP1 MLOAD PUSH1 0x20 PUSH3 0x41BB DUP4 CODECOPY DUP2 MLOAD SWAP2 MSTORE SWAP1 DUP1 LOG4 JUMP JUMPDEST PUSH1 0x1 PUSH1 0x1 PUSH1 0xA0 SHL SUB DUP2 AND PUSH1 0x0 SWAP1 DUP2 MSTORE PUSH31 0x1CC5D77F691F3F29BD797D00FB54DBFCA601FC89D79085DFE95EE6241D87CB PUSH1 0x20 MSTORE PUSH1 0x40 DUP2 KECCAK256 PUSH32 0x3C11D16CBAFFD01DF69CE1C404F6340EE057498F5F00246190EA54220576A848 SWAP1 PUSH1 0xFF SWAP1 PUSH3 0x69C JUMP JUMPDEST ISZERO PUSH3 0x760 JUMPI JUMP JUMPDEST PUSH1 0x40 MLOAD PUSH3 0x461BCD PUSH1 0xE5 SHL DUP2 MSTORE PUSH1 0x20 PUSH1 0x4 DUP3 ADD MSTORE PUSH1 0x30 PUSH1 0x24 DUP3 ADD MSTORE PUSH32 0x4552433230566F7465733A20746F74616C20737570706C79207269736B73206F PUSH1 0x44 DUP3 ADD MSTORE PUSH16 0x766572666C6F77696E6720766F746573 PUSH1 0x80 SHL PUSH1 0x64 DUP3 ADD MSTORE PUSH1 0x84 SWAP1 REVERT JUMPDEST SWAP1 PUSH1 0x1 PUSH1 0x1 PUSH1 0xA0 SHL SUB DUP3 AND DUP1 ISZERO PUSH3 0x868 JUMPI PUSH1 0x2 SLOAD DUP3 DUP2 ADD DUP1 SWAP2 GT PUSH3 0x862 JUMPI PUSH3 0x85E SWAP4 PUSH3 0x840 SWAP3 PUSH3 0x7F3 DUP6 SWAP4 PUSH1 0x2 SSTORE JUMP JUMPDEST PUSH1 0x1 PUSH1 0x1 PUSH1 0xA0 SHL SUB DUP3 AND PUSH1 0x0 SWAP1 DUP2 MSTORE PUSH1 0x20 DUP2 DUP2 MSTORE PUSH1 0x40 DUP1 DUP4 KECCAK256 DUP1 SLOAD DUP8 ADD SWAP1 SSTORE MLOAD DUP6 DUP2 MSTORE PUSH32 0xDDF252AD1BE2C89B69C2B068FC378DAA952BA7F163C4A11628F55A4DF523B3EF SWAP2 SWAP1 LOG3 PUSH3 0x8C3 JUMP JUMPDEST PUSH1 0x2 SLOAD PUSH3 0x858 SWAP1 PUSH1 0x1 PUSH1 0x1 PUSH1 0xE0 SHL SUB LT ISZERO PUSH3 0x758 JUMP JUMPDEST PUSH3 0xADB JUMP JUMPDEST POP POP JUMP JUMPDEST PUSH3 0x8AD JUMP JUMPDEST PUSH1 0x40 MLOAD PUSH3 0x461BCD PUSH1 0xE5 SHL DUP2 MSTORE PUSH1 0x20 PUSH1 0x4 DUP3 ADD MSTORE PUSH1 0x1F PUSH1 0x24 DUP3 ADD MSTORE PUSH32 0x45524332303A206D696E7420746F20746865207A65726F206164647265737300 PUSH1 0x44 DUP3 ADD MSTORE PUSH1 0x64 SWAP1 REVERT JUMPDEST PUSH4 0x4E487B71 PUSH1 0xE0 SHL PUSH1 0x0 MSTORE PUSH1 0x11 PUSH1 0x4 MSTORE PUSH1 0x24 PUSH1 0x0 REVERT JUMPDEST PUSH1 0x9 PUSH1 0x20 MSTORE PUSH32 0xEC8156718A8372B1DB44BB411437D0870F3E3790D4A08526D024CE1B0B668F6B SLOAD PUSH1 0x1 PUSH1 0x1 PUSH1 0xA0 SHL SUB SWAP2 DUP3 AND PUSH1 0x0 SWAP1 DUP2 MSTORE PUSH1 0x40 DUP2 KECCAK256 SLOAD DUP4 AND SWAP4 SWAP3 SWAP1 SWAP2 AND SWAP1 DUP2 DUP5 EQ ISZERO DUP1 PUSH3 0x9C7 JUMPI JUMPDEST PUSH3 0x91E JUMPI JUMPDEST POP POP POP POP JUMP JUMPDEST DUP3 SWAP1 DUP3 PUSH3 0x986 JUMPI JUMPDEST POP POP POP DUP2 PUSH3 0x939 JUMPI JUMPDEST DUP1 DUP1 PUSH3 0x918 JUMP JUMPDEST PUSH1 0x1 PUSH1 0x1 PUSH1 0xA0 SHL SUB DUP3 AND PUSH1 0x0 SWAP1 DUP2 MSTORE PUSH1 0xA PUSH1 0x20 MSTORE PUSH1 0x40 SWAP1 KECCAK256 PUSH1 0x0 DUP1 MLOAD PUSH1 0x20 PUSH3 0x41DB DUP4 CODECOPY DUP2 MLOAD SWAP2 MSTORE SWAP2 PUSH3 0x96D SWAP2 PUSH3 0xD85 JUMP JUMPDEST PUSH1 0x40 DUP1 MLOAD SWAP3 DUP4 MSTORE PUSH1 0x20 DUP4 ADD SWAP2 SWAP1 SWAP2 MSTORE SWAP1 LOG2 CODESIZE DUP1 PUSH3 0x931 JUMP JUMPDEST PUSH1 0x0 DUP1 MLOAD PUSH1 0x20 PUSH3 0x41DB DUP4 CODECOPY DUP2 MLOAD SWAP2 MSTORE SWAP2 PUSH1 0x40 DUP3 DUP6 PUSH3 0x9AD SWAP5 MSTORE PUSH1 0xA PUSH1 0x20 MSTORE KECCAK256 PUSH3 0xC61 JUMP JUMPDEST PUSH1 0x40 DUP1 MLOAD SWAP3 DUP4 MSTORE PUSH1 0x20 DUP4 ADD SWAP2 SWAP1 SWAP2 MSTORE SWAP1 LOG2 CODESIZE DUP2 DUP2 PUSH3 0x927 JUMP JUMPDEST POP DUP3 ISZERO ISZERO PUSH3 0x912 JUMP JUMPDEST PUSH1 0x40 DUP1 MLOAD SWAP2 SWAP3 SWAP2 SWAP1 DUP2 ADD PUSH1 0x1 PUSH1 0x1 PUSH1 0x40 SHL SUB DUP2 GT DUP3 DUP3 LT OR PUSH3 0xC9 JUMPI PUSH1 0x40 MSTORE PUSH1 0x20 DUP2 SWAP4 SLOAD PUSH4 0xFFFFFFFF DUP2 AND DUP4 MSTORE DUP2 SHR SWAP2 ADD MSTORE JUMP JUMPDEST PUSH1 0xB SLOAD SWAP1 PUSH9 0x10000000000000000 DUP3 LT ISZERO PUSH3 0xC9 JUMPI PUSH1 0x1 DUP3 ADD DUP1 PUSH1 0xB SSTORE DUP3 LT ISZERO PUSH3 0xA74 JUMPI PUSH1 0xB PUSH1 0x0 MSTORE DUP1 MLOAD PUSH1 0x20 SWAP2 DUP3 ADD MLOAD SWAP1 SWAP2 SHL PUSH4 0xFFFFFFFF NOT AND PUSH4 0xFFFFFFFF SWAP2 SWAP1 SWAP2 AND OR PUSH32 0x175B7A638427703F0DBE7BB9BBF987A2551717B34E79F33B5B1008D1FA01DB9 SWAP1 SWAP2 ADD SSTORE JUMP JUMPDEST PUSH4 0x4E487B71 PUSH1 0xE0 SHL PUSH1 0x0 MSTORE PUSH1 0x32 PUSH1 0x4 MSTORE PUSH1 0x24 PUSH1 0x0 REVERT JUMPDEST SWAP1 DUP2 SLOAD PUSH9 0x10000000000000000 DUP2 LT ISZERO PUSH3 0xC9 JUMPI PUSH1 0x1 DUP2 ADD DUP1 DUP5 SSTORE DUP2 LT ISZERO PUSH3 0xA74 JUMPI PUSH1 0x0 SWAP3 DUP4 MSTORE PUSH1 0x20 SWAP3 DUP4 SWAP1 KECCAK256 DUP3 MLOAD SWAP3 DUP5 ADD MLOAD SWAP1 SWAP4 SHL PUSH4 0xFFFFFFFF NOT AND PUSH4 0xFFFFFFFF SWAP3 SWAP1 SWAP3 AND SWAP2 SWAP1 SWAP2 OR SWAP2 ADD SSTORE JUMP JUMPDEST PUSH1 0xB SLOAD SWAP1 SWAP2 DUP2 ISZERO SWAP2 DUP3 ISZERO PUSH3 0xC23 JUMPI PUSH3 0xAF4 PUSH3 0xEB JUMP JUMPDEST PUSH1 0x0 DUP2 MSTORE PUSH1 0x0 PUSH1 0x20 DUP3 ADD MSTORE JUMPDEST PUSH1 0x20 DUP2 ADD MLOAD PUSH3 0xB2D SWAP1 PUSH3 0xB25 SWAP1 PUSH1 0x1 PUSH1 0x1 PUSH1 0xE0 SHL SUB AND JUMPDEST PUSH1 0x1 PUSH1 0x1 PUSH1 0xE0 SHL SUB AND SWAP1 JUMP JUMPDEST SWAP6 DUP7 PUSH3 0x125A JUMP JUMPDEST SWAP4 ISZERO SWAP1 DUP2 PUSH3 0xBFC JUMPI JUMPDEST POP ISZERO PUSH3 0xB94 JUMPI PUSH3 0xFA SWAP1 PUSH3 0xB7D PUSH3 0xB52 DUP6 PUSH3 0x1122 JUMP JUMPDEST PUSH1 0xB PUSH1 0x0 MSTORE SWAP2 PUSH32 0x175B7A638427703F0DBE7BB9BBF987A2551717B34E79F33B5B1008D1FA01DB8 ADD SWAP1 JUMP JUMPDEST SWAP1 PUSH4 0xFFFFFFFF DUP3 SLOAD SWAP2 DUP2 NOT SWAP1 PUSH1 0x20 SHL AND SWAP2 AND OR SWAP1 SSTORE JUMP JUMPDEST POP PUSH3 0xFA PUSH3 0xBBD PUSH3 0xBB7 PUSH3 0xBAC NUMBER PUSH3 0x118C JUMP JUMPDEST PUSH6 0xFFFFFFFFFFFF AND SWAP1 JUMP JUMPDEST PUSH3 0x11F4 JUMP JUMPDEST PUSH3 0xBF6 PUSH3 0xBCC DUP6 PUSH3 0x1122 JUMP JUMPDEST PUSH3 0xBE6 PUSH3 0xBDA PUSH3 0xEB JUMP JUMPDEST PUSH4 0xFFFFFFFF SWAP1 SWAP5 AND DUP5 MSTORE JUMP JUMPDEST PUSH1 0x1 PUSH1 0x1 PUSH1 0xE0 SHL SUB AND PUSH1 0x20 DUP4 ADD MSTORE JUMP JUMPDEST PUSH3 0xA06 JUMP JUMPDEST MLOAD PUSH4 0xFFFFFFFF AND SWAP1 POP PUSH4 0xFFFFFFFF PUSH3 0xC19 PUSH3 0xBAC NUMBER PUSH3 0x118C JUMP JUMPDEST SWAP2 AND EQ CODESIZE PUSH3 0xB37 JUMP JUMPDEST PUSH1 0xB PUSH1 0x0 MSTORE PUSH3 0xC5B PUSH32 0x175B7A638427703F0DBE7BB9BBF987A2551717B34E79F33B5B1008D1FA01DB8 DUP3 ADD PUSH3 0x9D1 JUMP JUMPDEST PUSH3 0x9D1 JUMP JUMPDEST PUSH3 0xB00 JUMP JUMPDEST SWAP1 SWAP2 DUP2 SLOAD SWAP2 DUP3 ISZERO SWAP3 DUP4 PUSH1 0x0 EQ PUSH3 0xD65 JUMPI PUSH3 0xC7C PUSH3 0xEB JUMP JUMPDEST PUSH1 0x0 DUP2 MSTORE PUSH1 0x0 PUSH1 0x20 DUP3 ADD MSTORE JUMPDEST PUSH1 0x20 DUP2 ADD MLOAD PUSH3 0xCAE SWAP1 PUSH3 0xCA6 SWAP1 PUSH1 0x1 PUSH1 0x1 PUSH1 0xE0 SHL SUB AND PUSH3 0xB19 JUMP JUMPDEST SWAP7 DUP8 PUSH3 0x1268 JUMP JUMPDEST SWAP5 ISZERO SWAP1 DUP2 PUSH3 0xD3E JUMPI JUMPDEST POP ISZERO PUSH3 0xCE5 JUMPI PUSH3 0xB7D PUSH3 0xFA SWAP3 PUSH3 0xCD3 DUP7 PUSH3 0x1122 JUMP JUMPDEST SWAP3 PUSH1 0x0 NOT ADD SWAP1 PUSH1 0x0 MSTORE PUSH1 0x20 PUSH1 0x0 KECCAK256 ADD SWAP1 JUMP JUMPDEST POP PUSH3 0xFA SWAP1 PUSH3 0xCFE PUSH3 0xBB7 PUSH3 0xBAC NUMBER PUSH3 0x118C JUMP JUMPDEST SWAP1 PUSH3 0xD38 PUSH3 0xD0E DUP7 PUSH3 0x1122 JUMP JUMPDEST PUSH3 0xD28 PUSH3 0xD1C PUSH3 0xEB JUMP JUMPDEST PUSH4 0xFFFFFFFF SWAP1 SWAP6 AND DUP6 MSTORE JUMP JUMPDEST PUSH1 0x1 PUSH1 0x1 PUSH1 0xE0 SHL SUB AND PUSH1 0x20 DUP5 ADD MSTORE JUMP JUMPDEST PUSH3 0xA8A JUMP JUMPDEST MLOAD PUSH4 0xFFFFFFFF AND SWAP1 POP PUSH4 0xFFFFFFFF PUSH3 0xD5B PUSH3 0xBAC NUMBER PUSH3 0x118C JUMP JUMPDEST SWAP2 AND EQ CODESIZE PUSH3 0xCB8 JUMP JUMPDEST PUSH3 0xD7F PUSH3 0xC55 PUSH1 0x0 NOT DUP4 ADD DUP5 PUSH1 0x0 MSTORE PUSH1 0x20 PUSH1 0x0 KECCAK256 ADD SWAP1 JUMP JUMPDEST PUSH3 0xC88 JUMP JUMPDEST SWAP1 SWAP2 DUP2 SLOAD SWAP2 DUP3 ISZERO SWAP3 DUP4 PUSH1 0x0 EQ PUSH3 0xDD2 JUMPI PUSH3 0xDA0 PUSH3 0xEB JUMP JUMPDEST PUSH1 0x0 DUP2 MSTORE PUSH1 0x0 PUSH1 0x20 DUP3 ADD MSTORE JUMPDEST PUSH1 0x20 DUP2 ADD MLOAD PUSH3 0xCAE SWAP1 PUSH3 0xDCA SWAP1 PUSH1 0x1 PUSH1 0x1 PUSH1 0xE0 SHL SUB AND PUSH3 0xB19 JUMP JUMPDEST SWAP7 DUP8 PUSH3 0x125A JUMP JUMPDEST PUSH3 0xDEC PUSH3 0xC55 PUSH1 0x0 NOT DUP4 ADD DUP5 PUSH1 0x0 MSTORE PUSH1 0x20 PUSH1 0x0 KECCAK256 ADD SWAP1 JUMP JUMPDEST PUSH3 0xDAC JUMP JUMPDEST SWAP1 DUP2 MLOAD PUSH1 0x20 DUP1 DUP3 LT PUSH1 0x0 EQ PUSH3 0xE13 JUMPI POP POP SWAP1 PUSH3 0xE10 SWAP1 PUSH3 0x1039 JUMP JUMPDEST SWAP1 JUMP JUMPDEST PUSH1 0x1 PUSH1 0x1 PUSH1 0x40 SHL SUB DUP3 GT PUSH3 0xC9 JUMPI PUSH3 0xE3A DUP3 PUSH3 0xE34 PUSH1 0x5 SLOAD PUSH3 0x318 JUMP JUMPDEST PUSH3 0x407 JUMP JUMPDEST DUP1 PUSH1 0x1F DUP4 GT PUSH1 0x1 EQ PUSH3 0xE7A JUMPI POP DUP2 SWAP3 SWAP4 PUSH1 0x0 SWAP3 PUSH3 0xE6E JUMPI JUMPDEST POP POP DUP2 PUSH1 0x1 SHL SWAP2 PUSH1 0x0 NOT SWAP1 PUSH1 0x3 SHL SHR NOT AND OR PUSH1 0x5 SSTORE PUSH1 0xFF SWAP1 JUMP JUMPDEST ADD MLOAD SWAP1 POP CODESIZE DUP1 PUSH3 0xE54 JUMP JUMPDEST PUSH1 0x5 PUSH1 0x0 MSTORE PUSH1 0x1F NOT DUP4 AND SWAP5 SWAP1 SWAP2 SWAP1 PUSH32 0x36B6384B5ECA791C62761152D0C79BB0604C104A5FB6F4EB0703F3154BB3DB0 SWAP3 PUSH1 0x0 SWAP1 JUMPDEST DUP8 DUP3 LT PUSH3 0xEEC JUMPI POP POP DUP4 PUSH1 0x1 SWAP6 SWAP7 LT PUSH3 0xED2 JUMPI JUMPDEST POP POP POP DUP2 SHL ADD PUSH1 0x5 SSTORE PUSH1 0xFF SWAP1 JUMP JUMPDEST ADD MLOAD PUSH1 0x0 NOT PUSH1 0xF8 DUP5 PUSH1 0x3 SHL AND SHR NOT AND SWAP1 SSTORE CODESIZE DUP1 DUP1 PUSH3 0xEC4 JUMP JUMPDEST DUP1 PUSH1 0x1 DUP6 SWAP7 DUP3 SWAP5 SWAP7 DUP7 ADD MLOAD DUP2 SSTORE ADD SWAP6 ADD SWAP4 ADD SWAP1 PUSH3 0xEAE JUMP JUMPDEST SWAP1 DUP2 MLOAD PUSH1 0x20 DUP1 DUP3 LT PUSH1 0x0 EQ PUSH3 0xF23 JUMPI POP POP SWAP1 PUSH3 0xE10 SWAP1 PUSH3 0x1039 JUMP JUMPDEST PUSH1 0x1 PUSH1 0x1 PUSH1 0x40 SHL SUB DUP3 GT PUSH3 0xC9 JUMPI PUSH3 0xF4A DUP3 PUSH3 0xF44 PUSH1 0x6 SLOAD PUSH3 0x318 JUMP JUMPDEST PUSH3 0x460 JUMP JUMPDEST DUP1 PUSH1 0x1F DUP4 GT PUSH1 0x1 EQ PUSH3 0xF8A JUMPI POP DUP2 SWAP3 SWAP4 PUSH1 0x0 SWAP3 PUSH3 0xF7E JUMPI JUMPDEST POP POP DUP2 PUSH1 0x1 SHL SWAP2 PUSH1 0x0 NOT SWAP1 PUSH1 0x3 SHL SHR NOT AND OR PUSH1 0x6 SSTORE PUSH1 0xFF SWAP1 JUMP JUMPDEST ADD MLOAD SWAP1 POP CODESIZE DUP1 PUSH3 0xF64 JUMP JUMPDEST PUSH1 0x6 PUSH1 0x0 MSTORE PUSH1 0x1F NOT DUP4 AND SWAP5 SWAP1 SWAP2 SWAP1 PUSH32 0xF652222313E28459528D920B65115C16C04F3EFC82AAEDC97BE59F3F377C0D3F SWAP3 PUSH1 0x0 SWAP1 JUMPDEST DUP8 DUP3 LT PUSH3 0xFFC JUMPI POP POP DUP4 PUSH1 0x1 SWAP6 SWAP7 LT PUSH3 0xFE2 JUMPI JUMPDEST POP POP POP DUP2 SHL ADD PUSH1 0x6 SSTORE PUSH1 0xFF SWAP1 JUMP JUMPDEST ADD MLOAD PUSH1 0x0 NOT PUSH1 0xF8 DUP5 PUSH1 0x3 SHL AND SHR NOT AND SWAP1 SSTORE CODESIZE DUP1 DUP1 PUSH3 0xFD4 JUMP JUMPDEST DUP1 PUSH1 0x1 DUP6 SWAP7 DUP3 SWAP5 SWAP7 DUP7 ADD MLOAD DUP2 SSTORE ADD SWAP6 ADD SWAP4 ADD SWAP1 PUSH3 0xFBE JUMP JUMPDEST PUSH1 0x20 DUP2 MLOAD SWAP2 ADD MLOAD SWAP1 PUSH1 0x20 DUP2 LT PUSH3 0x102A JUMPI POP SWAP1 JUMP JUMPDEST PUSH1 0x0 NOT SWAP1 PUSH1 0x20 SUB PUSH1 0x3 SHL SHL AND SWAP1 JUMP JUMPDEST PUSH1 0x1F DUP2 MLOAD GT PUSH3 0x1054 JUMPI PUSH3 0x104E DUP2 PUSH3 0x1015 JUMP JUMPDEST SWAP1 MLOAD OR SWAP1 JUMP JUMPDEST PUSH1 0x40 MLOAD SWAP1 PUSH4 0x305A27A9 PUSH1 0xE0 SHL DUP3 MSTORE DUP2 PUSH1 0x20 DUP1 PUSH1 0x4 DUP4 ADD MSTORE DUP3 MLOAD SWAP1 DUP2 PUSH1 0x24 DUP5 ADD MSTORE PUSH1 0x0 SWAP4 JUMPDEST DUP3 DUP6 LT PUSH3 0x109C JUMPI POP POP PUSH1 0x44 SWAP3 POP PUSH1 0x0 DUP4 DUP3 DUP5 ADD ADD MSTORE PUSH1 0x1F DUP1 NOT SWAP2 ADD AND DUP2 ADD SUB ADD SWAP1 REVERT JUMPDEST DUP5 DUP2 ADD DUP3 ADD MLOAD DUP7 DUP7 ADD PUSH1 0x44 ADD MSTORE SWAP4 DUP2 ADD SWAP4 DUP6 SWAP4 POP PUSH3 0x1078 JUMP JUMPDEST PUSH1 0xE0 MLOAD PUSH2 0x100 MLOAD PUSH1 0x40 MLOAD SWAP1 PUSH1 0x20 DUP3 ADD SWAP3 PUSH32 0x8B73C3C69BB8FE3D512ECC4CF759CC79239F7B179B0FFACAA9A75D522B39400F DUP5 MSTORE PUSH1 0x40 DUP4 ADD MSTORE PUSH1 0x60 DUP3 ADD MSTORE CHAINID PUSH1 0x80 DUP3 ADD MSTORE ADDRESS PUSH1 0xA0 DUP3 ADD MSTORE PUSH1 0xA0 DUP2 MSTORE PUSH1 0xC0 DUP2 ADD DUP2 DUP2 LT PUSH1 0x1 DUP1 PUSH1 0x40 SHL SUB DUP3 GT OR PUSH3 0xC9 JUMPI PUSH1 0x40 MSTORE MLOAD SWAP1 KECCAK256 SWAP1 JUMP JUMPDEST PUSH1 0x1 PUSH1 0x1 PUSH1 0xE0 SHL SUB SWAP1 DUP2 DUP2 GT PUSH3 0x1137 JUMPI AND SWAP1 JUMP JUMPDEST PUSH1 0x40 MLOAD PUSH3 0x461BCD PUSH1 0xE5 SHL DUP2 MSTORE PUSH1 0x20 PUSH1 0x4 DUP3 ADD MSTORE PUSH1 0x27 PUSH1 0x24 DUP3 ADD MSTORE PUSH32 0x53616665436173743A2076616C756520646F65736E27742066697420696E2032 PUSH1 0x44 DUP3 ADD MSTORE PUSH7 0x32342062697473 PUSH1 0xC8 SHL PUSH1 0x64 DUP3 ADD MSTORE PUSH1 0x84 SWAP1 REVERT JUMPDEST PUSH6 0xFFFFFFFFFFFF SWAP1 DUP2 DUP2 GT PUSH3 0x11A0 JUMPI AND SWAP1 JUMP JUMPDEST PUSH1 0x40 MLOAD PUSH3 0x461BCD PUSH1 0xE5 SHL DUP2 MSTORE PUSH1 0x20 PUSH1 0x4 DUP3 ADD MSTORE PUSH1 0x26 PUSH1 0x24 DUP3 ADD MSTORE PUSH32 0x53616665436173743A2076616C756520646F65736E27742066697420696E2034 PUSH1 0x44 DUP3 ADD MSTORE PUSH6 0x382062697473 PUSH1 0xD0 SHL PUSH1 0x64 DUP3 ADD MSTORE PUSH1 0x84 SWAP1 REVERT JUMPDEST PUSH4 0xFFFFFFFF SWAP1 DUP2 DUP2 GT PUSH3 0x1206 JUMPI AND SWAP1 JUMP JUMPDEST PUSH1 0x40 MLOAD PUSH3 0x461BCD PUSH1 0xE5 SHL DUP2 MSTORE PUSH1 0x20 PUSH1 0x4 DUP3 ADD MSTORE PUSH1 0x26 PUSH1 0x24 DUP3 ADD MSTORE PUSH32 0x53616665436173743A2076616C756520646F65736E27742066697420696E2033 PUSH1 0x44 DUP3 ADD MSTORE PUSH6 0x322062697473 PUSH1 0xD0 SHL PUSH1 0x64 DUP3 ADD MSTORE PUSH1 0x84 SWAP1 REVERT JUMPDEST SWAP1 DUP2 ADD DUP1 SWAP2 GT PUSH3 0x862 JUMPI SWAP1 JUMP JUMPDEST SWAP1 DUP2 SUB SWAP1 DUP2 GT PUSH3 0x862 JUMPI SWAP1 JUMP INVALID PUSH1 0x80 PUSH1 0x40 MSTORE PUSH1 0x4 CALLDATASIZE LT ISZERO PUSH2 0x12 JUMPI PUSH1 0x0 DUP1 REVERT JUMPDEST PUSH1 0x0 CALLDATALOAD PUSH1 0xE0 SHR DUP1 PUSH4 0x1FFC9A7 EQ PUSH2 0x267 JUMPI DUP1 PUSH4 0x6FDDE03 EQ PUSH2 0x262 JUMPI DUP1 PUSH4 0x95EA7B3 EQ PUSH2 0x25D JUMPI DUP1 PUSH4 0x18160DDD EQ PUSH2 0x258 JUMPI DUP1 PUSH4 0x23B872DD EQ PUSH2 0x253 JUMPI DUP1 PUSH4 0x248A9CA3 EQ PUSH2 0x24E JUMPI DUP1 PUSH4 0x282C51F3 EQ PUSH2 0x249 JUMPI DUP1 PUSH4 0x2F2FF15D EQ PUSH2 0x244 JUMPI DUP1 PUSH4 0x313CE567 EQ PUSH2 0x23F JUMPI DUP1 PUSH4 0x3644E515 EQ PUSH2 0x23A JUMPI DUP1 PUSH4 0x36568ABE EQ PUSH2 0x235 JUMPI DUP1 PUSH4 0x39509351 EQ PUSH2 0x230 JUMPI DUP1 PUSH4 0x3A46B1A8 EQ PUSH2 0x22B JUMPI DUP1 PUSH4 0x40C10F19 EQ PUSH2 0x226 JUMPI DUP1 PUSH4 0x42966C68 EQ PUSH2 0x221 JUMPI DUP1 PUSH4 0x4BF5D7E9 EQ PUSH2 0x21C JUMPI DUP1 PUSH4 0x587CDE1E EQ PUSH2 0x217 JUMPI DUP1 PUSH4 0x5C19A95C EQ PUSH2 0x212 JUMPI DUP1 PUSH4 0x6FCFFF45 EQ PUSH2 0x20D JUMPI DUP1 PUSH4 0x70A08231 EQ PUSH2 0x208 JUMPI DUP1 PUSH4 0x79CC6790 EQ PUSH2 0x203 JUMPI DUP1 PUSH4 0x7ECEBE00 EQ PUSH2 0x1FE JUMPI DUP1 PUSH4 0x84B0196E EQ PUSH2 0x1F9 JUMPI DUP1 PUSH4 0x8E539E8C EQ PUSH2 0x1F4 JUMPI DUP1 PUSH4 0x91D14854 EQ PUSH2 0x1EF JUMPI DUP1 PUSH4 0x91DDADF4 EQ PUSH2 0x1EA JUMPI DUP1 PUSH4 0x95D89B41 EQ PUSH2 0x1E5 JUMPI DUP1 PUSH4 0x9AB24EB0 EQ PUSH2 0x1E0 JUMPI DUP1 PUSH4 0xA217FDDF EQ PUSH2 0x1DB JUMPI DUP1 PUSH4 0xA457C2D7 EQ PUSH2 0x1D6 JUMPI DUP1 PUSH4 0xA9059CBB EQ PUSH2 0x1D1 JUMPI DUP1 PUSH4 0xC3CDA520 EQ PUSH2 0x1CC JUMPI DUP1 PUSH4 0xD505ACCF EQ PUSH2 0x1C7 JUMPI DUP1 PUSH4 0xD5391393 EQ PUSH2 0x1C2 JUMPI DUP1 PUSH4 0xD547741F EQ PUSH2 0x1BD JUMPI DUP1 PUSH4 0xDD62ED3E EQ PUSH2 0x1B8 JUMPI PUSH4 0xF1127ED8 EQ PUSH2 0x1B3 JUMPI PUSH1 0x0 DUP1 REVERT JUMPDEST PUSH2 0x1409 JUMP JUMPDEST PUSH2 0x13B1 JUMP JUMPDEST PUSH2 0x1372 JUMP JUMPDEST PUSH2 0x1337 JUMP JUMPDEST PUSH2 0x11F1 JUMP JUMPDEST PUSH2 0x10C6 JUMP JUMPDEST PUSH2 0x1080 JUMP JUMPDEST PUSH2 0xFC6 JUMP JUMPDEST PUSH2 0xFAA JUMP JUMPDEST PUSH2 0xF48 JUMP JUMPDEST PUSH2 0xEA1 JUMP JUMPDEST PUSH2 0xE75 JUMP JUMPDEST PUSH2 0xE23 JUMP JUMPDEST PUSH2 0xD33 JUMP JUMPDEST PUSH2 0xC3B JUMP JUMPDEST PUSH2 0xC01 JUMP JUMPDEST PUSH2 0xB8E JUMP JUMPDEST PUSH2 0xB54 JUMP JUMPDEST PUSH2 0xB0C JUMP JUMPDEST PUSH2 0xAEA JUMP JUMPDEST PUSH2 0xAAF JUMP JUMPDEST PUSH2 0x9FD JUMP JUMPDEST PUSH2 0x9A7 JUMP JUMPDEST PUSH2 0x865 JUMP JUMPDEST PUSH2 0x714 JUMP JUMPDEST PUSH2 0x6BC JUMP JUMPDEST PUSH2 0x628 JUMP JUMPDEST PUSH2 0x605 JUMP JUMPDEST PUSH2 0x5E9 JUMP JUMPDEST PUSH2 0x520 JUMP JUMPDEST PUSH2 0x4E5 JUMP JUMPDEST PUSH2 0x4B6 JUMP JUMPDEST PUSH2 0x47E JUMP JUMPDEST PUSH2 0x460 JUMP JUMPDEST PUSH2 0x42F JUMP JUMPDEST PUSH2 0x31E JUMP JUMPDEST CALLVALUE PUSH2 0x2BD JUMPI PUSH1 0x20 CALLDATASIZE PUSH1 0x3 NOT ADD SLT PUSH2 0x2BD JUMPI PUSH1 0x4 CALLDATALOAD PUSH4 0xFFFFFFFF PUSH1 0xE0 SHL DUP2 AND DUP1 SWAP2 SUB PUSH2 0x2BD JUMPI PUSH1 0x20 SWAP1 PUSH4 0x7965DB0B PUSH1 0xE0 SHL DUP2 EQ SWAP1 DUP2 ISZERO PUSH2 0x2AC JUMPI JUMPDEST POP PUSH1 0x40 MLOAD SWAP1 ISZERO ISZERO DUP2 MSTORE RETURN JUMPDEST PUSH4 0x1FFC9A7 PUSH1 0xE0 SHL EQ SWAP1 POP CODESIZE PUSH2 0x2A1 JUMP JUMPDEST PUSH1 0x0 DUP1 REVERT JUMPDEST PUSH1 0x0 JUMPDEST DUP4 DUP2 LT PUSH2 0x2D5 JUMPI POP POP PUSH1 0x0 SWAP2 ADD MSTORE JUMP JUMPDEST DUP2 DUP2 ADD MLOAD DUP4 DUP3 ADD MSTORE PUSH1 0x20 ADD PUSH2 0x2C5 JUMP JUMPDEST SWAP1 PUSH1 0x20 SWAP2 PUSH2 0x2FE DUP2 MLOAD DUP1 SWAP3 DUP2 DUP6 MSTORE DUP6 DUP1 DUP7 ADD SWAP2 ADD PUSH2 0x2C2 JUMP JUMPDEST PUSH1 0x1F ADD PUSH1 0x1F NOT AND ADD ADD SWAP1 JUMP JUMPDEST SWAP1 PUSH1 0x20 PUSH2 0x31B SWAP3 DUP2 DUP2 MSTORE ADD SWAP1 PUSH2 0x2E5 JUMP JUMPDEST SWAP1 JUMP JUMPDEST CALLVALUE PUSH2 0x2BD JUMPI PUSH1 0x0 DUP1 PUSH1 0x3 NOT CALLDATASIZE ADD SLT PUSH2 0x400 JUMPI PUSH1 0x40 MLOAD SWAP1 DUP1 PUSH1 0x3 SLOAD PUSH2 0x341 DUP2 PUSH2 0x17B9 JUMP JUMPDEST DUP1 DUP6 MSTORE SWAP2 PUSH1 0x1 SWAP2 DUP1 DUP4 AND SWAP1 DUP2 ISZERO PUSH2 0x3D6 JUMPI POP PUSH1 0x1 EQ PUSH2 0x37B JUMPI JUMPDEST PUSH2 0x377 DUP6 PUSH2 0x36B DUP2 DUP8 SUB DUP3 PUSH2 0x1704 JUMP JUMPDEST PUSH1 0x40 MLOAD SWAP2 DUP3 SWAP2 DUP3 PUSH2 0x30A JUMP JUMPDEST SUB SWAP1 RETURN JUMPDEST SWAP3 POP PUSH1 0x3 DUP4 MSTORE PUSH32 0xC2575A0E9E593C00F959F8C92F12DB2869C3395A3B0502D05E2516446F71F85B JUMPDEST DUP3 DUP5 LT PUSH2 0x3BE JUMPI POP POP POP DUP2 ADD PUSH1 0x20 ADD PUSH2 0x36B DUP3 PUSH2 0x377 PUSH2 0x35B JUMP JUMPDEST DUP1 SLOAD PUSH1 0x20 DUP6 DUP8 ADD DUP2 ADD SWAP2 SWAP1 SWAP2 MSTORE SWAP1 SWAP4 ADD SWAP3 DUP2 ADD PUSH2 0x3A3 JUMP JUMPDEST DUP7 SWAP6 POP PUSH2 0x377 SWAP7 SWAP4 POP PUSH1 0x20 SWAP3 POP PUSH2 0x36B SWAP5 SWAP2 POP PUSH1 0xFF NOT AND DUP3 DUP5 ADD MSTORE ISZERO ISZERO PUSH1 0x5 SHL DUP3 ADD ADD SWAP3 SWAP4 PUSH2 0x35B JUMP JUMPDEST DUP1 REVERT JUMPDEST PUSH1 0x4 CALLDATALOAD SWAP1 PUSH1 0x1 PUSH1 0x1 PUSH1 0xA0 SHL SUB DUP3 AND DUP3 SUB PUSH2 0x2BD JUMPI JUMP JUMPDEST PUSH1 0x24 CALLDATALOAD SWAP1 PUSH1 0x1 PUSH1 0x1 PUSH1 0xA0 SHL SUB DUP3 AND DUP3 SUB PUSH2 0x2BD JUMPI JUMP JUMPDEST CALLVALUE PUSH2 0x2BD JUMPI PUSH1 0x40 CALLDATASIZE PUSH1 0x3 NOT ADD SLT PUSH2 0x2BD JUMPI PUSH2 0x455 PUSH2 0x44B PUSH2 0x403 JUMP JUMPDEST PUSH1 0x24 CALLDATALOAD SWAP1 CALLER PUSH2 0x19E5 JUMP JUMPDEST PUSH1 0x20 PUSH1 0x40 MLOAD PUSH1 0x1 DUP2 MSTORE RETURN JUMPDEST CALLVALUE PUSH2 0x2BD JUMPI PUSH1 0x0 CALLDATASIZE PUSH1 0x3 NOT ADD SLT PUSH2 0x2BD JUMPI PUSH1 0x20 PUSH1 0x2 SLOAD PUSH1 0x40 MLOAD SWAP1 DUP2 MSTORE RETURN JUMPDEST CALLVALUE PUSH2 0x2BD JUMPI PUSH1 0x60 CALLDATASIZE PUSH1 0x3 NOT ADD SLT PUSH2 0x2BD JUMPI PUSH2 0x455 PUSH2 0x49A PUSH2 0x403 JUMP JUMPDEST PUSH2 0x4A2 PUSH2 0x419 JUMP JUMPDEST PUSH1 0x44 CALLDATALOAD SWAP2 PUSH2 0x4B1 DUP4 CALLER DUP4 PUSH2 0x1B15 JUMP JUMPDEST PUSH2 0x18D7 JUMP JUMPDEST CALLVALUE PUSH2 0x2BD JUMPI PUSH1 0x20 CALLDATASIZE PUSH1 0x3 NOT ADD SLT PUSH2 0x2BD JUMPI PUSH1 0x4 CALLDATALOAD PUSH1 0x0 MSTORE PUSH1 0xC PUSH1 0x20 MSTORE PUSH1 0x20 PUSH1 0x1 PUSH1 0x40 PUSH1 0x0 KECCAK256 ADD SLOAD PUSH1 0x40 MLOAD SWAP1 DUP2 MSTORE RETURN JUMPDEST CALLVALUE PUSH2 0x2BD JUMPI PUSH1 0x0 CALLDATASIZE PUSH1 0x3 NOT ADD SLT PUSH2 0x2BD JUMPI PUSH1 0x20 PUSH1 0x40 MLOAD PUSH32 0x3C11D16CBAFFD01DF69CE1C404F6340EE057498F5F00246190EA54220576A848 DUP2 MSTORE RETURN JUMPDEST CALLVALUE PUSH2 0x2BD JUMPI PUSH1 0x40 CALLDATASIZE PUSH1 0x3 NOT ADD SLT PUSH2 0x2BD JUMPI PUSH1 0x4 CALLDATALOAD PUSH2 0x53C PUSH2 0x419 JUMP JUMPDEST PUSH1 0x0 SWAP2 DUP1 DUP4 MSTORE PUSH1 0xC PUSH1 0x20 MSTORE PUSH2 0x557 PUSH1 0x1 PUSH1 0x40 DUP6 KECCAK256 ADD SLOAD PUSH2 0x15C6 JUMP JUMPDEST DUP1 DUP4 MSTORE PUSH1 0xC PUSH1 0x20 SWAP1 DUP2 MSTORE PUSH1 0x40 DUP1 DUP6 KECCAK256 PUSH1 0x1 PUSH1 0x1 PUSH1 0xA0 SHL SUB DUP6 AND PUSH1 0x0 SWAP1 DUP2 MSTORE SWAP3 MSTORE SWAP1 KECCAK256 SLOAD PUSH1 0xFF AND ISZERO PUSH2 0x586 JUMPI DUP3 DUP1 RETURN JUMPDEST DUP1 DUP4 MSTORE PUSH1 0xC PUSH1 0x20 SWAP1 DUP2 MSTORE PUSH1 0x40 DUP1 DUP6 KECCAK256 PUSH1 0x1 PUSH1 0x1 PUSH1 0xA0 SHL SUB DUP6 AND PUSH1 0x0 SWAP1 DUP2 MSTORE SWAP3 MSTORE SWAP1 KECCAK256 DUP1 SLOAD PUSH1 0xFF NOT AND PUSH1 0x1 OR SWAP1 SSTORE CALLER SWAP2 PUSH1 0x1 PUSH1 0x1 PUSH1 0xA0 SHL SUB AND SWAP1 PUSH32 0x2F8788117E7EFF1D82E926EC794901D17C78024A50270940304540A733656F0D DUP5 DUP1 LOG4 CODESIZE DUP1 DUP3 DUP1 RETURN JUMPDEST CALLVALUE PUSH2 0x2BD JUMPI PUSH1 0x0 CALLDATASIZE PUSH1 0x3 NOT ADD SLT PUSH2 0x2BD JUMPI PUSH1 0x20 PUSH1 0x40 MLOAD PUSH1 0x12 DUP2 MSTORE RETURN JUMPDEST CALLVALUE PUSH2 0x2BD JUMPI PUSH1 0x0 CALLDATASIZE PUSH1 0x3 NOT ADD SLT PUSH2 0x2BD JUMPI PUSH1 0x20 PUSH2 0x620 PUSH2 0x278E JUMP JUMPDEST PUSH1 0x40 MLOAD SWAP1 DUP2 MSTORE RETURN JUMPDEST CALLVALUE PUSH2 0x2BD JUMPI PUSH1 0x40 CALLDATASIZE PUSH1 0x3 NOT ADD SLT PUSH2 0x2BD JUMPI PUSH2 0x641 PUSH2 0x419 JUMP JUMPDEST CALLER PUSH1 0x1 PUSH1 0x1 PUSH1 0xA0 SHL SUB DUP3 AND SUB PUSH2 0x65F JUMPI PUSH2 0x65D SWAP1 PUSH1 0x4 CALLDATALOAD PUSH2 0x1726 JUMP JUMPDEST STOP JUMPDEST PUSH1 0x40 MLOAD PUSH3 0x461BCD PUSH1 0xE5 SHL DUP2 MSTORE PUSH1 0x20 PUSH1 0x4 DUP3 ADD MSTORE PUSH1 0x2F PUSH1 0x24 DUP3 ADD MSTORE PUSH32 0x416363657373436F6E74726F6C3A2063616E206F6E6C792072656E6F756E6365 PUSH1 0x44 DUP3 ADD MSTORE PUSH15 0x103937B632B9903337B91039B2B633 PUSH1 0x89 SHL PUSH1 0x64 DUP3 ADD MSTORE PUSH1 0x84 SWAP1 REVERT JUMPDEST CALLVALUE PUSH2 0x2BD JUMPI PUSH1 0x40 CALLDATASIZE PUSH1 0x3 NOT ADD SLT PUSH2 0x2BD JUMPI PUSH2 0x6D5 PUSH2 0x403 JUMP JUMPDEST CALLER PUSH1 0x0 SWAP1 DUP2 MSTORE PUSH1 0x1 PUSH1 0x20 SWAP1 DUP2 MSTORE PUSH1 0x40 DUP1 DUP4 KECCAK256 PUSH1 0x1 PUSH1 0x1 PUSH1 0xA0 SHL SUB DUP6 AND DUP5 MSTORE SWAP1 SWAP2 MSTORE SWAP1 KECCAK256 SLOAD PUSH1 0x24 CALLDATALOAD DUP2 ADD DUP1 SWAP2 GT PUSH2 0x70F JUMPI PUSH2 0x455 SWAP2 CALLER PUSH2 0x19E5 JUMP JUMPDEST PUSH2 0x17F3 JUMP JUMPDEST CALLVALUE PUSH2 0x2BD JUMPI PUSH1 0x40 CALLDATASIZE PUSH1 0x3 NOT ADD SLT PUSH2 0x2BD JUMPI PUSH2 0x72D PUSH2 0x403 JUMP JUMPDEST PUSH1 0x24 CALLDATALOAD SWAP1 PUSH2 0x74C PUSH6 0xFFFFFFFFFFFF PUSH2 0x744 NUMBER PUSH2 0x2C71 JUMP JUMPDEST AND DUP4 LT PUSH2 0x1C57 JUMP JUMPDEST PUSH1 0x1 PUSH1 0x1 PUSH1 0xA0 SHL SUB AND PUSH1 0x0 SWAP1 DUP2 MSTORE PUSH1 0xA PUSH1 0x20 MSTORE PUSH1 0x40 DUP2 KECCAK256 DUP1 SLOAD SWAP3 SWAP1 SWAP2 DUP4 PUSH1 0x5 DUP2 GT PUSH2 0x814 JUMPI JUMPDEST POP SWAP1 JUMPDEST DUP4 DUP3 LT PUSH2 0x7C3 JUMPI POP POP DUP2 PUSH2 0x79C JUMPI POP POP PUSH1 0x20 PUSH1 0x0 JUMPDEST PUSH1 0x40 MLOAD PUSH1 0x1 PUSH1 0x1 PUSH1 0xE0 SHL SUB SWAP1 SWAP2 AND DUP2 MSTORE RETURN JUMPDEST PUSH2 0x7B7 PUSH2 0x7BE SWAP2 PUSH1 0x20 SWAP4 PUSH1 0x0 NOT ADD SWAP1 PUSH1 0x0 MSTORE PUSH1 0x20 PUSH1 0x0 KECCAK256 ADD SWAP1 JUMP JUMPDEST SLOAD PUSH1 0x20 SHR SWAP1 JUMP JUMPDEST PUSH2 0x78A JUMP JUMPDEST SWAP1 SWAP3 PUSH2 0x7CF DUP2 DUP6 PUSH2 0x2AA1 JUMP JUMPDEST SWAP1 DUP3 PUSH4 0xFFFFFFFF PUSH2 0x7F4 PUSH2 0x7EA DUP6 DUP9 PUSH1 0x0 MSTORE PUSH1 0x20 PUSH1 0x0 KECCAK256 ADD SWAP1 JUMP JUMPDEST SLOAD PUSH4 0xFFFFFFFF AND SWAP1 JUMP JUMPDEST AND GT ISZERO PUSH2 0x804 JUMPI POP SWAP3 JUMPDEST SWAP1 PUSH2 0x775 JUMP JUMPDEST SWAP4 POP PUSH2 0x80F SWAP1 PUSH2 0x1809 JUMP JUMPDEST PUSH2 0x7FE JUMP JUMPDEST DUP1 PUSH2 0x824 PUSH2 0x82A SWAP3 SWAP7 SWAP4 SWAP7 PUSH2 0x2AB6 JUMP JUMPDEST SWAP1 PUSH2 0x1CA3 JUMP JUMPDEST SWAP1 DUP3 PUSH4 0xFFFFFFFF PUSH2 0x845 PUSH2 0x7EA DUP6 DUP9 PUSH1 0x0 MSTORE PUSH1 0x20 PUSH1 0x0 KECCAK256 ADD SWAP1 JUMP JUMPDEST AND GT ISZERO PUSH2 0x855 JUMPI POP SWAP3 JUMPDEST CODESIZE PUSH2 0x772 JUMP JUMPDEST SWAP4 POP PUSH2 0x860 SWAP1 PUSH2 0x1809 JUMP JUMPDEST PUSH2 0x84F JUMP JUMPDEST CALLVALUE PUSH2 0x2BD JUMPI PUSH1 0x40 CALLDATASIZE PUSH1 0x3 NOT ADD SLT PUSH2 0x2BD JUMPI PUSH2 0x87E PUSH2 0x403 JUMP JUMPDEST PUSH1 0x24 CALLDATALOAD SWAP1 PUSH2 0x88A PUSH2 0x1490 JUMP JUMPDEST PUSH1 0x1 PUSH1 0x1 PUSH1 0xA0 SHL SUB DUP2 AND SWAP1 DUP2 ISZERO PUSH2 0x962 JUMPI DUP3 PUSH2 0x911 SWAP2 PUSH2 0x8B4 PUSH2 0x8AF DUP4 PUSH1 0x2 SLOAD PUSH2 0x1817 JUMP JUMPDEST PUSH1 0x2 SSTORE JUMP JUMPDEST PUSH1 0x1 PUSH1 0x1 PUSH1 0xA0 SHL SUB DUP2 AND PUSH1 0x0 SWAP1 DUP2 MSTORE PUSH1 0x20 DUP2 SWAP1 MSTORE PUSH1 0x40 SWAP1 KECCAK256 DUP3 DUP2 SLOAD ADD SWAP1 SSTORE DUP4 PUSH1 0x0 PUSH32 0xDDF252AD1BE2C89B69C2B068FC378DAA952BA7F163C4A11628F55A4DF523B3EF PUSH1 0x40 MLOAD DUP1 PUSH2 0x909 DUP8 DUP3 SWAP2 SWAP1 PUSH1 0x20 DUP4 ADD SWAP3 MSTORE JUMP JUMPDEST SUB SWAP1 LOG3 PUSH2 0x1CFC JUMP JUMPDEST PUSH1 0x2 SLOAD PUSH2 0x927 SWAP1 PUSH1 0x1 PUSH1 0x1 PUSH1 0xE0 SHL SUB LT ISZERO PUSH2 0x2D3D JUMP JUMPDEST PUSH2 0x930 DUP3 PUSH2 0x2117 JUMP JUMPDEST POP POP PUSH1 0x40 MLOAD SWAP2 DUP3 MSTORE CALLER SWAP2 PUSH32 0x6703B91408AC4E5359864141DEAFD5B7123597226DD89819D2D13ECAEA67655A SWAP1 PUSH1 0x20 SWAP1 LOG3 STOP JUMPDEST PUSH1 0x40 MLOAD PUSH3 0x461BCD PUSH1 0xE5 SHL DUP2 MSTORE PUSH1 0x20 PUSH1 0x4 DUP3 ADD MSTORE PUSH1 0x1F PUSH1 0x24 DUP3 ADD MSTORE PUSH32 0x45524332303A206D696E7420746F20746865207A65726F206164647265737300 PUSH1 0x44 DUP3 ADD MSTORE PUSH1 0x64 SWAP1 REVERT JUMPDEST CALLVALUE PUSH2 0x2BD JUMPI PUSH1 0x20 CALLDATASIZE PUSH1 0x3 NOT ADD SLT PUSH2 0x2BD JUMPI PUSH1 0x4 CALLDATALOAD PUSH2 0x9C3 PUSH2 0x1572 JUMP JUMPDEST PUSH2 0x9CD DUP2 CALLER PUSH2 0x2DA2 JUMP JUMPDEST PUSH1 0x40 MLOAD SWAP1 DUP2 MSTORE CALLER SWAP1 PUSH32 0xF6FE6DF77B383BC86273AE6628679C19D5DA8F27700CF72CD4DDABE45E9E23CE PUSH1 0x20 CALLER SWAP3 LOG3 STOP JUMPDEST CALLVALUE PUSH2 0x2BD JUMPI PUSH1 0x0 CALLDATASIZE PUSH1 0x3 NOT ADD SLT PUSH2 0x2BD JUMPI NUMBER PUSH6 0xFFFFFFFFFFFF PUSH2 0xA1F NUMBER PUSH2 0x2C71 JUMP JUMPDEST AND SUB PUSH2 0xA6A JUMPI PUSH2 0x377 PUSH1 0x40 MLOAD PUSH2 0xA34 DUP2 PUSH2 0x16AB JUMP JUMPDEST PUSH1 0x1D DUP2 MSTORE PUSH32 0x6D6F64653D626C6F636B6E756D6265722666726F6D3D64656661756C74000000 PUSH1 0x20 DUP3 ADD MSTORE PUSH1 0x40 MLOAD SWAP2 DUP3 SWAP2 DUP3 PUSH2 0x30A JUMP JUMPDEST PUSH1 0x40 MLOAD PUSH3 0x461BCD PUSH1 0xE5 SHL DUP2 MSTORE PUSH1 0x20 PUSH1 0x4 DUP3 ADD MSTORE PUSH1 0x1D PUSH1 0x24 DUP3 ADD MSTORE PUSH32 0x4552433230566F7465733A2062726F6B656E20636C6F636B206D6F6465000000 PUSH1 0x44 DUP3 ADD MSTORE PUSH1 0x64 SWAP1 REVERT JUMPDEST CALLVALUE PUSH2 0x2BD JUMPI PUSH1 0x20 CALLDATASIZE PUSH1 0x3 NOT ADD SLT PUSH2 0x2BD JUMPI PUSH1 0x20 PUSH1 0x1 PUSH1 0x1 PUSH1 0xA0 SHL SUB DUP1 PUSH2 0xAD3 PUSH2 0x403 JUMP JUMPDEST AND PUSH1 0x0 MSTORE PUSH1 0x9 DUP3 MSTORE PUSH1 0x40 PUSH1 0x0 KECCAK256 SLOAD AND PUSH1 0x40 MLOAD SWAP1 DUP2 MSTORE RETURN JUMPDEST CALLVALUE PUSH2 0x2BD JUMPI PUSH1 0x20 CALLDATASIZE PUSH1 0x3 NOT ADD SLT PUSH2 0x2BD JUMPI PUSH2 0x65D PUSH2 0xB06 PUSH2 0x403 JUMP JUMPDEST CALLER PUSH2 0x1DC7 JUMP JUMPDEST CALLVALUE PUSH2 0x2BD JUMPI PUSH1 0x20 CALLDATASIZE PUSH1 0x3 NOT ADD SLT PUSH2 0x2BD JUMPI PUSH1 0x1 PUSH1 0x1 PUSH1 0xA0 SHL SUB PUSH2 0xB2D PUSH2 0x403 JUMP JUMPDEST AND PUSH1 0x0 MSTORE PUSH1 0xA PUSH1 0x20 MSTORE PUSH1 0x20 PUSH2 0xB46 PUSH1 0x40 PUSH1 0x0 KECCAK256 SLOAD PUSH2 0x2CD8 JUMP JUMPDEST PUSH4 0xFFFFFFFF PUSH1 0x40 MLOAD SWAP2 AND DUP2 MSTORE RETURN JUMPDEST CALLVALUE PUSH2 0x2BD JUMPI PUSH1 0x20 CALLDATASIZE PUSH1 0x3 NOT ADD SLT PUSH2 0x2BD JUMPI PUSH1 0x1 PUSH1 0x1 PUSH1 0xA0 SHL SUB PUSH2 0xB75 PUSH2 0x403 JUMP JUMPDEST AND PUSH1 0x0 MSTORE PUSH1 0x0 PUSH1 0x20 MSTORE PUSH1 0x20 PUSH1 0x40 PUSH1 0x0 KECCAK256 SLOAD PUSH1 0x40 MLOAD SWAP1 DUP2 MSTORE RETURN JUMPDEST CALLVALUE PUSH2 0x2BD JUMPI PUSH1 0x40 CALLDATASIZE PUSH1 0x3 NOT ADD SLT PUSH2 0x2BD JUMPI PUSH2 0xBA7 PUSH2 0x403 JUMP JUMPDEST PUSH1 0x24 CALLDATALOAD PUSH2 0xBB2 PUSH2 0x1572 JUMP JUMPDEST PUSH2 0xBBD DUP2 CALLER DUP5 PUSH2 0x1B15 JUMP JUMPDEST PUSH2 0xBC7 DUP2 DUP4 PUSH2 0x2DA2 JUMP JUMPDEST PUSH1 0x40 MLOAD SWAP1 DUP2 MSTORE CALLER SWAP2 PUSH1 0x1 PUSH1 0x1 PUSH1 0xA0 SHL SUB AND SWAP1 PUSH32 0xF6FE6DF77B383BC86273AE6628679C19D5DA8F27700CF72CD4DDABE45E9E23CE SWAP1 PUSH1 0x20 SWAP1 LOG3 STOP JUMPDEST CALLVALUE PUSH2 0x2BD JUMPI PUSH1 0x20 CALLDATASIZE PUSH1 0x3 NOT ADD SLT PUSH2 0x2BD JUMPI PUSH1 0x1 PUSH1 0x1 PUSH1 0xA0 SHL SUB PUSH2 0xC22 PUSH2 0x403 JUMP JUMPDEST AND PUSH1 0x0 MSTORE PUSH1 0x7 PUSH1 0x20 MSTORE PUSH1 0x20 PUSH1 0x40 PUSH1 0x0 KECCAK256 SLOAD PUSH1 0x40 MLOAD SWAP1 DUP2 MSTORE RETURN JUMPDEST CALLVALUE PUSH2 0x2BD JUMPI PUSH1 0x0 DUP1 PUSH1 0x3 NOT CALLDATASIZE ADD SLT PUSH2 0x400 JUMPI PUSH2 0xCE5 SWAP1 PUSH2 0xC7A PUSH32 0x0 PUSH2 0x28CE JUMP JUMPDEST PUSH2 0xCA3 PUSH32 0x0 PUSH2 0x29C7 JUMP JUMPDEST SWAP2 PUSH1 0x40 MLOAD SWAP2 PUSH2 0xCB1 DUP4 PUSH2 0x16CC JUMP JUMPDEST DUP2 DUP4 MSTORE PUSH1 0x40 MLOAD SWAP5 DUP6 SWAP5 PUSH1 0xF PUSH1 0xF8 SHL DUP7 MSTORE PUSH2 0xCD7 PUSH1 0x20 SWAP4 PUSH1 0xE0 DUP6 DUP10 ADD MSTORE PUSH1 0xE0 DUP9 ADD SWAP1 PUSH2 0x2E5 JUMP JUMPDEST SWAP1 DUP7 DUP3 SUB PUSH1 0x40 DUP9 ADD MSTORE PUSH2 0x2E5 JUMP JUMPDEST SWAP1 CHAINID PUSH1 0x60 DUP7 ADD MSTORE ADDRESS PUSH1 0x80 DUP7 ADD MSTORE DUP3 PUSH1 0xA0 DUP7 ADD MSTORE DUP5 DUP3 SUB PUSH1 0xC0 DUP7 ADD MSTORE DUP1 DUP1 DUP6 MLOAD SWAP4 DUP5 DUP2 MSTORE ADD SWAP5 ADD SWAP3 JUMPDEST DUP3 DUP2 LT PUSH2 0xD1C JUMPI POP POP POP POP SUB SWAP1 RETURN JUMPDEST DUP4 MLOAD DUP6 MSTORE DUP7 SWAP6 POP SWAP4 DUP2 ADD SWAP4 SWAP3 DUP2 ADD SWAP3 PUSH1 0x1 ADD PUSH2 0xD0D JUMP JUMPDEST CALLVALUE PUSH2 0x2BD JUMPI PUSH1 0x20 CALLDATASIZE PUSH1 0x3 NOT ADD SLT PUSH2 0x2BD JUMPI PUSH1 0x4 CALLDATALOAD PUSH2 0xD62 PUSH6 0xFFFFFFFFFFFF PUSH2 0xD5A NUMBER PUSH2 0x2C71 JUMP JUMPDEST AND DUP3 LT PUSH2 0x1C57 JUMP JUMPDEST PUSH1 0xB SLOAD SWAP1 PUSH1 0x0 DUP3 PUSH1 0x5 DUP2 GT PUSH2 0xDE0 JUMPI JUMPDEST POP SWAP1 JUMPDEST DUP3 DUP3 LT PUSH2 0xDA1 JUMPI DUP3 DUP1 PUSH2 0xD8F JUMPI POP PUSH1 0x40 MLOAD PUSH1 0x0 DUP2 MSTORE PUSH1 0x20 SWAP1 RETURN JUMPDEST PUSH2 0x7BE PUSH2 0x7B7 PUSH1 0x20 SWAP3 PUSH1 0x0 NOT ADD PUSH2 0x2319 JUMP JUMPDEST SWAP1 SWAP2 PUSH2 0xDAD DUP2 DUP5 PUSH2 0x2AA1 JUMP JUMPDEST SWAP1 DUP3 PUSH4 0xFFFFFFFF PUSH2 0xDC0 PUSH2 0x7EA DUP6 PUSH2 0x2319 JUMP JUMPDEST AND GT ISZERO PUSH2 0xDD0 JUMPI POP SWAP2 JUMPDEST SWAP1 PUSH2 0xD75 JUMP JUMPDEST SWAP3 POP PUSH2 0xDDB SWAP1 PUSH2 0x1809 JUMP JUMPDEST PUSH2 0xDCA JUMP JUMPDEST DUP1 PUSH2 0x824 PUSH2 0xDF0 SWAP3 SWAP6 SWAP4 SWAP6 PUSH2 0x2AB6 JUMP JUMPDEST SWAP1 DUP3 PUSH4 0xFFFFFFFF PUSH2 0xE03 PUSH2 0x7EA DUP6 PUSH2 0x2319 JUMP JUMPDEST AND GT ISZERO PUSH2 0xE13 JUMPI POP SWAP2 JUMPDEST CODESIZE PUSH2 0xD72 JUMP JUMPDEST SWAP3 POP PUSH2 0xE1E SWAP1 PUSH2 0x1809 JUMP JUMPDEST PUSH2 0xE0D JUMP JUMPDEST CALLVALUE PUSH2 0x2BD JUMPI PUSH1 0x40 CALLDATASIZE PUSH1 0x3 NOT ADD SLT PUSH2 0x2BD JUMPI PUSH1 0x20 PUSH1 0xFF PUSH2 0xE69 PUSH2 0xE43 PUSH2 0x419 JUMP JUMPDEST PUSH1 0x4 CALLDATALOAD PUSH1 0x0 MSTORE PUSH1 0xC DUP5 MSTORE PUSH1 0x40 PUSH1 0x0 KECCAK256 SWAP1 PUSH1 0x1 DUP1 PUSH1 0xA0 SHL SUB AND PUSH1 0x0 MSTORE PUSH1 0x20 MSTORE PUSH1 0x40 PUSH1 0x0 KECCAK256 SWAP1 JUMP JUMPDEST SLOAD AND PUSH1 0x40 MLOAD SWAP1 ISZERO ISZERO DUP2 MSTORE RETURN JUMPDEST CALLVALUE PUSH2 0x2BD JUMPI PUSH1 0x0 CALLDATASIZE PUSH1 0x3 NOT ADD SLT PUSH2 0x2BD JUMPI PUSH1 0x20 PUSH2 0xE91 NUMBER PUSH2 0x2C71 JUMP JUMPDEST PUSH6 0xFFFFFFFFFFFF PUSH1 0x40 MLOAD SWAP2 AND DUP2 MSTORE RETURN JUMPDEST CALLVALUE PUSH2 0x2BD JUMPI PUSH1 0x0 DUP1 PUSH1 0x3 NOT CALLDATASIZE ADD SLT PUSH2 0x400 JUMPI PUSH1 0x40 MLOAD SWAP1 DUP1 PUSH1 0x4 SLOAD PUSH2 0xEC4 DUP2 PUSH2 0x17B9 JUMP JUMPDEST DUP1 DUP6 MSTORE SWAP2 PUSH1 0x1 SWAP2 DUP1 DUP4 AND SWAP1 DUP2 ISZERO PUSH2 0x3D6 JUMPI POP PUSH1 0x1 EQ PUSH2 0xEED JUMPI PUSH2 0x377 DUP6 PUSH2 0x36B DUP2 DUP8 SUB DUP3 PUSH2 0x1704 JUMP JUMPDEST SWAP3 POP PUSH1 0x4 DUP4 MSTORE PUSH32 0x8A35ACFBC15FF81A39AE7D344FD709F28E8600B4AA8C65C6B64BFE7FE36BD19B JUMPDEST DUP3 DUP5 LT PUSH2 0xF30 JUMPI POP POP POP DUP2 ADD PUSH1 0x20 ADD PUSH2 0x36B DUP3 PUSH2 0x377 PUSH2 0x35B JUMP JUMPDEST DUP1 SLOAD PUSH1 0x20 DUP6 DUP8 ADD DUP2 ADD SWAP2 SWAP1 SWAP2 MSTORE SWAP1 SWAP4 ADD SWAP3 DUP2 ADD PUSH2 0xF15 JUMP JUMPDEST CALLVALUE PUSH2 0x2BD JUMPI PUSH1 0x20 CALLDATASIZE PUSH1 0x3 NOT ADD SLT PUSH2 0x2BD JUMPI PUSH1 0x1 PUSH1 0x1 PUSH1 0xA0 SHL SUB PUSH2 0xF69 PUSH2 0x403 JUMP JUMPDEST AND PUSH1 0x0 MSTORE PUSH1 0xA PUSH1 0x20 MSTORE PUSH1 0x40 PUSH1 0x0 KECCAK256 DUP1 SLOAD DUP1 ISZERO PUSH1 0x0 EQ PUSH2 0xF90 JUMPI POP POP PUSH1 0x40 MLOAD PUSH1 0x0 DUP2 MSTORE PUSH1 0x20 SWAP1 RETURN JUMPDEST PUSH1 0x20 SWAP2 PUSH2 0xFA1 SWAP2 PUSH1 0x0 NOT ADD SWAP1 PUSH2 0x1C1D JUMP JUMPDEST POP SLOAD DUP2 SHR PUSH2 0x78A JUMP JUMPDEST CALLVALUE PUSH2 0x2BD JUMPI PUSH1 0x0 CALLDATASIZE PUSH1 0x3 NOT ADD SLT PUSH2 0x2BD JUMPI PUSH1 0x20 PUSH1 0x40 MLOAD PUSH1 0x0 DUP2 MSTORE RETURN JUMPDEST CALLVALUE PUSH2 0x2BD JUMPI PUSH1 0x40 CALLDATASIZE PUSH1 0x3 NOT ADD SLT PUSH2 0x2BD JUMPI PUSH2 0xFDF PUSH2 0x403 JUMP JUMPDEST PUSH1 0x24 CALLDATALOAD SWAP1 CALLER PUSH1 0x0 MSTORE PUSH1 0x1 PUSH1 0x20 MSTORE PUSH2 0x100C DUP2 PUSH1 0x40 PUSH1 0x0 KECCAK256 SWAP1 PUSH1 0x1 DUP1 PUSH1 0xA0 SHL SUB AND PUSH1 0x0 MSTORE PUSH1 0x20 MSTORE PUSH1 0x40 PUSH1 0x0 KECCAK256 SWAP1 JUMP JUMPDEST SLOAD SWAP2 DUP1 DUP4 LT PUSH2 0x102D JUMPI PUSH2 0x1021 SWAP3 SUB SWAP1 CALLER PUSH2 0x19E5 JUMP JUMPDEST PUSH1 0x40 MLOAD PUSH1 0x1 DUP2 MSTORE PUSH1 0x20 SWAP1 RETURN JUMPDEST PUSH1 0x40 MLOAD PUSH3 0x461BCD PUSH1 0xE5 SHL DUP2 MSTORE PUSH1 0x20 PUSH1 0x4 DUP3 ADD MSTORE PUSH1 0x25 PUSH1 0x24 DUP3 ADD MSTORE PUSH32 0x45524332303A2064656372656173656420616C6C6F77616E63652062656C6F77 PUSH1 0x44 DUP3 ADD MSTORE PUSH5 0x207A65726F PUSH1 0xD8 SHL PUSH1 0x64 DUP3 ADD MSTORE PUSH1 0x84 SWAP1 REVERT JUMPDEST CALLVALUE PUSH2 0x2BD JUMPI PUSH1 0x40 CALLDATASIZE PUSH1 0x3 NOT ADD SLT PUSH2 0x2BD JUMPI PUSH2 0x455 PUSH2 0x109C PUSH2 0x403 JUMP JUMPDEST PUSH1 0x24 CALLDATALOAD SWAP1 CALLER PUSH2 0x18D7 JUMP JUMPDEST PUSH1 0x64 CALLDATALOAD SWAP1 PUSH1 0xFF DUP3 AND DUP3 SUB PUSH2 0x2BD JUMPI JUMP JUMPDEST PUSH1 0x84 CALLDATALOAD SWAP1 PUSH1 0xFF DUP3 AND DUP3 SUB PUSH2 0x2BD JUMPI JUMP JUMPDEST CALLVALUE PUSH2 0x2BD JUMPI PUSH1 0xC0 CALLDATASIZE PUSH1 0x3 NOT ADD SLT PUSH2 0x2BD JUMPI PUSH2 0x10DF PUSH2 0x403 JUMP JUMPDEST PUSH1 0x44 CALLDATALOAD SWAP1 PUSH1 0x24 CALLDATALOAD PUSH2 0x10EE PUSH2 0x10A6 JUMP JUMPDEST SWAP3 DUP1 TIMESTAMP GT PUSH2 0x11AC JUMPI PUSH2 0x117E PUSH2 0x11A7 SWAP2 PUSH2 0x65D SWAP6 PUSH1 0x40 MLOAD SWAP1 PUSH2 0x1166 DUP3 PUSH2 0x1158 PUSH1 0x20 DUP3 ADD SWAP6 DUP10 DUP12 DUP9 PUSH1 0x60 SWAP2 SWAP5 SWAP4 SWAP3 PUSH1 0x80 DUP3 ADD SWAP6 PUSH32 0xE48329057BFD03D55E49B547132E39CFFD9C1820AD7B9D4C5307691425D15ADF DUP4 MSTORE PUSH1 0x1 DUP1 PUSH1 0xA0 SHL SUB AND PUSH1 0x20 DUP4 ADD MSTORE PUSH1 0x40 DUP3 ADD MSTORE ADD MSTORE JUMP JUMPDEST SUB PUSH1 0x1F NOT DUP2 ADD DUP5 MSTORE DUP4 PUSH2 0x1704 JUMP JUMPDEST PUSH2 0x1179 PUSH1 0xA4 CALLDATALOAD SWAP4 PUSH1 0x84 CALLDATALOAD SWAP4 MLOAD SWAP1 KECCAK256 PUSH2 0x28A8 JUMP JUMPDEST PUSH2 0x25A8 JUMP JUMPDEST PUSH1 0x1 PUSH1 0x1 PUSH1 0xA0 SHL SUB DUP2 AND PUSH1 0x0 SWAP1 DUP2 MSTORE PUSH1 0x7 PUSH1 0x20 MSTORE PUSH1 0x40 SWAP1 KECCAK256 DUP1 SLOAD PUSH1 0x1 DUP2 ADD SWAP1 SWAP2 SSTORE SWAP1 SWAP3 EQ PUSH2 0x1CB0 JUMP JUMPDEST PUSH2 0x1DC7 JUMP JUMPDEST PUSH1 0x40 MLOAD PUSH3 0x461BCD PUSH1 0xE5 SHL DUP2 MSTORE PUSH1 0x20 PUSH1 0x4 DUP3 ADD MSTORE PUSH1 0x1D PUSH1 0x24 DUP3 ADD MSTORE PUSH32 0x4552433230566F7465733A207369676E61747572652065787069726564000000 PUSH1 0x44 DUP3 ADD MSTORE PUSH1 0x64 SWAP1 REVERT JUMPDEST CALLVALUE PUSH2 0x2BD JUMPI PUSH1 0xE0 CALLDATASIZE PUSH1 0x3 NOT ADD SLT PUSH2 0x2BD JUMPI PUSH2 0x120A PUSH2 0x403 JUMP JUMPDEST PUSH2 0x1212 PUSH2 0x419 JUMP JUMPDEST PUSH1 0x44 CALLDATALOAD SWAP1 PUSH1 0x64 CALLDATALOAD SWAP3 PUSH2 0x1222 PUSH2 0x10B6 JUMP JUMPDEST SWAP4 DUP1 TIMESTAMP GT PUSH2 0x12F2 JUMPI PUSH2 0x12DA PUSH2 0x12ED SWAP2 PUSH2 0x1158 PUSH2 0x65D SWAP8 PUSH2 0x12C7 PUSH2 0x1260 DUP8 PUSH1 0x1 DUP1 PUSH1 0xA0 SHL SUB AND PUSH1 0x0 MSTORE PUSH1 0x7 PUSH1 0x20 MSTORE PUSH1 0x40 PUSH1 0x0 KECCAK256 SWAP1 DUP2 SLOAD SWAP2 PUSH1 0x1 DUP4 ADD SWAP1 SSTORE JUMP JUMPDEST PUSH1 0x40 DUP1 MLOAD PUSH32 0x6E71EDAE12B1B97F4D1F60370FEF10105FA2FAAE0126114A169C64845D6126C9 PUSH1 0x20 DUP3 ADD SWAP1 DUP2 MSTORE PUSH1 0x1 PUSH1 0x1 PUSH1 0xA0 SHL SUB DUP1 DUP13 AND SWAP4 DUP4 ADD SWAP4 SWAP1 SWAP4 MSTORE SWAP2 DUP12 AND PUSH1 0x60 DUP3 ADD MSTORE PUSH1 0x80 DUP2 ADD DUP13 SWAP1 MSTORE PUSH1 0xA0 DUP2 ADD SWAP3 SWAP1 SWAP3 MSTORE PUSH1 0xC0 DUP3 ADD SWAP6 SWAP1 SWAP6 MSTORE SWAP3 DUP4 SWAP1 PUSH1 0xE0 DUP3 ADD SWAP1 JUMP JUMPDEST PUSH2 0x1179 PUSH1 0xC4 CALLDATALOAD SWAP4 PUSH1 0xA4 CALLDATALOAD SWAP4 MLOAD SWAP1 KECCAK256 PUSH2 0x28A8 JUMP JUMPDEST PUSH1 0x1 PUSH1 0x1 PUSH1 0xA0 SHL SUB DUP4 DUP2 AND SWAP2 AND EQ PUSH2 0x1BAE JUMP JUMPDEST PUSH2 0x19E5 JUMP JUMPDEST PUSH1 0x40 MLOAD PUSH3 0x461BCD PUSH1 0xE5 SHL DUP2 MSTORE PUSH1 0x20 PUSH1 0x4 DUP3 ADD MSTORE PUSH1 0x1D PUSH1 0x24 DUP3 ADD MSTORE PUSH32 0x45524332305065726D69743A206578706972656420646561646C696E65000000 PUSH1 0x44 DUP3 ADD MSTORE PUSH1 0x64 SWAP1 REVERT JUMPDEST CALLVALUE PUSH2 0x2BD JUMPI PUSH1 0x0 CALLDATASIZE PUSH1 0x3 NOT ADD SLT PUSH2 0x2BD JUMPI PUSH1 0x20 PUSH1 0x40 MLOAD PUSH32 0x9F2DF0FED2C77648DE5860A4CC508CD0818C85B8B8A1AB4CEEEF8D981C8956A6 DUP2 MSTORE RETURN JUMPDEST CALLVALUE PUSH2 0x2BD JUMPI PUSH1 0x40 CALLDATASIZE PUSH1 0x3 NOT ADD SLT PUSH2 0x2BD JUMPI PUSH2 0x65D PUSH1 0x4 CALLDATALOAD PUSH2 0x1391 PUSH2 0x419 JUMP JUMPDEST SWAP1 DUP1 PUSH1 0x0 MSTORE PUSH1 0xC PUSH1 0x20 MSTORE PUSH2 0x13AC PUSH1 0x1 PUSH1 0x40 PUSH1 0x0 KECCAK256 ADD SLOAD PUSH2 0x15C6 JUMP JUMPDEST PUSH2 0x1726 JUMP JUMPDEST CALLVALUE PUSH2 0x2BD JUMPI PUSH1 0x40 CALLDATASIZE PUSH1 0x3 NOT ADD SLT PUSH2 0x2BD JUMPI PUSH1 0x20 PUSH2 0x1400 PUSH2 0x13CF PUSH2 0x403 JUMP JUMPDEST PUSH2 0x13D7 PUSH2 0x419 JUMP JUMPDEST PUSH1 0x1 PUSH1 0x1 PUSH1 0xA0 SHL SUB SWAP2 DUP3 AND PUSH1 0x0 SWAP1 DUP2 MSTORE PUSH1 0x1 DUP6 MSTORE PUSH1 0x40 DUP1 DUP3 KECCAK256 SWAP3 SWAP1 SWAP4 AND DUP2 MSTORE PUSH1 0x20 SWAP2 SWAP1 SWAP2 MSTORE KECCAK256 SWAP1 JUMP JUMPDEST SLOAD PUSH1 0x40 MLOAD SWAP1 DUP2 MSTORE RETURN JUMPDEST CALLVALUE PUSH2 0x2BD JUMPI PUSH1 0x40 CALLDATASIZE PUSH1 0x3 NOT ADD SLT PUSH2 0x2BD JUMPI PUSH2 0x1422 PUSH2 0x403 JUMP JUMPDEST PUSH4 0xFFFFFFFF PUSH1 0x24 CALLDATALOAD DUP2 DUP2 AND DUP2 SUB PUSH2 0x2BD JUMPI PUSH2 0x146C PUSH2 0x1472 SWAP2 PUSH1 0x40 SWAP5 PUSH1 0x0 PUSH1 0x20 DUP8 MLOAD PUSH2 0x144C DUP2 PUSH2 0x16AB JUMP JUMPDEST DUP3 DUP2 MSTORE ADD MSTORE PUSH1 0x1 PUSH1 0x1 PUSH1 0xA0 SHL SUB AND PUSH1 0x0 SWAP1 DUP2 MSTORE PUSH1 0xA PUSH1 0x20 MSTORE DUP6 SWAP1 KECCAK256 PUSH2 0x1C1D JUMP JUMPDEST POP PUSH2 0x1C35 JUMP JUMPDEST DUP3 MLOAD DUP2 MLOAD SWAP1 SWAP3 AND DUP3 MSTORE PUSH1 0x20 SWAP1 DUP2 ADD MLOAD PUSH1 0x1 PUSH1 0x1 PUSH1 0xE0 SHL SUB AND SWAP1 DUP3 ADD MSTORE RETURN JUMPDEST CALLER PUSH1 0x0 SWAP1 DUP2 MSTORE PUSH32 0x28716B1AC0502292C83929ABC9E37796CF2F7A586C58EC02E6CEEAC1B694CBC3 PUSH1 0x20 MSTORE PUSH1 0x40 SWAP1 KECCAK256 SLOAD PUSH1 0xFF AND ISZERO PUSH2 0x14C9 JUMPI JUMP JUMPDEST PUSH2 0x156E PUSH1 0x48 PUSH2 0x1556 PUSH2 0x14DA CALLER PUSH2 0x23F5 JUMP JUMPDEST PUSH2 0x1548 PUSH2 0x14E5 PUSH2 0x2486 JUMP JUMPDEST PUSH1 0x40 MLOAD SWAP5 DUP6 SWAP4 PUSH32 0x416363657373436F6E74726F6C3A206163636F756E7420000000000000000000 PUSH1 0x20 DUP7 ADD MSTORE PUSH2 0x1525 DUP2 MLOAD DUP1 SWAP3 PUSH1 0x20 PUSH1 0x37 DUP10 ADD SWAP2 ADD PUSH2 0x2C2 JUMP JUMPDEST DUP5 ADD PUSH17 0x1034B99036B4B9B9B4B733903937B6329 PUSH1 0x7D SHL PUSH1 0x37 DUP3 ADD MSTORE ADD SWAP1 PUSH2 0x167E JUMP JUMPDEST SUB PUSH1 0x1F NOT DUP2 ADD DUP4 MSTORE DUP3 PUSH2 0x1704 JUMP JUMPDEST PUSH1 0x40 MLOAD PUSH3 0x461BCD PUSH1 0xE5 SHL DUP2 MSTORE SWAP2 DUP3 SWAP2 PUSH1 0x4 DUP4 ADD PUSH2 0x30A JUMP JUMPDEST SUB SWAP1 REVERT JUMPDEST CALLER PUSH1 0x0 SWAP1 DUP2 MSTORE PUSH31 0x1CC5D77F691F3F29BD797D00FB54DBFCA601FC89D79085DFE95EE6241D87CB PUSH1 0x20 MSTORE PUSH1 0x40 SWAP1 KECCAK256 SLOAD PUSH1 0xFF AND ISZERO PUSH2 0x15AA JUMPI JUMP JUMPDEST PUSH2 0x156E PUSH1 0x48 PUSH2 0x1556 PUSH2 0x15BB CALLER PUSH2 0x23F5 JUMP JUMPDEST PUSH2 0x1548 PUSH2 0x14E5 PUSH2 0x2517 JUMP JUMPDEST PUSH1 0x0 DUP2 DUP2 MSTORE PUSH1 0xC PUSH1 0x20 SWAP1 DUP2 MSTORE PUSH1 0x40 DUP1 DUP4 KECCAK256 CALLER DUP5 MSTORE SWAP1 SWAP2 MSTORE SWAP1 KECCAK256 SLOAD PUSH1 0xFF AND ISZERO PUSH2 0x15EB JUMPI POP JUMP JUMPDEST PUSH2 0x15F4 CALLER PUSH2 0x23F5 JUMP JUMPDEST PUSH2 0x15FC PUSH2 0x2343 JUMP JUMPDEST SWAP2 PUSH1 0x30 PUSH2 0x1608 DUP5 PUSH2 0x236F JUMP JUMPDEST MSTORE8 PUSH1 0x78 PUSH2 0x1614 DUP5 PUSH2 0x237C JUMP JUMPDEST MSTORE8 PUSH1 0x41 JUMPDEST PUSH1 0x1 DUP2 GT PUSH2 0x1637 JUMPI PUSH2 0x156E PUSH1 0x48 PUSH2 0x1556 DUP6 PUSH2 0x1548 DUP9 PUSH2 0x14E5 DUP9 ISZERO PUSH2 0x23AA JUMP JUMPDEST SWAP1 PUSH1 0xF DUP2 AND SWAP1 PUSH1 0x10 DUP3 LT ISZERO PUSH2 0x1679 JUMPI PUSH2 0x1674 SWAP2 PUSH16 0x181899199A1A9B1B9C1CB0B131B232B3 PUSH1 0x81 SHL SWAP1 BYTE PUSH2 0x166A DUP5 DUP8 PUSH2 0x238C JUMP JUMPDEST MSTORE8 PUSH1 0x4 SHR SWAP2 PUSH2 0x239D JUMP JUMPDEST PUSH2 0x1618 JUMP JUMPDEST PUSH2 0x1C07 JUMP JUMPDEST SWAP1 PUSH2 0x1691 PUSH1 0x20 SWAP3 DUP3 DUP2 MLOAD SWAP5 DUP6 SWAP3 ADD PUSH2 0x2C2 JUMP JUMPDEST ADD SWAP1 JUMP JUMPDEST PUSH4 0x4E487B71 PUSH1 0xE0 SHL PUSH1 0x0 MSTORE PUSH1 0x41 PUSH1 0x4 MSTORE PUSH1 0x24 PUSH1 0x0 REVERT JUMPDEST PUSH1 0x40 DUP2 ADD SWAP1 DUP2 LT PUSH8 0xFFFFFFFFFFFFFFFF DUP3 GT OR PUSH2 0x16C7 JUMPI PUSH1 0x40 MSTORE JUMP JUMPDEST PUSH2 0x1695 JUMP JUMPDEST PUSH1 0x20 DUP2 ADD SWAP1 DUP2 LT PUSH8 0xFFFFFFFFFFFFFFFF DUP3 GT OR PUSH2 0x16C7 JUMPI PUSH1 0x40 MSTORE JUMP JUMPDEST PUSH1 0xC0 DUP2 ADD SWAP1 DUP2 LT PUSH8 0xFFFFFFFFFFFFFFFF DUP3 GT OR PUSH2 0x16C7 JUMPI PUSH1 0x40 MSTORE JUMP JUMPDEST SWAP1 PUSH1 0x1F DUP1 NOT SWAP2 ADD AND DUP2 ADD SWAP1 DUP2 LT PUSH8 0xFFFFFFFFFFFFFFFF DUP3 GT OR PUSH2 0x16C7 JUMPI PUSH1 0x40 MSTORE JUMP JUMPDEST PUSH1 0x0 SWAP1 DUP1 DUP3 MSTORE PUSH1 0xC PUSH1 0x20 MSTORE PUSH1 0xFF PUSH2 0x1752 DUP5 PUSH1 0x40 DUP6 KECCAK256 SWAP1 PUSH1 0x1 DUP1 PUSH1 0xA0 SHL SUB AND PUSH1 0x0 MSTORE PUSH1 0x20 MSTORE PUSH1 0x40 PUSH1 0x0 KECCAK256 SWAP1 JUMP JUMPDEST SLOAD AND PUSH2 0x175D JUMPI POP POP POP JUMP JUMPDEST DUP1 DUP3 MSTORE PUSH1 0xC PUSH1 0x20 SWAP1 DUP2 MSTORE PUSH1 0x40 DUP1 DUP5 KECCAK256 PUSH1 0x1 PUSH1 0x1 PUSH1 0xA0 SHL SUB DUP7 AND PUSH1 0x0 SWAP1 DUP2 MSTORE SWAP3 MSTORE SWAP1 KECCAK256 DUP1 SLOAD PUSH1 0xFF NOT AND SWAP1 SSTORE CALLER SWAP3 PUSH1 0x1 PUSH1 0x1 PUSH1 0xA0 SHL SUB AND SWAP2 PUSH32 0xF6391F5C32D9C69D2A47EA670B442974B53935D1EDC7FD64EB21E047A839171B SWAP1 DUP1 LOG4 JUMP JUMPDEST SWAP1 PUSH1 0x1 DUP3 DUP2 SHR SWAP3 AND DUP1 ISZERO PUSH2 0x17E9 JUMPI JUMPDEST PUSH1 0x20 DUP4 LT EQ PUSH2 0x17D3 JUMPI JUMP JUMPDEST PUSH4 0x4E487B71 PUSH1 0xE0 SHL PUSH1 0x0 MSTORE PUSH1 0x22 PUSH1 0x4 MSTORE PUSH1 0x24 PUSH1 0x0 REVERT JUMPDEST SWAP2 PUSH1 0x7F AND SWAP2 PUSH2 0x17C8 JUMP JUMPDEST PUSH4 0x4E487B71 PUSH1 0xE0 SHL PUSH1 0x0 MSTORE PUSH1 0x11 PUSH1 0x4 MSTORE PUSH1 0x24 PUSH1 0x0 REVERT JUMPDEST SWAP1 PUSH1 0x1 DUP3 ADD DUP1 SWAP3 GT PUSH2 0x70F JUMPI JUMP JUMPDEST SWAP2 SWAP1 DUP3 ADD DUP1 SWAP3 GT PUSH2 0x70F JUMPI JUMP JUMPDEST ISZERO PUSH2 0x182B JUMPI JUMP JUMPDEST PUSH1 0x40 MLOAD PUSH3 0x461BCD PUSH1 0xE5 SHL DUP2 MSTORE PUSH1 0x20 PUSH1 0x4 DUP3 ADD MSTORE PUSH1 0x23 PUSH1 0x24 DUP3 ADD MSTORE PUSH32 0x45524332303A207472616E7366657220746F20746865207A65726F2061646472 PUSH1 0x44 DUP3 ADD MSTORE PUSH3 0x657373 PUSH1 0xE8 SHL PUSH1 0x64 DUP3 ADD MSTORE PUSH1 0x84 SWAP1 REVERT JUMPDEST ISZERO PUSH2 0x1883 JUMPI JUMP JUMPDEST PUSH1 0x40 MLOAD PUSH3 0x461BCD PUSH1 0xE5 SHL DUP2 MSTORE PUSH1 0x20 PUSH1 0x4 DUP3 ADD MSTORE PUSH1 0x26 PUSH1 0x24 DUP3 ADD MSTORE PUSH32 0x45524332303A207472616E7366657220616D6F756E7420657863656564732062 PUSH1 0x44 DUP3 ADD MSTORE PUSH6 0x616C616E6365 PUSH1 0xD0 SHL PUSH1 0x64 DUP3 ADD MSTORE PUSH1 0x84 SWAP1 REVERT JUMPDEST PUSH1 0x1 PUSH1 0x1 PUSH1 0xA0 SHL SUB SWAP3 SWAP2 SWAP1 DUP4 DUP2 AND DUP1 ISZERO PUSH2 0x1992 JUMPI PUSH2 0x1990 SWAP5 DUP4 AND SWAP1 PUSH2 0x18FD DUP3 ISZERO ISZERO PUSH2 0x1824 JUMP JUMPDEST PUSH1 0x1 PUSH1 0x1 PUSH1 0xA0 SHL SUB DUP4 AND PUSH1 0x0 SWAP1 DUP2 MSTORE PUSH1 0x20 DUP2 SWAP1 MSTORE PUSH1 0x40 SWAP1 KECCAK256 DUP6 SWAP1 SLOAD PUSH2 0x1924 DUP3 DUP3 LT ISZERO PUSH2 0x187C JUMP JUMPDEST SUB PUSH2 0x1941 DUP5 PUSH1 0x1 DUP1 PUSH1 0xA0 SHL SUB AND PUSH1 0x0 MSTORE PUSH1 0x0 PUSH1 0x20 MSTORE PUSH1 0x40 PUSH1 0x0 KECCAK256 SWAP1 JUMP JUMPDEST SSTORE PUSH1 0x1 PUSH1 0x1 PUSH1 0xA0 SHL SUB DUP5 AND PUSH1 0x0 SWAP1 DUP2 MSTORE PUSH1 0x20 DUP2 DUP2 MSTORE PUSH1 0x40 SWAP2 DUP3 SWAP1 KECCAK256 DUP1 SLOAD DUP9 ADD SWAP1 SSTORE SWAP1 MLOAD DUP7 DUP2 MSTORE PUSH32 0xDDF252AD1BE2C89B69C2B068FC378DAA952BA7F163C4A11628F55A4DF523B3EF SWAP2 SWAP1 LOG3 PUSH2 0x1D95 JUMP JUMPDEST JUMP JUMPDEST PUSH1 0x40 MLOAD PUSH3 0x461BCD PUSH1 0xE5 SHL DUP2 MSTORE PUSH1 0x20 PUSH1 0x4 DUP3 ADD MSTORE PUSH1 0x25 PUSH1 0x24 DUP3 ADD MSTORE PUSH32 0x45524332303A207472616E736665722066726F6D20746865207A65726F206164 PUSH1 0x44 DUP3 ADD MSTORE PUSH5 0x6472657373 PUSH1 0xD8 SHL PUSH1 0x64 DUP3 ADD MSTORE PUSH1 0x84 SWAP1 REVERT JUMPDEST PUSH1 0x1 PUSH1 0x1 PUSH1 0xA0 SHL SUB DUP1 DUP3 AND SWAP3 SWAP2 SWAP1 DUP4 ISZERO PUSH2 0x1AC4 JUMPI DUP3 AND SWAP4 DUP5 ISZERO PUSH2 0x1A74 JUMPI DUP1 PUSH2 0x1A5E PUSH32 0x8C5BE1E5EBEC7D5BD14F71427D1E84F3DD0314C0F7B2291E5B200AC8C7C3B925 SWAP5 PUSH2 0x1A47 PUSH2 0x1A6F SWAP6 PUSH1 0x1 DUP1 PUSH1 0xA0 SHL SUB AND PUSH1 0x0 MSTORE PUSH1 0x1 PUSH1 0x20 MSTORE PUSH1 0x40 PUSH1 0x0 KECCAK256 SWAP1 JUMP JUMPDEST SWAP1 PUSH1 0x1 DUP1 PUSH1 0xA0 SHL SUB AND PUSH1 0x0 MSTORE PUSH1 0x20 MSTORE PUSH1 0x40 PUSH1 0x0 KECCAK256 SWAP1 JUMP JUMPDEST SSTORE PUSH1 0x40 MLOAD SWAP1 DUP2 MSTORE SWAP1 DUP2 SWAP1 PUSH1 0x20 DUP3 ADD SWAP1 JUMP JUMPDEST SUB SWAP1 LOG3 JUMP JUMPDEST PUSH1 0x40 MLOAD PUSH3 0x461BCD PUSH1 0xE5 SHL DUP2 MSTORE PUSH1 0x20 PUSH1 0x4 DUP3 ADD MSTORE PUSH1 0x22 PUSH1 0x24 DUP3 ADD MSTORE PUSH32 0x45524332303A20617070726F766520746F20746865207A65726F206164647265 PUSH1 0x44 DUP3 ADD MSTORE PUSH2 0x7373 PUSH1 0xF0 SHL PUSH1 0x64 DUP3 ADD MSTORE PUSH1 0x84 SWAP1 REVERT JUMPDEST PUSH1 0x40 MLOAD PUSH3 0x461BCD PUSH1 0xE5 SHL DUP2 MSTORE PUSH1 0x20 PUSH1 0x4 DUP3 ADD MSTORE PUSH1 0x24 DUP1 DUP3 ADD MSTORE PUSH32 0x45524332303A20617070726F76652066726F6D20746865207A65726F20616464 PUSH1 0x44 DUP3 ADD MSTORE PUSH4 0x72657373 PUSH1 0xE0 SHL PUSH1 0x64 DUP3 ADD MSTORE PUSH1 0x84 SWAP1 REVERT JUMPDEST PUSH1 0x1 PUSH1 0x1 PUSH1 0xA0 SHL SUB DUP1 DUP3 AND PUSH1 0x0 SWAP1 DUP2 MSTORE PUSH1 0x1 PUSH1 0x20 SWAP1 DUP2 MSTORE PUSH1 0x40 DUP1 DUP4 KECCAK256 SWAP4 DUP7 AND DUP4 MSTORE SWAP3 SWAP1 MSTORE KECCAK256 SWAP1 SWAP2 SWAP1 SLOAD SWAP3 PUSH1 0x1 DUP5 ADD PUSH2 0x1B4E JUMPI JUMPDEST POP POP POP POP JUMP JUMPDEST DUP1 DUP5 LT PUSH2 0x1B69 JUMPI PUSH2 0x1B60 SWAP4 SUB SWAP2 PUSH2 0x19E5 JUMP JUMPDEST CODESIZE DUP1 DUP1 DUP1 PUSH2 0x1B48 JUMP JUMPDEST PUSH1 0x40 MLOAD PUSH3 0x461BCD PUSH1 0xE5 SHL DUP2 MSTORE PUSH1 0x20 PUSH1 0x4 DUP3 ADD MSTORE PUSH1 0x1D PUSH1 0x24 DUP3 ADD MSTORE PUSH32 0x45524332303A20696E73756666696369656E7420616C6C6F77616E6365000000 PUSH1 0x44 DUP3 ADD MSTORE PUSH1 0x64 SWAP1 REVERT JUMPDEST ISZERO PUSH2 0x1BB5 JUMPI JUMP JUMPDEST PUSH1 0x40 MLOAD PUSH3 0x461BCD PUSH1 0xE5 SHL DUP2 MSTORE PUSH1 0x20 PUSH1 0x4 DUP3 ADD MSTORE PUSH1 0x1E PUSH1 0x24 DUP3 ADD MSTORE PUSH32 0x45524332305065726D69743A20696E76616C6964207369676E61747572650000 PUSH1 0x44 DUP3 ADD MSTORE PUSH1 0x64 SWAP1 REVERT JUMPDEST PUSH1 0x40 MLOAD SWAP1 PUSH2 0x1990 DUP3 PUSH2 0x16AB JUMP JUMPDEST PUSH4 0x4E487B71 PUSH1 0xE0 SHL PUSH1 0x0 MSTORE PUSH1 0x32 PUSH1 0x4 MSTORE PUSH1 0x24 PUSH1 0x0 REVERT JUMPDEST DUP1 SLOAD DUP3 LT ISZERO PUSH2 0x1679 JUMPI PUSH1 0x0 MSTORE PUSH1 0x20 PUSH1 0x0 KECCAK256 ADD SWAP1 PUSH1 0x0 SWAP1 JUMP JUMPDEST SWAP1 PUSH1 0x40 MLOAD PUSH2 0x1C42 DUP2 PUSH2 0x16AB JUMP JUMPDEST PUSH1 0x20 DUP2 SWAP4 SLOAD PUSH4 0xFFFFFFFF DUP2 AND DUP4 MSTORE DUP2 SHR SWAP2 ADD MSTORE JUMP JUMPDEST ISZERO PUSH2 0x1C5E JUMPI JUMP JUMPDEST PUSH1 0x40 MLOAD PUSH3 0x461BCD PUSH1 0xE5 SHL DUP2 MSTORE PUSH1 0x20 PUSH1 0x4 DUP3 ADD MSTORE PUSH1 0x19 PUSH1 0x24 DUP3 ADD MSTORE PUSH32 0x4552433230566F7465733A20667574757265206C6F6F6B757000000000000000 PUSH1 0x44 DUP3 ADD MSTORE PUSH1 0x64 SWAP1 REVERT JUMPDEST SWAP2 SWAP1 DUP3 SUB SWAP2 DUP3 GT PUSH2 0x70F JUMPI JUMP JUMPDEST ISZERO PUSH2 0x1CB7 JUMPI JUMP JUMPDEST PUSH1 0x40 MLOAD PUSH3 0x461BCD PUSH1 0xE5 SHL DUP2 MSTORE PUSH1 0x20 PUSH1 0x4 DUP3 ADD MSTORE PUSH1 0x19 PUSH1 0x24 DUP3 ADD MSTORE PUSH32 0x4552433230566F7465733A20696E76616C6964206E6F6E636500000000000000 PUSH1 0x44 DUP3 ADD MSTORE PUSH1 0x64 SWAP1 REVERT JUMPDEST PUSH1 0x9 PUSH1 0x20 MSTORE PUSH32 0xEC8156718A8372B1DB44BB411437D0870F3E3790D4A08526D024CE1B0B668F6B SLOAD PUSH1 0x1 PUSH1 0x1 PUSH1 0xA0 SHL SUB SWAP2 DUP3 AND PUSH1 0x0 SWAP1 DUP2 MSTORE PUSH1 0x40 SWAP1 KECCAK256 SLOAD PUSH2 0x1990 SWAP4 SWAP3 SWAP1 DUP2 AND SWAP2 AND PUSH2 0x1E3B JUMP JUMPDEST PUSH1 0x1 PUSH1 0x1 PUSH1 0xA0 SHL SUB SWAP1 DUP2 AND PUSH1 0x0 SWAP1 DUP2 MSTORE PUSH1 0x9 PUSH1 0x20 MSTORE PUSH1 0x40 DUP2 KECCAK256 SLOAD SWAP1 DUP1 MSTORE PUSH32 0xEC8156718A8372B1DB44BB411437D0870F3E3790D4A08526D024CE1B0B668F6B SLOAD PUSH2 0x1990 SWAP4 SWAP3 SWAP1 DUP2 AND SWAP2 AND PUSH2 0x1E3B JUMP JUMPDEST PUSH1 0x1 PUSH1 0x1 PUSH1 0xA0 SHL SUB SWAP1 DUP2 AND PUSH1 0x0 SWAP1 DUP2 MSTORE PUSH1 0x9 PUSH1 0x20 MSTORE PUSH1 0x40 DUP1 DUP3 KECCAK256 SLOAD SWAP4 DUP4 AND DUP3 MSTORE SWAP1 KECCAK256 SLOAD PUSH2 0x1990 SWAP4 SWAP3 SWAP1 DUP3 AND SWAP2 AND PUSH2 0x1E3B JUMP JUMPDEST PUSH2 0x1990 SWAP2 PUSH1 0x1 DUP1 PUSH1 0xA0 SHL SUB DUP1 SWAP3 AND PUSH1 0x0 SWAP3 DUP2 DUP5 MSTORE PUSH1 0x9 PUSH1 0x20 MSTORE DUP1 PUSH1 0x40 DUP6 KECCAK256 SLOAD AND DUP1 SWAP3 DUP6 PUSH1 0x20 MSTORE PUSH32 0x3134E8A2E6D97E929A7E54011EA5485D7D196DD5F0BA4D4EF95803E8E3FC257F PUSH1 0x40 DUP8 KECCAK256 SLOAD SWAP7 PUSH1 0x9 PUSH1 0x20 MSTORE PUSH1 0x40 DUP2 KECCAK256 SWAP5 DUP8 AND SWAP5 DUP6 PUSH12 0xFFFFFFFFFFFFFFFFFFFFFFFF PUSH1 0xA0 SHL DUP3 SLOAD AND OR SWAP1 SSTORE DUP1 LOG4 JUMPDEST PUSH1 0x1 PUSH1 0x1 PUSH1 0xA0 SHL SUB DUP1 DUP4 AND SWAP4 SWAP3 SWAP2 AND DUP1 DUP5 EQ ISZERO DUP1 PUSH2 0x204D JUMPI JUMPDEST PUSH2 0x1E5E JUMPI POP POP POP POP JUMP JUMPDEST DUP1 PUSH2 0x1ECC JUMPI JUMPDEST POP DUP3 PUSH2 0x1E71 JUMPI JUMPDEST DUP1 PUSH2 0x1B48 JUMP JUMPDEST PUSH1 0x1 PUSH1 0x1 PUSH1 0xA0 SHL SUB AND PUSH1 0x0 SWAP1 DUP2 MSTORE PUSH1 0xA PUSH1 0x20 MSTORE PUSH1 0x40 SWAP1 KECCAK256 PUSH32 0xDEC2BACDD2F05B59DE34DA9B523DFF8BE42E5E38E818C82FDB0BAE774387A724 SWAP2 PUSH2 0x1EB3 SWAP2 PUSH2 0x2207 JUMP JUMPDEST PUSH1 0x40 DUP1 MLOAD SWAP3 DUP4 MSTORE PUSH1 0x20 DUP4 ADD SWAP2 SWAP1 SWAP2 MSTORE SWAP1 LOG2 CODESIZE DUP1 DUP1 PUSH2 0x1E6B JUMP JUMPDEST DUP1 PUSH1 0x0 MSTORE PUSH1 0xA PUSH1 0x20 MSTORE PUSH32 0xDEC2BACDD2F05B59DE34DA9B523DFF8BE42E5E38E818C82FDB0BAE774387A724 PUSH1 0x40 PUSH1 0x0 KECCAK256 DUP1 SLOAD DUP1 ISZERO SWAP2 DUP3 PUSH1 0x0 EQ PUSH2 0x202A JUMPI PUSH2 0x1F10 PUSH2 0x1BFA JUMP JUMPDEST PUSH1 0x0 DUP2 MSTORE PUSH1 0x0 PUSH1 0x20 DUP3 ADD MSTORE SWAP2 JUMPDEST PUSH1 0x20 DUP4 ADD MLOAD PUSH2 0x1F3C SWAP1 PUSH1 0x1 PUSH1 0x1 PUSH1 0xE0 SHL SUB AND JUMPDEST PUSH1 0x1 PUSH1 0x1 PUSH1 0xE0 SHL SUB AND SWAP1 JUMP JUMPDEST SWAP3 PUSH2 0x1F47 DUP10 DUP6 PUSH2 0x2EF4 JUMP JUMPDEST SWAP5 ISZERO SWAP1 DUP2 PUSH2 0x2007 JUMPI JUMPDEST POP ISZERO PUSH2 0x1FA5 JUMPI PUSH2 0x1F78 PUSH2 0x1F8F SWAP3 PUSH2 0x1F66 DUP7 PUSH2 0x2C08 JUMP JUMPDEST SWAP3 PUSH1 0x0 NOT ADD SWAP1 PUSH1 0x0 MSTORE PUSH1 0x20 PUSH1 0x0 KECCAK256 ADD SWAP1 JUMP JUMPDEST SWAP1 PUSH4 0xFFFFFFFF DUP3 SLOAD SWAP2 DUP2 NOT SWAP1 PUSH1 0x20 SHL AND SWAP2 AND OR SWAP1 SSTORE JUMP JUMPDEST PUSH1 0x40 DUP1 MLOAD SWAP2 DUP3 MSTORE PUSH1 0x20 DUP3 ADD SWAP3 SWAP1 SWAP3 MSTORE LOG2 CODESIZE PUSH2 0x1E64 JUMP JUMPDEST POP PUSH2 0x2002 SWAP1 PUSH2 0x1FC9 PUSH2 0x1FC4 PUSH2 0x1FB9 NUMBER PUSH2 0x2C71 JUMP JUMPDEST PUSH6 0xFFFFFFFFFFFF AND SWAP1 JUMP JUMPDEST PUSH2 0x2CD8 JUMP JUMPDEST SWAP1 PUSH2 0x1FFD PUSH2 0x1FD6 DUP7 PUSH2 0x2C08 JUMP JUMPDEST PUSH2 0x1FED PUSH2 0x1FE1 PUSH2 0x1BFA JUMP JUMPDEST PUSH4 0xFFFFFFFF SWAP1 SWAP6 AND DUP6 MSTORE JUMP JUMPDEST PUSH1 0x1 PUSH1 0x1 PUSH1 0xE0 SHL SUB AND PUSH1 0x20 DUP5 ADD MSTORE JUMP JUMPDEST PUSH2 0x20BD JUMP JUMPDEST PUSH2 0x1F8F JUMP JUMPDEST MLOAD PUSH4 0xFFFFFFFF AND SWAP1 POP PUSH4 0xFFFFFFFF PUSH2 0x2021 PUSH2 0x1FB9 NUMBER PUSH2 0x2C71 JUMP JUMPDEST SWAP2 AND EQ CODESIZE PUSH2 0x1F50 JUMP JUMPDEST PUSH2 0x2047 PUSH2 0x2042 PUSH1 0x0 NOT DUP5 ADD DUP4 PUSH1 0x0 MSTORE PUSH1 0x20 PUSH1 0x0 KECCAK256 ADD SWAP1 JUMP JUMPDEST PUSH2 0x1C35 JUMP JUMPDEST SWAP2 PUSH2 0x1F1D JUMP JUMPDEST POP DUP3 ISZERO ISZERO PUSH2 0x1E54 JUMP JUMPDEST PUSH1 0xB SLOAD SWAP1 PUSH1 0x1 PUSH1 0x40 SHL DUP3 LT ISZERO PUSH2 0x16C7 JUMPI PUSH1 0x1 DUP3 ADD DUP1 PUSH1 0xB SSTORE DUP3 LT ISZERO PUSH2 0x1679 JUMPI PUSH1 0xB PUSH1 0x0 MSTORE DUP1 MLOAD PUSH1 0x20 SWAP2 DUP3 ADD MLOAD SWAP1 SWAP2 SHL PUSH4 0xFFFFFFFF NOT AND PUSH4 0xFFFFFFFF SWAP2 SWAP1 SWAP2 AND OR PUSH32 0x175B7A638427703F0DBE7BB9BBF987A2551717B34E79F33B5B1008D1FA01DB9 SWAP1 SWAP2 ADD SSTORE JUMP JUMPDEST DUP1 SLOAD PUSH1 0x1 PUSH1 0x40 SHL DUP2 LT ISZERO PUSH2 0x16C7 JUMPI PUSH2 0x20DA SWAP2 PUSH1 0x1 DUP3 ADD DUP2 SSTORE PUSH2 0x1C1D JUMP JUMPDEST PUSH2 0x2101 JUMPI DUP2 MLOAD PUSH1 0x20 SWAP3 DUP4 ADD MLOAD SWAP1 SWAP3 SHL PUSH4 0xFFFFFFFF NOT AND PUSH4 0xFFFFFFFF SWAP3 SWAP1 SWAP3 AND SWAP2 SWAP1 SWAP2 OR SWAP1 SSTORE JUMP JUMPDEST PUSH4 0x4E487B71 PUSH1 0xE0 SHL PUSH1 0x0 MSTORE PUSH1 0x0 PUSH1 0x4 MSTORE PUSH1 0x24 PUSH1 0x0 REVERT JUMPDEST PUSH1 0xB SLOAD SWAP1 SWAP2 DUP2 ISZERO SWAP2 DUP3 ISZERO PUSH2 0x21F2 JUMPI PUSH2 0x212D PUSH2 0x1BFA JUMP JUMPDEST PUSH1 0x0 DUP2 MSTORE PUSH1 0x0 PUSH1 0x20 DUP3 ADD MSTORE JUMPDEST PUSH1 0x20 DUP2 ADD MLOAD PUSH2 0x215B SWAP1 PUSH2 0x2154 SWAP1 PUSH1 0x1 PUSH1 0x1 PUSH1 0xE0 SHL SUB AND PUSH2 0x1F30 JUMP JUMPDEST SWAP6 DUP7 PUSH2 0x2F01 JUMP JUMPDEST SWAP4 ISZERO SWAP1 DUP2 PUSH2 0x21CF JUMPI JUMPDEST POP ISZERO PUSH2 0x2184 JUMPI PUSH2 0x1990 SWAP1 PUSH2 0x1F78 PUSH2 0x217A DUP6 PUSH2 0x2C08 JUMP JUMPDEST SWAP2 PUSH1 0x0 NOT ADD PUSH2 0x2319 JUMP JUMPDEST POP PUSH2 0x1990 PUSH2 0x2197 PUSH2 0x1FC4 PUSH2 0x1FB9 NUMBER PUSH2 0x2C71 JUMP JUMPDEST PUSH2 0x21CA PUSH2 0x21A3 DUP6 PUSH2 0x2C08 JUMP JUMPDEST PUSH2 0x21BA PUSH2 0x21AE PUSH2 0x1BFA JUMP JUMPDEST PUSH4 0xFFFFFFFF SWAP1 SWAP5 AND DUP5 MSTORE JUMP JUMPDEST PUSH1 0x1 PUSH1 0x1 PUSH1 0xE0 SHL SUB AND PUSH1 0x20 DUP4 ADD MSTORE JUMP JUMPDEST PUSH2 0x2056 JUMP JUMPDEST MLOAD PUSH4 0xFFFFFFFF AND SWAP1 POP PUSH4 0xFFFFFFFF PUSH2 0x21E9 PUSH2 0x1FB9 NUMBER PUSH2 0x2C71 JUMP JUMPDEST SWAP2 AND EQ CODESIZE PUSH2 0x2164 JUMP JUMPDEST PUSH2 0x2202 PUSH2 0x2042 PUSH1 0x0 NOT DUP4 ADD PUSH2 0x2319 JUMP JUMPDEST PUSH2 0x2139 JUMP JUMPDEST SWAP1 SWAP2 DUP2 SLOAD SWAP2 DUP3 ISZERO SWAP3 DUP4 PUSH1 0x0 EQ PUSH2 0x22A3 JUMPI PUSH2 0x221F PUSH2 0x1BFA JUMP JUMPDEST PUSH1 0x0 DUP2 MSTORE PUSH1 0x0 PUSH1 0x20 DUP3 ADD MSTORE JUMPDEST PUSH1 0x20 DUP2 ADD MLOAD PUSH2 0x224D SWAP1 PUSH2 0x2246 SWAP1 PUSH1 0x1 PUSH1 0x1 PUSH1 0xE0 SHL SUB AND PUSH2 0x1F30 JUMP JUMPDEST SWAP7 DUP8 PUSH2 0x2F01 JUMP JUMPDEST SWAP5 ISZERO SWAP1 DUP2 PUSH2 0x2280 JUMPI JUMPDEST POP ISZERO PUSH2 0x226C JUMPI PUSH2 0x1F78 PUSH2 0x1990 SWAP3 PUSH2 0x1F66 DUP7 PUSH2 0x2C08 JUMP JUMPDEST POP PUSH2 0x1990 SWAP1 PUSH2 0x1FC9 PUSH2 0x1FC4 PUSH2 0x1FB9 NUMBER PUSH2 0x2C71 JUMP JUMPDEST MLOAD PUSH4 0xFFFFFFFF AND SWAP1 POP PUSH4 0xFFFFFFFF PUSH2 0x229A PUSH2 0x1FB9 NUMBER PUSH2 0x2C71 JUMP JUMPDEST SWAP2 AND EQ CODESIZE PUSH2 0x2256 JUMP JUMPDEST PUSH2 0x22BB PUSH2 0x2042 PUSH1 0x0 NOT DUP4 ADD DUP5 PUSH1 0x0 MSTORE PUSH1 0x20 PUSH1 0x0 KECCAK256 ADD SWAP1 JUMP JUMPDEST PUSH2 0x222B JUMP JUMPDEST PUSH1 0xB SLOAD SWAP1 SWAP2 DUP2 ISZERO SWAP2 DUP3 ISZERO PUSH2 0x2304 JUMPI PUSH2 0x22D6 PUSH2 0x1BFA JUMP JUMPDEST PUSH1 0x0 DUP2 MSTORE PUSH1 0x0 PUSH1 0x20 DUP3 ADD MSTORE JUMPDEST PUSH1 0x20 DUP2 ADD MLOAD PUSH2 0x215B SWAP1 PUSH2 0x22FD SWAP1 PUSH1 0x1 PUSH1 0x1 PUSH1 0xE0 SHL SUB AND PUSH2 0x1F30 JUMP JUMPDEST SWAP6 DUP7 PUSH2 0x2EF4 JUMP JUMPDEST PUSH2 0x2314 PUSH2 0x2042 PUSH1 0x0 NOT DUP4 ADD PUSH2 0x2319 JUMP JUMPDEST PUSH2 0x22E2 JUMP JUMPDEST PUSH1 0xB PUSH1 0x0 MSTORE PUSH32 0x175B7A638427703F0DBE7BB9BBF987A2551717B34E79F33B5B1008D1FA01DB9 ADD SWAP1 JUMP JUMPDEST PUSH1 0x40 MLOAD SWAP1 PUSH1 0x80 DUP3 ADD DUP3 DUP2 LT PUSH8 0xFFFFFFFFFFFFFFFF DUP3 GT OR PUSH2 0x16C7 JUMPI PUSH1 0x40 MSTORE PUSH1 0x42 DUP3 MSTORE PUSH1 0x60 CALLDATASIZE PUSH1 0x20 DUP5 ADD CALLDATACOPY JUMP JUMPDEST DUP1 MLOAD ISZERO PUSH2 0x1679 JUMPI PUSH1 0x20 ADD SWAP1 JUMP JUMPDEST DUP1 MLOAD PUSH1 0x1 LT ISZERO PUSH2 0x1679 JUMPI PUSH1 0x21 ADD SWAP1 JUMP JUMPDEST SWAP1 DUP2 MLOAD DUP2 LT ISZERO PUSH2 0x1679 JUMPI ADD PUSH1 0x20 ADD SWAP1 JUMP JUMPDEST DUP1 ISZERO PUSH2 0x70F JUMPI PUSH1 0x0 NOT ADD SWAP1 JUMP JUMPDEST ISZERO PUSH2 0x23B1 JUMPI JUMP JUMPDEST PUSH1 0x64 PUSH1 0x40 MLOAD PUSH3 0x461BCD PUSH1 0xE5 SHL DUP2 MSTORE PUSH1 0x20 PUSH1 0x4 DUP3 ADD MSTORE PUSH1 0x20 PUSH1 0x24 DUP3 ADD MSTORE PUSH32 0x537472696E67733A20686578206C656E67746820696E73756666696369656E74 PUSH1 0x44 DUP3 ADD MSTORE REVERT JUMPDEST PUSH1 0x40 MLOAD SWAP1 PUSH1 0x60 DUP3 ADD DUP3 DUP2 LT PUSH8 0xFFFFFFFFFFFFFFFF DUP3 GT OR PUSH2 0x16C7 JUMPI PUSH1 0x40 MSTORE PUSH1 0x2A DUP3 MSTORE PUSH1 0x40 CALLDATASIZE PUSH1 0x20 DUP5 ADD CALLDATACOPY PUSH1 0x30 PUSH2 0x242A DUP4 PUSH2 0x236F JUMP JUMPDEST MSTORE8 PUSH1 0x78 PUSH2 0x2436 DUP4 PUSH2 0x237C JUMP JUMPDEST MSTORE8 PUSH1 0x29 SWAP1 JUMPDEST PUSH1 0x1 DUP3 GT PUSH2 0x244E JUMPI PUSH2 0x31B SWAP2 POP ISZERO PUSH2 0x23AA JUMP JUMPDEST PUSH1 0xF DUP2 AND SWAP1 PUSH1 0x10 DUP3 LT ISZERO PUSH2 0x1679 JUMPI PUSH2 0x2480 SWAP2 PUSH16 0x181899199A1A9B1B9C1CB0B131B232B3 PUSH1 0x81 SHL SWAP1 BYTE PUSH2 0x166A DUP5 DUP7 PUSH2 0x238C JUMP JUMPDEST SWAP1 PUSH2 0x243B JUMP JUMPDEST PUSH32 0x9F2DF0FED2C77648DE5860A4CC508CD0818C85B8B8A1AB4CEEEF8D981C8956A6 PUSH2 0x24AF PUSH2 0x2343 JUMP JUMPDEST SWAP1 PUSH1 0x30 PUSH2 0x24BB DUP4 PUSH2 0x236F JUMP JUMPDEST MSTORE8 PUSH1 0x78 PUSH2 0x24C7 DUP4 PUSH2 0x237C JUMP JUMPDEST MSTORE8 PUSH1 0x41 SWAP1 JUMPDEST PUSH1 0x1 DUP3 GT PUSH2 0x24DF JUMPI PUSH2 0x31B SWAP2 POP ISZERO PUSH2 0x23AA JUMP JUMPDEST PUSH1 0xF DUP2 AND SWAP1 PUSH1 0x10 DUP3 LT ISZERO PUSH2 0x1679 JUMPI PUSH2 0x2511 SWAP2 PUSH16 0x181899199A1A9B1B9C1CB0B131B232B3 PUSH1 0x81 SHL SWAP1 BYTE PUSH2 0x166A DUP5 DUP7 PUSH2 0x238C JUMP JUMPDEST SWAP1 PUSH2 0x24CC JUMP JUMPDEST PUSH32 0x3C11D16CBAFFD01DF69CE1C404F6340EE057498F5F00246190EA54220576A848 PUSH2 0x2540 PUSH2 0x2343 JUMP JUMPDEST SWAP1 PUSH1 0x30 PUSH2 0x254C DUP4 PUSH2 0x236F JUMP JUMPDEST MSTORE8 PUSH1 0x78 PUSH2 0x2558 DUP4 PUSH2 0x237C JUMP JUMPDEST MSTORE8 PUSH1 0x41 SWAP1 JUMPDEST PUSH1 0x1 DUP3 GT PUSH2 0x2570 JUMPI PUSH2 0x31B SWAP2 POP ISZERO PUSH2 0x23AA JUMP JUMPDEST PUSH1 0xF DUP2 AND SWAP1 PUSH1 0x10 DUP3 LT ISZERO PUSH2 0x1679 JUMPI PUSH2 0x25A2 SWAP2 PUSH16 0x181899199A1A9B1B9C1CB0B131B232B3 PUSH1 0x81 SHL SWAP1 BYTE PUSH2 0x166A DUP5 DUP7 PUSH2 0x238C JUMP JUMPDEST SWAP1 PUSH2 0x255D JUMP JUMPDEST SWAP2 PUSH2 0x31B SWAP4 SWAP2 PUSH2 0x25B7 SWAP4 PUSH2 0x26FF JUMP JUMPDEST SWAP2 SWAP1 SWAP2 PUSH2 0x25DF JUMP JUMPDEST PUSH1 0x5 GT ISZERO PUSH2 0x25C9 JUMPI JUMP JUMPDEST PUSH4 0x4E487B71 PUSH1 0xE0 SHL PUSH1 0x0 MSTORE PUSH1 0x21 PUSH1 0x4 MSTORE PUSH1 0x24 PUSH1 0x0 REVERT JUMPDEST PUSH2 0x25E8 DUP2 PUSH2 0x25BF JUMP JUMPDEST DUP1 PUSH2 0x25F0 JUMPI POP JUMP JUMPDEST PUSH2 0x25F9 DUP2 PUSH2 0x25BF JUMP JUMPDEST PUSH1 0x1 DUP2 SUB PUSH2 0x2646 JUMPI PUSH1 0x40 MLOAD PUSH3 0x461BCD PUSH1 0xE5 SHL DUP2 MSTORE PUSH1 0x20 PUSH1 0x4 DUP3 ADD MSTORE PUSH1 0x18 PUSH1 0x24 DUP3 ADD MSTORE PUSH32 0x45434453413A20696E76616C6964207369676E61747572650000000000000000 PUSH1 0x44 DUP3 ADD MSTORE PUSH1 0x64 SWAP1 REVERT JUMPDEST PUSH2 0x264F DUP2 PUSH2 0x25BF JUMP JUMPDEST PUSH1 0x2 DUP2 SUB PUSH2 0x269C JUMPI PUSH1 0x40 MLOAD PUSH3 0x461BCD PUSH1 0xE5 SHL DUP2 MSTORE PUSH1 0x20 PUSH1 0x4 DUP3 ADD MSTORE PUSH1 0x1F PUSH1 0x24 DUP3 ADD MSTORE PUSH32 0x45434453413A20696E76616C6964207369676E6174757265206C656E67746800 PUSH1 0x44 DUP3 ADD MSTORE PUSH1 0x64 SWAP1 REVERT JUMPDEST DUP1 PUSH2 0x26A8 PUSH1 0x3 SWAP3 PUSH2 0x25BF JUMP JUMPDEST EQ PUSH2 0x26AF JUMPI JUMP JUMPDEST PUSH1 0x40 MLOAD PUSH3 0x461BCD PUSH1 0xE5 SHL DUP2 MSTORE PUSH1 0x20 PUSH1 0x4 DUP3 ADD MSTORE PUSH1 0x22 PUSH1 0x24 DUP3 ADD MSTORE PUSH32 0x45434453413A20696E76616C6964207369676E6174757265202773272076616C PUSH1 0x44 DUP3 ADD MSTORE PUSH2 0x7565 PUSH1 0xF0 SHL PUSH1 0x64 DUP3 ADD MSTORE PUSH1 0x84 SWAP1 REVERT JUMPDEST SWAP3 SWAP2 SWAP1 PUSH32 0x7FFFFFFFFFFFFFFFFFFFFFFFFFFFFFFF5D576E7357A4501DDFE92F46681B20A0 DUP4 GT PUSH2 0x2782 JUMPI SWAP2 PUSH1 0x80 SWAP5 SWAP4 SWAP2 PUSH1 0xFF PUSH1 0x20 SWAP5 PUSH1 0x40 MLOAD SWAP5 DUP6 MSTORE AND DUP5 DUP5 ADD MSTORE PUSH1 0x40 DUP4 ADD MSTORE PUSH1 0x60 DUP3 ADD MSTORE PUSH1 0x0 SWAP4 DUP5 SWAP2 DUP3 DUP1 MSTORE PUSH1 0x1 GAS STATICCALL ISZERO PUSH2 0x2775 JUMPI DUP2 MLOAD PUSH1 0x1 PUSH1 0x1 PUSH1 0xA0 SHL SUB DUP2 AND ISZERO PUSH2 0x276F JUMPI SWAP2 SWAP1 JUMP JUMPDEST POP PUSH1 0x1 SWAP1 JUMP JUMPDEST POP PUSH1 0x40 MLOAD SWAP1 RETURNDATASIZE SWAP1 DUP3 RETURNDATACOPY RETURNDATASIZE SWAP1 REVERT JUMPDEST POP POP POP POP PUSH1 0x0 SWAP1 PUSH1 0x3 SWAP1 JUMP JUMPDEST ADDRESS PUSH32 0x0 PUSH1 0x1 PUSH1 0x1 PUSH1 0xA0 SHL SUB AND EQ DUP1 PUSH2 0x287F JUMPI JUMPDEST ISZERO PUSH2 0x27E9 JUMPI PUSH32 0x0 SWAP1 JUMP JUMPDEST PUSH1 0x40 MLOAD PUSH1 0x20 DUP2 ADD SWAP1 PUSH32 0x8B73C3C69BB8FE3D512ECC4CF759CC79239F7B179B0FFACAA9A75D522B39400F DUP3 MSTORE PUSH32 0x0 PUSH1 0x40 DUP3 ADD MSTORE PUSH32 0x0 PUSH1 0x60 DUP3 ADD MSTORE CHAINID PUSH1 0x80 DUP3 ADD MSTORE ADDRESS PUSH1 0xA0 DUP3 ADD MSTORE PUSH1 0xA0 DUP2 MSTORE PUSH2 0x2879 DUP2 PUSH2 0x16E8 JUMP JUMPDEST MLOAD SWAP1 KECCAK256 SWAP1 JUMP JUMPDEST POP PUSH32 0x0 CHAINID EQ PUSH2 0x27C0 JUMP JUMPDEST PUSH1 0x42 SWAP1 PUSH2 0x28B3 PUSH2 0x278E JUMP JUMPDEST SWAP1 PUSH1 0x40 MLOAD SWAP2 PUSH2 0x1901 PUSH1 0xF0 SHL DUP4 MSTORE PUSH1 0x2 DUP4 ADD MSTORE PUSH1 0x22 DUP3 ADD MSTORE KECCAK256 SWAP1 JUMP JUMPDEST PUSH1 0xFF DUP2 EQ PUSH2 0x290C JUMPI PUSH1 0xFF DUP2 AND SWAP1 PUSH1 0x1F DUP3 GT PUSH2 0x28FA JUMPI PUSH1 0x40 MLOAD SWAP2 PUSH2 0x28F0 DUP4 PUSH2 0x16AB JUMP JUMPDEST DUP3 MSTORE PUSH1 0x20 DUP3 ADD MSTORE SWAP1 JUMP JUMPDEST PUSH1 0x40 MLOAD PUSH4 0x2CD44AC3 PUSH1 0xE2 SHL DUP2 MSTORE PUSH1 0x4 SWAP1 REVERT JUMPDEST POP PUSH1 0x40 MLOAD PUSH1 0x5 SLOAD DUP2 PUSH1 0x0 PUSH2 0x291F DUP4 PUSH2 0x17B9 JUMP JUMPDEST DUP1 DUP4 MSTORE SWAP3 PUSH1 0x1 SWAP1 DUP2 DUP2 AND SWAP1 DUP2 ISZERO PUSH2 0x29A5 JUMPI POP PUSH1 0x1 EQ PUSH2 0x2946 JUMPI JUMPDEST POP PUSH2 0x31B SWAP3 POP SUB DUP3 PUSH2 0x1704 JUMP JUMPDEST PUSH1 0x5 PUSH1 0x0 SWAP1 DUP2 MSTORE SWAP2 POP PUSH32 0x36B6384B5ECA791C62761152D0C79BB0604C104A5FB6F4EB0703F3154BB3DB0 JUMPDEST DUP5 DUP4 LT PUSH2 0x298A JUMPI POP PUSH2 0x31B SWAP4 POP POP DUP2 ADD PUSH1 0x20 ADD CODESIZE PUSH2 0x2939 JUMP JUMPDEST DUP2 SWAP4 POP SWAP1 DUP2 PUSH1 0x20 SWAP3 SLOAD DUP4 DUP6 DUP10 ADD ADD MSTORE ADD SWAP2 ADD SWAP1 SWAP2 DUP5 SWAP3 PUSH2 0x2971 JUMP JUMPDEST SWAP1 POP PUSH1 0x20 SWAP3 POP PUSH2 0x31B SWAP5 SWAP2 POP PUSH1 0xFF NOT AND DUP3 DUP5 ADD MSTORE ISZERO ISZERO PUSH1 0x5 SHL DUP3 ADD ADD CODESIZE PUSH2 0x2939 JUMP JUMPDEST PUSH1 0xFF DUP2 EQ PUSH2 0x29E9 JUMPI PUSH1 0xFF DUP2 AND SWAP1 PUSH1 0x1F DUP3 GT PUSH2 0x28FA JUMPI PUSH1 0x40 MLOAD SWAP2 PUSH2 0x28F0 DUP4 PUSH2 0x16AB JUMP JUMPDEST POP PUSH1 0x40 MLOAD PUSH1 0x6 SLOAD DUP2 PUSH1 0x0 PUSH2 0x29FC DUP4 PUSH2 0x17B9 JUMP JUMPDEST DUP1 DUP4 MSTORE SWAP3 PUSH1 0x1 SWAP1 DUP2 DUP2 AND SWAP1 DUP2 ISZERO PUSH2 0x29A5 JUMPI POP PUSH1 0x1 EQ PUSH2 0x2A22 JUMPI POP PUSH2 0x31B SWAP3 POP SUB DUP3 PUSH2 0x1704 JUMP JUMPDEST PUSH1 0x6 PUSH1 0x0 SWAP1 DUP2 MSTORE SWAP2 POP PUSH32 0xF652222313E28459528D920B65115C16C04F3EFC82AAEDC97BE59F3F377C0D3F JUMPDEST DUP5 DUP4 LT PUSH2 0x2A66 JUMPI POP PUSH2 0x31B SWAP4 POP POP DUP2 ADD PUSH1 0x20 ADD CODESIZE PUSH2 0x2939 JUMP JUMPDEST DUP2 SWAP4 POP SWAP1 DUP2 PUSH1 0x20 SWAP3 SLOAD DUP4 DUP6 DUP10 ADD ADD MSTORE ADD SWAP2 ADD SWAP1 SWAP2 DUP5 SWAP3 PUSH2 0x2A4D JUMP JUMPDEST DUP2 ISZERO PUSH2 0x2A8B JUMPI DIV SWAP1 JUMP JUMPDEST PUSH4 0x4E487B71 PUSH1 0xE0 SHL PUSH1 0x0 MSTORE PUSH1 0x12 PUSH1 0x4 MSTORE PUSH1 0x24 PUSH1 0x0 REVERT JUMPDEST SWAP1 DUP1 DUP3 AND SWAP2 XOR PUSH1 0x1 SHR DUP2 ADD DUP1 SWAP2 GT PUSH2 0x70F JUMPI SWAP1 JUMP JUMPDEST DUP1 ISZERO PUSH2 0x2BF0 JUMPI DUP1 PUSH2 0x2B89 PUSH2 0x2B82 PUSH2 0x2B78 PUSH2 0x2B6E PUSH2 0x2B64 PUSH2 0x2B5A PUSH2 0x2B50 PUSH2 0x2B46 PUSH1 0x1 PUSH2 0x31B SWAP11 PUSH1 0x0 SWAP1 DUP12 PUSH1 0x80 SHR DUP1 PUSH2 0x2BE4 JUMPI JUMPDEST POP DUP1 PUSH1 0x40 SHR DUP1 PUSH2 0x2BD7 JUMPI JUMPDEST POP DUP1 PUSH1 0x20 SHR DUP1 PUSH2 0x2BCA JUMPI JUMPDEST POP DUP1 PUSH1 0x10 SHR DUP1 PUSH2 0x2BBD JUMPI JUMPDEST POP DUP1 PUSH1 0x8 SHR DUP1 PUSH2 0x2BB0 JUMPI JUMPDEST POP DUP1 PUSH1 0x4 SHR DUP1 PUSH2 0x2BA3 JUMPI JUMPDEST POP DUP1 PUSH1 0x2 SHR DUP1 PUSH2 0x2B96 JUMPI JUMPDEST POP DUP3 SHR PUSH2 0x2B8F JUMPI JUMPDEST DUP2 SHR SHL PUSH2 0x2B3F DUP2 DUP12 PUSH2 0x2A81 JUMP JUMPDEST ADD PUSH1 0x1 SHR SWAP1 JUMP JUMPDEST PUSH2 0x2B3F DUP2 DUP11 PUSH2 0x2A81 JUMP JUMPDEST PUSH2 0x2B3F DUP2 DUP10 PUSH2 0x2A81 JUMP JUMPDEST PUSH2 0x2B3F DUP2 DUP9 PUSH2 0x2A81 JUMP JUMPDEST PUSH2 0x2B3F DUP2 DUP8 PUSH2 0x2A81 JUMP JUMPDEST PUSH2 0x2B3F DUP2 DUP7 PUSH2 0x2A81 JUMP JUMPDEST PUSH2 0x2B3F DUP2 DUP6 PUSH2 0x2A81 JUMP JUMPDEST DUP1 SWAP3 PUSH2 0x2A81 JUMP JUMPDEST SWAP1 PUSH2 0x2BF6 JUMP JUMPDEST DUP2 ADD PUSH2 0x2B32 JUMP JUMPDEST PUSH1 0x2 SWAP2 POP SWAP2 ADD SWAP1 CODESIZE PUSH2 0x2B2A JUMP JUMPDEST PUSH1 0x4 SWAP2 POP SWAP2 ADD SWAP1 CODESIZE PUSH2 0x2B1F JUMP JUMPDEST PUSH1 0x8 SWAP2 POP SWAP2 ADD SWAP1 CODESIZE PUSH2 0x2B14 JUMP JUMPDEST PUSH1 0x10 SWAP2 POP SWAP2 ADD SWAP1 CODESIZE PUSH2 0x2B09 JUMP JUMPDEST PUSH1 0x20 SWAP2 POP SWAP2 ADD SWAP1 CODESIZE PUSH2 0x2AFE JUMP JUMPDEST PUSH1 0x40 SWAP2 POP SWAP2 ADD SWAP1 CODESIZE PUSH2 0x2AF3 JUMP JUMPDEST SWAP2 POP POP PUSH1 0x80 SWAP1 CODESIZE PUSH2 0x2AE8 JUMP JUMPDEST POP PUSH1 0x0 SWAP1 JUMP JUMPDEST SWAP1 DUP1 DUP3 LT ISZERO PUSH2 0x2C03 JUMPI POP SWAP1 JUMP JUMPDEST SWAP1 POP SWAP1 JUMP JUMPDEST PUSH1 0x1 PUSH1 0x1 PUSH1 0xE0 SHL SUB SWAP1 DUP2 DUP2 GT PUSH2 0x2C1C JUMPI AND SWAP1 JUMP JUMPDEST PUSH1 0x40 MLOAD PUSH3 0x461BCD PUSH1 0xE5 SHL DUP2 MSTORE PUSH1 0x20 PUSH1 0x4 DUP3 ADD MSTORE PUSH1 0x27 PUSH1 0x24 DUP3 ADD MSTORE PUSH32 0x53616665436173743A2076616C756520646F65736E27742066697420696E2032 PUSH1 0x44 DUP3 ADD MSTORE PUSH7 0x32342062697473 PUSH1 0xC8 SHL PUSH1 0x64 DUP3 ADD MSTORE PUSH1 0x84 SWAP1 REVERT JUMPDEST PUSH6 0xFFFFFFFFFFFF SWAP1 DUP2 DUP2 GT PUSH2 0x2C84 JUMPI AND SWAP1 JUMP JUMPDEST PUSH1 0x40 MLOAD PUSH3 0x461BCD PUSH1 0xE5 SHL DUP2 MSTORE PUSH1 0x20 PUSH1 0x4 DUP3 ADD MSTORE PUSH1 0x26 PUSH1 0x24 DUP3 ADD MSTORE PUSH32 0x53616665436173743A2076616C756520646F65736E27742066697420696E2034 PUSH1 0x44 DUP3 ADD MSTORE PUSH6 0x382062697473 PUSH1 0xD0 SHL PUSH1 0x64 DUP3 ADD MSTORE PUSH1 0x84 SWAP1 REVERT JUMPDEST PUSH4 0xFFFFFFFF SWAP1 DUP2 DUP2 GT PUSH2 0x2CE9 JUMPI AND SWAP1 JUMP JUMPDEST PUSH1 0x40 MLOAD PUSH3 0x461BCD PUSH1 0xE5 SHL DUP2 MSTORE PUSH1 0x20 PUSH1 0x4 DUP3 ADD MSTORE PUSH1 0x26 PUSH1 0x24 DUP3 ADD MSTORE PUSH32 0x53616665436173743A2076616C756520646F65736E27742066697420696E2033 PUSH1 0x44 DUP3 ADD MSTORE PUSH6 0x322062697473 PUSH1 0xD0 SHL PUSH1 0x64 DUP3 ADD MSTORE PUSH1 0x84 SWAP1 REVERT JUMPDEST ISZERO PUSH2 0x2D44 JUMPI JUMP JUMPDEST PUSH1 0x40 MLOAD PUSH3 0x461BCD PUSH1 0xE5 SHL DUP2 MSTORE PUSH1 0x20 PUSH1 0x4 DUP3 ADD MSTORE PUSH1 0x30 PUSH1 0x24 DUP3 ADD MSTORE PUSH32 0x4552433230566F7465733A20746F74616C20737570706C79207269736B73206F PUSH1 0x44 DUP3 ADD MSTORE PUSH16 0x766572666C6F77696E6720766F746573 PUSH1 0x80 SHL PUSH1 0x64 DUP3 ADD MSTORE PUSH1 0x84 SWAP1 REVERT JUMPDEST PUSH1 0x1 PUSH1 0x1 PUSH1 0xA0 SHL SUB DUP2 AND SWAP2 SWAP1 DUP3 ISZERO PUSH2 0x2E4E JUMPI DUP2 DUP2 PUSH1 0x0 PUSH2 0x2E4A SWAP6 DUP4 PUSH2 0x2DDC PUSH2 0x2E45 SWAP7 PUSH1 0x1 DUP1 PUSH1 0xA0 SHL SUB AND PUSH1 0x0 MSTORE PUSH1 0x0 PUSH1 0x20 MSTORE PUSH1 0x40 PUSH1 0x0 KECCAK256 SWAP1 JUMP JUMPDEST SLOAD PUSH2 0x2DE9 DUP3 DUP3 LT ISZERO PUSH2 0x2E9D JUMP JUMPDEST SUB PUSH2 0x2E06 DUP5 PUSH1 0x1 DUP1 PUSH1 0xA0 SHL SUB AND PUSH1 0x0 MSTORE PUSH1 0x0 PUSH1 0x20 MSTORE PUSH1 0x40 PUSH1 0x0 KECCAK256 SWAP1 JUMP JUMPDEST SSTORE PUSH2 0x2E14 DUP5 PUSH1 0x2 SLOAD SUB PUSH1 0x2 SSTORE JUMP JUMPDEST PUSH1 0x40 MLOAD DUP5 DUP2 MSTORE PUSH32 0xDDF252AD1BE2C89B69C2B068FC378DAA952BA7F163C4A11628F55A4DF523B3EF SWAP1 PUSH1 0x20 SWAP1 LOG3 PUSH2 0x1D47 JUMP JUMPDEST PUSH2 0x22C0 JUMP JUMPDEST POP POP JUMP JUMPDEST PUSH1 0x40 MLOAD PUSH3 0x461BCD PUSH1 0xE5 SHL DUP2 MSTORE PUSH1 0x20 PUSH1 0x4 DUP3 ADD MSTORE PUSH1 0x21 PUSH1 0x24 DUP3 ADD MSTORE PUSH32 0x45524332303A206275726E2066726F6D20746865207A65726F20616464726573 PUSH1 0x44 DUP3 ADD MSTORE PUSH1 0x73 PUSH1 0xF8 SHL PUSH1 0x64 DUP3 ADD MSTORE PUSH1 0x84 SWAP1 REVERT JUMPDEST ISZERO PUSH2 0x2EA4 JUMPI JUMP JUMPDEST PUSH1 0x40 MLOAD PUSH3 0x461BCD PUSH1 0xE5 SHL DUP2 MSTORE PUSH1 0x20 PUSH1 0x4 DUP3 ADD MSTORE PUSH1 0x22 PUSH1 0x24 DUP3 ADD MSTORE PUSH32 0x45524332303A206275726E20616D6F756E7420657863656564732062616C616E PUSH1 0x44 DUP3 ADD MSTORE PUSH2 0x6365 PUSH1 0xF0 SHL PUSH1 0x64 DUP3 ADD MSTORE PUSH1 0x84 SWAP1 REVERT JUMPDEST SWAP1 DUP2 SUB SWAP1 DUP2 GT PUSH2 0x70F JUMPI SWAP1 JUMP JUMPDEST SWAP1 DUP2 ADD DUP1 SWAP2 GT PUSH2 0x70F JUMPI SWAP1 JUMP INVALID LOG2 PUSH5 0x6970667358 0x22 SLT KECCAK256 KECCAK256 NOT SWAP11 PUSH1 0x9E 0xC 0x2E 0xD6 0xE4 DUP15 JUMPI 0x4B 0xB5 LOG0 0xE7 PUSH32 0x5A8B73913A1F2FE2A4A66C152C8C7CED64736F6C634300081300332F8788117E PUSH31 0xFF1D82E926EC794901D17C78024A50270940304540A733656F0DDEC2BACDD2 CREATE JUMPDEST MSIZE 0xDE CALLVALUE 0xDA SWAP12 MSTORE RETURNDATASIZE SELFDESTRUCT DUP12 0xE4 0x2E 0x5E CODESIZE 0xE8 XOR 0xC8 0x2F 0xDB SIGNEXTEND 0xAE PUSH24 0x4387A7240000000000000000000000000000000000000000 "},"methodIdentifiers":{"BURNER_ROLE()":"282c51f3","CLOCK_MODE()":"4bf5d7e9","DEFAULT_ADMIN_ROLE()":"a217fddf","DOMAIN_SEPARATOR()":"3644e515","MINTER_ROLE()":"d5391393","allowance(address,address)":"dd62ed3e","approve(address,uint256)":"095ea7b3","balanceOf(address)":"70a08231","burn(uint256)":"42966c68","burnFrom(address,uint256)":"79cc6790","checkpoints(address,uint32)":"f1127ed8","clock()":"91ddadf4","decimals()":"313ce567","decreaseAllowance(address,uint256)":"a457c2d7","delegate(address)":"5c19a95c","delegateBySig(address,uint256,uint256,uint8,bytes32,bytes32)":"c3cda520","delegates(address)":"587cde1e","eip712Domain()":"84b0196e","getPastTotalSupply(uint256)":"8e539e8c","getPastVotes(address,uint256)":"3a46b1a8","getRoleAdmin(bytes32)":"248a9ca3","getVotes(address)":"9ab24eb0","grantRole(bytes32,address)":"2f2ff15d","hasRole(bytes32,address)":"91d14854","increaseAllowance(address,uint256)":"39509351","mint(address,uint256)":"40c10f19","name()":"06fdde03","nonces(address)":"7ecebe00","numCheckpoints(address)":"6fcfff45","permit(address,address,uint256,uint256,uint8,bytes32,bytes32)":"d505accf","renounceRole(bytes32,address)":"36568abe","revokeRole(bytes32,address)":"d547741f","supportsInterface(bytes4)":"01ffc9a7","symbol()":"95d89b41","totalSupply()":"18160ddd","transfer(address,uint256)":"a9059cbb","transferFrom(address,address,uint256)":"23b872dd"}}}}}