{
  "_format": "hh3-artifact-1",
  "contractName": "LiquidationEngine",
  "sourceName": "contracts/LiquidationEngine.sol",
  "abi": [
    {
      "inputs": [
        {
          "internalType": "address",
          "name": "_stablecoin",
          "type": "address"
        },
        {
          "internalType": "address",
          "name": "_hardwareNFT",
          "type": "address"
        }
      ],
      "stateMutability": "nonpayable",
      "type": "constructor"
    },
    {
      "anonymous": false,
      "inputs": [
        {
          "indexed": true,
          "internalType": "uint256",
          "name": "nftId",
          "type": "uint256"
        },
        {
          "indexed": true,
          "internalType": "address",
          "name": "liquidator",
          "type": "address"
        },
        {
          "indexed": false,
          "internalType": "uint256",
          "name": "debtRepaid",
          "type": "uint256"
        },
        {
          "indexed": false,
          "internalType": "uint256",
          "name": "collateralSeized",
          "type": "uint256"
        },
        {
          "indexed": false,
          "internalType": "uint256",
          "name": "bonus",
          "type": "uint256"
        }
      ],
      "name": "FullLiquidation",
      "type": "event"
    },
    {
      "anonymous": false,
      "inputs": [
        {
          "indexed": true,
          "internalType": "uint256",
          "name": "nftId",
          "type": "uint256"
        },
        {
          "indexed": true,
          "internalType": "address",
          "name": "liquidator",
          "type": "address"
        },
        {
          "indexed": false,
          "internalType": "uint256",
          "name": "debtRepaid",
          "type": "uint256"
        },
        {
          "indexed": false,
          "internalType": "uint256",
          "name": "collateralReduced",
          "type": "uint256"
        },
        {
          "indexed": false,
          "internalType": "uint256",
          "name": "bonus",
          "type": "uint256"
        }
      ],
      "name": "PartialLiquidation",
      "type": "event"
    },
    {
      "anonymous": false,
      "inputs": [
        {
          "indexed": false,
          "internalType": "address",
          "name": "account",
          "type": "address"
        }
      ],
      "name": "Paused",
      "type": "event"
    },
    {
      "anonymous": false,
      "inputs": [
        {
          "indexed": true,
          "internalType": "bytes32",
          "name": "role",
          "type": "bytes32"
        },
        {
          "indexed": true,
          "internalType": "bytes32",
          "name": "previousAdminRole",
          "type": "bytes32"
        },
        {
          "indexed": true,
          "internalType": "bytes32",
          "name": "newAdminRole",
          "type": "bytes32"
        }
      ],
      "name": "RoleAdminChanged",
      "type": "event"
    },
    {
      "anonymous": false,
      "inputs": [
        {
          "indexed": true,
          "internalType": "bytes32",
          "name": "role",
          "type": "bytes32"
        },
        {
          "indexed": true,
          "internalType": "address",
          "name": "account",
          "type": "address"
        },
        {
          "indexed": true,
          "internalType": "address",
          "name": "sender",
          "type": "address"
        }
      ],
      "name": "RoleGranted",
      "type": "event"
    },
    {
      "anonymous": false,
      "inputs": [
        {
          "indexed": true,
          "internalType": "bytes32",
          "name": "role",
          "type": "bytes32"
        },
        {
          "indexed": true,
          "internalType": "address",
          "name": "account",
          "type": "address"
        },
        {
          "indexed": true,
          "internalType": "address",
          "name": "sender",
          "type": "address"
        }
      ],
      "name": "RoleRevoked",
      "type": "event"
    },
    {
      "anonymous": false,
      "inputs": [
        {
          "indexed": false,
          "internalType": "address",
          "name": "account",
          "type": "address"
        }
      ],
      "name": "Unpaused",
      "type": "event"
    },
    {
      "anonymous": false,
      "inputs": [
        {
          "indexed": true,
          "internalType": "uint256",
          "name": "nftId",
          "type": "uint256"
        },
        {
          "indexed": false,
          "internalType": "uint256",
          "name": "projectedYield",
          "type": "uint256"
        },
        {
          "indexed": false,
          "internalType": "uint256",
          "name": "realizedYield",
          "type": "uint256"
        }
      ],
      "name": "YieldUnderperformanceLiquidation",
      "type": "event"
    },
    {
      "inputs": [],
      "name": "BONUS_DECAY_PERIOD",
      "outputs": [
        {
          "internalType": "uint256",
          "name": "",
          "type": "uint256"
        }
      ],
      "stateMutability": "view",
      "type": "function"
    },
    {
      "inputs": [],
      "name": "DEFAULT_ADMIN_ROLE",
      "outputs": [
        {
          "internalType": "bytes32",
          "name": "",
          "type": "bytes32"
        }
      ],
      "stateMutability": "view",
      "type": "function"
    },
    {
      "inputs": [],
      "name": "FULL_LIQUIDATION_LTV",
      "outputs": [
        {
          "internalType": "uint256",
          "name": "",
          "type": "uint256"
        }
      ],
      "stateMutability": "view",
      "type": "function"
    },
    {
      "inputs": [],
      "name": "KEEPER_ROLE",
      "outputs": [
        {
          "internalType": "bytes32",
          "name": "",
          "type": "bytes32"
        }
      ],
      "stateMutability": "view",
      "type": "function"
    },
    {
      "inputs": [],
      "name": "LENDING_POOL_ROLE",
      "outputs": [
        {
          "internalType": "bytes32",
          "name": "",
          "type": "bytes32"
        }
      ],
      "stateMutability": "view",
      "type": "function"
    },
    {
      "inputs": [],
      "name": "LIQUIDATION_COOLDOWN",
      "outputs": [
        {
          "internalType": "uint256",
          "name": "",
          "type": "uint256"
        }
      ],
      "stateMutability": "view",
      "type": "function"
    },
    {
      "inputs": [],
      "name": "MAX_LIQUIDATION_BONUS",
      "outputs": [
        {
          "internalType": "uint256",
          "name": "",
          "type": "uint256"
        }
      ],
      "stateMutability": "view",
      "type": "function"
    },
    {
      "inputs": [],
      "name": "MIN_LIQUIDATION_BONUS",
      "outputs": [
        {
          "internalType": "uint256",
          "name": "",
          "type": "uint256"
        }
      ],
      "stateMutability": "view",
      "type": "function"
    },
    {
      "inputs": [],
      "name": "PARTIAL_LIQUIDATION_LTV",
      "outputs": [
        {
          "internalType": "uint256",
          "name": "",
          "type": "uint256"
        }
      ],
      "stateMutability": "view",
      "type": "function"
    },
    {
      "inputs": [],
      "name": "PARTIAL_LIQUIDATION_RATIO",
      "outputs": [
        {
          "internalType": "uint256",
          "name": "",
          "type": "uint256"
        }
      ],
      "stateMutability": "view",
      "type": "function"
    },
    {
      "inputs": [],
      "name": "YIELD_UNDERPERFORMANCE_THRESHOLD",
      "outputs": [
        {
          "internalType": "uint256",
          "name": "",
          "type": "uint256"
        }
      ],
      "stateMutability": "view",
      "type": "function"
    },
    {
      "inputs": [
        {
          "internalType": "uint256[]",
          "name": "nftIds",
          "type": "uint256[]"
        }
      ],
      "name": "batchCurrentBonus",
      "outputs": [
        {
          "internalType": "uint256[]",
          "name": "bonuses",
          "type": "uint256[]"
        }
      ],
      "stateMutability": "view",
      "type": "function"
    },
    {
      "inputs": [
        {
          "internalType": "uint256",
          "name": "currentLtv",
          "type": "uint256"
        }
      ],
      "name": "canPartiallyLiquidate",
      "outputs": [
        {
          "internalType": "bool",
          "name": "",
          "type": "bool"
        }
      ],
      "stateMutability": "pure",
      "type": "function"
    },
    {
      "inputs": [
        {
          "internalType": "uint256",
          "name": "nftId",
          "type": "uint256"
        }
      ],
      "name": "currentBonus",
      "outputs": [
        {
          "internalType": "uint256",
          "name": "",
          "type": "uint256"
        }
      ],
      "stateMutability": "view",
      "type": "function"
    },
    {
      "inputs": [
        {
          "internalType": "uint256",
          "name": "nftId",
          "type": "uint256"
        },
        {
          "internalType": "uint256",
          "name": "currentDebt",
          "type": "uint256"
        },
        {
          "internalType": "uint256",
          "name": "currentCollateral",
          "type": "uint256"
        },
        {
          "internalType": "address",
          "name": "",
          "type": "address"
        }
      ],
      "name": "executeFullLiquidation",
      "outputs": [
        {
          "internalType": "uint256",
          "name": "debtRepaid",
          "type": "uint256"
        }
      ],
      "stateMutability": "nonpayable",
      "type": "function"
    },
    {
      "inputs": [
        {
          "internalType": "uint256",
          "name": "nftId",
          "type": "uint256"
        },
        {
          "internalType": "uint256",
          "name": "currentDebt",
          "type": "uint256"
        },
        {
          "internalType": "uint256",
          "name": "currentCollateral",
          "type": "uint256"
        },
        {
          "internalType": "address",
          "name": "",
          "type": "address"
        }
      ],
      "name": "executePartialLiquidation",
      "outputs": [
        {
          "internalType": "uint256",
          "name": "debtRepaid",
          "type": "uint256"
        },
        {
          "internalType": "uint256",
          "name": "collateralReduced",
          "type": "uint256"
        }
      ],
      "stateMutability": "nonpayable",
      "type": "function"
    },
    {
      "inputs": [
        {
          "internalType": "uint256",
          "name": "nftId",
          "type": "uint256"
        }
      ],
      "name": "getDeviceLiquidationCount",
      "outputs": [
        {
          "internalType": "uint256",
          "name": "",
          "type": "uint256"
        }
      ],
      "stateMutability": "view",
      "type": "function"
    },
    {
      "inputs": [],
      "name": "getLiquidationHistoryLength",
      "outputs": [
        {
          "internalType": "uint256",
          "name": "",
          "type": "uint256"
        }
      ],
      "stateMutability": "view",
      "type": "function"
    },
    {
      "inputs": [
        {
          "internalType": "uint256",
          "name": "offset",
          "type": "uint256"
        },
        {
          "internalType": "uint256",
          "name": "limit",
          "type": "uint256"
        }
      ],
      "name": "getLiquidationHistoryPage",
      "outputs": [
        {
          "components": [
            {
              "internalType": "uint256",
              "name": "nftId",
              "type": "uint256"
            },
            {
              "internalType": "address",
              "name": "liquidator",
              "type": "address"
            },
            {
              "internalType": "uint256",
              "name": "debtRepaid",
              "type": "uint256"
            },
            {
              "internalType": "uint256",
              "name": "collateralSeized",
              "type": "uint256"
            },
            {
              "internalType": "uint256",
              "name": "bonus",
              "type": "uint256"
            },
            {
              "internalType": "bool",
              "name": "isPartial",
              "type": "bool"
            },
            {
              "internalType": "uint256",
              "name": "timestamp",
              "type": "uint256"
            }
          ],
          "internalType": "struct LiquidationEngine.LiquidationRecord[]",
          "name": "",
          "type": "tuple[]"
        }
      ],
      "stateMutability": "view",
      "type": "function"
    },
    {
      "inputs": [
        {
          "internalType": "bytes32",
          "name": "role",
          "type": "bytes32"
        }
      ],
      "name": "getRoleAdmin",
      "outputs": [
        {
          "internalType": "bytes32",
          "name": "",
          "type": "bytes32"
        }
      ],
      "stateMutability": "view",
      "type": "function"
    },
    {
      "inputs": [
        {
          "internalType": "bytes32",
          "name": "role",
          "type": "bytes32"
        },
        {
          "internalType": "address",
          "name": "account",
          "type": "address"
        }
      ],
      "name": "grantRole",
      "outputs": [],
      "stateMutability": "nonpayable",
      "type": "function"
    },
    {
      "inputs": [],
      "name": "hardwareNFT",
      "outputs": [
        {
          "internalType": "contract IERC721",
          "name": "",
          "type": "address"
        }
      ],
      "stateMutability": "view",
      "type": "function"
    },
    {
      "inputs": [
        {
          "internalType": "bytes32",
          "name": "role",
          "type": "bytes32"
        },
        {
          "internalType": "address",
          "name": "account",
          "type": "address"
        }
      ],
      "name": "hasRole",
      "outputs": [
        {
          "internalType": "bool",
          "name": "",
          "type": "bool"
        }
      ],
      "stateMutability": "view",
      "type": "function"
    },
    {
      "inputs": [
        {
          "internalType": "uint256",
          "name": "",
          "type": "uint256"
        }
      ],
      "name": "lastLiquidationTime",
      "outputs": [
        {
          "internalType": "uint256",
          "name": "",
          "type": "uint256"
        }
      ],
      "stateMutability": "view",
      "type": "function"
    },
    {
      "inputs": [
        {
          "internalType": "uint256",
          "name": "",
          "type": "uint256"
        }
      ],
      "name": "liquidationCount",
      "outputs": [
        {
          "internalType": "uint256",
          "name": "",
          "type": "uint256"
        }
      ],
      "stateMutability": "view",
      "type": "function"
    },
    {
      "inputs": [
        {
          "internalType": "uint256",
          "name": "",
          "type": "uint256"
        }
      ],
      "name": "liquidationHistory",
      "outputs": [
        {
          "internalType": "uint256",
          "name": "nftId",
          "type": "uint256"
        },
        {
          "internalType": "address",
          "name": "liquidator",
          "type": "address"
        },
        {
          "internalType": "uint256",
          "name": "debtRepaid",
          "type": "uint256"
        },
        {
          "internalType": "uint256",
          "name": "collateralSeized",
          "type": "uint256"
        },
        {
          "internalType": "uint256",
          "name": "bonus",
          "type": "uint256"
        },
        {
          "internalType": "bool",
          "name": "isPartial",
          "type": "bool"
        },
        {
          "internalType": "uint256",
          "name": "timestamp",
          "type": "uint256"
        }
      ],
      "stateMutability": "view",
      "type": "function"
    },
    {
      "inputs": [
        {
          "internalType": "uint256",
          "name": "currentLtv",
          "type": "uint256"
        }
      ],
      "name": "mustFullyLiquidate",
      "outputs": [
        {
          "internalType": "bool",
          "name": "",
          "type": "bool"
        }
      ],
      "stateMutability": "pure",
      "type": "function"
    },
    {
      "inputs": [],
      "name": "pause",
      "outputs": [],
      "stateMutability": "nonpayable",
      "type": "function"
    },
    {
      "inputs": [],
      "name": "paused",
      "outputs": [
        {
          "internalType": "bool",
          "name": "",
          "type": "bool"
        }
      ],
      "stateMutability": "view",
      "type": "function"
    },
    {
      "inputs": [
        {
          "internalType": "bytes32",
          "name": "role",
          "type": "bytes32"
        },
        {
          "internalType": "address",
          "name": "account",
          "type": "address"
        }
      ],
      "name": "renounceRole",
      "outputs": [],
      "stateMutability": "nonpayable",
      "type": "function"
    },
    {
      "inputs": [
        {
          "internalType": "bytes32",
          "name": "role",
          "type": "bytes32"
        },
        {
          "internalType": "address",
          "name": "account",
          "type": "address"
        }
      ],
      "name": "revokeRole",
      "outputs": [],
      "stateMutability": "nonpayable",
      "type": "function"
    },
    {
      "inputs": [],
      "name": "stablecoin",
      "outputs": [
        {
          "internalType": "contract IERC20",
          "name": "",
          "type": "address"
        }
      ],
      "stateMutability": "view",
      "type": "function"
    },
    {
      "inputs": [
        {
          "internalType": "bytes4",
          "name": "interfaceId",
          "type": "bytes4"
        }
      ],
      "name": "supportsInterface",
      "outputs": [
        {
          "internalType": "bool",
          "name": "",
          "type": "bool"
        }
      ],
      "stateMutability": "view",
      "type": "function"
    },
    {
      "inputs": [],
      "name": "unpause",
      "outputs": [],
      "stateMutability": "nonpayable",
      "type": "function"
    },
    {
      "inputs": [
        {
          "internalType": "address",
          "name": "pool",
          "type": "address"
        },
        {
          "internalType": "uint256",
          "name": "amount",
          "type": "uint256"
        }
      ],
      "name": "withdrawToPool",
      "outputs": [],
      "stateMutability": "nonpayable",
      "type": "function"
    }
  ],
  "bytecode": "0x60803462000173576200201590601f38839003908101601f19168201906001600160401b0382118383101762000178578083916040958694855283398101031262000173576200004f816200018e565b6200005e60208093016200018e565b600180556002546001600160a01b039280841615158062000167575b1562000134576001600160a81b031990911660089190911b610100600160a81b031617600255600380546001600160a01b03191692909116919091179055600080805280825282812033825282528281205490919060ff1615620000e8575b8251611e719081620001a48239f35b818052818152828220338084529152828220805460ff191660011790559081907f2f8788117e7eff1d82e926ec794901d17c78024a50270940304540a733656f0d8180a43880620000d9565b855162461bcd60e51b815260048101869052600c60248201526b5a65726f206164647265737360a01b6044820152606490fd5b5083831615156200007a565b600080fd5b634e487b7160e01b600052604160045260246000fd5b51906001600160a01b0382168203620001735756fe6080604081815260048036101561001557600080fd5b600060e0938135851c90816301ffc9a714611021575080630274fd34146110025780630291ef1314610f5b5780631325ed4b14610f3e5780631a962ba514610ca1578063248a9ca314610f135780632f2ff15d14610e69578063364bc15a14610e2e57806336568abe14610d9d5780633f4ba83a14610d065780634c329dfb14610cca5780634f71b99a14610ca15780635c975abb14610c7d5780635ccc730d146109b65780635f88ac761461099457806366c2f42d146109775780636875fabb1461094e5780638456cb59146108f357806387309f8b146108d657806391d148541461088f57806392670dc8146108675780639e0ef4d8146106475780639e6822541461062b578063a217fddf14610610578063a5905b55146105f3578063abbc5fdc146105d6578063adaf7bca146103fe578063b66dc774146103d5578063bd9d4c3114610223578063d547741f14610398578063d922610e14610294578063e026863614610259578063e9cbd82214610228578063f5912c17146102235763f9144f13146101a557600080fd5b3461022057602036600319011261022057813590825482101561022057506101cc906110db565b5080549260018060a01b0360018301541692600283015460038401549184015492600660ff600587015416950154958151978852602088015286015260608501526080840152151560a083015260c0820152f35b80fd5b6110be565b508234610255578160031936011261025557600254905160089190911c6001600160a01b03168152602090f35b5080fd5b508234610255578160031936011261025557602090517fa05e016071881d2170d364744d63b2e41aeb933bc5c5727596db7b66f663c3ea8152f35b5034610220576020806003193601126102555782359167ffffffffffffffff938484116102555736602385011215610255578301359384116102205760059360243682871b8601820111610394576102f18297969593949761180f565b926102fe875194856115b3565b82845261030a8361180f565b8489019690601f1901368837855b84811061035f57505050505083519485948186019282875251809352850193925b82811061034857505050500390f35b835185528695509381019392810192600101610339565b806103798561038993859d9a999b9c9d1b86010135611877565b610383828b611836565b52611827565b989796949598610318565b8280fd5b5091346103945780600319360112610394576103d291356103cd60016103bc611075565b938387528660205286200154611439565b611601565b80f35b509250346103945760203660031901126103945760209282913581526006845220549051908152f35b5082346102555761040e36611090565b5091909361041a6112f3565b610422611a11565b61042a6117cb565b8181526020956006875284822054610e1081018091116105c357610450904210156118e8565b61045b841515611926565b612710908187028781048314881517156105b05761047c8661232892611857565b1061056357507fcd0be3f25dcdcf01da44615776817963a8ce96027dae223ab51e89c51786d6d991610538610556926104bd6104b787611877565b8a611675565b04916104e460018060a01b0360025460081c166104da858c61169e565b9030903390611a67565b85815260068a52428882205560058a528781206105018154611827565b905587519061050f82611565565b868252338b830152898983015287606083015283608083015260a08201524260c0820152611964565b85518781526020810195909552604085015233939081906060820190565b0390a36001805551908152f35b855162461bcd60e51b8152908101889052602160248201527f4e6f7420656c696769626c6520666f722066756c6c206c69717569646174696f6044820152603760f91b6064820152608490fd5b634e487b7160e01b845260118252602484fd5b634e487b7160e01b835260118252602483fd5b508234610255578160031936011261025557602090516123288152f35b50823461025557816003193601126102555760209051610e108152f35b50823461025557816003193601126102555751908152602090f35b5082346102555781600319360112610255576020905160648152f35b50346102205761065636611090565b509391906106626112f3565b61066a611a11565b6106726117cb565b8184526020926006845286852054610e10810180911161085457610698904210156118e8565b6106a3861515611926565b61271095821590838802848104891483171561084157906106c391611857565b611d4c8110159081610835575b50156107e6576113888084029384041417156107d35750849004936106fd6106f783611877565b86611675565b04908561070a838761169e565b60025490959061072a9060081c6001600160a01b03166104da868a61169e565b82815260068552428282205560058552206107458154611827565b9055610780865161075581611565565b82815233858201528688820152856060820152836080820152600160a08201524260c0820152611964565b7f2d6c4345d9befc239ca1950bc3ba15308881145e2439742659d3aba9bb15798b8651806107c23395888a846040919493926060820195825260208201520152565b0390a3600180558351928352820152f35b634e487b7160e01b855260119052602484fd5b875162461bcd60e51b81528083018690526024808201527f4e6f7420656c696769626c6520666f72207061727469616c206c6971756964616044820152633a34b7b760e11b6064820152608490fd5b612328915010896106d0565b634e487b7160e01b885260118452602488fd5b634e487b7160e01b865260118252602486fd5b50829034610220576020366003190112610220575061088860209235611877565b9051908152f35b509250346103945781600319360112610394578160209360ff926108b1611075565b903582528186528282206001600160a01b039091168252855220549151911615158152f35b508234610255578160031936011261025557602090516101f48152f35b50823461025557816003193601126102555760207f62e78cea01bee320cd4e420270b5ea74000d11b0c9f74754ebdbfc544b05a2589161093161112c565b6109396117cb565b600160ff19600254161760025551338152a180f35b50823461025557816003193601126102555760035490516001600160a01b039091168152602090f35b508234610255578160031936011261025557602090516154608152f35b5034610220576020366003190112610220575061232860209251913510158152f35b5082346102555780600319360112610255576001600160a01b039083358281169190829003610c79577fa05e016071881d2170d364744d63b2e41aeb933bc5c5727596db7b66f663c3ea92838552602093858552828620338752855260ff838720541615610ab657508215610a845760025460081c169181519363a9059cbb60e01b908501526024840152602435604484015260448352608083019083821067ffffffffffffffff831117610a71576103d294955052611ac2565b634e487b7160e01b855260418652602485fd5b815162461bcd60e51b8152808701859052600c60248201526b5a65726f206164647265737360a01b6044820152606490fd5b8685878593610ac4336116bc565b855191610ad083611597565b60428352848301936060368637835115610c665760308553835190600191821015610c535790607860218601536041915b818311610be857505050610ba657610ba2938693610b8e93610b7f604894610b569a519a8576020b1b1b2b9b9a1b7b73a3937b61d1030b1b1b7bab73a1604d1b8d978801528251928391603789019101611542565b8401917001034b99036b4b9b9b4b733903937b6329607d1b603784015251809386840190611542565b010360288101875201856115b3565b5162461bcd60e51b815292839283016115d5565b0390fd5b50505080606493519262461bcd60e51b845283015260248201527f537472696e67733a20686578206c656e67746820696e73756666696369656e746044820152fd5b909192600f81166010811015610c40576f181899199a1a9b1b9c1cb0b131b232b360811b901a610c1885886116ab565b53881c928015610c2d57600019019190610b01565b634e487b7160e01b825260118952602482fd5b634e487b7160e01b835260328a52602483fd5b634e487b7160e01b815260328852602490fd5b634e487b7160e01b815260328752602490fd5b8380fd5b50823461025557816003193601126102555760209060ff6002541690519015158152f35b509250346103945760203660031901126103945760209282913581526005845220549051908152f35b5092503461039457602036600319011261039457602092503590611d4c8210159182610cfa575b50519015158152f35b61232811915038610cf1565b50925034610394578260031936011261039457610d2161112c565b6002549060ff821615610d63575060ff1916600255513381527f5db9ee0a495bf2e6ff9c91a7834c1ba4fdd244a5e8aa4e537bd38aeae4b073aa90602090a180f35b606490602084519162461bcd60e51b8352820152601460248201527314185d5cd8589b194e881b9bdd081c185d5cd95960621b6044820152fd5b509034610255578260031936011261025557610db7611075565b90336001600160a01b03831603610dd357906103d29135611601565b608490602085519162461bcd60e51b8352820152602f60248201527f416363657373436f6e74726f6c3a2063616e206f6e6c792072656e6f756e636560448201526e103937b632b9903337b91039b2b63360891b6064820152fd5b508234610255578160031936011261025557602090517ffc8737ab85eb45125971625a9ebdb75cc78e01d5c1fa80c4c6e5203f47bc4fab8152f35b509250346103945781600319360112610394573590610e86611075565b9082845283602052610e9d60018286200154611439565b82845260208481528185206001600160a01b039093168086529290528084205460ff1615610ec9578380f35b828452836020528084208285526020528320600160ff1982541617905533917f2f8788117e7eff1d82e926ec794901d17c78024a50270940304540a733656f0d8480a43880808380f35b5092503461039457602036600319011261039457816020936001923581528085522001549051908152f35b50823461025557816003193601126102555760209051611d4c8152f35b50919034610394578160031936011261039457610f7d84916024359035611ca3565b9082519260209081850192828652845180945282828701950196915b848310610fa65786860387f35b875180518752808501516001600160a01b0316878601528082015187830152606080820151908801526080808201519088015260a08082015115159088015260c090810151908701529683019694810194600190920191610f99565b5092503461039457826003193601126103945760209250549051908152f35b90508234610394576020366003190112610394573563ffffffff60e01b81168091036103945760209250637965db0b60e01b8114908115611064575b5015158152f35b6301ffc9a760e01b1490508361105d565b602435906001600160a01b038216820361108b57565b600080fd5b608090600319011261108b576004359060243590604435906064356001600160a01b038116810361108b5790565b3461108b57600036600319011261108b5760206040516113888152f35b600454811015611116576007906004600052027f8a35acfbc15ff81a39ae7d344fd709f28e8600b4aa8c65c6b64bfe7fe36bd19b0190600090565b634e487b7160e01b600052603260045260246000fd5b3360009081527fad3228b676f7d3cd4284a5443f17f1962b36e491b30a40b2405849e597ba5fb5602090815260408083205490929060ff161561116e57505050565b611177336116bc565b8351908261118483611597565b604283528483019360603686378351156112df57603085538351906001918210156112df5790607860218601536041915b8183116112715750505061122f57610b569385936112199361120a604894610ba29951988576020b1b1b2b9b9a1b7b73a3937b61d1030b1b1b7bab73a1604d1b8b978801528251928391603789019101611542565b010360288101855201836115b3565b5162461bcd60e51b8152918291600483016115d5565b60648486519062461bcd60e51b825280600483015260248201527f537472696e67733a20686578206c656e67746820696e73756666696369656e746044820152fd5b909192600f811660108110156112cb576f181899199a1a9b1b9c1cb0b131b232b360811b901a6112a185886116ab565b5360041c9280156112b7576000190191906111b5565b634e487b7160e01b82526011600452602482fd5b634e487b7160e01b83526032600452602483fd5b634e487b7160e01b81526032600452602490fd5b3360009081527f0363fc6b1c9d3a5e0ab0c2ddc08deb0f30108829db06e84f370d2858ffe78c4660209081526040808320549092907ffc8737ab85eb45125971625a9ebdb75cc78e01d5c1fa80c4c6e5203f47bc4fab9060ff16156113585750505050565b611361336116bc565b84519161136d83611597565b604283528483019360603686378351156112df57603085538351906001918210156112df5790607860218601536041915b8183116113f35750505061122f57610b569385936112199361120a604894610ba29951988576020b1b1b2b9b9a1b7b73a3937b61d1030b1b1b7bab73a1604d1b8b978801528251928391603789019101611542565b909192600f811660108110156112cb576f181899199a1a9b1b9c1cb0b131b232b360811b901a61142385886116ab565b5360041c9280156112b75760001901919061139e565b6000818152602090808252604092838220338352835260ff8483205416156114615750505050565b61146a336116bc565b84519161147683611597565b604283528483019360603686378351156112df57603085538351906001918210156112df5790607860218601536041915b8183116114fc5750505061122f57610b569385936112199361120a604894610ba29951988576020b1b1b2b9b9a1b7b73a3937b61d1030b1b1b7bab73a1604d1b8b978801528251928391603789019101611542565b909192600f811660108110156112cb576f181899199a1a9b1b9c1cb0b131b232b360811b901a61152c85886116ab565b5360041c9280156112b7576000190191906114a7565b60005b8381106115555750506000910152565b8181015183820152602001611545565b60e0810190811067ffffffffffffffff82111761158157604052565b634e487b7160e01b600052604160045260246000fd5b6080810190811067ffffffffffffffff82111761158157604052565b90601f8019910116810190811067ffffffffffffffff82111761158157604052565b604091602082526115f58151809281602086015260208686019101611542565b601f01601f1916010190565b9060009180835282602052604083209160018060a01b03169182845260205260ff60408420541661163157505050565b80835282602052604083208284526020526040832060ff1981541690557ff6391f5c32d9c69d2a47ea670b442974b53935d1edc7fd64eb21e047a839171b339380a4565b8181029291811591840414171561168857565b634e487b7160e01b600052601160045260246000fd5b9190820180921161168857565b908151811015611116570160200190565b604051906060820182811067ffffffffffffffff82111761158157604052602a82526020820160403682378251156111165760309053815160019081101561111657607860218401536029905b80821161175d5750506117195790565b606460405162461bcd60e51b815260206004820152602060248201527f537472696e67733a20686578206c656e67746820696e73756666696369656e746044820152fd5b9091600f811660108110156117b6576f181899199a1a9b1b9c1cb0b131b232b360811b901a61178c84866116ab565b5360041c9180156117a1576000190190611709565b60246000634e487b7160e01b81526011600452fd5b60246000634e487b7160e01b81526032600452fd5b60ff600254166117d757565b60405162461bcd60e51b815260206004820152601060248201526f14185d5cd8589b194e881c185d5cd95960821b6044820152606490fd5b67ffffffffffffffff81116115815760051b60200190565b60001981146116885760010190565b80518210156111165760209160051b010190565b9190820391821161168857565b8115611861570490565b634e487b7160e01b600052601260045260246000fd5b60009081526006602052604081205480156118e057611896904261184a565b90615460808310156118d75761019092808402938404036112b7576101f4920482039182116118c3575090565b634e487b7160e01b81526011600452602490fd5b5050506101f490565b50506101f490565b156118ef57565b60405162461bcd60e51b815260206004820152600f60248201526e436f6f6c646f776e2061637469766560881b6044820152606490fd5b1561192d57565b60405162461bcd60e51b815260206004820152600f60248201526e16995c9bc818dbdb1b185d195c985b608a1b6044820152606490fd5b600454680100000000000000008110156115815780600161198892016004556110db565b9190916119fb5760c0816006925184556001840160018060a01b036020830151166bffffffffffffffffffffffff60a01b8254161790556040810151600285015560608101516003850155608081015160048501556005840160a0820151151560ff801983541691161790550151910155565b634e487b7160e01b600052600060045260246000fd5b600260015414611a22576002600155565b60405162461bcd60e51b815260206004820152601f60248201527f5265656e7472616e637947756172643a207265656e7472616e742063616c6c006044820152606490fd5b6040516323b872dd60e01b60208201526001600160a01b03928316602482015292909116604483015260648083019390935291815260a081019181831067ffffffffffffffff84111761158157611ac092604052611ac2565b565b60018060a01b0316906040516040810167ffffffffffffffff9082811082821117611581576040526020938483527f5361666545524332303a206c6f772d6c6576656c2063616c6c206661696c6564858401526000808587829751910182855af1903d15611c07573d928311611bf35790611b5d93929160405192611b5088601f19601f84011601856115b3565b83523d868885013e611c12565b805191821591848315611bcf575b505050905015611b785750565b6084906040519062461bcd60e51b82526004820152602a60248201527f5361666545524332303a204552433230206f7065726174696f6e20646964206e6044820152691bdd081cdd58d8d9595960b21b6064820152fd5b91938180945001031261025557820151908115158203610220575080388084611b6b565b634e487b7160e01b85526041600452602485fd5b90611b5d9392506060915b91929015611c745750815115611c26575090565b3b15611c2f5790565b60405162461bcd60e51b815260206004820152601d60248201527f416464726573733a2063616c6c20746f206e6f6e2d636f6e74726163740000006044820152606490fd5b825190915015611c875750805190602001fd5b60405162461bcd60e51b8152908190610ba290600483016115d5565b9060049081549081841015611dfc5781611cbd828661169e565b1115611deb5750905b611cd0838361184a565b611cd98161180f565b93604091611ce9835196876115b3565b808652611cf8601f199161180f565b0160005b818110611da5575050805b848110611d1657505050505090565b80611d9a611d26611da0936110db565b50611d31858461184a565b906006875191611d4083611565565b8054835260018101546001600160a01b0316602084015260028101548984015260038101546060840152898101546080840152600581015460ff16151560a0840152015460c0820152611d93828b611836565b5288611836565b50611827565b611d07565b6020908451611db381611565565b60008152826000818301526000878301526000606083015260006080830152600060a0830152600060c0830152828a01015201611cfc565b611df691508361169e565b90611cc6565b50506040519150602082019067ffffffffffffffff821183831017611e2657506040526000815290565b604190634e487b7160e01b6000525260246000fdfea2646970667358221220b9fa63c1811f3d49593e97b47b96b1363263b1eb89ac50c0d5779c7997b6ffc564736f6c63430008130033",
  "linkReferences": {},
  "deployedLinkReferences": {},
  "immutableReferences": {},
  "inputSourceName": "project/contracts/LiquidationEngine.sol",
  "buildInfoId": "solc-0_8_19-1ef7364bee65fe47cce44adf0cd306f2b04bd606"
}