{
  "_format": "hh3-artifact-1",
  "contractName": "LendingPoolRWA",
  "sourceName": "contracts/LendingPoolRWA.sol",
  "abi": [
    {
      "inputs": [
        {
          "internalType": "address",
          "name": "_stablecoin",
          "type": "address"
        }
      ],
      "stateMutability": "nonpayable",
      "type": "constructor"
    },
    {
      "anonymous": false,
      "inputs": [
        {
          "indexed": true,
          "internalType": "address",
          "name": "borrower",
          "type": "address"
        },
        {
          "indexed": false,
          "internalType": "uint256",
          "name": "positionId",
          "type": "uint256"
        },
        {
          "indexed": false,
          "internalType": "address",
          "name": "collateralContract",
          "type": "address"
        },
        {
          "indexed": false,
          "internalType": "uint256",
          "name": "tokenId",
          "type": "uint256"
        },
        {
          "indexed": false,
          "internalType": "uint256",
          "name": "amount",
          "type": "uint256"
        }
      ],
      "name": "Deposited",
      "type": "event"
    },
    {
      "anonymous": false,
      "inputs": [
        {
          "indexed": false,
          "internalType": "uint256",
          "name": "bps",
          "type": "uint256"
        }
      ],
      "name": "InterestRateUpdated",
      "type": "event"
    },
    {
      "anonymous": false,
      "inputs": [
        {
          "indexed": false,
          "internalType": "uint256",
          "name": "bps",
          "type": "uint256"
        }
      ],
      "name": "MaxBorrowLTVUpdated",
      "type": "event"
    },
    {
      "anonymous": false,
      "inputs": [
        {
          "indexed": true,
          "internalType": "address",
          "name": "previousOwner",
          "type": "address"
        },
        {
          "indexed": true,
          "internalType": "address",
          "name": "newOwner",
          "type": "address"
        }
      ],
      "name": "OwnershipTransferred",
      "type": "event"
    },
    {
      "anonymous": false,
      "inputs": [
        {
          "indexed": false,
          "internalType": "address",
          "name": "account",
          "type": "address"
        }
      ],
      "name": "Paused",
      "type": "event"
    },
    {
      "anonymous": false,
      "inputs": [
        {
          "indexed": true,
          "internalType": "address",
          "name": "borrower",
          "type": "address"
        },
        {
          "indexed": false,
          "internalType": "uint256",
          "name": "positionId",
          "type": "uint256"
        },
        {
          "indexed": false,
          "internalType": "uint256",
          "name": "principal",
          "type": "uint256"
        },
        {
          "indexed": false,
          "internalType": "uint256",
          "name": "interest",
          "type": "uint256"
        }
      ],
      "name": "Repaid",
      "type": "event"
    },
    {
      "anonymous": false,
      "inputs": [
        {
          "indexed": true,
          "internalType": "address",
          "name": "token",
          "type": "address"
        },
        {
          "indexed": false,
          "internalType": "bool",
          "name": "supported",
          "type": "bool"
        }
      ],
      "name": "SupportedCollateralUpdated",
      "type": "event"
    },
    {
      "anonymous": false,
      "inputs": [
        {
          "indexed": false,
          "internalType": "address",
          "name": "account",
          "type": "address"
        }
      ],
      "name": "Unpaused",
      "type": "event"
    },
    {
      "inputs": [
        {
          "internalType": "address",
          "name": "_collateralContract",
          "type": "address"
        }
      ],
      "name": "addSupportedCollateral",
      "outputs": [],
      "stateMutability": "nonpayable",
      "type": "function"
    },
    {
      "inputs": [
        {
          "internalType": "address",
          "name": "collateralContract",
          "type": "address"
        },
        {
          "internalType": "uint256",
          "name": "tokenId",
          "type": "uint256"
        },
        {
          "internalType": "uint256",
          "name": "borrowAmount",
          "type": "uint256"
        }
      ],
      "name": "deposit",
      "outputs": [],
      "stateMutability": "nonpayable",
      "type": "function"
    },
    {
      "inputs": [
        {
          "internalType": "address",
          "name": "collateralContract",
          "type": "address"
        },
        {
          "internalType": "uint256",
          "name": "tokenId",
          "type": "uint256"
        }
      ],
      "name": "getCollateralValue",
      "outputs": [
        {
          "internalType": "uint256",
          "name": "",
          "type": "uint256"
        }
      ],
      "stateMutability": "view",
      "type": "function"
    },
    {
      "inputs": [],
      "name": "interestRateBps",
      "outputs": [
        {
          "internalType": "uint256",
          "name": "",
          "type": "uint256"
        }
      ],
      "stateMutability": "view",
      "type": "function"
    },
    {
      "inputs": [],
      "name": "maxBorrowLTVBps",
      "outputs": [
        {
          "internalType": "uint256",
          "name": "",
          "type": "uint256"
        }
      ],
      "stateMutability": "view",
      "type": "function"
    },
    {
      "inputs": [],
      "name": "nextPositionId",
      "outputs": [
        {
          "internalType": "uint256",
          "name": "",
          "type": "uint256"
        }
      ],
      "stateMutability": "view",
      "type": "function"
    },
    {
      "inputs": [],
      "name": "owner",
      "outputs": [
        {
          "internalType": "address",
          "name": "",
          "type": "address"
        }
      ],
      "stateMutability": "view",
      "type": "function"
    },
    {
      "inputs": [],
      "name": "pause",
      "outputs": [],
      "stateMutability": "nonpayable",
      "type": "function"
    },
    {
      "inputs": [],
      "name": "paused",
      "outputs": [
        {
          "internalType": "bool",
          "name": "",
          "type": "bool"
        }
      ],
      "stateMutability": "view",
      "type": "function"
    },
    {
      "inputs": [
        {
          "internalType": "uint256",
          "name": "",
          "type": "uint256"
        }
      ],
      "name": "positions",
      "outputs": [
        {
          "internalType": "uint256",
          "name": "debt",
          "type": "uint256"
        },
        {
          "internalType": "uint256",
          "name": "collateralValue",
          "type": "uint256"
        },
        {
          "internalType": "uint256",
          "name": "ltv",
          "type": "uint256"
        },
        {
          "internalType": "address",
          "name": "collateralContract",
          "type": "address"
        },
        {
          "internalType": "uint256",
          "name": "tokenId",
          "type": "uint256"
        },
        {
          "internalType": "address",
          "name": "borrower",
          "type": "address"
        },
        {
          "internalType": "uint256",
          "name": "lastUpdateTimestamp",
          "type": "uint256"
        }
      ],
      "stateMutability": "view",
      "type": "function"
    },
    {
      "inputs": [
        {
          "internalType": "address",
          "name": "_collateralContract",
          "type": "address"
        }
      ],
      "name": "removeSupportedCollateral",
      "outputs": [],
      "stateMutability": "nonpayable",
      "type": "function"
    },
    {
      "inputs": [],
      "name": "renounceOwnership",
      "outputs": [],
      "stateMutability": "nonpayable",
      "type": "function"
    },
    {
      "inputs": [
        {
          "internalType": "uint256",
          "name": "positionId",
          "type": "uint256"
        }
      ],
      "name": "repay",
      "outputs": [],
      "stateMutability": "nonpayable",
      "type": "function"
    },
    {
      "inputs": [
        {
          "internalType": "uint256",
          "name": "bps",
          "type": "uint256"
        }
      ],
      "name": "setInterestRateBps",
      "outputs": [],
      "stateMutability": "nonpayable",
      "type": "function"
    },
    {
      "inputs": [
        {
          "internalType": "uint256",
          "name": "bps",
          "type": "uint256"
        }
      ],
      "name": "setMaxBorrowLTV",
      "outputs": [],
      "stateMutability": "nonpayable",
      "type": "function"
    },
    {
      "inputs": [],
      "name": "stablecoin",
      "outputs": [
        {
          "internalType": "contract IERC20",
          "name": "",
          "type": "address"
        }
      ],
      "stateMutability": "view",
      "type": "function"
    },
    {
      "inputs": [
        {
          "internalType": "address",
          "name": "",
          "type": "address"
        }
      ],
      "name": "supportedCollateralTokens",
      "outputs": [
        {
          "internalType": "bool",
          "name": "",
          "type": "bool"
        }
      ],
      "stateMutability": "view",
      "type": "function"
    },
    {
      "inputs": [
        {
          "internalType": "address",
          "name": "newOwner",
          "type": "address"
        }
      ],
      "name": "transferOwnership",
      "outputs": [],
      "stateMutability": "nonpayable",
      "type": "function"
    },
    {
      "inputs": [],
      "name": "unpause",
      "outputs": [],
      "stateMutability": "nonpayable",
      "type": "function"
    }
  ],
  "bytecode": "0x60803461011057601f61142f38819003918201601f19168301916001600160401b038311848410176101155780849260209460405283398101031261011057516001600160a01b038082169190828203610110576000543360018060a01b0319821617600055604051913391167f8be0079c531659141344cd1fd0a4f28419497f9722a3daafe3b4186f6b6457e0600080a36001805560025492611b586004556103206005556001600755156100df57506001600160a81b031990911660089190911b610100600160a81b031617600255604051611303908161012c8239f35b62461bcd60e51b815260206004820152600c60248201526b5a65726f206164647265737360a01b6044820152606490fd5b600080fd5b634e487b7160e01b600052604160045260246000fdfe6040608081526004908136101561001557600080fd5b600091823560e01c80630efe6a8b146109215780631800d79f146108b757806319ec5ac41461089a5780632484d5991461085c5780632b037c571461082c578063371fd8e6146106075780633f4ba83a14610572578063536db2e6146104cb57806355974e0f1461043d5780635c975abb14610419578063715018a6146103bc5780638456cb5914610361578063899346c7146103425780638da5cb5b1461031a57806399fbab88146102a9578063c84a208b1461028a578063e082a33e146101f2578063e9cbd822146101c15763f2fde38b146100f257600080fd5b346101bd5760203660031901126101bd5761010b610dae565b90610114610dc9565b6001600160a01b0391821692831561016b575050600054826bffffffffffffffffffffffff60a01b821617600055167f8be0079c531659141344cd1fd0a4f28419497f9722a3daafe3b4186f6b6457e0600080a380f35b906020608492519162461bcd60e51b8352820152602660248201527f4f776e61626c653a206e6577206f776e657220697320746865207a65726f206160448201526564647265737360d01b6064820152fd5b8280fd5b5050346101ee57816003193601126101ee57600254905160089190911c6001600160a01b03168152602090f35b5080fd5b5090346101bd5760203660031901126101bd57813591610210610dc9565b8215158061027e575b1561024e5791602091817f436272fb89c822bef8ae3c83b3e82f0e604ff03a6fe9f8ff857b111c4954e213945551908152a180f35b6020606492519162461bcd60e51b8352820152600b60248201526a24b73b30b634b210262a2b60a91b6044820152fd5b50612328831115610219565b5050346101ee57816003193601126101ee576020906005549051908152f35b50346101bd5760203660031901126101bd578160e09382358152600660205220805492600182015492600283015460018060a01b0392600684600387015416938601549460058701541695015495815197885260208801528601526060850152608084015260a083015260c0820152f35b5050346101ee57816003193601126101ee57905490516001600160a01b039091168152602090f35b5050346101ee57816003193601126101ee576020906007549051908152f35b5050346101ee57816003193601126101ee5760207f62e78cea01bee320cd4e420270b5ea74000d11b0c9f74754ebdbfc544b05a2589161039f610dc9565b6103a7610e21565b600160ff19600254161760025551338152a180f35b83346104165780600319360112610416576103d5610dc9565b600080546001600160a01b0319811682556001600160a01b03167f8be0079c531659141344cd1fd0a4f28419497f9722a3daafe3b4186f6b6457e08280a380f35b80fd5b5050346101ee57816003193601126101ee5760209060ff6002541690519015158152f35b5090346101bd5760203660031901126101bd5781359161045b610dc9565b61138883116104965750816020917fa90e14be5aa57b910aa6dc16c31ff1b5cda380ae25a793b0d3f74df6131a7d749360055551908152a180f35b6020606492519162461bcd60e51b8352820152601060248201526f5261746520657863656564732035302560801b6044820152fd5b5090346101bd5760203660031901126101bd576104e6610dae565b6104ee610dc9565b6001600160a01b0316918215610541575060207fdaa32815da9c720a3c7ed292e2ddba97a8a7b1a2bc9d5e57c9481e5eedbb03dd9183855260038252808520600160ff198254161790555160018152a280f35b6020606492519162461bcd60e51b8352820152600c60248201526b5a65726f206164647265737360a01b6044820152fd5b50346101bd57826003193601126101bd5761058b610dc9565b6002549060ff8216156105cd575060ff1916600255513381527f5db9ee0a495bf2e6ff9c91a7834c1ba4fdd244a5e8aa4e537bd38aeae4b073aa90602090a180f35b606490602084519162461bcd60e51b8352820152601460248201527314185d5cd8589b194e881b9bdd081c185d5cd95960621b6044820152fd5b5090346101bd576020918260031936011261082857803591610627610eee565b61062f610e21565b828552600684528085209384549081156107f15760058601546001600160a01b03908116969094903388036107c0576106678161116c565b95868501908186116107ad5760038301549284015460025488516323b872dd60e01b8882018190523360248301523060448301526064808301969096529481528d9695841694936106c69260081c166106c1608483610e8f565b610f6d565b823b156107a9578751918252308483019081526001600160a01b038c16602082015260408101919091529091849183919082908490829060600103925af1801561079f5761077a575b50918160068896947f07178c166b5aef4d8409e6bbfd0e7b1ad42c92eb65903a5e5482166f3f4e62f099606099979552818452828681209181835581600184015581600284015581600384015582015582600582015501558251948552840152820152a26001805580f35b9161078b8198969492979593610e65565b61079b579193959092943861070f565b8680fd5b86513d85823e3d90fd5b8480fd5b634e487b7160e01b8b526011845260248bfd5b5060649184519162461bcd60e51b8352820152600c60248201526b2737ba103137b93937bbb2b960a11b6044820152fd5b8360649184519162461bcd60e51b8352820152601260248201527127379030b1ba34bb32903837b9b4ba34b7b760711b6044820152fd5b8380fd5b5050346101ee57806003193601126101ee5760209061085561084c610dae565b602435906111b2565b9051908152f35b5050346101ee5760203660031901126101ee5760209160ff9082906001600160a01b03610887610dae565b1681526003855220541690519015158152f35b50346101bd57826003193601126101bd5760209250549051908152f35b5050346101ee5760203660031901126101ee577fdaa32815da9c720a3c7ed292e2ddba97a8a7b1a2bc9d5e57c9481e5eedbb03dd60206108f5610dae565b6108fd610dc9565b6001600160a01b031680855260038252838520805460ff191690559251848152a280f35b5090346101bd5760603660031901126101bd5761093c610dae565b91602491823591604494853594610951610eee565b610959610e21565b60018060a01b039283831693848a526020936003855260ff878c20541615610d6d5786516331a9108f60e11b8152838101899052858186818a5afa908115610d63578c91610d2e575b508233911603610d0157876109b6916111b2565b918215610cd55761271092836109cd835483610ec5565b048a11610c9b578915610c6c578286600254878b51809481936370a0823160e01b8352308984015260081c165afa908d8215610c6157908c92610c2c575b5010610bf257863b15610bee5787516323b872dd60e01b815233838201908152306020820152604081018b90528d90829081906060010381838c5af18015610be457610bd1575b50600254885163a9059cbb60e01b888201523387820152808d018c90529b8c5267ffffffffffffffff9b9060081c8416608082018d811183821017610bbd578a52610a9d9190610f6d565b6007549a6000198c14610bab5760018c01600755848b02948b860403610bab5788519560e0870191821187831017610b985750928c92600695928d958b528c8852888801908082528b89019404845260608801938a855260808901918d83528c60a08b019733895260c08c0199428b5281528a8d522099518a555160018a01555160028901558260038901945116936bffffffffffffffffffffffff60a01b94858254161790555190870155600586019251169082541617905551910155825195865285015283015260608201527f93e30903a33256312afaa1ced52a512ef93748c4eee202463ee7c8f25e1c047d60803392a26001805580f35b634e487b7160e01b600090815260418552fd5b634e487b7160e01b8d5260118352858dfd5b87604186634e487b7160e01b600052526000fd5b610bdd909c919c610e65565b9a38610a52565b89513d8f823e3d90fd5b8b80fd5b875162461bcd60e51b815280830187905260168187015275496e73756666696369656e74206c697175696469747960501b818d0152606490fd5b809250888092503d8311610c5a575b610c458183610e8f565b81010312610c56578a905138610a0b565b8c80fd5b503d610c3b565b8a51903d90823e3d90fd5b875162461bcd60e51b8152808301879052600b818701526a5a65726f20626f72726f7760a81b818d0152606490fd5b875162461bcd60e51b815280830187905260168187015275084dee4e4deee40c2dadeeadce840e8dede40d0d2ced60531b818d0152606490fd5b865162461bcd60e51b8152908101859052600881850152674e6f2076616c756560c01b818b0152606490fd5b865162461bcd60e51b8152808401869052600981860152682737ba1037bbb732b960b91b818c0152606490fd5b90508581813d8311610d5c575b610d458183610e8f565b81010312610bee57610d5690610eb1565b386109a2565b503d610d3b565b88513d8e823e3d90fd5b865162461bcd60e51b81528084018690526018818601527f436f6c6c61746572616c206e6f7420737570706f727465640000000000000000818c0152606490fd5b600435906001600160a01b0382168203610dc457565b600080fd5b6000546001600160a01b03163303610ddd57565b606460405162461bcd60e51b815260206004820152602060248201527f4f776e61626c653a2063616c6c6572206973206e6f7420746865206f776e65726044820152fd5b60ff60025416610e2d57565b60405162461bcd60e51b815260206004820152601060248201526f14185d5cd8589b194e881c185d5cd95960821b6044820152606490fd5b67ffffffffffffffff8111610e7957604052565b634e487b7160e01b600052604160045260246000fd5b90601f8019910116810190811067ffffffffffffffff821117610e7957604052565b51906001600160a01b0382168203610dc457565b81810292918115918404141715610ed857565b634e487b7160e01b600052601160045260246000fd5b600260015414610eff576002600155565b60405162461bcd60e51b815260206004820152601f60248201527f5265656e7472616e637947756172643a207265656e7472616e742063616c6c006044820152606490fd5b67ffffffffffffffff8111610e7957601f01601f191660200190565b51908115158203610dc457565b60018060a01b031690604051604081019080821067ffffffffffffffff831117610e7957610ffd916040526020938482527f5361666545524332303a206c6f772d6c6576656c2063616c6c206661696c6564858301526000808587829751910182855af13d15611092573d91610fe283610f44565b92610ff06040519485610e8f565b83523d868885013e611096565b90815190838215928315611070575b5050509050156110195750565b6084906040519062461bcd60e51b82526004820152602a60248201527f5361666545524332303a204552433230206f7065726174696f6e20646964206e6044820152691bdd081cdd58d8d9595960b21b6064820152fd5b8480929394500103126104165750816110899101610f60565b8038838161100c565b6060915b919290156110f857508151156110aa575090565b3b156110b35790565b60405162461bcd60e51b815260206004820152601d60248201527f416464726573733a2063616c6c20746f206e6f6e2d636f6e74726163740000006044820152606490fd5b82519091501561110b5750805190602001fd5b6044604051809262461bcd60e51b82526020600483015261113b8151809281602486015260208686019101611149565b601f01601f19168101030190fd5b60005b83811061115c5750506000910152565b818101518382015260200161114c565b80549081156111ab57600601549081420391428311610ed85742146111ab5764496cebb800916111a26111a79260055490610ec5565b610ec5565b0490565b5050600090565b604051630cf35bdd60e41b815260048101929092526000908190839060249082906001600160a01b03165afa80156112c057819282916111fc575b50156111f7575090565b905090565b9250503d8082843e61120e8184610e8f565b820191610100818403126101ee5761122581610eb1565b50602081015160ff8116036101ee57604081015192606082015167ffffffffffffffff811161082857820181601f820112156108285780519161126783610f44565b906112756040519283610e8f565b838252602084840101116107a95760e0926112ba949260208061129a94019101611149565b6112a660808201610f60565b506112b360a08201610eb1565b5001610f60565b386111ed565b50604051903d90823e3d90fdfea26469706673582212209054269b113afc71ca7831d37d959c5eeb16d9b7649ce4f24c213aeb6bee2c2e64736f6c63430008130033",
  "linkReferences": {},
  "deployedLinkReferences": {},
  "immutableReferences": {},
  "inputSourceName": "project/contracts/LendingPoolRWA.sol",
  "buildInfoId": "solc-0_8_19-1ef7364bee65fe47cce44adf0cd306f2b04bd606"
}