{
  "_format": "hh3-artifact-1",
  "contractName": "YieldEpochAggregator",
  "sourceName": "contracts/opbnb/YieldEpochAggregator.sol",
  "abi": [
    {
      "inputs": [
        {
          "internalType": "uint64",
          "name": "_epochDuration",
          "type": "uint64"
        }
      ],
      "stateMutability": "nonpayable",
      "type": "constructor"
    },
    {
      "inputs": [],
      "name": "ZeroDuration",
      "type": "error"
    },
    {
      "anonymous": false,
      "inputs": [
        {
          "indexed": false,
          "internalType": "uint64",
          "name": "previous",
          "type": "uint64"
        },
        {
          "indexed": false,
          "internalType": "uint64",
          "name": "next",
          "type": "uint64"
        }
      ],
      "name": "EpochDurationUpdated",
      "type": "event"
    },
    {
      "anonymous": false,
      "inputs": [
        {
          "indexed": true,
          "internalType": "bytes32",
          "name": "role",
          "type": "bytes32"
        },
        {
          "indexed": true,
          "internalType": "bytes32",
          "name": "previousAdminRole",
          "type": "bytes32"
        },
        {
          "indexed": true,
          "internalType": "bytes32",
          "name": "newAdminRole",
          "type": "bytes32"
        }
      ],
      "name": "RoleAdminChanged",
      "type": "event"
    },
    {
      "anonymous": false,
      "inputs": [
        {
          "indexed": true,
          "internalType": "bytes32",
          "name": "role",
          "type": "bytes32"
        },
        {
          "indexed": true,
          "internalType": "address",
          "name": "account",
          "type": "address"
        },
        {
          "indexed": true,
          "internalType": "address",
          "name": "sender",
          "type": "address"
        }
      ],
      "name": "RoleGranted",
      "type": "event"
    },
    {
      "anonymous": false,
      "inputs": [
        {
          "indexed": true,
          "internalType": "bytes32",
          "name": "role",
          "type": "bytes32"
        },
        {
          "indexed": true,
          "internalType": "address",
          "name": "account",
          "type": "address"
        },
        {
          "indexed": true,
          "internalType": "address",
          "name": "sender",
          "type": "address"
        }
      ],
      "name": "RoleRevoked",
      "type": "event"
    },
    {
      "anonymous": false,
      "inputs": [
        {
          "indexed": true,
          "internalType": "uint256",
          "name": "nftId",
          "type": "uint256"
        },
        {
          "indexed": true,
          "internalType": "uint64",
          "name": "epochId",
          "type": "uint64"
        },
        {
          "indexed": false,
          "internalType": "uint128",
          "name": "yieldSample",
          "type": "uint128"
        },
        {
          "indexed": false,
          "internalType": "uint32",
          "name": "uptimeBps",
          "type": "uint32"
        },
        {
          "indexed": false,
          "internalType": "uint16",
          "name": "confidenceBps",
          "type": "uint16"
        }
      ],
      "name": "SampleRecorded",
      "type": "event"
    },
    {
      "inputs": [],
      "name": "DEFAULT_ADMIN_ROLE",
      "outputs": [
        {
          "internalType": "bytes32",
          "name": "",
          "type": "bytes32"
        }
      ],
      "stateMutability": "view",
      "type": "function"
    },
    {
      "inputs": [],
      "name": "SAMPLE_SUBMITTER_ROLE",
      "outputs": [
        {
          "internalType": "bytes32",
          "name": "",
          "type": "bytes32"
        }
      ],
      "stateMutability": "view",
      "type": "function"
    },
    {
      "inputs": [],
      "name": "currentEpochId",
      "outputs": [
        {
          "internalType": "uint64",
          "name": "",
          "type": "uint64"
        }
      ],
      "stateMutability": "view",
      "type": "function"
    },
    {
      "inputs": [],
      "name": "deployedAt",
      "outputs": [
        {
          "internalType": "uint64",
          "name": "",
          "type": "uint64"
        }
      ],
      "stateMutability": "view",
      "type": "function"
    },
    {
      "inputs": [],
      "name": "epochDuration",
      "outputs": [
        {
          "internalType": "uint64",
          "name": "",
          "type": "uint64"
        }
      ],
      "stateMutability": "view",
      "type": "function"
    },
    {
      "inputs": [
        {
          "internalType": "uint256",
          "name": "nftId",
          "type": "uint256"
        }
      ],
      "name": "getEpochAggregate",
      "outputs": [
        {
          "internalType": "uint64",
          "name": "epochId",
          "type": "uint64"
        },
        {
          "internalType": "uint256",
          "name": "avgYield",
          "type": "uint256"
        },
        {
          "internalType": "uint256",
          "name": "avgUptimeBps",
          "type": "uint256"
        },
        {
          "internalType": "uint16",
          "name": "minConfidenceBps",
          "type": "uint16"
        },
        {
          "internalType": "uint64",
          "name": "sampleCount",
          "type": "uint64"
        }
      ],
      "stateMutability": "view",
      "type": "function"
    },
    {
      "inputs": [
        {
          "internalType": "bytes32",
          "name": "role",
          "type": "bytes32"
        }
      ],
      "name": "getRoleAdmin",
      "outputs": [
        {
          "internalType": "bytes32",
          "name": "",
          "type": "bytes32"
        }
      ],
      "stateMutability": "view",
      "type": "function"
    },
    {
      "inputs": [
        {
          "internalType": "bytes32",
          "name": "role",
          "type": "bytes32"
        },
        {
          "internalType": "address",
          "name": "account",
          "type": "address"
        }
      ],
      "name": "grantRole",
      "outputs": [],
      "stateMutability": "nonpayable",
      "type": "function"
    },
    {
      "inputs": [
        {
          "internalType": "bytes32",
          "name": "role",
          "type": "bytes32"
        },
        {
          "internalType": "address",
          "name": "account",
          "type": "address"
        }
      ],
      "name": "hasRole",
      "outputs": [
        {
          "internalType": "bool",
          "name": "",
          "type": "bool"
        }
      ],
      "stateMutability": "view",
      "type": "function"
    },
    {
      "inputs": [
        {
          "internalType": "uint256",
          "name": "nftId",
          "type": "uint256"
        },
        {
          "internalType": "uint128",
          "name": "yieldSample",
          "type": "uint128"
        },
        {
          "internalType": "uint32",
          "name": "uptimeBps",
          "type": "uint32"
        },
        {
          "internalType": "uint16",
          "name": "confidenceBps",
          "type": "uint16"
        }
      ],
      "name": "recordSample",
      "outputs": [],
      "stateMutability": "nonpayable",
      "type": "function"
    },
    {
      "inputs": [
        {
          "internalType": "bytes32",
          "name": "role",
          "type": "bytes32"
        },
        {
          "internalType": "address",
          "name": "account",
          "type": "address"
        }
      ],
      "name": "renounceRole",
      "outputs": [],
      "stateMutability": "nonpayable",
      "type": "function"
    },
    {
      "inputs": [
        {
          "internalType": "bytes32",
          "name": "role",
          "type": "bytes32"
        },
        {
          "internalType": "address",
          "name": "account",
          "type": "address"
        }
      ],
      "name": "revokeRole",
      "outputs": [],
      "stateMutability": "nonpayable",
      "type": "function"
    },
    {
      "inputs": [
        {
          "internalType": "uint64",
          "name": "d",
          "type": "uint64"
        }
      ],
      "name": "setEpochDuration",
      "outputs": [],
      "stateMutability": "nonpayable",
      "type": "function"
    },
    {
      "inputs": [
        {
          "internalType": "bytes4",
          "name": "interfaceId",
          "type": "bytes4"
        }
      ],
      "name": "supportsInterface",
      "outputs": [
        {
          "internalType": "bool",
          "name": "",
          "type": "bool"
        }
      ],
      "stateMutability": "view",
      "type": "function"
    }
  ],
  "bytecode": "0x60a03461016057601f61111838819003918201601f1916830192916001600160401b039190828511848610176101655780849260409687528339602093849181010312610160575181811680910361016057801561014f57600180546001600160401b0319169190911790554216608052600080805280825282812033825282528281205460ff1615610119575b7f066a4dfaf99569800bde08367206fc0e54d31d7a3fdaefd3d9b4a6a12ac4f9eb91828252818152838220338352815260ff8483205416156100e0575b8351610f7c908161017c82396080518160de0152f35b8282528181528382209033835252828120600160ff1982541617905533916000805160206110f8833981519152339280a43880806100ca565b8080528082528281203382528252828120600160ff198254161790553333826000805160206110f88339815191528180a461008d565b835163346ab43760e11b8152600490fd5b600080fd5b634e487b7160e01b600052604160045260246000fdfe608060408181526004918236101561001657600080fd5b600092833560e01c91826301ffc9a714610a5157508163248a9ca314610a275781632f2ff15d1461098957816336568abe146109015781634ff0876a146108d85781635f98ba82146106a757816391d148541461066d5781639c1ee92014610632578163a217fddf14610617578163bb2b756c146101c0578163c80dc41e1461016c57508063d547741f14610139578063eacdc5ff146101065763eae4c19f146100bf57600080fd5b346101025781600319360112610102576020905167ffffffffffffffff7f0000000000000000000000000000000000000000000000000000000000000000168152f35b5080fd5b503461010257816003193601126101025760209067ffffffffffffffff610131816001541642610e88565b169051908152f35b50346101025760016101699161016461015136610aa4565b9390928387528660205286200154610acf565b610cf0565b80f35b8284346101bd5760203660031901126101bd575061ffff61018f60a09335610ea8565b9394929580929192519667ffffffffffffffff80971688526020880152860152166060840152166080820152f35b80fd5b919050346106135760803660031901126106135781359060248035916001600160801b0380841680940361060f576044359063ffffffff821680920361060b576064359061ffff821694858303610607577f066a4dfaf99569800bde08367206fc0e54d31d7a3fdaefd3d9b4a6a12ac4f9eb92838b526020938b8552868c20338d52855260ff878d2054161561043e575061271085116104135767ffffffffffffffff80610272816001541642610e88565b169a8a8d5260028652878d2060018101958d875460ff8160501c16158015610406575b6103df575b50508154908c81838d1c16019081116103cc578a1b77ffffffffffffffffffffffffffffffff00000000000000001677ffffffffffffffffffffffffffffffff0000000000000000198216811760c01c6001018581116103b8579185161760c09190911b6001600160c01b0319161790558454938483168801918383116103a7575050917f53bb60f2345631e46957e394a20815347502442c082faa22bf7ea037adc945a79997959391606099979593169061ffff8267ffffffffffffffff19851617808655881c16881061037d575b505050508251948552840152820152a380f35b69ffff000000000000000090871b169169ffffffffffffffffffff1916171790553880808061036a565b634e487b7160e01b8f52601190528dfd5b5050634e487b7160e01b8f5260118352858ffd5b50634e487b7160e01b8f5260118352858ffd5b9083556affffffffffffffffffffff19166a01ffff00000000000000001787558d3861029a565b5081868554161415610295565b855162461bcd60e51b8152808b0185905260068184015265757074696d6560d01b6044820152606490fd5b8a83888e889461044d33610d8b565b83519161045983610c9c565b604283528783019360603686378351156105f557603085538351906001918210156105e35790607860218601536041915b81831161057a5750505061054c578361051d60488961053e9660449a999661050e6104e59776020b1b1b2b9b9a1b7b73a3937b61d1030b1b1b7bab73a1604d1b9b5198858a9687019d8e528251928391603789019101610c79565b8401917001034b99036b4b9b9b4b733903937b6329607d1b603784015251809386840190610c79565b01036028810185520183610cce565b5196879562461bcd60e51b8752860152519283809286015285850190610c79565b601f01601f19168101030190fd5b60648688878188519362461bcd60e51b8552840152820152600080516020610f278339815191526044820152fd5b909192600f811660108110156105d1576f181899199a1a9b1b9c1cb0b131b232b360811b901a6105aa8588610d64565b53891c9280156105bf5760001901919061048a565b634e487b7160e01b825260118a528882fd5b634e487b7160e01b835260328b528983fd5b634e487b7160e01b8152603289528790fd5b634e487b7160e01b8152603288528690fd5b8980fd5b8780fd5b8680fd5b8280fd5b50503461010257816003193601126101025751908152602090f35b505034610102578160031936011261010257602090517f066a4dfaf99569800bde08367206fc0e54d31d7a3fdaefd3d9b4a6a12ac4f9eb8152f35b5050346101025760ff8160209361068336610aa4565b9082528186528282206001600160a01b039091168252855220549151911615158152f35b9190503461061357602090816003193601126108d45782359267ffffffffffffffff908185168095036108d057858052858452828620338752845260ff83872054161561074857841561073a5750907fd8475347477ffe1dfb06477eab3993a03ed1018a4d47c96173615ad844458f6191846001549483519286168352820152a167ffffffffffffffff19161760015580f35b825163346ab43760e11b8152fd5b9190508461075533610d8b565b908083519061076382610c9c565b604282528682019260603685378251156108bd57603084538251906001918210156108aa5790607860218501536041915b81831161083f5750505061081057836107ee6048889561053e9561050e9560449a99519687936104e58b86019b76020b1b1b2b9b9a1b7b73a3937b61d1030b1b1b7bab73a1604d1b8d528251928391603789019101610c79565b5195869462461bcd60e51b865285015251809281602486015285850190610c79565b606485878087519262461bcd60e51b84528301526024820152600080516020610f278339815191526044820152fd5b909192600f81166010811015610897576f181899199a1a9b1b9c1cb0b131b232b360811b901a61086f8587610d64565b53881c92801561088457600019019190610794565b634e487b7160e01b825260118952602482fd5b634e487b7160e01b835260328a52602483fd5b634e487b7160e01b815260328852602490fd5b634e487b7160e01b815260328752602490fd5b8580fd5b8380fd5b50503461010257816003193601126101025760209067ffffffffffffffff600154169051908152f35b839150346101025761091236610aa4565b91336001600160a01b0384160361092e57509061016991610cf0565b608490602086519162461bcd60e51b8352820152602f60248201527f416363657373436f6e74726f6c3a2063616e206f6e6c792072656e6f756e636560448201526e103937b632b9903337b91039b2b63360891b6064820152fd5b5050346101025761099936610aa4565b9091828452836020526109b160018286200154610acf565b82845260208481528185206001600160a01b039093168086529290528084205460ff16156109dd578380f35b828452836020528084208285526020528320600160ff1982541617905533917f2f8788117e7eff1d82e926ec794901d17c78024a50270940304540a733656f0d8480a43880808380f35b90503461061357602036600319011261061357816020936001923581528085522001549051908152f35b849134610613576020366003190112610613573563ffffffff60e01b81168091036106135760209250637965db0b60e01b8114908115610a93575b5015158152f35b6301ffc9a760e01b14905083610a8c565b6040906003190112610aca57600435906024356001600160a01b0381168103610aca5790565b600080fd5b60008181526020818152604092838320338452825260ff848420541615610af65750505050565b610aff33610d8b565b90845190610b0c82610c9c565b60428252838201946060368737825115610c655760308653825190600191821015610c655790607860218501536041915b818311610bf757505050610bc75784610ba3604861053e936044979851988991610b948984019876020b1b1b2b9b9a1b7b73a3937b61d1030b1b1b7bab73a1604d1b8a526104e5815180928d603789019101610c79565b01036028810189520187610cce565b5194859362461bcd60e51b8552600485015251809281602486015285850190610c79565b60648386519062461bcd60e51b82528060048301526024820152600080516020610f278339815191526044820152fd5b909192600f81166010811015610c51576f181899199a1a9b1b9c1cb0b131b232b360811b901a610c278587610d64565b5360041c928015610c3d57600019019190610b3d565b634e487b7160e01b82526011600452602482fd5b634e487b7160e01b83526032600452602483fd5b634e487b7160e01b81526032600452602490fd5b60005b838110610c8c5750506000910152565b8181015183820152602001610c7c565b6080810190811067ffffffffffffffff821117610cb857604052565b634e487b7160e01b600052604160045260246000fd5b90601f8019910116810190811067ffffffffffffffff821117610cb857604052565b9060009180835282602052604083209160018060a01b03169182845260205260ff604084205416610d2057505050565b80835282602052604083208284526020526040832060ff1981541690557ff6391f5c32d9c69d2a47ea670b442974b53935d1edc7fd64eb21e047a839171b339380a4565b908151811015610d75570160200190565b634e487b7160e01b600052603260045260246000fd5b604051906060820182811067ffffffffffffffff821117610cb857604052602a8252602082016040368237825115610d7557603090538151600190811015610d7557607860218401536029905b808211610e1a575050610de85790565b606460405162461bcd60e51b81526020600482015260206024820152600080516020610f278339815191526044820152fd5b9091600f81166010811015610e73576f181899199a1a9b1b9c1cb0b131b232b360811b901a610e498486610d64565b5360041c918015610e5e576000190190610dd8565b60246000634e487b7160e01b81526011600452fd5b60246000634e487b7160e01b81526032600452fd5b8115610e92570490565b634e487b7160e01b600052601260045260246000fd5b9060009182526002602052604082209081549067ffffffffffffffff91828116948160c01c918215610f19576001600160801b036001610ef4610eff9388871693849160401c16610e88565b970154958616610e88565b9360401c61ffff908116908103610f14575091565b905091565b509350839250829182915056fe537472696e67733a20686578206c656e67746820696e73756666696369656e74a264697066735822122098aa03ccaa10061d8237fb3d59c594ca54a507b789d53e9ac0e741cf2ebed5eb64736f6c634300081300332f8788117e7eff1d82e926ec794901d17c78024a50270940304540a733656f0d",
  "linkReferences": {},
  "deployedLinkReferences": {},
  "immutableReferences": {
    "31063": [
      {
        "length": 32,
        "start": 222
      }
    ]
  },
  "inputSourceName": "project/contracts/opbnb/YieldEpochAggregator.sol",
  "buildInfoId": "solc-0_8_19-1ef7364bee65fe47cce44adf0cd306f2b04bd606"
}