{
  "_format": "hh3-artifact-1",
  "contractName": "YieldTokenFactory",
  "sourceName": "contracts/YieldTokenFactory.sol",
  "abi": [
    {
      "anonymous": false,
      "inputs": [
        {
          "indexed": true,
          "internalType": "address",
          "name": "token",
          "type": "address"
        },
        {
          "indexed": true,
          "internalType": "address",
          "name": "lendingPool",
          "type": "address"
        },
        {
          "indexed": false,
          "internalType": "uint256",
          "name": "nftId",
          "type": "uint256"
        }
      ],
      "name": "YieldTokenCreated",
      "type": "event"
    },
    {
      "inputs": [
        {
          "internalType": "address",
          "name": "lendingPool",
          "type": "address"
        },
        {
          "internalType": "address",
          "name": "hardwareNFT",
          "type": "address"
        },
        {
          "internalType": "uint256",
          "name": "nftId",
          "type": "uint256"
        },
        {
          "internalType": "uint256",
          "name": "yieldPercentage",
          "type": "uint256"
        },
        {
          "internalType": "address",
          "name": "underlyingRewardToken",
          "type": "address"
        }
      ],
      "name": "createYieldToken",
      "outputs": [
        {
          "internalType": "address",
          "name": "",
          "type": "address"
        }
      ],
      "stateMutability": "nonpayable",
      "type": "function"
    }
  ],
  "bytecode": "0x6080806040523461001657612057908161001c8239f35b600080fdfe60406080815260043610156200001457600080fd5b6000803560e01c63e68704fc146200002b57600080fd5b34620001de5760a0366003190112620001de576001600160a01b039160043583811690819003620001e15760243592848416809403620001de5760443590608435868116809103620001da57620000828362000287565b95855191620000c9602b8460209a6a5969656c64546f6b656e5f60a81b8c830152620000b88c82519283918686019101620001e5565b810103600b8101865201846200020a565b620000d48562000287565b92620001126025895180966479544b4e5f60d81b8d830152620001018d82519283918686019101620001e5565b81010360058101875201856200020a565b875193611c1a918286019286841067ffffffffffffffff851117620001c65760a0926200015788979695936200016593620004088a3960c0855260c085019062000243565b838103848f01529062000243565b93898b830152606082015260643560808201520152039082f0908115620001bb575084957fb60f57c0d310ba506134e777e232b302476ed1a8a5b61955e11790d53e0d6e5791169485928551908152a351908152f35b8451903d90823e3d90fd5b634e487b7160e01b88526041600452602488fd5b5080fd5b80fd5b8280fd5b60005b838110620001f95750506000910152565b8181015183820152602001620001e8565b90601f8019910116810190811067ffffffffffffffff8211176200022d57604052565b634e487b7160e01b600052604160045260246000fd5b906020916200025e81518092818552858086019101620001e5565b601f01601f1916010190565b67ffffffffffffffff81116200022d57601f01601f191660200190565b806000917a184f03e93ff9f4daa797ed6e38ed64bf6a1f01000000000000000080821015620003f8575b506d04ee2d6d415b85acef810000000080831015620003e8575b50662386f26fc1000080831015620003d8575b506305f5e10080831015620003c8575b5061271080831015620003b8575b506064821015620003a7575b600a809210156200039c575b6001908160218186019562000329876200026a565b966200033960405198896200020a565b8088526200034a601f19916200026a565b01366020890137860101905b62000363575b5050505090565b600019019083906f181899199a1a9b1b9c1cb0b131b232b360811b8282061a835304918215620003965791908262000356565b6200035c565b916001019162000314565b919060646002910491019162000308565b60049193920491019138620002fc565b60089193920491019138620002ee565b60109193920491019138620002de565b60209193920491019138620002cb565b604093508104915038620002b156fe60406080815234620005c05762001c1a803803806200001e81620005c5565b92833981019060c081830312620005c05780516001600160401b039190828111620005c0578362000051918301620005eb565b906020938482015190848211620005c0576200006f918301620005eb565b926200007d8683016200065d565b906200008c606084016200065d565b92620000a060a0608083015192016200065d565b918551818111620004b1576003908154906001988983811c93168015620005b5575b8c8410146200059f5781908c601f9485811162000546575b50508c90848311600114620004d357600092620004c7575b505060001982851b1c191690891b1782555b8851928311620004b15760049889548981811c91168015620004a6575b8c8210146200049157908b8284879695941162000434575b50508b918411600114620003c957600093620003bd575b505082881b92600019911b1c19161786555b6001600160a01b039283169586151580620003b1575b80620003a5575b1562000373578115158062000367575b156200032f57508260018060a01b031994878660065416176006551684600754161760075560085516906009541617600955600080526005928381528460002083600052815260ff85600020541615620002f3575b7f9f2df0fed2c77648de5860a4cc508cd0818c85b8b8a1ab4ceeef8d981c8956a6806000528482528560002084600052825260ff86600020541615620002b6575b507f3c11d16cbaffd01df69ce1c404f6340ee057498f5f00246190ea54220576a84893846000528082528560002084600052825260ff8660002054161562000277575b85516115879081620006738239f35b84600052815284600020908360005252836000209060ff19825416179055339160008051602062001bfa833981519152600080a4388080808062000268565b8060005284825285600020846000528252856000208360ff1982541617905583339160008051602062001bfa833981519152600080a43862000225565b6000805283815284600020836000528152846000208260ff198254161790553383600060008051602062001bfa8339815191528180a4620001e4565b885162461bcd60e51b81529081018890526012602482015271496e76616c69642070657263656e7461676560701b6044820152606490fd5b5060648211156200018f565b885162461bcd60e51b8152908101889052600c60248201526b5a65726f206164647265737360a01b6044820152606490fd5b5083831615156200017f565b50838516151562000178565b01519150388062000150565b60008b81528c81208b965093929190601f198616908e5b8282106200041c575050851162000401575b50505050811b01865562000162565b01519060f884600019921b161c1916905538808080620003f2565b8385015187558d989096019593840193018e620003e0565b9091929394508b60005283826000209181880160051c830193881062000487575b918c918897969594930160051c01915b8281106200047757508d915062000139565b600081558796508c910162000465565b9250819262000455565b60228b634e487b7160e01b6000525260246000fd5b90607f169062000121565b634e487b7160e01b600052604160045260246000fd5b015190503880620000f2565b8b9350908d91601f1984168760005283600020936000905b8282106200052457505084116200050b575b505050811b01825562000104565b015160001983871b60f8161c19169055388080620004fd565b91929395968291958786015181550195019301908f918e9695949392620004eb565b909192508560005284826000209181860160051c830193861062000595575b918d91869594930160051c01915b8281106200058557508e9150620000da565b600081558594508d910162000573565b9250819262000565565b634e487b7160e01b600052602260045260246000fd5b92607f1692620000c2565b600080fd5b6040519190601f01601f191682016001600160401b03811183821017620004b157604052565b919080601f84011215620005c05782516001600160401b038111620004b15760209062000621601f8201601f19168301620005c5565b92818452828287010111620005c05760005b8181106200064957508260009394955001015290565b858101830151848201840152820162000633565b51906001600160a01b0382168203620005c05756fe608060408181526004918236101561001657600080fd5b600092833560e01c91826301ffc9a714610e3e5750816306fdde0314610d49578163095ea7b314610d1f57816318160ddd14610d0057816323b872dd14610c36578163248a9ca314610c0b578163282c51f314610bd05781632f2ff15d14610b23578163313ce56714610b07578163357d1a7b14610ade57816336568abe14610a4c57816339509351146109fc57816340c10f191461081457816351286cfa146107f55781636875fabb146107cc57816370a082311461079557816391d148541461074e57816395d89b411461064b5781639dc29fac14610329578163a217fddf1461030e578163a457c2d714610266578163a59a99731461023d578163a9059cbb1461020c578163d5391393146101d1578163d547741f1461018e575063dd62ed3e1461014357600080fd5b3461018a578060031936011261018a578060209261015f610ee0565b610167610efb565b6001600160a01b0391821683526001865283832091168252845220549051908152f35b5080fd5b919050346101cd57806003193601126101cd576101ca91356101c560016101b3610efb565b93838752600560205286200154610f11565b611112565b80f35b8280fd5b50503461018a578160031936011261018a57602090517f9f2df0fed2c77648de5860a4cc508cd0818c85b8b8a1ab4ceeef8d981c8956a68152f35b50503461018a578060031936011261018a5760209061023661022c610ee0565b60243590336111ab565b5160018152f35b50503461018a578160031936011261018a5760065490516001600160a01b039091168152602090f35b9050823461030b578260031936011261030b57610281610ee0565b918360243592338152600160205281812060018060a01b03861682526020522054908282106102ba576020856102368585038733611319565b608490602086519162461bcd60e51b8352820152602560248201527f45524332303a2064656372656173656420616c6c6f77616e63652062656c6f77604482015264207a65726f60d81b6064820152fd5b80fd5b50503461018a578160031936011261018a5751908152602090f35b8391503461018a578260031936011261018a57610344610ee0565b926024908135917f3c11d16cbaffd01df69ce1c404f6340ee057498f5f00246190ea54220576a8489586865260209660058852838720338852885260ff84882054161561048957506001600160a01b031693841561043f5784865285875282862054918483106103f257505091849591817fddf252ad1be2c89b69c2b068fc378daa952ba7f163c4a11628f55a4df523b3ef948688528785520381872055816002540360025551908152a380f35b835162461bcd60e51b81529182018890526022908201527f45524332303a206275726e20616d6f756e7420657863656564732062616c616e604482015261636560f01b6064820152608490fd5b60216084928885519362461bcd60e51b85528401528201527f45524332303a206275726e2066726f6d20746865207a65726f206164647265736044820152607360f81b6064820152fd5b85888885879461049833611442565b90918651926104a6846110be565b6042845285840194606036873784511561063957603086538451906001918210156106275790607860218701536041915b8183116105be5750505061057d57506105799386936105659361055660489461052d9a519a8576020b1b1b2b9b9a1b7b73a3937b61d1030b1b1b7bab73a1604d1b8d978801528251928391603789019101610e91565b8401917001034b99036b4b9b9b4b733903937b6329607d1b603784015251809386840190610e91565b010360288101875201856110f0565b5162461bcd60e51b81529283928301610eb4565b0390fd5b9250505081606494519362461bcd60e51b85528401528201527f537472696e67733a20686578206c656e67746820696e73756666696369656e746044820152fd5b909192600f81166010811015610615576f181899199a1a9b1b9c1cb0b131b232b360811b901a6105ee858961141b565b53891c928015610603576000190191906104d7565b634e487b7160e01b825260118a528482fd5b634e487b7160e01b835260328b528583fd5b634e487b7160e01b8152603289528390fd5b634e487b7160e01b8152603288529050fd5b83833461018a578160031936011261018a57805191809380549160019083821c92828516948515610744575b60209586861081146107315785895290811561070d57506001146106b5575b6106b187876106a7828c03836110f0565b5191829182610eb4565b0390f35b81529295507f8a35acfbc15ff81a39ae7d344fd709f28e8600b4aa8c65c6b64bfe7fe36bd19b5b8284106106fa57505050826106b1946106a792820101948680610696565b80548685018801529286019281016106dc565b60ff19168887015250505050151560051b83010192506106a7826106b18680610696565b634e487b7160e01b845260228352602484fd5b93607f1693610677565b9050346101cd57816003193601126101cd578160209360ff9261076f610efb565b90358252600586528282206001600160a01b039091168252855220549151911615158152f35b50503461018a57602036600319011261018a5760209181906001600160a01b036107bd610ee0565b16815280845220549051908152f35b50503461018a578160031936011261018a5760075490516001600160a01b039091168152602090f35b50503461018a578160031936011261018a576020906008549051908152f35b9050346101cd57816003193601126101cd5761082e610ee0565b906024928335917f9f2df0fed2c77648de5860a4cc508cd0818c85b8b8a1ab4ceeef8d981c8956a69384875260209460058652838820338952865260ff84892054161561091357506001600160a01b03169485156108d3575050918185936108b97fddf252ad1be2c89b69c2b068fc378daa952ba7f163c4a11628f55a4df523b3ef94600254611188565b60025585855284835280852082815401905551908152a380f35b601f9085606494519362461bcd60e51b85528401528201527f45524332303a206d696e7420746f20746865207a65726f2061646472657373006044820152fd5b85915086889161092233611442565b9091865192610930846110be565b6042845285840194606036873784511561063957603086538451906001918210156106275790607860218701536041915b8183116109b75750505061057d57506105799386936105659361055660489461052d9a519a8576020b1b1b2b9b9a1b7b73a3937b61d1030b1b1b7bab73a1604d1b8d978801528251928391603789019101610e91565b909192600f81166010811015610615576f181899199a1a9b1b9c1cb0b131b232b360811b901a6109e7858961141b565b53891c92801561060357600019019190610961565b50503461018a578060031936011261018a57610236602092610a45610a1f610ee0565b338352600186528483206001600160a01b03821684528652918490205460243590611188565b9033611319565b8391503461018a578260031936011261018a57610a67610efb565b90336001600160a01b03831603610a8357906101ca9135611112565b608490602085519162461bcd60e51b8352820152602f60248201527f416363657373436f6e74726f6c3a2063616e206f6e6c792072656e6f756e636560448201526e103937b632b9903337b91039b2b63360891b6064820152fd5b50503461018a578160031936011261018a5760095490516001600160a01b039091168152602090f35b50503461018a578160031936011261018a576020905160128152f35b9050346101cd57816003193601126101cd573590610b3f610efb565b908284526005602052610b5760018286200154610f11565b828452600560209081528185206001600160a01b039093168086529290528084205460ff1615610b85578380f35b82845260056020528084208285526020528320600160ff1982541617905533917f2f8788117e7eff1d82e926ec794901d17c78024a50270940304540a733656f0d8480a43880808380f35b50503461018a578160031936011261018a57602090517f3c11d16cbaffd01df69ce1c404f6340ee057498f5f00246190ea54220576a8488152f35b9050346101cd5760203660031901126101cd5781602093600192358152600585522001549051908152f35b8391503461018a57606036600319011261018a57610c52610ee0565b610c5a610efb565b91846044359460018060a01b038416815260016020528181203382526020522054906000198203610c94575b6020866102368787876111ab565b848210610cbd5750918391610cb26020969561023695033383611319565b919394819350610c86565b606490602087519162461bcd60e51b8352820152601d60248201527f45524332303a20696e73756666696369656e7420616c6c6f77616e63650000006044820152fd5b50503461018a578160031936011261018a576020906002549051908152f35b50503461018a578060031936011261018a57602090610236610d3f610ee0565b6024359033611319565b919050346101cd57826003193601126101cd57805191836003549060019082821c928281168015610e34575b6020958686108214610e215750848852908115610dff5750600114610da6575b6106b186866106a7828b03836110f0565b929550600383527fc2575a0e9e593c00f959f8c92f12db2869c3395a3b0502d05e2516446f71f85b5b828410610dec57505050826106b1946106a7928201019438610d95565b8054868501880152928601928101610dcf565b60ff191687860152505050151560051b83010192506106a7826106b138610d95565b634e487b7160e01b845260229052602483fd5b93607f1693610d75565b8491346101cd5760203660031901126101cd573563ffffffff60e01b81168091036101cd5760209250637965db0b60e01b8114908115610e80575b5015158152f35b6301ffc9a760e01b14905083610e79565b60005b838110610ea45750506000910152565b8181015183820152602001610e94565b60409160208252610ed48151809281602086015260208686019101610e91565b601f01601f1916010190565b600435906001600160a01b0382168203610ef657565b600080fd5b602435906001600160a01b0382168203610ef657565b600081815260209060058252604092838220338352835260ff848320541615610f3a5750505050565b610f4333611442565b845191610f4f836110be565b604283528483019360603686378351156110aa57603085538351906001918210156110aa5790607860218601536041915b81831161103c57505050610ffa5761052d938593610fe493610fd56048946105799951988576020b1b1b2b9b9a1b7b73a3937b61d1030b1b1b7bab73a1604d1b8b978801528251928391603789019101610e91565b010360288101855201836110f0565b5162461bcd60e51b815291829160048301610eb4565b60648486519062461bcd60e51b825280600483015260248201527f537472696e67733a20686578206c656e67746820696e73756666696369656e746044820152fd5b909192600f81166010811015611096576f181899199a1a9b1b9c1cb0b131b232b360811b901a61106c858861141b565b5360041c92801561108257600019019190610f80565b634e487b7160e01b82526011600452602482fd5b634e487b7160e01b83526032600452602483fd5b634e487b7160e01b81526032600452602490fd5b6080810190811067ffffffffffffffff8211176110da57604052565b634e487b7160e01b600052604160045260246000fd5b90601f8019910116810190811067ffffffffffffffff8211176110da57604052565b906000918083526005602052604083209160018060a01b03169182845260205260ff60408420541661114357505050565b8083526005602052604083208284526020526040832060ff1981541690557ff6391f5c32d9c69d2a47ea670b442974b53935d1edc7fd64eb21e047a839171b339380a4565b9190820180921161119557565b634e487b7160e01b600052601160045260246000fd5b6001600160a01b039081169182156112c657169182156112755760008281528060205260408120549180831061122157604082827fddf252ad1be2c89b69c2b068fc378daa952ba7f163c4a11628f55a4df523b3ef958760209652828652038282205586815220818154019055604051908152a3565b60405162461bcd60e51b815260206004820152602660248201527f45524332303a207472616e7366657220616d6f756e7420657863656564732062604482015265616c616e636560d01b6064820152608490fd5b60405162461bcd60e51b815260206004820152602360248201527f45524332303a207472616e7366657220746f20746865207a65726f206164647260448201526265737360e81b6064820152608490fd5b60405162461bcd60e51b815260206004820152602560248201527f45524332303a207472616e736665722066726f6d20746865207a65726f206164604482015264647265737360d81b6064820152608490fd5b6001600160a01b039081169182156113ca571691821561137a5760207f8c5be1e5ebec7d5bd14f71427d1e84f3dd0314c0f7b2291e5b200ac8c7c3b925918360005260018252604060002085600052825280604060002055604051908152a3565b60405162461bcd60e51b815260206004820152602260248201527f45524332303a20617070726f766520746f20746865207a65726f206164647265604482015261737360f01b6064820152608490fd5b60405162461bcd60e51b8152602060048201526024808201527f45524332303a20617070726f76652066726f6d20746865207a65726f206164646044820152637265737360e01b6064820152608490fd5b90815181101561142c570160200190565b634e487b7160e01b600052603260045260246000fd5b604051906060820182811067ffffffffffffffff8211176110da57604052602a825260208201604036823782511561142c5760309053815160019081101561142c57607860218401536029905b8082116114e357505061149f5790565b606460405162461bcd60e51b815260206004820152602060248201527f537472696e67733a20686578206c656e67746820696e73756666696369656e746044820152fd5b9091600f8116601081101561153c576f181899199a1a9b1b9c1cb0b131b232b360811b901a611512848661141b565b5360041c91801561152757600019019061148f565b60246000634e487b7160e01b81526011600452fd5b60246000634e487b7160e01b81526032600452fdfea2646970667358221220e14f596ba1ae7963224542a4a0a54c8c289c583e1e15e3289716957e989062eb64736f6c634300081300332f8788117e7eff1d82e926ec794901d17c78024a50270940304540a733656f0da264697066735822122010538680f8e90ebd98be3eb8c960878f0dcec0e81e201b5f9df022ba64ac26c564736f6c63430008130033",
  "linkReferences": {},
  "deployedLinkReferences": {},
  "immutableReferences": {},
  "inputSourceName": "project/contracts/YieldTokenFactory.sol",
  "buildInfoId": "solc-0_8_19-1ef7364bee65fe47cce44adf0cd306f2b04bd606"
}