{
  "_format": "hh3-artifact-1",
  "contractName": "OracleManager",
  "sourceName": "contracts/OracleManager.sol",
  "abi": [
    {
      "inputs": [
        {
          "internalType": "address",
          "name": "admin",
          "type": "address"
        }
      ],
      "stateMutability": "nonpayable",
      "type": "constructor"
    },
    {
      "inputs": [],
      "name": "CircuitBreakerActive",
      "type": "error"
    },
    {
      "inputs": [],
      "name": "CooldownActive",
      "type": "error"
    },
    {
      "inputs": [],
      "name": "InvalidUptime",
      "type": "error"
    },
    {
      "inputs": [],
      "name": "InvalidYield",
      "type": "error"
    },
    {
      "inputs": [],
      "name": "OutlierRejected",
      "type": "error"
    },
    {
      "anonymous": false,
      "inputs": [
        {
          "indexed": true,
          "internalType": "uint256",
          "name": "nftId",
          "type": "uint256"
        },
        {
          "indexed": true,
          "internalType": "address",
          "name": "provider",
          "type": "address"
        },
        {
          "indexed": false,
          "internalType": "string",
          "name": "reason",
          "type": "string"
        }
      ],
      "name": "AnomalyDetected",
      "type": "event"
    },
    {
      "anonymous": false,
      "inputs": [
        {
          "indexed": true,
          "internalType": "address",
          "name": "admin",
          "type": "address"
        }
      ],
      "name": "CircuitBreakerReset",
      "type": "event"
    },
    {
      "anonymous": false,
      "inputs": [
        {
          "indexed": true,
          "internalType": "address",
          "name": "triggeredBy",
          "type": "address"
        },
        {
          "indexed": false,
          "internalType": "string",
          "name": "reason",
          "type": "string"
        }
      ],
      "name": "CircuitBreakerTripped",
      "type": "event"
    },
    {
      "anonymous": false,
      "inputs": [
        {
          "indexed": true,
          "internalType": "uint256",
          "name": "nftId",
          "type": "uint256"
        },
        {
          "indexed": false,
          "internalType": "uint256",
          "name": "consensusYield",
          "type": "uint256"
        },
        {
          "indexed": false,
          "internalType": "uint256",
          "name": "consensusUptime",
          "type": "uint256"
        },
        {
          "indexed": false,
          "internalType": "uint256",
          "name": "freshProviders",
          "type": "uint256"
        }
      ],
      "name": "ConsensusReached",
      "type": "event"
    },
    {
      "anonymous": false,
      "inputs": [
        {
          "indexed": false,
          "internalType": "uint256",
          "name": "minProviders",
          "type": "uint256"
        }
      ],
      "name": "MinProvidersForConsensusUpdated",
      "type": "event"
    },
    {
      "anonymous": false,
      "inputs": [
        {
          "indexed": true,
          "internalType": "uint256",
          "name": "nftId",
          "type": "uint256"
        },
        {
          "indexed": false,
          "internalType": "uint256",
          "name": "freshCount",
          "type": "uint256"
        },
        {
          "indexed": false,
          "internalType": "uint256",
          "name": "requiredMin",
          "type": "uint256"
        }
      ],
      "name": "OracleConsensusFailed",
      "type": "event"
    },
    {
      "anonymous": false,
      "inputs": [
        {
          "indexed": true,
          "internalType": "uint256",
          "name": "nftId",
          "type": "uint256"
        },
        {
          "indexed": false,
          "internalType": "string",
          "name": "reason",
          "type": "string"
        }
      ],
      "name": "OracleFallbackActivated",
      "type": "event"
    },
    {
      "anonymous": false,
      "inputs": [
        {
          "indexed": true,
          "internalType": "address",
          "name": "triggeredBy",
          "type": "address"
        },
        {
          "indexed": false,
          "internalType": "string",
          "name": "reason",
          "type": "string"
        }
      ],
      "name": "OracleFrozen",
      "type": "event"
    },
    {
      "anonymous": false,
      "inputs": [
        {
          "indexed": true,
          "internalType": "address",
          "name": "provider",
          "type": "address"
        },
        {
          "indexed": false,
          "internalType": "bool",
          "name": "active",
          "type": "bool"
        },
        {
          "indexed": false,
          "internalType": "uint256",
          "name": "providerCountAfter",
          "type": "uint256"
        }
      ],
      "name": "OracleProviderListUpdated",
      "type": "event"
    },
    {
      "anonymous": false,
      "inputs": [
        {
          "indexed": true,
          "internalType": "address",
          "name": "admin",
          "type": "address"
        }
      ],
      "name": "OracleRecovered",
      "type": "event"
    },
    {
      "anonymous": false,
      "inputs": [
        {
          "indexed": true,
          "internalType": "uint256",
          "name": "nftId",
          "type": "uint256"
        },
        {
          "indexed": false,
          "internalType": "uint256",
          "name": "lastConsensusTime",
          "type": "uint256"
        },
        {
          "indexed": false,
          "internalType": "uint256",
          "name": "ttl",
          "type": "uint256"
        }
      ],
      "name": "OracleStale",
      "type": "event"
    },
    {
      "anonymous": false,
      "inputs": [
        {
          "indexed": true,
          "internalType": "uint256",
          "name": "nftId",
          "type": "uint256"
        },
        {
          "indexed": true,
          "internalType": "address",
          "name": "provider",
          "type": "address"
        },
        {
          "indexed": false,
          "internalType": "uint256",
          "name": "yieldValue",
          "type": "uint256"
        },
        {
          "indexed": false,
          "internalType": "uint256",
          "name": "uptime",
          "type": "uint256"
        }
      ],
      "name": "OracleSubmission",
      "type": "event"
    },
    {
      "anonymous": false,
      "inputs": [
        {
          "indexed": true,
          "internalType": "uint256",
          "name": "nftId",
          "type": "uint256"
        },
        {
          "indexed": true,
          "internalType": "address",
          "name": "provider",
          "type": "address"
        },
        {
          "indexed": false,
          "internalType": "string",
          "name": "reason",
          "type": "string"
        }
      ],
      "name": "OracleSubmissionRejected",
      "type": "event"
    },
    {
      "anonymous": false,
      "inputs": [
        {
          "indexed": false,
          "internalType": "bool",
          "name": "reject",
          "type": "bool"
        }
      ],
      "name": "RejectOutlierSubmissionsUpdated",
      "type": "event"
    },
    {
      "anonymous": false,
      "inputs": [
        {
          "indexed": true,
          "internalType": "bytes32",
          "name": "role",
          "type": "bytes32"
        },
        {
          "indexed": true,
          "internalType": "bytes32",
          "name": "previousAdminRole",
          "type": "bytes32"
        },
        {
          "indexed": true,
          "internalType": "bytes32",
          "name": "newAdminRole",
          "type": "bytes32"
        }
      ],
      "name": "RoleAdminChanged",
      "type": "event"
    },
    {
      "anonymous": false,
      "inputs": [
        {
          "indexed": true,
          "internalType": "bytes32",
          "name": "role",
          "type": "bytes32"
        },
        {
          "indexed": true,
          "internalType": "address",
          "name": "account",
          "type": "address"
        },
        {
          "indexed": true,
          "internalType": "address",
          "name": "sender",
          "type": "address"
        }
      ],
      "name": "RoleGranted",
      "type": "event"
    },
    {
      "anonymous": false,
      "inputs": [
        {
          "indexed": true,
          "internalType": "bytes32",
          "name": "role",
          "type": "bytes32"
        },
        {
          "indexed": true,
          "internalType": "address",
          "name": "account",
          "type": "address"
        },
        {
          "indexed": true,
          "internalType": "address",
          "name": "sender",
          "type": "address"
        }
      ],
      "name": "RoleRevoked",
      "type": "event"
    },
    {
      "inputs": [],
      "name": "CONSENSUS_TTL",
      "outputs": [
        {
          "internalType": "uint256",
          "name": "",
          "type": "uint256"
        }
      ],
      "stateMutability": "view",
      "type": "function"
    },
    {
      "inputs": [],
      "name": "DEFAULT_ADMIN_ROLE",
      "outputs": [
        {
          "internalType": "bytes32",
          "name": "",
          "type": "bytes32"
        }
      ],
      "stateMutability": "view",
      "type": "function"
    },
    {
      "inputs": [],
      "name": "GOVERNOR_ROLE",
      "outputs": [
        {
          "internalType": "bytes32",
          "name": "",
          "type": "bytes32"
        }
      ],
      "stateMutability": "view",
      "type": "function"
    },
    {
      "inputs": [],
      "name": "GUARDIAN_ROLE",
      "outputs": [
        {
          "internalType": "bytes32",
          "name": "",
          "type": "bytes32"
        }
      ],
      "stateMutability": "view",
      "type": "function"
    },
    {
      "inputs": [],
      "name": "MAX_DEVIATION_BPS",
      "outputs": [
        {
          "internalType": "uint256",
          "name": "",
          "type": "uint256"
        }
      ],
      "stateMutability": "view",
      "type": "function"
    },
    {
      "inputs": [],
      "name": "MAX_STALENESS",
      "outputs": [
        {
          "internalType": "uint256",
          "name": "",
          "type": "uint256"
        }
      ],
      "stateMutability": "view",
      "type": "function"
    },
    {
      "inputs": [],
      "name": "MAX_SUBMISSIONS_PER_DEVICE",
      "outputs": [
        {
          "internalType": "uint256",
          "name": "",
          "type": "uint256"
        }
      ],
      "stateMutability": "view",
      "type": "function"
    },
    {
      "inputs": [],
      "name": "ORACLE_PROVIDER_ROLE",
      "outputs": [
        {
          "internalType": "bytes32",
          "name": "",
          "type": "bytes32"
        }
      ],
      "stateMutability": "view",
      "type": "function"
    },
    {
      "inputs": [],
      "name": "PROVIDER_COOLDOWN",
      "outputs": [
        {
          "internalType": "uint256",
          "name": "",
          "type": "uint256"
        }
      ],
      "stateMutability": "view",
      "type": "function"
    },
    {
      "inputs": [
        {
          "internalType": "address",
          "name": "",
          "type": "address"
        }
      ],
      "name": "activeProviders",
      "outputs": [
        {
          "internalType": "bool",
          "name": "",
          "type": "bool"
        }
      ],
      "stateMutability": "view",
      "type": "function"
    },
    {
      "inputs": [
        {
          "internalType": "address",
          "name": "provider",
          "type": "address"
        }
      ],
      "name": "addProvider",
      "outputs": [],
      "stateMutability": "nonpayable",
      "type": "function"
    },
    {
      "inputs": [],
      "name": "circuitBreakerTripped",
      "outputs": [
        {
          "internalType": "bool",
          "name": "",
          "type": "bool"
        }
      ],
      "stateMutability": "view",
      "type": "function"
    },
    {
      "inputs": [
        {
          "internalType": "uint256",
          "name": "",
          "type": "uint256"
        }
      ],
      "name": "deviceOracles",
      "outputs": [
        {
          "internalType": "uint256",
          "name": "consensusYield",
          "type": "uint256"
        },
        {
          "internalType": "uint256",
          "name": "consensusUptime",
          "type": "uint256"
        },
        {
          "internalType": "uint256",
          "name": "lastConsensusTime",
          "type": "uint256"
        },
        {
          "internalType": "uint256",
          "name": "earningsHistoryHash",
          "type": "uint256"
        },
        {
          "internalType": "uint256",
          "name": "submissionHead",
          "type": "uint256"
        }
      ],
      "stateMutability": "view",
      "type": "function"
    },
    {
      "inputs": [
        {
          "internalType": "uint256",
          "name": "nftId",
          "type": "uint256"
        }
      ],
      "name": "getConsensusYield",
      "outputs": [
        {
          "internalType": "uint256",
          "name": "yield_",
          "type": "uint256"
        },
        {
          "internalType": "uint256",
          "name": "uptime",
          "type": "uint256"
        },
        {
          "internalType": "uint256",
          "name": "timestamp",
          "type": "uint256"
        }
      ],
      "stateMutability": "view",
      "type": "function"
    },
    {
      "inputs": [
        {
          "internalType": "bytes32",
          "name": "role",
          "type": "bytes32"
        }
      ],
      "name": "getRoleAdmin",
      "outputs": [
        {
          "internalType": "bytes32",
          "name": "",
          "type": "bytes32"
        }
      ],
      "stateMutability": "view",
      "type": "function"
    },
    {
      "inputs": [
        {
          "internalType": "uint256",
          "name": "nftId",
          "type": "uint256"
        }
      ],
      "name": "getSubmissionCount",
      "outputs": [
        {
          "internalType": "uint256",
          "name": "",
          "type": "uint256"
        }
      ],
      "stateMutability": "view",
      "type": "function"
    },
    {
      "inputs": [
        {
          "internalType": "bytes32",
          "name": "role",
          "type": "bytes32"
        },
        {
          "internalType": "address",
          "name": "account",
          "type": "address"
        }
      ],
      "name": "grantRole",
      "outputs": [],
      "stateMutability": "nonpayable",
      "type": "function"
    },
    {
      "inputs": [
        {
          "internalType": "bytes32",
          "name": "role",
          "type": "bytes32"
        },
        {
          "internalType": "address",
          "name": "account",
          "type": "address"
        }
      ],
      "name": "hasRole",
      "outputs": [
        {
          "internalType": "bool",
          "name": "",
          "type": "bool"
        }
      ],
      "stateMutability": "view",
      "type": "function"
    },
    {
      "inputs": [
        {
          "internalType": "uint256",
          "name": "nftId",
          "type": "uint256"
        }
      ],
      "name": "isConsensusFresh",
      "outputs": [
        {
          "internalType": "bool",
          "name": "",
          "type": "bool"
        }
      ],
      "stateMutability": "view",
      "type": "function"
    },
    {
      "inputs": [
        {
          "internalType": "uint256",
          "name": "nftId",
          "type": "uint256"
        }
      ],
      "name": "isDataFresh",
      "outputs": [
        {
          "internalType": "bool",
          "name": "",
          "type": "bool"
        }
      ],
      "stateMutability": "view",
      "type": "function"
    },
    {
      "inputs": [
        {
          "internalType": "address",
          "name": "provider",
          "type": "address"
        }
      ],
      "name": "isOracleProviderActive",
      "outputs": [
        {
          "internalType": "bool",
          "name": "",
          "type": "bool"
        }
      ],
      "stateMutability": "view",
      "type": "function"
    },
    {
      "inputs": [],
      "name": "lastConsensusFailed",
      "outputs": [
        {
          "internalType": "bool",
          "name": "",
          "type": "bool"
        }
      ],
      "stateMutability": "view",
      "type": "function"
    },
    {
      "inputs": [
        {
          "internalType": "address",
          "name": "",
          "type": "address"
        }
      ],
      "name": "lastSubmissionTime",
      "outputs": [
        {
          "internalType": "uint256",
          "name": "",
          "type": "uint256"
        }
      ],
      "stateMutability": "view",
      "type": "function"
    },
    {
      "inputs": [],
      "name": "minProvidersForConsensus",
      "outputs": [
        {
          "internalType": "uint256",
          "name": "",
          "type": "uint256"
        }
      ],
      "stateMutability": "view",
      "type": "function"
    },
    {
      "inputs": [],
      "name": "providerCount",
      "outputs": [
        {
          "internalType": "uint256",
          "name": "",
          "type": "uint256"
        }
      ],
      "stateMutability": "view",
      "type": "function"
    },
    {
      "inputs": [],
      "name": "rejectOutlierSubmissions",
      "outputs": [
        {
          "internalType": "bool",
          "name": "",
          "type": "bool"
        }
      ],
      "stateMutability": "view",
      "type": "function"
    },
    {
      "inputs": [
        {
          "internalType": "address",
          "name": "provider",
          "type": "address"
        }
      ],
      "name": "removeProvider",
      "outputs": [],
      "stateMutability": "nonpayable",
      "type": "function"
    },
    {
      "inputs": [
        {
          "internalType": "bytes32",
          "name": "role",
          "type": "bytes32"
        },
        {
          "internalType": "address",
          "name": "account",
          "type": "address"
        }
      ],
      "name": "renounceRole",
      "outputs": [],
      "stateMutability": "nonpayable",
      "type": "function"
    },
    {
      "inputs": [],
      "name": "resetCircuitBreaker",
      "outputs": [],
      "stateMutability": "nonpayable",
      "type": "function"
    },
    {
      "inputs": [
        {
          "internalType": "bytes32",
          "name": "role",
          "type": "bytes32"
        },
        {
          "internalType": "address",
          "name": "account",
          "type": "address"
        }
      ],
      "name": "revokeRole",
      "outputs": [],
      "stateMutability": "nonpayable",
      "type": "function"
    },
    {
      "inputs": [
        {
          "internalType": "uint256",
          "name": "minProviders",
          "type": "uint256"
        }
      ],
      "name": "setMinProvidersForConsensus",
      "outputs": [],
      "stateMutability": "nonpayable",
      "type": "function"
    },
    {
      "inputs": [
        {
          "internalType": "bool",
          "name": "reject",
          "type": "bool"
        }
      ],
      "name": "setRejectOutlierSubmissions",
      "outputs": [],
      "stateMutability": "nonpayable",
      "type": "function"
    },
    {
      "inputs": [
        {
          "internalType": "uint256",
          "name": "nftId",
          "type": "uint256"
        },
        {
          "internalType": "uint256",
          "name": "yieldValue",
          "type": "uint256"
        },
        {
          "internalType": "uint256",
          "name": "uptimeScore",
          "type": "uint256"
        },
        {
          "internalType": "bytes",
          "name": "",
          "type": "bytes"
        }
      ],
      "name": "submitData",
      "outputs": [],
      "stateMutability": "nonpayable",
      "type": "function"
    },
    {
      "inputs": [
        {
          "internalType": "uint256[]",
          "name": "nftIds",
          "type": "uint256[]"
        },
        {
          "internalType": "uint256[]",
          "name": "yieldValues",
          "type": "uint256[]"
        },
        {
          "internalType": "uint256[]",
          "name": "uptimeScores",
          "type": "uint256[]"
        }
      ],
      "name": "submitDataBatch",
      "outputs": [],
      "stateMutability": "nonpayable",
      "type": "function"
    },
    {
      "inputs": [
        {
          "internalType": "bytes4",
          "name": "interfaceId",
          "type": "bytes4"
        }
      ],
      "name": "supportsInterface",
      "outputs": [
        {
          "internalType": "bool",
          "name": "",
          "type": "bool"
        }
      ],
      "stateMutability": "view",
      "type": "function"
    },
    {
      "inputs": [
        {
          "internalType": "string",
          "name": "reason",
          "type": "string"
        }
      ],
      "name": "tripCircuitBreaker",
      "outputs": [],
      "stateMutability": "nonpayable",
      "type": "function"
    }
  ],
  "bytecode": "0x608034620001f157601f6200213538819003918201601f1916830192916001600160401b03841183851017620001f65780839260409586528339602092839181010312620001f157516001600160a01b0390818116808203620001f157620001ea575033905b60008052600083528360002091169081600052825260ff83600020541615620001ac575b7f7935bd0ae54bc31f548c14dba4d37c5c64b3f8ca900cb468fb8abd54d5894f5580600052600083528360002082600052835260ff846000205416156200016d575b507f55435dd261a4b9b3364963f7738a7a662ad9c84396d64be3365284bb7f0a50419182600052600081528360002082600052815260ff846000205416156200012d575b6001805460ff1916811781556002558351611f0890816200020d8239f35b82600052600081528360002090826000525282600020600160ff19825416179055339160008051602062002115833981519152600080a43880806200010f565b80600052600083528360002082600052835283600020600160ff1982541617905581339160008051602062002115833981519152600080a438620000cb565b60008052600082528260002081600052825282600020600160ff1982541617905533816000600080516020620021158339815191528180a462000089565b9062000065565b600080fd5b634e487b7160e01b600052604160045260246000fdfe608080604052600436101561001357600080fd5b60003560e01c90816301ffc9a71461139a5750806318531d77146113775780631d740978146113545780631f46ebeb14610845578063248a9ca31461132557806324ea54f4146112ea578063254ceeaf146112cc57806325c68403146112af5780632f2ff15d146111fc57806334abe92b14610f2a57806336568abe14610e9857806346e2577a14610d175780634cdc86ef14610cf15780635ad6100814610c8f5780636115438914610bb557806374c8326814610b9757806379a863f514610b6e5780637bad6b4a14610b525780637be24cb814610b2657806380addd921461084a5780638583a22f14610b085780638a355a57146109c85780638a42d6261461094857806391d14854146108fb578063a02c0e91146108df578063a217fddf146108c3578063a436547614610889578063b63b9ca91461084a578063ba1ae75b14610845578063caca95a414610828578063ccc57490146107ed578063d547741f146107ae578063de5f8d9314610763578063e129c16f146104e9578063e2adf6bc1461020b5763e8d67a3d146101ab57600080fd5b3461020657602036600319011261020657600435600052600460205260a06040600020600181015490600281015490600381015460056004830154920154926040519485526020850152604084015260608301526080820152f35b600080fd5b346102065760803660031901126102065760443560043560243560643567ffffffffffffffff811161020657610245903690600401611488565b505061024f6114b6565b60ff600354166104d457612710928381116104c25781156104b057336000526006602052604060002054601e810180911161045c57421061049e573360005260066020524260406000205582600052600460205260406000209360018501549081610358575b5050610328936040516102c781611900565b838152826020820152426040820152336060820152603282541060001461032a576102f191611b8b565b6040519182526020820152817f0a2ca31a287585c4df7fbbe92803e4accec5ae1750065185aea74a2e3423feb160403393a3611c23565b005b610347906103416005840193603285540690611b12565b90611b2e565b6103518154611ad6565b90556102f1565b818411156104725761036a8285611ae5565b81810291818304149015171561045c576107d09161038791611af2565b11610394575b84806102b5565b604051837f95e8be25ce99d5e12cac2015ee3df3941fe93667bc5bb68c81b82a3f7ee9ed743392806103ea8160609060208152600f60208201526e3cb4b2b632103232bb34b0ba34b7b760891b60408201520190565b0390a360ff600154161561038d5782604051907f57c7cbf86a5963a92e9475344c1865f1c8b96b22a6c83beab8101883efcbd40a3392806104478160609060208152600760208201526637baba3634b2b960c91b60408201520190565b0390a3604051635b6eccf760e11b8152600490fd5b634e487b7160e01b600052601160045260246000fd5b61047c8483611ae5565b81810291818304149015171561045c576107d09161049991611af2565b610387565b60405163aa9a98df60e01b8152600490fd5b604051637baace4d60e11b8152600490fd5b604051636d5ccc3160e11b8152600490fd5b604051600162fc891960e01b03198152600490fd5b34610206576020806003193601126102065760043567ffffffffffffffff81116102065761051b903690600401611488565b91907f55435dd261a4b9b3364963f7738a7a662ad9c84396d64be3365284bb7f0a50418060005260008352604060002033600052835260ff60406000205416156105be575090827fa7938197d4630917fa523450d6c043caf7458abf26acf25f4cde564aafea80ff92600160ff196003541617600355816040519380855284015260408301376000604084830101526040813394601f80199101168101030190a2005b826105c8336119e6565b6040516105d481611900565b6042815282810193606036863781511561074d5760308553815160019081101561074d57607860218401536041905b8082116107095750506106c6579061068f6048604494936040519687916106808784019676020b1b1b2b9b9a1b7b73a3937b61d1030b1b1b7bab73a1604d1b8852610657815180928b6037890191016118dd565b8401917001034b99036b4b9b9b4b733903937b6329607d1b6037840152518093868401906118dd565b01036028810187520185611932565b6106b860405194859362461bcd60e51b85526004850152518092816024860152858501906118dd565b601f01601f19168101030190fd5b6064836040519062461bcd60e51b825280600483015260248201527f537472696e67733a20686578206c656e67746820696e73756666696369656e746044820152fd5b9091600f811690601082101561074d57610747916f181899199a1a9b1b9c1cb0b131b232b360811b901a61073d85876119c8565b5360041c926119d9565b90610603565b634e487b7160e01b600052603260045260246000fd5b346102065760003660031901126102065761077c61169e565b60ff1960035416600355337f07663ee3f7c1099057fc9fc555efb675b77fe234386ec977b12f15d5f24fd030600080a2005b34610206576040366003190112610206576103286004356107cd61142b565b908060005260006020526107e86001604060002001546117dd565b611954565b346102065760003660031901126102065760206040517f7935bd0ae54bc31f548c14dba4d37c5c64b3f8ca900cb468fb8abd54d5894f558152f35b34610206576000366003190112610206576020604051610e108152f35b6113ed565b34610206576020366003190112610206576001600160a01b0361086b611441565b166000526005602052602060ff604060002054166040519015158152f35b34610206576020366003190112610206576001600160a01b036108aa611441565b1660005260066020526020604060002054604051908152f35b3461020657600036600319011261020657602060405160008152f35b3461020657600036600319011261020657602060405160328152f35b346102065760403660031901126102065761091461142b565b600435600052600060205260406000209060018060a01b0316600052602052602060ff604060002054166040519015158152f35b346102065760203660031901126102065760043561096461169e565b801561099b576020817f75f6f9f3b2fc4115b7cd4d22fb13844df3a1d273905fa04226db362950fd81da92600255604051908152a1005b60405162461bcd60e51b81526020600482015260056024820152646d696e203160d81b6044820152606490fd5b3461020657602080600319360112610206576109e2611441565b6109ea61169e565b6001600160a01b0316600081815260058352604090205490919060ff1615610ad75760407f89523ece8e9bcfd662cad33d34ba27824f1f86970d6c9e81f539ec3696b9630891600080516020611eb383398151915280600052600082528260002085600052825260ff836000205416610a8b575b50600581528160002060ff198154169055610a7a6007546119d9565b8060075582519160008352820152a2005b8060005260008252826000208560005282528260002060ff1981541690558433917ff6391f5c32d9c69d2a47ea670b442974b53935d1edc7fd64eb21e047a839171b600080a484610a5e565b6064906040519062461bcd60e51b82526004820152600a6024820152694e6f742061637469766560b01b6044820152fd5b34610206576000366003190112610206576020604051620151808152f35b346102065760203660031901126102065760043560005260046020526020604060002054604051908152f35b34610206576000366003190112610206576020604051601e8152f35b34610206576000366003190112610206576020604051600080516020611eb38339815191528152f35b34610206576000366003190112610206576020600754604051908152f35b3461020657602036600319011261020657600435600052600460205260406000206003810154908115610c5b5762015180610bf08342611ae5565b11610c2457610c206002600183015492015492604051938493846040919493926060820195825260208201520152565b0390f35b60405162461bcd60e51b815260206004820152600f60248201526e7374616c6520636f6e73656e73757360881b6044820152606490fd5b60405162461bcd60e51b815260206004820152600c60248201526b6e6f20636f6e73656e73757360a01b6044820152606490fd5b34610206576020366003190112610206576004358015158091036102065760207ffe310c3899165bcb96c52612654f79d69d817750ba8f0a3fd8570d354b2458e991610cd961169e565b60ff196001541660ff821617600155604051908152a1005b3461020657600036600319011261020657602060ff60035460081c166040519015158152f35b346102065760208060031936011261020657610d31611441565b610d3961169e565b6001600160a01b0316908115610e6557816000526005815260ff60406000205416610e305760407f89523ece8e9bcfd662cad33d34ba27824f1f86970d6c9e81f539ec3696b9630891600080516020611eb383398151915280600052600082528260002085600052825260ff83600020541615610de1575b506005815281600020600160ff19825416179055610dd0600754611ad6565b8060075582519160018352820152a2005b80600052600082528260002085600052825282600020600160ff198254161790558433917f2f8788117e7eff1d82e926ec794901d17c78024a50270940304540a733656f0d600080a484610db1565b6064906040519062461bcd60e51b82526004820152600e60248201526d416c72656164792061637469766560901b6044820152fd5b6064906040519062461bcd60e51b82526004820152600c60248201526b5a65726f206164647265737360a01b6044820152fd5b3461020657604036600319011261020657610eb161142b565b336001600160a01b03821603610ecd5761032890600435611954565b60405162461bcd60e51b815260206004820152602f60248201527f416363657373436f6e74726f6c3a2063616e206f6e6c792072656e6f756e636560448201526e103937b632b9903337b91039b2b63360891b6064820152608490fd5b346102065760603660031901126102065767ffffffffffffffff60043581811161020657610f5c903690600401611457565b9060243583811161020657610f75903690600401611457565b91909360443590811161020657610f90903690600401611457565b610f9b9391936114b6565b60ff600354166104d457818514806111f3575b156111c857336000526006602052604060002054601e810180911161045c57421061049e573360005260066020524260406000205560005b858110610fef57005b610ffa818786611bb5565b3561100682858a611bb5565b35611012838589611bb5565b3561271081116104c25781156104b05782600052600460205260406000206001810154806110a0575b50916110859493916110809360405161105381611900565b8381528260208201524260408201523360608201526032918281541060001461108a576102f19250611b8b565b611ad6565b610fe6565b9061034182600561034794019485540690611b12565b80841115611195576110b28185611ae5565b80612710810204612710148115171561045c576107d0916127106110d69202611af2565b116110e2575b8b61103b565b604051847f95e8be25ce99d5e12cac2015ee3df3941fe93667bc5bb68c81b82a3f7ee9ed743392806111388160609060208152600f60208201526e3cb4b2b632103232bb34b0ba34b7b760891b60408201520190565b0390a360ff60015416156110dc5783604051907f57c7cbf86a5963a92e9475344c1865f1c8b96b22a6c83beab8101883efcbd40a3392806104478160609060208152600760208201526637baba3634b2b960c91b60408201520190565b61119f8482611ae5565b80612710810204612710148115171561045c576107d0916127106111c39202611af2565b6110d6565b60405162461bcd60e51b81526020600482015260036024820152623632b760e91b6044820152606490fd5b50808514610fae565b346102065760403660031901126102065760043561121861142b565b8160005260006020526112326001604060002001546117dd565b81600052600060205260406000209060018060a01b0316908160005260205260ff604060002054161561126157005b8160005260006020526040600020816000526020526040600020600160ff1982541617905533917f2f8788117e7eff1d82e926ec794901d17c78024a50270940304540a733656f0d600080a4005b346102065760003660031901126102065760206040516107d08152f35b34610206576000366003190112610206576020600254604051908152f35b346102065760003660031901126102065760206040517f55435dd261a4b9b3364963f7738a7a662ad9c84396d64be3365284bb7f0a50418152f35b346102065760203660031901126102065760043560005260006020526020600160406000200154604051908152f35b3461020657600036600319011261020657602060ff600154166040519015158152f35b3461020657600036600319011261020657602060ff600354166040519015158152f35b34610206576020366003190112610206576004359063ffffffff60e01b821680920361020657602091637965db0b60e01b81149081156113dc575b5015158152f35b6301ffc9a760e01b149050836113d5565b3461020657602036600319011261020657600435600052600460205260206201518061142160036040600020015442611ae5565b1115604051908152f35b602435906001600160a01b038216820361020657565b600435906001600160a01b038216820361020657565b9181601f840112156102065782359167ffffffffffffffff8311610206576020808501948460051b01011161020657565b9181601f840112156102065782359167ffffffffffffffff8311610206576020838186019501011161020657565b3360009081527fb0f6c4651ca3c785a65392abdc034b7272037537e787f1f22b4edf4389b6ca11602090815260408083205490929190600080516020611eb38339815191529060ff161561150a5750505050565b611513336119e6565b9084519061152082611900565b6042825283820194606036873782511561168a576030865382516001908110156116765790607860218501536041915b80831161161c575050506115da57846115b660486106b89360449798519889916115a78984019876020b1b1b2b9b9a1b7b73a3937b61d1030b1b1b7bab73a1604d1b8a52610657815180928d6037890191016118dd565b01036028810189520187611932565b5194859362461bcd60e51b85526004850152518092816024860152858501906118dd565b60648386519062461bcd60e51b825280600483015260248201527f537472696e67733a20686578206c656e67746820696e73756666696369656e746044820152fd5b909192600f811660108110156116625761165b91906f181899199a1a9b1b9c1cb0b131b232b360811b901a61165186886119c8565b5360041c936119d9565b9190611550565b634e487b7160e01b84526032600452602484fd5b634e487b7160e01b82526032600452602482fd5b634e487b7160e01b81526032600452602490fd5b3360009081527f6f3b488caa0dc03e5f3d9fd6a25fa8755afcfd62ccffb6e436c696bfa6b866de6020908152604080832054909291907f7935bd0ae54bc31f548c14dba4d37c5c64b3f8ca900cb468fb8abd54d5894f559060ff16156117045750505050565b61170d336119e6565b9084519061171a82611900565b6042825283820194606036873782511561168a576030865382516001908110156116765790607860218501536041915b8083116117a1575050506115da57846115b660486106b89360449798519889916115a78984019876020b1b1b2b9b9a1b7b73a3937b61d1030b1b1b7bab73a1604d1b8a52610657815180928d6037890191016118dd565b909192600f81166010811015611662576117d691906f181899199a1a9b1b9c1cb0b131b232b360811b901a61165186886119c8565b919061174a565b60008181526020818152604092838320338452825260ff8484205416156118045750505050565b61180d336119e6565b9084519061181a82611900565b6042825283820194606036873782511561168a576030865382516001908110156116765790607860218501536041915b8083116118a1575050506115da57846115b660486106b89360449798519889916115a78984019876020b1b1b2b9b9a1b7b73a3937b61d1030b1b1b7bab73a1604d1b8a52610657815180928d6037890191016118dd565b909192600f81166010811015611662576118d691906f181899199a1a9b1b9c1cb0b131b232b360811b901a61165186886119c8565b919061184a565b60005b8381106118f05750506000910152565b81810151838201526020016118e0565b6080810190811067ffffffffffffffff82111761191c57604052565b634e487b7160e01b600052604160045260246000fd5b90601f8019910116810190811067ffffffffffffffff82111761191c57604052565b9060009180835282602052604083209160018060a01b03169182845260205260ff60408420541661198457505050565b80835282602052604083208284526020526040832060ff1981541690557ff6391f5c32d9c69d2a47ea670b442974b53935d1edc7fd64eb21e047a839171b339380a4565b90815181101561074d570160200190565b801561045c576000190190565b604051906060820182811067ffffffffffffffff82111761191c57604052602a825260208201604036823782511561074d5760309053815160019081101561074d57607860218401536029905b808211611a87575050611a435790565b606460405162461bcd60e51b815260206004820152602060248201527f537472696e67733a20686578206c656e67746820696e73756666696369656e746044820152fd5b9091600f8116906010821015611ac157611abb916f181899199a1a9b1b9c1cb0b131b232b360811b901a61073d85876119c8565b90611a33565b60246000634e487b7160e01b81526032600452fd5b600019811461045c5760010190565b9190820391821161045c57565b8115611afc570490565b634e487b7160e01b600052601260045260246000fd5b805482101561074d5760005260206000209060021b0190600090565b90611b75576003908251815560208301516001820155604083015160028201550190606060018060a01b03910151166bffffffffffffffffffffffff60a01b825416179055565b634e487b7160e01b600052600060045260246000fd5b908154916801000000000000000083101561191c5782610341916001611bb395018155611b12565b565b919081101561074d5760051b0190565b67ffffffffffffffff811161191c5760051b60200190565b90611be782611bc5565b611bf46040519182611932565b8281528092611c05601f1991611bc5565b0190602036910137565b805182101561074d5760209160051b010190565b80600052600460205260408060002090815491611c3f83611bdd565b611c4884611bdd565b90600094855b818110611d8a5750506002548690808710611cfd57505093611cf891611cbf86611c99847fff2fc693bb2d4a09f21f0c403fce5ecb4b5b0b57e81c7253deb5386bb8a8ae7799611e00565b611ca38484611e00565b611cb18460011c8092611c0f565b519260018701938455611c0f565b51936002810194855560034291015561ff0019600354166003555492549351938493846040919493926060820195825260208201520152565b0390a2565b8594506060959193507fbb985b543b26e7cc4952193fb75d9a702620d703bbfac5b445e81b20c21ca2b59250957f7783d0e264670bc0e73d17c638c500d72612e5fb390b4c49bfe920ccade45e2b9661010061ff0019600354161760035582519182526020820152a26b6e6f5f636f6e73656e73757360a01b81519160208352600c6020840152820152a2565b610e10611da56002611d9c8489611b12565b50015442611ae5565b1115611dba575b611db590611ad6565b611c4e565b95611df8611db591611dcc8988611b12565b5054611dd88287611c0f565b526001611de58a89611b12565b500154611df28288611c0f565b52611ad6565b969050611dac565b906001805b828110611e125750505050565b611e1c8185611c0f565b5181835b611e39575b90611df2611e34939287611c0f565b611e05565b80151580611e93575b15611e8e576000198101818111611e79578491611e62611e739289611c0f565b51611e6d828a611c0f565b526119d9565b90611e20565b60246000634e487b7160e01b81526011600452fd5b611e25565b506000198101818111611e7957611eab839188611c0f565b5111611e4256fed26b4cd59ffa91e4599f3d18b02fcd5ffb06e03216f3ee5f25f68dc75cbbbaa2a26469706673582212204655b15c87b09b2b6cb3c6ac3f082cdca6f78df078bec2aacb0d528b8e33fc6564736f6c634300081300332f8788117e7eff1d82e926ec794901d17c78024a50270940304540a733656f0d",
  "linkReferences": {},
  "deployedLinkReferences": {},
  "immutableReferences": {},
  "inputSourceName": "project/contracts/OracleManager.sol",
  "buildInfoId": "solc-0_8_19-1ef7364bee65fe47cce44adf0cd306f2b04bd606"
}