{
  "_format": "hh3-artifact-1",
  "contractName": "Treasury",
  "sourceName": "contracts/Treasury.sol",
  "abi": [
    {
      "inputs": [
        {
          "internalType": "address",
          "name": "_executor",
          "type": "address"
        }
      ],
      "stateMutability": "nonpayable",
      "type": "constructor"
    },
    {
      "anonymous": false,
      "inputs": [
        {
          "indexed": true,
          "internalType": "bytes32",
          "name": "role",
          "type": "bytes32"
        },
        {
          "indexed": true,
          "internalType": "bytes32",
          "name": "previousAdminRole",
          "type": "bytes32"
        },
        {
          "indexed": true,
          "internalType": "bytes32",
          "name": "newAdminRole",
          "type": "bytes32"
        }
      ],
      "name": "RoleAdminChanged",
      "type": "event"
    },
    {
      "anonymous": false,
      "inputs": [
        {
          "indexed": true,
          "internalType": "bytes32",
          "name": "role",
          "type": "bytes32"
        },
        {
          "indexed": true,
          "internalType": "address",
          "name": "account",
          "type": "address"
        },
        {
          "indexed": true,
          "internalType": "address",
          "name": "sender",
          "type": "address"
        }
      ],
      "name": "RoleGranted",
      "type": "event"
    },
    {
      "anonymous": false,
      "inputs": [
        {
          "indexed": true,
          "internalType": "bytes32",
          "name": "role",
          "type": "bytes32"
        },
        {
          "indexed": true,
          "internalType": "address",
          "name": "account",
          "type": "address"
        },
        {
          "indexed": true,
          "internalType": "address",
          "name": "sender",
          "type": "address"
        }
      ],
      "name": "RoleRevoked",
      "type": "event"
    },
    {
      "inputs": [],
      "name": "DEFAULT_ADMIN_ROLE",
      "outputs": [
        {
          "internalType": "bytes32",
          "name": "",
          "type": "bytes32"
        }
      ],
      "stateMutability": "view",
      "type": "function"
    },
    {
      "inputs": [],
      "name": "EXECUTOR_ROLE",
      "outputs": [
        {
          "internalType": "bytes32",
          "name": "",
          "type": "bytes32"
        }
      ],
      "stateMutability": "view",
      "type": "function"
    },
    {
      "inputs": [
        {
          "internalType": "bytes32",
          "name": "role",
          "type": "bytes32"
        }
      ],
      "name": "getRoleAdmin",
      "outputs": [
        {
          "internalType": "bytes32",
          "name": "",
          "type": "bytes32"
        }
      ],
      "stateMutability": "view",
      "type": "function"
    },
    {
      "inputs": [
        {
          "internalType": "bytes32",
          "name": "role",
          "type": "bytes32"
        },
        {
          "internalType": "address",
          "name": "account",
          "type": "address"
        }
      ],
      "name": "grantRole",
      "outputs": [],
      "stateMutability": "nonpayable",
      "type": "function"
    },
    {
      "inputs": [
        {
          "internalType": "bytes32",
          "name": "role",
          "type": "bytes32"
        },
        {
          "internalType": "address",
          "name": "account",
          "type": "address"
        }
      ],
      "name": "hasRole",
      "outputs": [
        {
          "internalType": "bool",
          "name": "",
          "type": "bool"
        }
      ],
      "stateMutability": "view",
      "type": "function"
    },
    {
      "inputs": [
        {
          "internalType": "bytes32",
          "name": "role",
          "type": "bytes32"
        },
        {
          "internalType": "address",
          "name": "account",
          "type": "address"
        }
      ],
      "name": "renounceRole",
      "outputs": [],
      "stateMutability": "nonpayable",
      "type": "function"
    },
    {
      "inputs": [
        {
          "internalType": "bytes32",
          "name": "role",
          "type": "bytes32"
        },
        {
          "internalType": "address",
          "name": "account",
          "type": "address"
        }
      ],
      "name": "revokeRole",
      "outputs": [],
      "stateMutability": "nonpayable",
      "type": "function"
    },
    {
      "inputs": [
        {
          "internalType": "bytes4",
          "name": "interfaceId",
          "type": "bytes4"
        }
      ],
      "name": "supportsInterface",
      "outputs": [
        {
          "internalType": "bool",
          "name": "",
          "type": "bool"
        }
      ],
      "stateMutability": "view",
      "type": "function"
    },
    {
      "inputs": [
        {
          "internalType": "address payable",
          "name": "to",
          "type": "address"
        },
        {
          "internalType": "uint256",
          "name": "amount",
          "type": "uint256"
        }
      ],
      "name": "transfer",
      "outputs": [],
      "stateMutability": "nonpayable",
      "type": "function"
    },
    {
      "inputs": [
        {
          "internalType": "address",
          "name": "token",
          "type": "address"
        },
        {
          "internalType": "address",
          "name": "to",
          "type": "address"
        },
        {
          "internalType": "uint256",
          "name": "amount",
          "type": "uint256"
        }
      ],
      "name": "transferERC20",
      "outputs": [],
      "stateMutability": "nonpayable",
      "type": "function"
    },
    {
      "stateMutability": "payable",
      "type": "receive"
    }
  ],
  "bytecode": "0x60803461016557601f610da238819003918201601f1916830192916001600160401b0384118385101761016a578083926040958652833960209283918101031261016557516001600160a01b0381169081900361016557801561013357600091828052828152838320338452815260ff8484205416156100fd575b7fd8aa0f3194971a2a116679f7c2090f6939c8d4e01a2a8d7e41d55e5351469e6390818452838152848420838552815260ff8585205416156100c5575b8451610c0190816101818239f35b8184528381528484209083855252838320600160ff19825416179055600080516020610d82833981519152339380a4388080806100b7565b8280528281528383203384528152838320600160ff19825416179055333384600080516020610d828339815191528180a461007a565b50606491519062461bcd60e51b82526004820152600c60248201526b5a65726f206164647265737360a01b6044820152fd5b600080fd5b634e487b7160e01b600052604160045260246000fdfe6080604081815260049081361015610022575b505050361561002057600080fd5b005b600092833560e01c90816301ffc9a71461051f5750806307bd0265146104e4578063248a9ca3146104ba5780632f2ff15d1461041157806336568abe1461037f57806391d14854146103395780639db5dbe414610176578063a217fddf1461015b578063a9059cbb146100d85763d547741f0361001257346100d457806003193601126100d4576100d191356100cc60016100bb610573565b9383875286602052862001546107a4565b610950565b80f35b8280fd5b50346100d457806003193601126100d4578282356001600160a01b03811690819003610157578180809261010a61058e565b602435905af1610118610afa565b5015610122578280f35b906020606492519162461bcd60e51b8352820152600f60248201526e151c985b9cd9995c8819985a5b1959608a1b6044820152fd5b5080fd5b83823461015757816003193601126101575751908152602090f35b50346100d45760603660031901126100d4576001600160a01b03823581811690819003610335576101a5610573565b6101ad61058e565b8115158061032a575b156102f857835192602084019163a9059cbb60e01b8352166024840152604435604484015260448352608083019267ffffffffffffffff818510818611176102e55760c08201908111858210176102e5578552602084527f5361666545524332303a206c6f772d6c6576656c2063616c6c206661696c656460a0820152516102509392918791829182855af161024a610afa565b91610b3a565b80519081159182156102be575b505015610268578280f35b906020608492519162461bcd60e51b8352820152602a60248201527f5361666545524332303a204552433230206f7065726174696f6e20646964206e6044820152691bdd081cdd58d8d9595960b21b6064820152fd5b81925090602091810103126102e1576020015180151581036102e157388061025d565b8380fd5b634e487b7160e01b885260418752602488fd5b835162461bcd60e51b8152602081870152600c60248201526b5a65726f206164647265737360a01b6044820152606490fd5b5082811615156101b6565b8480fd5b5090346100d457816003193601126100d4578160209360ff9261035a610573565b903582528186528282206001600160a01b039091168252855220549151911615158152f35b5091903461015757826003193601126101575761039a610573565b90336001600160a01b038316036103b657906100d19135610950565b608490602085519162461bcd60e51b8352820152602f60248201527f416363657373436f6e74726f6c3a2063616e206f6e6c792072656e6f756e636560448201526e103937b632b9903337b91039b2b63360891b6064820152fd5b5090346100d457816003193601126100d457359061042d610573565b9082845283602052610444600182862001546107a4565b82845260208481528185206001600160a01b039093168086529290528084205460ff1615610470578380f35b828452836020528084208285526020528320600160ff1982541617905533917f2f8788117e7eff1d82e926ec794901d17c78024a50270940304540a733656f0d8480a43880808380f35b5090346100d45760203660031901126100d457816020936001923581528085522001549051908152f35b838234610157578160031936011261015757602090517fd8aa0f3194971a2a116679f7c2090f6939c8d4e01a2a8d7e41d55e5351469e638152f35b849084346100d45760203660031901126100d4573563ffffffff60e01b81168091036100d45760209250637965db0b60e01b8114908115610562575b5015158152f35b6301ffc9a760e01b1490508361055b565b602435906001600160a01b038216820361058957565b600080fd5b3360009081527fdae2aa361dfd1ca020a396615627d436107c35eff9fe7738a3512819782d706960209081526040808320549092907fd8aa0f3194971a2a116679f7c2090f6939c8d4e01a2a8d7e41d55e5351469e639060ff16156105f35750505050565b6105fc336109eb565b845191610608836108d0565b6042835284830193606036863783511561079057603085538351906001918210156107905790607860218601536041915b818311610722575050506106e05761068e9385936106c6936106b76048946106dc9951988576020b1b1b2b9b9a1b7b73a3937b61d1030b1b1b7bab73a1604d1b8b9788015282519283916037890191016108ad565b8401917001034b99036b4b9b9b4b733903937b6329607d1b6037840152518093868401906108ad565b01036028810185520183610902565b5162461bcd60e51b815291829160048301610924565b0390fd5b60648486519062461bcd60e51b825280600483015260248201527f537472696e67733a20686578206c656e67746820696e73756666696369656e746044820152fd5b909192600f8116601081101561077c576f181899199a1a9b1b9c1cb0b131b232b360811b901a61075285886109c4565b5360041c92801561076857600019019190610639565b634e487b7160e01b82526011600452602482fd5b634e487b7160e01b83526032600452602483fd5b634e487b7160e01b81526032600452602490fd5b6000818152602090808252604092838220338352835260ff8483205416156107cc5750505050565b6107d5336109eb565b8451916107e1836108d0565b6042835284830193606036863783511561079057603085538351906001918210156107905790607860218601536041915b818311610867575050506106e05761068e9385936106c6936106b76048946106dc9951988576020b1b1b2b9b9a1b7b73a3937b61d1030b1b1b7bab73a1604d1b8b9788015282519283916037890191016108ad565b909192600f8116601081101561077c576f181899199a1a9b1b9c1cb0b131b232b360811b901a61089785886109c4565b5360041c92801561076857600019019190610812565b60005b8381106108c05750506000910152565b81810151838201526020016108b0565b6080810190811067ffffffffffffffff8211176108ec57604052565b634e487b7160e01b600052604160045260246000fd5b90601f8019910116810190811067ffffffffffffffff8211176108ec57604052565b6040916020825261094481518092816020860152602086860191016108ad565b601f01601f1916010190565b9060009180835282602052604083209160018060a01b03169182845260205260ff60408420541661098057505050565b80835282602052604083208284526020526040832060ff1981541690557ff6391f5c32d9c69d2a47ea670b442974b53935d1edc7fd64eb21e047a839171b339380a4565b9081518110156109d5570160200190565b634e487b7160e01b600052603260045260246000fd5b604051906060820182811067ffffffffffffffff8211176108ec57604052602a82526020820160403682378251156109d5576030905381516001908110156109d557607860218401536029905b808211610a8c575050610a485790565b606460405162461bcd60e51b815260206004820152602060248201527f537472696e67733a20686578206c656e67746820696e73756666696369656e746044820152fd5b9091600f81166010811015610ae5576f181899199a1a9b1b9c1cb0b131b232b360811b901a610abb84866109c4565b5360041c918015610ad0576000190190610a38565b60246000634e487b7160e01b81526011600452fd5b60246000634e487b7160e01b81526032600452fd5b3d15610b35573d9067ffffffffffffffff82116108ec5760405191610b29601f8201601f191660200184610902565b82523d6000602084013e565b606090565b91929015610b9c5750815115610b4e575090565b3b15610b575790565b60405162461bcd60e51b815260206004820152601d60248201527f416464726573733a2063616c6c20746f206e6f6e2d636f6e74726163740000006044820152606490fd5b825190915015610baf5750805190602001fd5b60405162461bcd60e51b81529081906106dc906004830161092456fea2646970667358221220cddf8d47c7b95e218829c33567185b04b419e1bd39bcbf1ca96f4b301430670f64736f6c634300081300332f8788117e7eff1d82e926ec794901d17c78024a50270940304540a733656f0d",
  "linkReferences": {},
  "deployedLinkReferences": {},
  "immutableReferences": {},
  "inputSourceName": "project/contracts/Treasury.sol",
  "buildInfoId": "solc-0_8_19-1ef7364bee65fe47cce44adf0cd306f2b04bd606"
}