{
  "_format": "hh3-artifact-1",
  "contractName": "RWAAsset",
  "sourceName": "contracts/RWAAsset.sol",
  "abi": [
    {
      "inputs": [],
      "stateMutability": "nonpayable",
      "type": "constructor"
    },
    {
      "anonymous": false,
      "inputs": [
        {
          "indexed": true,
          "internalType": "address",
          "name": "owner",
          "type": "address"
        },
        {
          "indexed": true,
          "internalType": "address",
          "name": "approved",
          "type": "address"
        },
        {
          "indexed": true,
          "internalType": "uint256",
          "name": "tokenId",
          "type": "uint256"
        }
      ],
      "name": "Approval",
      "type": "event"
    },
    {
      "anonymous": false,
      "inputs": [
        {
          "indexed": true,
          "internalType": "address",
          "name": "owner",
          "type": "address"
        },
        {
          "indexed": true,
          "internalType": "address",
          "name": "operator",
          "type": "address"
        },
        {
          "indexed": false,
          "internalType": "bool",
          "name": "approved",
          "type": "bool"
        }
      ],
      "name": "ApprovalForAll",
      "type": "event"
    },
    {
      "anonymous": false,
      "inputs": [
        {
          "indexed": true,
          "internalType": "uint256",
          "name": "tokenId",
          "type": "uint256"
        }
      ],
      "name": "AssetDeactivated",
      "type": "event"
    },
    {
      "anonymous": false,
      "inputs": [
        {
          "indexed": true,
          "internalType": "uint256",
          "name": "tokenId",
          "type": "uint256"
        },
        {
          "indexed": true,
          "internalType": "address",
          "name": "owner",
          "type": "address"
        },
        {
          "indexed": false,
          "internalType": "enum RWAAsset.AssetType",
          "name": "assetType",
          "type": "uint8"
        },
        {
          "indexed": false,
          "internalType": "uint256",
          "name": "value",
          "type": "uint256"
        }
      ],
      "name": "AssetRegistered",
      "type": "event"
    },
    {
      "anonymous": false,
      "inputs": [
        {
          "indexed": true,
          "internalType": "uint256",
          "name": "tokenId",
          "type": "uint256"
        },
        {
          "indexed": true,
          "internalType": "address",
          "name": "verifier",
          "type": "address"
        }
      ],
      "name": "AssetVerified",
      "type": "event"
    },
    {
      "anonymous": false,
      "inputs": [
        {
          "indexed": true,
          "internalType": "bytes32",
          "name": "role",
          "type": "bytes32"
        },
        {
          "indexed": true,
          "internalType": "bytes32",
          "name": "previousAdminRole",
          "type": "bytes32"
        },
        {
          "indexed": true,
          "internalType": "bytes32",
          "name": "newAdminRole",
          "type": "bytes32"
        }
      ],
      "name": "RoleAdminChanged",
      "type": "event"
    },
    {
      "anonymous": false,
      "inputs": [
        {
          "indexed": true,
          "internalType": "bytes32",
          "name": "role",
          "type": "bytes32"
        },
        {
          "indexed": true,
          "internalType": "address",
          "name": "account",
          "type": "address"
        },
        {
          "indexed": true,
          "internalType": "address",
          "name": "sender",
          "type": "address"
        }
      ],
      "name": "RoleGranted",
      "type": "event"
    },
    {
      "anonymous": false,
      "inputs": [
        {
          "indexed": true,
          "internalType": "bytes32",
          "name": "role",
          "type": "bytes32"
        },
        {
          "indexed": true,
          "internalType": "address",
          "name": "account",
          "type": "address"
        },
        {
          "indexed": true,
          "internalType": "address",
          "name": "sender",
          "type": "address"
        }
      ],
      "name": "RoleRevoked",
      "type": "event"
    },
    {
      "anonymous": false,
      "inputs": [
        {
          "indexed": true,
          "internalType": "address",
          "name": "from",
          "type": "address"
        },
        {
          "indexed": true,
          "internalType": "address",
          "name": "to",
          "type": "address"
        },
        {
          "indexed": true,
          "internalType": "uint256",
          "name": "tokenId",
          "type": "uint256"
        }
      ],
      "name": "Transfer",
      "type": "event"
    },
    {
      "inputs": [],
      "name": "DEFAULT_ADMIN_ROLE",
      "outputs": [
        {
          "internalType": "bytes32",
          "name": "",
          "type": "bytes32"
        }
      ],
      "stateMutability": "view",
      "type": "function"
    },
    {
      "inputs": [],
      "name": "VERIFIER_ROLE",
      "outputs": [
        {
          "internalType": "bytes32",
          "name": "",
          "type": "bytes32"
        }
      ],
      "stateMutability": "view",
      "type": "function"
    },
    {
      "inputs": [
        {
          "internalType": "address",
          "name": "to",
          "type": "address"
        },
        {
          "internalType": "uint256",
          "name": "tokenId",
          "type": "uint256"
        }
      ],
      "name": "approve",
      "outputs": [],
      "stateMutability": "nonpayable",
      "type": "function"
    },
    {
      "inputs": [
        {
          "internalType": "uint256",
          "name": "",
          "type": "uint256"
        }
      ],
      "name": "assets",
      "outputs": [
        {
          "internalType": "address",
          "name": "owner",
          "type": "address"
        },
        {
          "internalType": "enum RWAAsset.AssetType",
          "name": "assetType",
          "type": "uint8"
        },
        {
          "internalType": "uint256",
          "name": "value",
          "type": "uint256"
        },
        {
          "internalType": "string",
          "name": "metadataURI",
          "type": "string"
        },
        {
          "internalType": "bool",
          "name": "verified",
          "type": "bool"
        },
        {
          "internalType": "address",
          "name": "verifier",
          "type": "address"
        },
        {
          "internalType": "uint256",
          "name": "verificationTime",
          "type": "uint256"
        },
        {
          "internalType": "bool",
          "name": "active",
          "type": "bool"
        }
      ],
      "stateMutability": "view",
      "type": "function"
    },
    {
      "inputs": [
        {
          "internalType": "address",
          "name": "owner",
          "type": "address"
        }
      ],
      "name": "balanceOf",
      "outputs": [
        {
          "internalType": "uint256",
          "name": "",
          "type": "uint256"
        }
      ],
      "stateMutability": "view",
      "type": "function"
    },
    {
      "inputs": [
        {
          "internalType": "uint256",
          "name": "tokenId",
          "type": "uint256"
        }
      ],
      "name": "deactivateAsset",
      "outputs": [],
      "stateMutability": "nonpayable",
      "type": "function"
    },
    {
      "inputs": [
        {
          "internalType": "uint256",
          "name": "tokenId",
          "type": "uint256"
        }
      ],
      "name": "getApproved",
      "outputs": [
        {
          "internalType": "address",
          "name": "",
          "type": "address"
        }
      ],
      "stateMutability": "view",
      "type": "function"
    },
    {
      "inputs": [
        {
          "internalType": "uint256",
          "name": "tokenId",
          "type": "uint256"
        }
      ],
      "name": "getAssetValue",
      "outputs": [
        {
          "internalType": "uint256",
          "name": "",
          "type": "uint256"
        }
      ],
      "stateMutability": "view",
      "type": "function"
    },
    {
      "inputs": [
        {
          "internalType": "address",
          "name": "owner",
          "type": "address"
        }
      ],
      "name": "getOwnerAssets",
      "outputs": [
        {
          "internalType": "uint256[]",
          "name": "",
          "type": "uint256[]"
        }
      ],
      "stateMutability": "view",
      "type": "function"
    },
    {
      "inputs": [
        {
          "internalType": "bytes32",
          "name": "role",
          "type": "bytes32"
        }
      ],
      "name": "getRoleAdmin",
      "outputs": [
        {
          "internalType": "bytes32",
          "name": "",
          "type": "bytes32"
        }
      ],
      "stateMutability": "view",
      "type": "function"
    },
    {
      "inputs": [
        {
          "internalType": "bytes32",
          "name": "role",
          "type": "bytes32"
        },
        {
          "internalType": "address",
          "name": "account",
          "type": "address"
        }
      ],
      "name": "grantRole",
      "outputs": [],
      "stateMutability": "nonpayable",
      "type": "function"
    },
    {
      "inputs": [
        {
          "internalType": "bytes32",
          "name": "role",
          "type": "bytes32"
        },
        {
          "internalType": "address",
          "name": "account",
          "type": "address"
        }
      ],
      "name": "hasRole",
      "outputs": [
        {
          "internalType": "bool",
          "name": "",
          "type": "bool"
        }
      ],
      "stateMutability": "view",
      "type": "function"
    },
    {
      "inputs": [
        {
          "internalType": "address",
          "name": "owner",
          "type": "address"
        },
        {
          "internalType": "address",
          "name": "operator",
          "type": "address"
        }
      ],
      "name": "isApprovedForAll",
      "outputs": [
        {
          "internalType": "bool",
          "name": "",
          "type": "bool"
        }
      ],
      "stateMutability": "view",
      "type": "function"
    },
    {
      "inputs": [
        {
          "internalType": "address",
          "name": "owner",
          "type": "address"
        },
        {
          "internalType": "enum RWAAsset.AssetType",
          "name": "assetType",
          "type": "uint8"
        },
        {
          "internalType": "uint256",
          "name": "value",
          "type": "uint256"
        },
        {
          "internalType": "string",
          "name": "metadataURI",
          "type": "string"
        }
      ],
      "name": "mintAsset",
      "outputs": [
        {
          "internalType": "uint256",
          "name": "",
          "type": "uint256"
        }
      ],
      "stateMutability": "nonpayable",
      "type": "function"
    },
    {
      "inputs": [],
      "name": "name",
      "outputs": [
        {
          "internalType": "string",
          "name": "",
          "type": "string"
        }
      ],
      "stateMutability": "view",
      "type": "function"
    },
    {
      "inputs": [
        {
          "internalType": "address",
          "name": "",
          "type": "address"
        },
        {
          "internalType": "uint256",
          "name": "",
          "type": "uint256"
        }
      ],
      "name": "ownerAssets",
      "outputs": [
        {
          "internalType": "uint256",
          "name": "",
          "type": "uint256"
        }
      ],
      "stateMutability": "view",
      "type": "function"
    },
    {
      "inputs": [
        {
          "internalType": "uint256",
          "name": "tokenId",
          "type": "uint256"
        }
      ],
      "name": "ownerOf",
      "outputs": [
        {
          "internalType": "address",
          "name": "",
          "type": "address"
        }
      ],
      "stateMutability": "view",
      "type": "function"
    },
    {
      "inputs": [
        {
          "internalType": "bytes32",
          "name": "role",
          "type": "bytes32"
        },
        {
          "internalType": "address",
          "name": "account",
          "type": "address"
        }
      ],
      "name": "renounceRole",
      "outputs": [],
      "stateMutability": "nonpayable",
      "type": "function"
    },
    {
      "inputs": [
        {
          "internalType": "bytes32",
          "name": "role",
          "type": "bytes32"
        },
        {
          "internalType": "address",
          "name": "account",
          "type": "address"
        }
      ],
      "name": "revokeRole",
      "outputs": [],
      "stateMutability": "nonpayable",
      "type": "function"
    },
    {
      "inputs": [
        {
          "internalType": "address",
          "name": "from",
          "type": "address"
        },
        {
          "internalType": "address",
          "name": "to",
          "type": "address"
        },
        {
          "internalType": "uint256",
          "name": "tokenId",
          "type": "uint256"
        }
      ],
      "name": "safeTransferFrom",
      "outputs": [],
      "stateMutability": "nonpayable",
      "type": "function"
    },
    {
      "inputs": [
        {
          "internalType": "address",
          "name": "from",
          "type": "address"
        },
        {
          "internalType": "address",
          "name": "to",
          "type": "address"
        },
        {
          "internalType": "uint256",
          "name": "tokenId",
          "type": "uint256"
        },
        {
          "internalType": "bytes",
          "name": "data",
          "type": "bytes"
        }
      ],
      "name": "safeTransferFrom",
      "outputs": [],
      "stateMutability": "nonpayable",
      "type": "function"
    },
    {
      "inputs": [
        {
          "internalType": "address",
          "name": "operator",
          "type": "address"
        },
        {
          "internalType": "bool",
          "name": "approved",
          "type": "bool"
        }
      ],
      "name": "setApprovalForAll",
      "outputs": [],
      "stateMutability": "nonpayable",
      "type": "function"
    },
    {
      "inputs": [
        {
          "internalType": "bytes4",
          "name": "interfaceId",
          "type": "bytes4"
        }
      ],
      "name": "supportsInterface",
      "outputs": [
        {
          "internalType": "bool",
          "name": "",
          "type": "bool"
        }
      ],
      "stateMutability": "view",
      "type": "function"
    },
    {
      "inputs": [],
      "name": "symbol",
      "outputs": [
        {
          "internalType": "string",
          "name": "",
          "type": "string"
        }
      ],
      "stateMutability": "view",
      "type": "function"
    },
    {
      "inputs": [
        {
          "internalType": "uint256",
          "name": "tokenId",
          "type": "uint256"
        }
      ],
      "name": "tokenURI",
      "outputs": [
        {
          "internalType": "string",
          "name": "",
          "type": "string"
        }
      ],
      "stateMutability": "view",
      "type": "function"
    },
    {
      "inputs": [
        {
          "internalType": "address",
          "name": "from",
          "type": "address"
        },
        {
          "internalType": "address",
          "name": "to",
          "type": "address"
        },
        {
          "internalType": "uint256",
          "name": "tokenId",
          "type": "uint256"
        }
      ],
      "name": "transferFrom",
      "outputs": [],
      "stateMutability": "nonpayable",
      "type": "function"
    },
    {
      "inputs": [
        {
          "internalType": "uint256",
          "name": "tokenId",
          "type": "uint256"
        },
        {
          "internalType": "uint256",
          "name": "newValue",
          "type": "uint256"
        }
      ],
      "name": "updateValue",
      "outputs": [],
      "stateMutability": "nonpayable",
      "type": "function"
    }
  ],
  "bytecode": "0x608034620003e15760406001600160401b0382820181811184821017620003cb578252600e83526020906d1499585b15dbdc9b19105cdcd95d60921b8285015282519383850185811083821117620003cb578452600385526252574160e81b83860152805191808311620003cb576000928354906001938483811c93168015620003c0575b87841014620003ac578190601f9384811162000359575b508790848311600114620002f5578792620002e9575b5050600019600383901b1c191690841b1784555b8651918211620002d55782548381811c91168015620002ca575b86821014620002b6578181116200026e575b50849082116001146200020b578394959682939492620001ff575b5050600019600383901b1c191690821b1781555b81805260068352838220338352835260ff848320541615620001c7575b7f0ce23c3e399818cfee81a7ab0880f714e53d7672b08df0fa62f2843416e1ea099283835260068152848320338452815260ff8584205416156200018b575b8451611ef99081620003e78239f35b8383526006815284832090338452528382209060ff198254161790553391600080516020620022e0833981519152339280a4388080806200017c565b8180526006835283822033835283528382208160ff19825416179055333383600080516020620022e08339815191528180a46200013d565b0151905038806200010c565b82845284842090601f198316855b81811062000258575097838596979899106200023e575b505050811b01815562000120565b015160001960f88460031b161c1916905538808062000230565b8983015184559285019291870191870162000219565b8385528585208280850160051c820192888610620002ac575b0160051c019084905b828110620002a0575050620000f1565b86815501849062000290565b9250819262000287565b634e487b7160e01b85526022600452602485fd5b90607f1690620000df565b634e487b7160e01b84526041600452602484fd5b015190503880620000b1565b8780528888208794509190601f198416895b8b82821062000342575050841162000328575b505050811b018455620000c5565b015160001960f88460031b161c191690553880806200031a565b8385015186558a9790950194938401930162000307565b9091508680528787208480850160051c8201928a8610620003a2575b918891869594930160051c01915b828110620003935750506200009b565b89815585945088910162000383565b9250819262000375565b634e487b7160e01b86526022600452602486fd5b92607f169262000084565b634e487b7160e01b600052604160045260246000fd5b600080fdfe608080604052600436101561001357600080fd5b60003560e01c90816301ffc9a71461121a5750806305c12a46146111c857806306fdde0314611125578063081812fc14611107578063095ea7b314610f8d57806323b872dd14610f69578063248a9ca314610f3a5780632d38f89b14610e865780632f2ff15d14610dd3578063319af5e014610d5457806336568abe14610cc257806342842e0e14610c8f578063455bd95114610c375780635b50082614610bdf5780636352211e14610baf57806370a0823114610b1857806391d1485414610acb57806395d89b41146109ec578063a217fddf146109d0578063a22cb465146108f5578063b88d4fde14610874578063c87b56dd14610803578063cf35bdd0146106c3578063d07342921461021f578063d547741f146101de578063e7705db6146101a35763e985e9c51461014857600080fd5b3461019e57604036600319011261019e576101616112e7565b6101696112fd565b9060018060a01b03809116600052600560205260406000209116600052602052602060ff604060002054166040519015158152f35b600080fd5b3461019e57600036600319011261019e5760206040517f0ce23c3e399818cfee81a7ab0880f714e53d7672b08df0fa62f2843416e1ea098152f35b3461019e57604036600319011261019e5761021d6004356101fd6112fd565b90806000526006602052610218600160406000200154611685565b611790565b005b3461019e57608036600319011261019e576102386112e7565b6004602435101561019e5760643567ffffffffffffffff9182821161019e573660238301121561019e5781600401359183831161019e57366024848301011161019e5761028361146a565b60016007540192836007556040519461029b86611376565b600086526001600160a01b03958487161561067f5760008681526002602052604090205461036891610363916102dd906001600160a01b031615155b15611e34565b600088815260026020526040902054610300906001600160a01b031615156102d7565b8689166000818152600360209081526040808320805460010190558b83526002909152812080546001600160a01b031916831790558991907fddf252ad1be2c89b69c2b068fc378daa952ba7f163c4a11628f55a4df523b3ef8180a48787611b69565b61196b565b6040519161010083018381108382111761058a5760405286851683526103a5602084019460243586526040850192604435845260243692016113ec565b9060608401918252600160808501523360a08501524260c0850152600160e085015286600052600860205260406000209488855116865491516004811015610669576001600160a81b03199092161760a09190911b60ff60a01b1617855551600185015551805191821161058a576104206002850154611423565b601f8111610622575b50602090601f83116001146105ab57928260059360e0936104d197966000926105a0575b50508160011b916000199060031b1c19161760028501555b6003840161048560808301511515829060ff801983541691151516179055565b60a08201518154610100600160a81b0360089290921b91909116610100600160a81b031990911617905560c0810151600485015501519101805460ff191691151560ff16919091179055565b82811660005260096020526040600020928354936801000000000000000085101561058a576040849261052d877f2a2094b331f6f4001dc6c7ea95294f61799fba4f6b695419ebf435d26569b88f94600160209a018155611348565b81549060031b9086821b91600019901b19161790558151946105518660243561145d565b604435888701521693a36040519033817f5bd81a4d257100f5fe7df72a9e528a7aaf33871f8258739a331d2627a83f0aac600080a38152f35b634e487b7160e01b600052604160045260246000fd5b015190508a8061044d565b90601f198316916002860160005260206000209260005b81811061060a57509360e0936104d197969360019383600598106105f1575b505050811b016002850155610465565b015160001960f88460031b161c191690558a80806105e1565b929360206001819287860151815501950193016105c2565b600285016000526020600020601f840160051c810160208510610662575b601f830160051c82018110610656575050610429565b60008155600101610640565b5080610640565b634e487b7160e01b600052602160045260246000fd5b606460405162461bcd60e51b815260206004820152602060248201527f4552433732313a206d696e7420746f20746865207a65726f20616464726573736044820152fd5b3461019e5760208060031936011261019e57600435600052600881526040600020805490600190818101549060028101926040519360009181549161070783611423565b808852928281169081156107e157506001146107a4575b50505094610731846107699703856113ae565b61077f60038301549460ff60056004860154950154169460405198899860ff60018060a01b03968783168c528b019160a01c1661145d565b60408801526101008060608901528701906112c2565b9360ff81161515608087015260081c1660a085015260c0840152151560e08301520390f35b6000908152888120909893505b8289106107ce57505050610731848261076998820101929761071e565b8054878a018501529783019781016107b1565b60ff1916888b0152505050151560051b8401860190506107318461076961071e565b3461019e57602036600319011261019e5760043560009081526002602052604090205461083a906001600160a01b03161515611806565b600060405161084881611376565b5261087060405161085881611376565b600081526040519182916020835260208301906112c2565b0390f35b3461019e57608036600319011261019e5761088d6112e7565b6108956112fd565b906064359060443567ffffffffffffffff831161019e573660238401121561019e5761021d936108d26103639436906024816004013591016113ec565b926108e56108e0843361198b565b6118b6565b6108f0838383611a53565b611c89565b3461019e57604036600319011261019e5761090e6112e7565b602435908115159081830361019e576001600160a01b03169133831461098b5761095d9033600052600560205260406000208460005260205260406000209060ff801983541691151516179055565b6040519081527f17307eab39ab6107e8899845ad3d59bd9653f200f220920489ca2b5937696c3160203392a3005b60405162461bcd60e51b815260206004820152601960248201527f4552433732313a20617070726f766520746f2063616c6c6572000000000000006044820152606490fd5b3461019e57600036600319011261019e57602060405160008152f35b3461019e57600036600319011261019e5760405160006001805490610a1082611423565b80855291818116908115610aa45750600114610a4b575b61087084610a37818603826113ae565b6040519182916020835260208301906112c2565b600081815292507fb10e2d527612073b26eecdfd717e6a320cf44b4afac2b0732d9fcbe2b7fa0cf65b828410610a8c575050508101602001610a3782610a27565b80546020858701810191909152909301928101610a74565b60ff191660208087019190915292151560051b85019092019250610a379150839050610a27565b3461019e57604036600319011261019e57610ae46112fd565b600435600052600660205260406000209060018060a01b0316600052602052602060ff604060002054166040519015158152f35b3461019e57602036600319011261019e576001600160a01b03610b396112e7565b168015610b585760005260036020526020604060002054604051908152f35b60405162461bcd60e51b815260206004820152602960248201527f4552433732313a2061646472657373207a65726f206973206e6f7420612076616044820152683634b21037bbb732b960b91b6064820152608490fd5b3461019e57602036600319011261019e576020610bcd600435611852565b6040516001600160a01b039091168152f35b3461019e57604036600319011261019e57600435610bfb61146a565b600081815260026020526040902054610c1e906001600160a01b03161515611e80565b6000526008602052602435600160406000200155600080f35b3461019e57604036600319011261019e57610c506112e7565b6001600160a01b031660009081526009602052604090208054602435919082101561019e57602091610c8191611348565b90546040519160031b1c8152f35b3461019e5761021d610363610ca336611313565b9060405192610cb184611376565b600084526108e56108e0843361198b565b3461019e57604036600319011261019e57610cdb6112fd565b336001600160a01b03821603610cf75761021d90600435611790565b60405162461bcd60e51b815260206004820152602f60248201527f416363657373436f6e74726f6c3a2063616e206f6e6c792072656e6f756e636560448201526e103937b632b9903337b91039b2b63360891b6064820152608490fd5b3461019e57602036600319011261019e57600435610d7061146a565b600081815260026020526040902054610d93906001600160a01b03161515611e80565b806000526008602052600560406000200160ff1981541690557f24eeae42f647ed9085bd63c948c8201b093844d2ad153d02e9c42950d0306ccc600080a2005b3461019e57604036600319011261019e57600435610def6112fd565b816000526006602052610e09600160406000200154611685565b81600052600660205260406000209060018060a01b0316908160005260205260ff6040600020541615610e3857005b8160005260066020526040600020816000526020526040600020600160ff1982541617905533917f2f8788117e7eff1d82e926ec794901d17c78024a50270940304540a733656f0d600080a4005b3461019e5760208060031936011261019e576001600160a01b03610ea86112e7565b1660005260098152604060002060405190818382549182815201908192600052846000209060005b86828210610f26578686610ee6828803836113ae565b604051928392818401908285525180915260408401929160005b828110610f0f57505050500390f35b835185528695509381019392810192600101610f00565b835485529093019260019283019201610ed0565b3461019e57602036600319011261019e5760043560005260066020526020600160406000200154604051908152f35b3461019e5761021d610f7a36611313565b91610f886108e0843361198b565b611a53565b3461019e57604036600319011261019e57610fa66112e7565b602435906001600160a01b038080610fbd85611852565b169216918083146110b857803314908115611093575b501561102857600083815260046020526040902080546001600160a01b0319168317905561100083611852565b167f8c5be1e5ebec7d5bd14f71427d1e84f3dd0314c0f7b2291e5b200ac8c7c3b925600080a4005b60405162461bcd60e51b815260206004820152603d60248201527f4552433732313a20617070726f76652063616c6c6572206973206e6f7420746f60448201527f6b656e206f776e6572206f7220617070726f76656420666f7220616c6c0000006064820152608490fd5b9050600052600560205260406000203360005260205260ff6040600020541684610fd3565b60405162461bcd60e51b815260206004820152602160248201527f4552433732313a20617070726f76616c20746f2063757272656e74206f776e656044820152603960f91b6064820152608490fd5b3461019e57602036600319011261019e576020610bcd600435611878565b3461019e57600036600319011261019e576040516000805461114681611423565b80845290600190818116908115610aa4575060011461116f5761087084610a37818603826113ae565b600080805292507f290decd9548b62a8d60345a988386fc84ba6bc95484008f6362f93160ef3e5635b8284106111b0575050508101602001610a3782610a27565b80546020858701810191909152909301928101611198565b3461019e57602036600319011261019e576004356000818152600260205260409020546111ff906001600160a01b03161515611e80565b60005260086020526020600160406000200154604051908152f35b3461019e57602036600319011261019e576004359063ffffffff60e01b821680920361019e57602091637965db0b60e01b811490811561125c575b5015158152f35b6380ac58cd60e01b81149150811561128e575b811561127d575b5083611255565b6301ffc9a760e01b14905083611276565b635b5e139f60e01b8114915061126f565b60005b8381106112b25750506000910152565b81810151838201526020016112a2565b906020916112db8151809281855285808601910161129f565b601f01601f1916010190565b600435906001600160a01b038216820361019e57565b602435906001600160a01b038216820361019e57565b606090600319011261019e576001600160a01b0390600435828116810361019e5791602435908116810361019e579060443590565b80548210156113605760005260206000200190600090565b634e487b7160e01b600052603260045260246000fd5b6020810190811067ffffffffffffffff82111761058a57604052565b6080810190811067ffffffffffffffff82111761058a57604052565b90601f8019910116810190811067ffffffffffffffff82111761058a57604052565b67ffffffffffffffff811161058a57601f01601f191660200190565b9291926113f8826113d0565b9161140660405193846113ae565b82948184528183011161019e578281602093846000960137010152565b90600182811c92168015611453575b602083101461143d57565b634e487b7160e01b600052602260045260246000fd5b91607f1691611432565b9060048210156106695752565b3360009081527fe298173fb715fb8b47cba95afe542599cde89075e978203baa0c87bd3333a439602090815260408083205490927f0ce23c3e399818cfee81a7ab0880f714e53d7672b08df0fa62f2843416e1ea099160ff16156114ce5750505050565b6114d733611d25565b918451906114e482611392565b6042825284820192606036853782511561167157603084538251906001918210156116715790607860218501536041915b818311611603575050506115c15760486115bd9386936115a193611592985198899376020b1b1b2b9b9a1b7b73a3937b61d1030b1b1b7bab73a1604d1b8a860152611569815180928c60378901910161129f565b8401917001034b99036b4b9b9b4b733903937b6329607d1b60378401525180938684019061129f565b010360288101875201856113ae565b5192839262461bcd60e51b8452600484015260248301906112c2565b0390fd5b60648486519062461bcd60e51b825280600483015260248201527f537472696e67733a20686578206c656e67746820696e73756666696369656e746044820152fd5b909192600f8116601081101561165d576f181899199a1a9b1b9c1cb0b131b232b360811b901a6116338587611d14565b5360041c92801561164957600019019190611515565b634e487b7160e01b82526011600452602482fd5b634e487b7160e01b83526032600452602483fd5b634e487b7160e01b81526032600452602490fd5b60009080825260209060068252604092838120338252835260ff8482205416156116af5750505050565b6116b833611d25565b918451906116c582611392565b6042825284820192606036853782511561167157603084538251906001918210156116715790607860218501536041915b81831161174a575050506115c15760486115bd9386936115a193611592985198899376020b1b1b2b9b9a1b7b73a3937b61d1030b1b1b7bab73a1604d1b8a860152611569815180928c60378901910161129f565b909192600f8116601081101561165d576f181899199a1a9b1b9c1cb0b131b232b360811b901a61177a8587611d14565b5360041c928015611649576000190191906116f6565b906000918083526006602052604083209160018060a01b03169182845260205260ff6040842054166117c157505050565b8083526006602052604083208284526020526040832060ff1981541690557ff6391f5c32d9c69d2a47ea670b442974b53935d1edc7fd64eb21e047a839171b339380a4565b1561180d57565b60405162461bcd60e51b815260206004820152601860248201527f4552433732313a20696e76616c696420746f6b656e20494400000000000000006044820152606490fd5b6000908152600260205260409020546001600160a01b0316611875811515611806565b90565b60008181526002602052604090205461189b906001600160a01b03161515611806565b6000908152600460205260409020546001600160a01b031690565b156118bd57565b60405162461bcd60e51b815260206004820152602d60248201527f4552433732313a2063616c6c6572206973206e6f7420746f6b656e206f776e6560448201526c1c881bdc88185c1c1c9bdd9959609a1b6064820152608490fd5b60809060208152603260208201527f4552433732313a207472616e7366657220746f206e6f6e20455243373231526560408201527131b2b4bb32b91034b6b83632b6b2b73a32b960711b60608201520190565b1561197257565b60405162461bcd60e51b8152806115bd60048201611918565b906001600160a01b03808061199f84611852565b169316918383149384156119d2575b5083156119bc575b50505090565b6119c891929350611878565b16143880806119b6565b909350600052600560205260406000208260005260205260ff6040600020541692386119ae565b15611a0057565b60405162461bcd60e51b815260206004820152602560248201527f4552433732313a207472616e736665722066726f6d20696e636f72726563742060448201526437bbb732b960d91b6064820152608490fd5b90611a7b91611a6184611852565b6001600160a01b03939184169284929091831684146119f9565b16918215611b185781611a9891611a9186611852565b16146119f9565b7fddf252ad1be2c89b69c2b068fc378daa952ba7f163c4a11628f55a4df523b3ef60008481526004602052604081206bffffffffffffffffffffffff60a01b9081815416905583825260036020526040822060001981540190558482526040822060018154019055858252600260205284604083209182541617905580a4565b60405162461bcd60e51b8152602060048201526024808201527f4552433732313a207472616e7366657220746f20746865207a65726f206164646044820152637265737360e01b6064820152608490fd5b9192600092909190803b15611c7f57611bb7946040518092630a85bd0160e11b9485835233600484015287602484015260448301526080606483015281878160209a8b9660848301906112c2565b03926001600160a01b03165af1849181611c3b575b50611c2a575050503d600014611c22573d611be6816113d0565b90611bf460405192836113ae565b81528091833d92013e5b80519182611c1f5760405162461bcd60e51b8152806115bd60048201611918565b01fd5b506060611bfe565b6001600160e01b0319161492509050565b9091508581813d8311611c78575b611c5381836113ae565b81010312611c7457516001600160e01b031981168103611c74579038611bcc565b8480fd5b503d611c49565b5050915050600190565b9293600093909291803b15611d0957948491611ce39660405180948193630a85bd0160e11b9788845233600485015260018060a01b0380921660248501526044840152608060648401528260209b8c9760848301906112c2565b0393165af1849181611c3b5750611c2a575050503d600014611c22573d611be6816113d0565b505050915050600190565b908151811015611360570160200190565b604051906060820182811067ffffffffffffffff82111761058a57604052602a82526020820160403682378251156113605760309053815160019081101561136057607860218401536029905b808211611dc6575050611d825790565b606460405162461bcd60e51b815260206004820152602060248201527f537472696e67733a20686578206c656e67746820696e73756666696369656e746044820152fd5b9091600f81166010811015611e1f576f181899199a1a9b1b9c1cb0b131b232b360811b901a611df58486611d14565b5360041c918015611e0a576000190190611d72565b60246000634e487b7160e01b81526011600452fd5b60246000634e487b7160e01b81526032600452fd5b15611e3b57565b60405162461bcd60e51b815260206004820152601c60248201527f4552433732313a20746f6b656e20616c7265616479206d696e746564000000006044820152606490fd5b15611e8757565b60405162461bcd60e51b8152602060048201526014602482015273151bdad95b88191bd95cc81b9bdd08195e1a5cdd60621b6044820152606490fdfea264697066735822122025b009a248b614977348f24a7b21a6e5058aed48ecce0eea618fecd8844e28d164736f6c634300081300332f8788117e7eff1d82e926ec794901d17c78024a50270940304540a733656f0d",
  "linkReferences": {},
  "deployedLinkReferences": {},
  "immutableReferences": {},
  "inputSourceName": "project/contracts/RWAAsset.sol",
  "buildInfoId": "solc-0_8_19-1ef7364bee65fe47cce44adf0cd306f2b04bd606"
}