{
  "_format": "hh3-artifact-1",
  "contractName": "TreasuryHub",
  "sourceName": "contracts/TreasuryHub.sol",
  "abi": [
    {
      "inputs": [
        {
          "internalType": "address",
          "name": "_asset",
          "type": "address"
        },
        {
          "internalType": "address",
          "name": "admin",
          "type": "address"
        },
        {
          "internalType": "address",
          "name": "router",
          "type": "address"
        }
      ],
      "stateMutability": "nonpayable",
      "type": "constructor"
    },
    {
      "anonymous": false,
      "inputs": [
        {
          "indexed": true,
          "internalType": "bytes32",
          "name": "role",
          "type": "bytes32"
        },
        {
          "indexed": true,
          "internalType": "bytes32",
          "name": "previousAdminRole",
          "type": "bytes32"
        },
        {
          "indexed": true,
          "internalType": "bytes32",
          "name": "newAdminRole",
          "type": "bytes32"
        }
      ],
      "name": "RoleAdminChanged",
      "type": "event"
    },
    {
      "anonymous": false,
      "inputs": [
        {
          "indexed": true,
          "internalType": "bytes32",
          "name": "role",
          "type": "bytes32"
        },
        {
          "indexed": true,
          "internalType": "address",
          "name": "account",
          "type": "address"
        },
        {
          "indexed": true,
          "internalType": "address",
          "name": "sender",
          "type": "address"
        }
      ],
      "name": "RoleGranted",
      "type": "event"
    },
    {
      "anonymous": false,
      "inputs": [
        {
          "indexed": true,
          "internalType": "bytes32",
          "name": "role",
          "type": "bytes32"
        },
        {
          "indexed": true,
          "internalType": "address",
          "name": "account",
          "type": "address"
        },
        {
          "indexed": true,
          "internalType": "address",
          "name": "sender",
          "type": "address"
        }
      ],
      "name": "RoleRevoked",
      "type": "event"
    },
    {
      "anonymous": false,
      "inputs": [
        {
          "indexed": true,
          "internalType": "enum TreasuryHub.Category",
          "name": "category",
          "type": "uint8"
        },
        {
          "indexed": false,
          "internalType": "uint256",
          "name": "amount",
          "type": "uint256"
        },
        {
          "indexed": false,
          "internalType": "uint256",
          "name": "newBalance",
          "type": "uint256"
        }
      ],
      "name": "TreasuryAllocated",
      "type": "event"
    },
    {
      "anonymous": false,
      "inputs": [
        {
          "indexed": false,
          "internalType": "uint16",
          "name": "protocolRevenue",
          "type": "uint16"
        },
        {
          "indexed": false,
          "internalType": "uint16",
          "name": "reserveCapital",
          "type": "uint16"
        },
        {
          "indexed": false,
          "internalType": "uint16",
          "name": "operational",
          "type": "uint16"
        },
        {
          "indexed": false,
          "internalType": "uint16",
          "name": "incentives",
          "type": "uint16"
        },
        {
          "indexed": false,
          "internalType": "uint16",
          "name": "insuranceBackstop",
          "type": "uint16"
        }
      ],
      "name": "TreasuryBucketsUpdated",
      "type": "event"
    },
    {
      "anonymous": false,
      "inputs": [
        {
          "indexed": false,
          "internalType": "uint256",
          "name": "grossAmount",
          "type": "uint256"
        },
        {
          "indexed": false,
          "internalType": "uint256",
          "name": "timestamp",
          "type": "uint256"
        }
      ],
      "name": "TreasuryRevenueReceived",
      "type": "event"
    },
    {
      "anonymous": false,
      "inputs": [
        {
          "indexed": true,
          "internalType": "enum TreasuryHub.Category",
          "name": "category",
          "type": "uint8"
        },
        {
          "indexed": true,
          "internalType": "address",
          "name": "to",
          "type": "address"
        },
        {
          "indexed": false,
          "internalType": "uint256",
          "name": "amount",
          "type": "uint256"
        },
        {
          "indexed": false,
          "internalType": "string",
          "name": "memo",
          "type": "string"
        }
      ],
      "name": "TreasurySpendingApproved",
      "type": "event"
    },
    {
      "anonymous": false,
      "inputs": [
        {
          "indexed": true,
          "internalType": "enum TreasuryHub.Category",
          "name": "category",
          "type": "uint8"
        },
        {
          "indexed": true,
          "internalType": "address",
          "name": "to",
          "type": "address"
        },
        {
          "indexed": false,
          "internalType": "uint256",
          "name": "amount",
          "type": "uint256"
        }
      ],
      "name": "TreasuryWithdrawal",
      "type": "event"
    },
    {
      "inputs": [],
      "name": "DEFAULT_ADMIN_ROLE",
      "outputs": [
        {
          "internalType": "bytes32",
          "name": "",
          "type": "bytes32"
        }
      ],
      "stateMutability": "view",
      "type": "function"
    },
    {
      "inputs": [],
      "name": "EXECUTOR_ROLE",
      "outputs": [
        {
          "internalType": "bytes32",
          "name": "",
          "type": "bytes32"
        }
      ],
      "stateMutability": "view",
      "type": "function"
    },
    {
      "inputs": [],
      "name": "GOVERNANCE_ROLE",
      "outputs": [
        {
          "internalType": "bytes32",
          "name": "",
          "type": "bytes32"
        }
      ],
      "stateMutability": "view",
      "type": "function"
    },
    {
      "inputs": [],
      "name": "ROUTER_ROLE",
      "outputs": [
        {
          "internalType": "bytes32",
          "name": "",
          "type": "bytes32"
        }
      ],
      "stateMutability": "view",
      "type": "function"
    },
    {
      "inputs": [],
      "name": "asset",
      "outputs": [
        {
          "internalType": "contract IERC20",
          "name": "",
          "type": "address"
        }
      ],
      "stateMutability": "view",
      "type": "function"
    },
    {
      "inputs": [
        {
          "internalType": "enum TreasuryHub.Category",
          "name": "",
          "type": "uint8"
        }
      ],
      "name": "balanceOfCategory",
      "outputs": [
        {
          "internalType": "uint256",
          "name": "",
          "type": "uint256"
        }
      ],
      "stateMutability": "view",
      "type": "function"
    },
    {
      "inputs": [],
      "name": "buckets",
      "outputs": [
        {
          "internalType": "uint16",
          "name": "protocolRevenue",
          "type": "uint16"
        },
        {
          "internalType": "uint16",
          "name": "reserveCapital",
          "type": "uint16"
        },
        {
          "internalType": "uint16",
          "name": "operational",
          "type": "uint16"
        },
        {
          "internalType": "uint16",
          "name": "incentives",
          "type": "uint16"
        },
        {
          "internalType": "uint16",
          "name": "insuranceBackstop",
          "type": "uint16"
        }
      ],
      "stateMutability": "view",
      "type": "function"
    },
    {
      "inputs": [
        {
          "internalType": "uint256",
          "name": "amount",
          "type": "uint256"
        }
      ],
      "name": "creditFromRouter",
      "outputs": [],
      "stateMutability": "nonpayable",
      "type": "function"
    },
    {
      "inputs": [
        {
          "internalType": "uint256",
          "name": "amount",
          "type": "uint256"
        }
      ],
      "name": "creditInbound",
      "outputs": [],
      "stateMutability": "nonpayable",
      "type": "function"
    },
    {
      "inputs": [
        {
          "internalType": "bytes32",
          "name": "role",
          "type": "bytes32"
        }
      ],
      "name": "getRoleAdmin",
      "outputs": [
        {
          "internalType": "bytes32",
          "name": "",
          "type": "bytes32"
        }
      ],
      "stateMutability": "view",
      "type": "function"
    },
    {
      "inputs": [
        {
          "internalType": "bytes32",
          "name": "role",
          "type": "bytes32"
        },
        {
          "internalType": "address",
          "name": "account",
          "type": "address"
        }
      ],
      "name": "grantRole",
      "outputs": [],
      "stateMutability": "nonpayable",
      "type": "function"
    },
    {
      "inputs": [
        {
          "internalType": "address",
          "name": "router",
          "type": "address"
        }
      ],
      "name": "grantRouter",
      "outputs": [],
      "stateMutability": "nonpayable",
      "type": "function"
    },
    {
      "inputs": [
        {
          "internalType": "bytes32",
          "name": "role",
          "type": "bytes32"
        },
        {
          "internalType": "address",
          "name": "account",
          "type": "address"
        }
      ],
      "name": "hasRole",
      "outputs": [
        {
          "internalType": "bool",
          "name": "",
          "type": "bool"
        }
      ],
      "stateMutability": "view",
      "type": "function"
    },
    {
      "inputs": [
        {
          "internalType": "bytes32",
          "name": "role",
          "type": "bytes32"
        },
        {
          "internalType": "address",
          "name": "account",
          "type": "address"
        }
      ],
      "name": "renounceRole",
      "outputs": [],
      "stateMutability": "nonpayable",
      "type": "function"
    },
    {
      "inputs": [
        {
          "internalType": "bytes32",
          "name": "role",
          "type": "bytes32"
        },
        {
          "internalType": "address",
          "name": "account",
          "type": "address"
        }
      ],
      "name": "revokeRole",
      "outputs": [],
      "stateMutability": "nonpayable",
      "type": "function"
    },
    {
      "inputs": [
        {
          "internalType": "uint16",
          "name": "protocolRevenue",
          "type": "uint16"
        },
        {
          "internalType": "uint16",
          "name": "reserveCapital",
          "type": "uint16"
        },
        {
          "internalType": "uint16",
          "name": "operational",
          "type": "uint16"
        },
        {
          "internalType": "uint16",
          "name": "incentives",
          "type": "uint16"
        },
        {
          "internalType": "uint16",
          "name": "insuranceBackstop",
          "type": "uint16"
        }
      ],
      "name": "setBuckets",
      "outputs": [],
      "stateMutability": "nonpayable",
      "type": "function"
    },
    {
      "inputs": [
        {
          "internalType": "bytes4",
          "name": "interfaceId",
          "type": "bytes4"
        }
      ],
      "name": "supportsInterface",
      "outputs": [
        {
          "internalType": "bool",
          "name": "",
          "type": "bool"
        }
      ],
      "stateMutability": "view",
      "type": "function"
    },
    {
      "inputs": [],
      "name": "totalBalance",
      "outputs": [
        {
          "internalType": "uint256",
          "name": "",
          "type": "uint256"
        }
      ],
      "stateMutability": "view",
      "type": "function"
    },
    {
      "inputs": [],
      "name": "totalCredited",
      "outputs": [
        {
          "internalType": "uint256",
          "name": "",
          "type": "uint256"
        }
      ],
      "stateMutability": "view",
      "type": "function"
    },
    {
      "inputs": [
        {
          "internalType": "enum TreasuryHub.Category",
          "name": "category",
          "type": "uint8"
        },
        {
          "internalType": "address",
          "name": "to",
          "type": "address"
        },
        {
          "internalType": "uint256",
          "name": "amount",
          "type": "uint256"
        },
        {
          "internalType": "string",
          "name": "memo",
          "type": "string"
        }
      ],
      "name": "withdraw",
      "outputs": [],
      "stateMutability": "nonpayable",
      "type": "function"
    }
  ],
  "bytecode": "0x60a0346200033957601f62001b9438819003918201601f1916830192916001600160401b0391828511848610176200033e5781606092859260409788528339810103126200033957620000528262000354565b9060209162000070856200006885870162000354565b950162000354565b6001600160a01b03918216801515806200032d575b15620002f55760805260009485805285855282878720911690818752855260ff878720541615620002bd575b7f71840dc4906352362b0cdaf79870196c8e42acafade72d5d5a6d59291253ceb1808752868652878720828852865260ff88882054161562000284575b507fd8aa0f3194971a2a116679f7c2090f6939c8d4e01a2a8d7e41d55e5351469e6390818752868652878720818852865260ff8888205416156200024b575b50501680620001cd575b5083519260a0840191821184831017620001b957508352610bb88252610dac908201526105dc818301526103e860608201819052608090910152600280546001600160501b0319166903e803e805dc0dac0bb81790555161180a90816200036a82396080518181816101af0152818161066901528181610935015261138e0152f35b634e487b7160e01b81526041600452602490fd5b7f7a05a596cb0ce7fdea8a1e1ec73be300bdb35097c944ce1897202f7a13122eb290818552848452858520818652845260ff86862054161562000212575b5062000137565b8185528484528585208186528452858520805460ff19166001179055339160008051602062001b748339815191528680a438806200020b565b8187528686528787208188528652878720805460ff19166001179055339160008051602062001b748339815191528880a438806200012d565b8087528686528787208288528652878720600160ff1982541617905581339160008051602062001b748339815191528980a438620000ee565b8580528585528686208187528552868620805460ff1916600117905533818760008051602062001b748339815191528180a4620000b1565b865162461bcd60e51b815260048101869052601160248201527054726561737572794875623a207a65726f60781b6044820152606490fd5b50828616151562000085565b600080fd5b634e487b7160e01b600052604160045260246000fd5b51906001600160a01b0382168203620003395756fe608060408181526004918236101561001657600080fd5b600092833560e01c91826301ffc9a714610d4557508163067b23c314610d2657816307bd026514610ceb5781631a5cc08b14610b2c578163248a9ca314610b025781632497463714610ae55781632f2ff15d14610a8657816330d643b514610a4b57816336568abe146109b957816337ea2b911461096457816338d52e0f146109205781635a5f5f8c1461052c5781635d70c7921461038257816391d148541461033c57816398c76d2514610282578163a217fddf14610267578163a6b0f75914610232578163ad7a672f14610180578163d547741f1461013e575063f36c8f5c1461010157600080fd5b3461013a578160031936011261013a57602090517f71840dc4906352362b0cdaf79870196c8e42acafade72d5d5a6d59291253ceb18152f35b5080fd5b9190503461017c578060031936011261017c5761017991356101746001610163610d98565b938387528660205286200154610fb9565b611181565b80f35b8280fd5b9190503461017c578260031936011261017c5780516370a0823160e01b815230928101929092526020826024817f00000000000000000000000000000000000000000000000000000000000000006001600160a01b03165afa9182156102285783926101f1575b6020838351908152f35b9091506020813d8211610220575b8161020c60209383611133565b8101031261017c57602092505190386101e7565b3d91506101ff565b81513d85823e3d90fd5b90503461017c57602036600319011261017c5735916005831015610264575061025c602092610db3565b549051908152f35b80fd5b50503461013a578160031936011261013a5751908152602090f35b90503461017c57602036600319011261017c57356001600160a01b0381169081900361017c576102b0610de2565b7f7a05a596cb0ce7fdea8a1e1ec73be300bdb35097c944ce1897202f7a13122eb2918284528360205280842082855260205260ff8185205416156102f2578380f35b828452836020528084208285526020528320600160ff1982541617905533917f2f8788117e7eff1d82e926ec794901d17c78024a50270940304540a733656f0d8480a43880808380f35b90503461017c578160031936011261017c578160209360ff9261035d610d98565b903582528186528282206001600160a01b039091168252855220549151911615158152f35b8391503461013a5760a036600319011261013a57803561ffff80821680830361052857602435938285169182860361052457604435918483169384840361052057606435948686169081870361051c576084359788169384890361051857612710610401866103fc866103fc876103fc8b8e6103fc610de2565b61121e565b036104e257506104dc97969594928c94926080927f3d18245ef6d25fbdeacc98eec22969256f089943702cc989bb7be033ffed3e609d9e5192610443846110e5565b868452602084015286830152606082015201526002549069ffff000000000000000086841b169169ffffffffffffffffffff19161763ffff00008960101b161765ffff000000008460201b161767ffff0000000000008560301b16171760025551958695869391608093929695919660a086019761ffff94858094818094168a5216602089015216604087015216606085015216910152565b0390a180f35b60649060208e519162461bcd60e51b8352820152601060248201526f54726561737572794875623a2062707360801b6044820152fd5b8b80fd5b8a80fd5b8880fd5b8680fd5b8480fd5b9190503461017c57608036600319011261017c5782823591600583101561013a57610555610d98565b6044908135926064359067ffffffffffffffff93848311610524573660238401121561052457828901359480861161091c5760249436868887010111610520577fd8aa0f3194971a2a116679f7c2090f6939c8d4e01a2a8d7e41d55e5351469e63808a5260ff8560209b808d528181203382528d522054161561076d57506001600160a01b0316998a15610735576105ec8a610db3565b548881106106f457886105fe916117a7565b6106078b610db3565b55835163a9059cbb60e01b8a8201528681018c905283810189905292835260808301918211838310176106e2575092858361068d7feafdc134395fa2e2fce3630c0ea844cbb3c598ce8feb98305fc551da54ed09909a999794839760609a97527f00000000000000000000000000000000000000000000000000000000000000006115c6565b8b8b7f0e7284a49c83cdedd0e71224e6baf266d8c799d955cf0b60b7f61130b12f6df08b84518b8152a3808051998a98895288015286015201848401378181018301889052601f01601f19168101030190a380f35b634e487b7160e01b8c5260419052848bfd5b845162461bcd60e51b81528083018b90526019818901527f54726561737572794875623a20696e73756666696369656e740000000000000081860152606490fd5b835162461bcd60e51b81529081018990526014818701527354726561737572794875623a207a65726f20746f60601b81840152606490fd5b8b8a8e8988948861077d33611252565b919287519361078b85611117565b6042855286850195606036883785511561090a57603087538551906001918210156108f85790607860218801536041915b81831161088f57505050610862576108128761085e8a61084a60488b8b8b61083b8c87519a8576020b1b1b2b9b9a1b7b73a3937b61d1030b1b1b7bab73a1604d1b8d9788015282519283916037890191016110c2565b8401917001034b99036b4b9b9b4b733903937b6329607d1b6037840152518093868401906110c2565b01036028810187520185611133565b5162461bcd60e51b81529283928301611155565b0390fd5b6000805160206117b5833981519152606492878993818c519562461bcd60e51b8752860152840152820152fd5b909192600f811660108110156108e6576f181899199a1a9b1b9c1cb0b131b232b360811b901a6108bf858a61122b565b538a1c9280156108d4576000190191906107bc565b634e487b7160e01b825260118b528482fd5b634e487b7160e01b835260328c528583fd5b634e487b7160e01b815260328a528390fd5b634e487b7160e01b8152603289529050fd5b8780fd5b50503461013a578160031936011261013a57517f00000000000000000000000000000000000000000000000000000000000000006001600160a01b03168152602090f35b82843461026457806003193601126102645750600254815161ffff8083168252601083901c811660208084019190915283901c81166040830152603083901c811660608301529190921c16608082015260a090f35b8391503461013a578260031936011261013a576109d4610d98565b90336001600160a01b038316036109f057906101799135611181565b608490602085519162461bcd60e51b8352820152602f60248201527f416363657373436f6e74726f6c3a2063616e206f6e6c792072656e6f756e636560448201526e103937b632b9903337b91039b2b63360891b6064820152fd5b50503461013a578160031936011261013a57602090517f7a05a596cb0ce7fdea8a1e1ec73be300bdb35097c944ce1897202f7a13122eb28152f35b90503461017c578160031936011261017c573590610aa2610d98565b9082845283602052610ab960018286200154610fb9565b82845260208481528185206001600160a01b039093168086529290528084205460ff16156102f2578380f35b83903461013a57602036600319011261013a57610179903561134f565b90503461017c57602036600319011261017c57816020936001923581528085522001549051908152f35b9190503461017c57602080600319360112610ce7577f7a05a596cb0ce7fdea8a1e1ec73be300bdb35097c944ce1897202f7a13122eb2808552848252828520338652825260ff838620541615610b875784610179853561134f565b610b949491929433611252565b855191610ba083611117565b60428352848301936060368637835115610cd45760308553835190600191821015610cc15790607860218601536041915b818311610c5657505050610c265761085e93869361084a9361083b6048946108129a519a8576020b1b1b2b9b9a1b7b73a3937b61d1030b1b1b7bab73a1604d1b8d9788015282519283916037890191016110c2565b50505080606493519262461bcd60e51b845283015260248201526000805160206117b58339815191526044820152fd5b909192600f81166010811015610cae576f181899199a1a9b1b9c1cb0b131b232b360811b901a610c86858861122b565b53881c928015610c9b57600019019190610bd1565b634e487b7160e01b825260118952602482fd5b634e487b7160e01b835260328a52602483fd5b634e487b7160e01b815260328852602490fd5b634e487b7160e01b815260328752602490fd5b8380fd5b50503461013a578160031936011261013a57602090517fd8aa0f3194971a2a116679f7c2090f6939c8d4e01a2a8d7e41d55e5351469e638152f35b50503461013a578160031936011261013a576020906003549051908152f35b84913461017c57602036600319011261017c573563ffffffff60e01b811680910361017c5760209250637965db0b60e01b8114908115610d87575b5015158152f35b6301ffc9a760e01b14905083610d80565b602435906001600160a01b0382168203610dae57565b600080fd5b6005811015610dcc576000526001602052604060002090565b634e487b7160e01b600052602160045260246000fd5b3360009081527f316a51056d8b2401ab04c48d9973add294eadde229c785c6d19cde93785467ef60209081526040808320549092907f71840dc4906352362b0cdaf79870196c8e42acafade72d5d5a6d59291253ceb19060ff1615610e475750505050565b610e5033611252565b845191610e5c83611117565b60428352848301936060368637835115610fa55760308553835190600191821015610fa55790607860218601536041915b818311610f3757505050610f0757610812938593610ef193610ee260489461085e9951988576020b1b1b2b9b9a1b7b73a3937b61d1030b1b1b7bab73a1604d1b8b9788015282519283916037890191016110c2565b01036028810185520183611133565b5162461bcd60e51b815291829160048301611155565b60648486519062461bcd60e51b825280600483015260248201526000805160206117b58339815191526044820152fd5b909192600f81166010811015610f91576f181899199a1a9b1b9c1cb0b131b232b360811b901a610f67858861122b565b5360041c928015610f7d57600019019190610e8d565b634e487b7160e01b82526011600452602482fd5b634e487b7160e01b83526032600452602483fd5b634e487b7160e01b81526032600452602490fd5b6000818152602090808252604092838220338352835260ff848320541615610fe15750505050565b610fea33611252565b845191610ff683611117565b60428352848301936060368637835115610fa55760308553835190600191821015610fa55790607860218601536041915b81831161107c57505050610f0757610812938593610ef193610ee260489461085e9951988576020b1b1b2b9b9a1b7b73a3937b61d1030b1b1b7bab73a1604d1b8b9788015282519283916037890191016110c2565b909192600f81166010811015610f91576f181899199a1a9b1b9c1cb0b131b232b360811b901a6110ac858861122b565b5360041c928015610f7d57600019019190611027565b60005b8381106110d55750506000910152565b81810151838201526020016110c5565b60a0810190811067ffffffffffffffff82111761110157604052565b634e487b7160e01b600052604160045260246000fd5b6080810190811067ffffffffffffffff82111761110157604052565b90601f8019910116810190811067ffffffffffffffff82111761110157604052565b6040916020825261117581518092816020860152602086860191016110c2565b601f01601f1916010190565b9060009180835282602052604083209160018060a01b03169182845260205260ff6040842054166111b157505050565b80835282602052604083208284526020526040832060ff1981541690557ff6391f5c32d9c69d2a47ea670b442974b53935d1edc7fd64eb21e047a839171b339380a4565b8181029291811591840414171561120857565b634e487b7160e01b600052601160045260246000fd5b9190820180921161120857565b90815181101561123c570160200190565b634e487b7160e01b600052603260045260246000fd5b604051906060820182811067ffffffffffffffff82111761110157604052602a825260208201604036823782511561123c5760309053815160019081101561123c57607860218401536029905b8082116112e15750506112af5790565b606460405162461bcd60e51b815260206004820152602060248201526000805160206117b58339815191526044820152fd5b9091600f8116601081101561133a576f181899199a1a9b1b9c1cb0b131b232b360811b901a611310848661122b565b5360041c91801561132557600019019061129f565b60246000634e487b7160e01b81526011600452fd5b60246000634e487b7160e01b81526032600452fd5b80156115c35760408080516020906323b872dd60e01b8282015233602482015230604482015284606482015260648152611388816110e5565b6113b2907f00000000000000000000000000000000000000000000000000000000000000006115c6565b8180516113be816110e5565b6002549061ffff918783821693848452808088860196818660101c1688528887019682878c1c168852826060820197818160301c1689528b1c1690608001526127109485938461140f8194846111f5565b0499511661141c916111f5565b0495511661142a908c6111f5565b04925116611438908a6111f5565b0490818184611447878d6117a7565b90611451916117a7565b9061145b916117a7565b90611465916117a7565b98600094858052866001958693848b52828920848154906114859161121e565b9055848952848b528289208281549061149d9161121e565b905560028952848b52828920868154906114b69161121e565b905560038952848b52828920878154906114cf9161121e565b905560048952848b528d838a20908154906114e99161121e565b905580600354906114f99161121e565b600355825190815282428c8301527f369cc68bad88ce4b4341685b8daabb119c33a8cedb13c031034510e69ab71a9591a1878052838a528188205482519384528a840152877f7486f4c9e9365ff935d2a2904a7f309df3b5308b23a74ae07d459ababb70562e809d8195a2838852838a528188205482519182528a820152a260028452828652878580862054815193845288840152600292a260038352818552868480852054815193845287840152600392a26004825283522054908251948552840152600492a2565b50565b60018060a01b0316906040516040810167ffffffffffffffff9082811082821117611101576040526020938483527f5361666545524332303a206c6f772d6c6576656c2063616c6c206661696c6564858401526000808587829751910182855af1903d1561170b573d9283116116f757906116619392916040519261165488601f19601f8401160185611133565b83523d868885013e611716565b8051918215918483156116d3575b50505090501561167c5750565b6084906040519062461bcd60e51b82526004820152602a60248201527f5361666545524332303a204552433230206f7065726174696f6e20646964206e6044820152691bdd081cdd58d8d9595960b21b6064820152fd5b91938180945001031261013a5782015190811515820361026457508038808461166f565b634e487b7160e01b85526041600452602485fd5b906116619392506060915b91929015611778575081511561172a575090565b3b156117335790565b60405162461bcd60e51b815260206004820152601d60248201527f416464726573733a2063616c6c20746f206e6f6e2d636f6e74726163740000006044820152606490fd5b82519091501561178b5750805190602001fd5b60405162461bcd60e51b815290819061085e9060048301611155565b919082039182116112085756fe537472696e67733a20686578206c656e67746820696e73756666696369656e74a26469706673582212200dff5b42e66879021b77a23dfe6565fe66180ed3f29020223036b27297e7d40864736f6c634300081300332f8788117e7eff1d82e926ec794901d17c78024a50270940304540a733656f0d",
  "linkReferences": {},
  "deployedLinkReferences": {},
  "immutableReferences": {
    "28593": [
      {
        "length": 32,
        "start": 431
      },
      {
        "length": 32,
        "start": 1641
      },
      {
        "length": 32,
        "start": 2357
      },
      {
        "length": 32,
        "start": 5006
      }
    ]
  },
  "inputSourceName": "project/contracts/TreasuryHub.sol",
  "buildInfoId": "solc-0_8_19-1ef7364bee65fe47cce44adf0cd306f2b04bd606"
}