{
  "_format": "hh3-artifact-1",
  "contractName": "InsuranceReserve",
  "sourceName": "contracts/InsuranceReserve.sol",
  "abi": [
    {
      "inputs": [
        {
          "internalType": "address",
          "name": "_asset",
          "type": "address"
        },
        {
          "internalType": "address",
          "name": "admin",
          "type": "address"
        }
      ],
      "stateMutability": "nonpayable",
      "type": "constructor"
    },
    {
      "anonymous": false,
      "inputs": [
        {
          "indexed": false,
          "internalType": "uint256",
          "name": "balance",
          "type": "uint256"
        },
        {
          "indexed": false,
          "internalType": "uint256",
          "name": "floor",
          "type": "uint256"
        }
      ],
      "name": "ReserveBelowFloor",
      "type": "event"
    },
    {
      "anonymous": false,
      "inputs": [
        {
          "indexed": true,
          "internalType": "address",
          "name": "from",
          "type": "address"
        },
        {
          "indexed": false,
          "internalType": "uint256",
          "name": "amount",
          "type": "uint256"
        },
        {
          "indexed": false,
          "internalType": "uint256",
          "name": "balanceAfter",
          "type": "uint256"
        }
      ],
      "name": "ReserveFunded",
      "type": "event"
    },
    {
      "anonymous": false,
      "inputs": [
        {
          "indexed": false,
          "internalType": "uint256",
          "name": "target",
          "type": "uint256"
        },
        {
          "indexed": false,
          "internalType": "uint256",
          "name": "floor",
          "type": "uint256"
        }
      ],
      "name": "ReserveParametersUpdated",
      "type": "event"
    },
    {
      "anonymous": false,
      "inputs": [
        {
          "indexed": true,
          "internalType": "address",
          "name": "from",
          "type": "address"
        },
        {
          "indexed": false,
          "internalType": "uint256",
          "name": "amount",
          "type": "uint256"
        },
        {
          "indexed": false,
          "internalType": "uint256",
          "name": "balanceAfter",
          "type": "uint256"
        }
      ],
      "name": "ReserveReplenished",
      "type": "event"
    },
    {
      "anonymous": false,
      "inputs": [
        {
          "indexed": true,
          "internalType": "address",
          "name": "to",
          "type": "address"
        },
        {
          "indexed": false,
          "internalType": "uint256",
          "name": "amount",
          "type": "uint256"
        },
        {
          "indexed": true,
          "internalType": "bytes32",
          "name": "reasonHash",
          "type": "bytes32"
        },
        {
          "indexed": false,
          "internalType": "string",
          "name": "reason",
          "type": "string"
        },
        {
          "indexed": false,
          "internalType": "uint256",
          "name": "balanceAfter",
          "type": "uint256"
        }
      ],
      "name": "ReserveUsed",
      "type": "event"
    },
    {
      "anonymous": false,
      "inputs": [
        {
          "indexed": true,
          "internalType": "bytes32",
          "name": "role",
          "type": "bytes32"
        },
        {
          "indexed": true,
          "internalType": "bytes32",
          "name": "previousAdminRole",
          "type": "bytes32"
        },
        {
          "indexed": true,
          "internalType": "bytes32",
          "name": "newAdminRole",
          "type": "bytes32"
        }
      ],
      "name": "RoleAdminChanged",
      "type": "event"
    },
    {
      "anonymous": false,
      "inputs": [
        {
          "indexed": true,
          "internalType": "bytes32",
          "name": "role",
          "type": "bytes32"
        },
        {
          "indexed": true,
          "internalType": "address",
          "name": "account",
          "type": "address"
        },
        {
          "indexed": true,
          "internalType": "address",
          "name": "sender",
          "type": "address"
        }
      ],
      "name": "RoleGranted",
      "type": "event"
    },
    {
      "anonymous": false,
      "inputs": [
        {
          "indexed": true,
          "internalType": "bytes32",
          "name": "role",
          "type": "bytes32"
        },
        {
          "indexed": true,
          "internalType": "address",
          "name": "account",
          "type": "address"
        },
        {
          "indexed": true,
          "internalType": "address",
          "name": "sender",
          "type": "address"
        }
      ],
      "name": "RoleRevoked",
      "type": "event"
    },
    {
      "inputs": [],
      "name": "DEFAULT_ADMIN_ROLE",
      "outputs": [
        {
          "internalType": "bytes32",
          "name": "",
          "type": "bytes32"
        }
      ],
      "stateMutability": "view",
      "type": "function"
    },
    {
      "inputs": [],
      "name": "GOVERNANCE_ROLE",
      "outputs": [
        {
          "internalType": "bytes32",
          "name": "",
          "type": "bytes32"
        }
      ],
      "stateMutability": "view",
      "type": "function"
    },
    {
      "inputs": [],
      "name": "asset",
      "outputs": [
        {
          "internalType": "contract IERC20",
          "name": "",
          "type": "address"
        }
      ],
      "stateMutability": "view",
      "type": "function"
    },
    {
      "inputs": [],
      "name": "balance",
      "outputs": [
        {
          "internalType": "uint256",
          "name": "",
          "type": "uint256"
        }
      ],
      "stateMutability": "view",
      "type": "function"
    },
    {
      "inputs": [
        {
          "internalType": "address",
          "name": "to",
          "type": "address"
        },
        {
          "internalType": "uint256",
          "name": "amount",
          "type": "uint256"
        },
        {
          "internalType": "string",
          "name": "reason",
          "type": "string"
        }
      ],
      "name": "coverShortfall",
      "outputs": [],
      "stateMutability": "nonpayable",
      "type": "function"
    },
    {
      "inputs": [
        {
          "internalType": "uint256",
          "name": "amount",
          "type": "uint256"
        }
      ],
      "name": "fund",
      "outputs": [],
      "stateMutability": "nonpayable",
      "type": "function"
    },
    {
      "inputs": [
        {
          "internalType": "bytes32",
          "name": "role",
          "type": "bytes32"
        }
      ],
      "name": "getRoleAdmin",
      "outputs": [
        {
          "internalType": "bytes32",
          "name": "",
          "type": "bytes32"
        }
      ],
      "stateMutability": "view",
      "type": "function"
    },
    {
      "inputs": [
        {
          "internalType": "bytes32",
          "name": "role",
          "type": "bytes32"
        },
        {
          "internalType": "address",
          "name": "account",
          "type": "address"
        }
      ],
      "name": "grantRole",
      "outputs": [],
      "stateMutability": "nonpayable",
      "type": "function"
    },
    {
      "inputs": [
        {
          "internalType": "bytes32",
          "name": "role",
          "type": "bytes32"
        },
        {
          "internalType": "address",
          "name": "account",
          "type": "address"
        }
      ],
      "name": "hasRole",
      "outputs": [
        {
          "internalType": "bool",
          "name": "",
          "type": "bool"
        }
      ],
      "stateMutability": "view",
      "type": "function"
    },
    {
      "inputs": [
        {
          "internalType": "bytes32",
          "name": "role",
          "type": "bytes32"
        },
        {
          "internalType": "address",
          "name": "account",
          "type": "address"
        }
      ],
      "name": "renounceRole",
      "outputs": [],
      "stateMutability": "nonpayable",
      "type": "function"
    },
    {
      "inputs": [],
      "name": "reserveFloor",
      "outputs": [
        {
          "internalType": "uint256",
          "name": "",
          "type": "uint256"
        }
      ],
      "stateMutability": "view",
      "type": "function"
    },
    {
      "inputs": [],
      "name": "reserveTarget",
      "outputs": [
        {
          "internalType": "uint256",
          "name": "",
          "type": "uint256"
        }
      ],
      "stateMutability": "view",
      "type": "function"
    },
    {
      "inputs": [
        {
          "internalType": "bytes32",
          "name": "role",
          "type": "bytes32"
        },
        {
          "internalType": "address",
          "name": "account",
          "type": "address"
        }
      ],
      "name": "revokeRole",
      "outputs": [],
      "stateMutability": "nonpayable",
      "type": "function"
    },
    {
      "inputs": [
        {
          "internalType": "uint256",
          "name": "target",
          "type": "uint256"
        },
        {
          "internalType": "uint256",
          "name": "floor_",
          "type": "uint256"
        }
      ],
      "name": "setReserveParameters",
      "outputs": [],
      "stateMutability": "nonpayable",
      "type": "function"
    },
    {
      "inputs": [
        {
          "internalType": "bytes4",
          "name": "interfaceId",
          "type": "bytes4"
        }
      ],
      "name": "supportsInterface",
      "outputs": [
        {
          "internalType": "bool",
          "name": "",
          "type": "bool"
        }
      ],
      "stateMutability": "view",
      "type": "function"
    },
    {
      "inputs": [],
      "name": "totalFunded",
      "outputs": [
        {
          "internalType": "uint256",
          "name": "",
          "type": "uint256"
        }
      ],
      "stateMutability": "view",
      "type": "function"
    },
    {
      "inputs": [],
      "name": "totalUsed",
      "outputs": [
        {
          "internalType": "uint256",
          "name": "",
          "type": "uint256"
        }
      ],
      "stateMutability": "view",
      "type": "function"
    }
  ],
  "bytecode": "0x60a034620001d3576200137190601f38839003908101601f19168201906001600160401b03821183831017620001d85780839160409586948552833981010312620001d3576200004f81620001ee565b906200005f6020809201620001ee565b600180556001600160a01b0392909190831680151580620001c7575b156200018357608052600092838052838252848420921691828452815260ff8484205416156200014b575b7f71840dc4906352362b0cdaf79870196c8e42acafade72d5d5a6d59291253ceb190818452838152848420838552815260ff85852054161562000111575b845161114d90816200020482396080518181816101ab0152818161042c01528181610c010152610f1c0152f35b8184528381528484209083855252838320600160ff1982541617905560008051602062001351833981519152339380a438808080620000e4565b8280528281528383208284528152838320805460ff19166001179055338284600080516020620013518339815191528180a4620000a6565b845162461bcd60e51b815260048101839052601660248201527f496e737572616e6365526573657276653a207a65726f000000000000000000006044820152606490fd5b5083831615156200007b565b600080fd5b634e487b7160e01b600052604160045260246000fd5b51906001600160a01b0382168203620001d35756fe608060408181526004918236101561001657600080fd5b600092833560e01c91826301ffc9a7146105df57508163248a9ca3146105b55781632f2ff15d1461050c57816331ae50bc146104ed57816336568abe1461045b57816338d52e0f146104175781636def2cb3146103f857816391d14854146103b2578163929902781461035b57816397272b5314610286578163a217fddf1461026b578163ad044f491461024d578163b2e2c75f1461022e578163b69ef8a81461017c578163ca1d209d1461015f578163d547741f1461011d575063f36c8f5c146100e057600080fd5b34610119578160031936011261011957602090517f71840dc4906352362b0cdaf79870196c8e42acafade72d5d5a6d59291253ceb18152f35b5080fd5b9190503461015b578060031936011261015b5761015891356101536001610142610632565b938387528660205286200154610863565b610a0f565b80f35b8280fd5b839034610119576020366003190112610119576101589035610bf8565b9190503461015b578260031936011261015b5780516370a0823160e01b815230928101929092526020826024817f00000000000000000000000000000000000000000000000000000000000000006001600160a01b03165afa9182156102245783926101ed575b6020838351908152f35b9091506020813d821161021c575b81610208602093836109c1565b8101031261015b57602092505190386101e3565b3d91506101fb565b81513d85823e3d90fd5b5050346101195781600319360112610119576020906005549051908152f35b90503461015b578260031936011261015b5760209250549051908152f35b50503461011957816003193601126101195751908152602090f35b839150346101195760603660031901126101195780356001600160a01b038116810361015b5760443567ffffffffffffffff9283821161035757366023830112156103575781810135938411610357573660248584010111610357576102ea61064d565b600260015414610314575090602461030d93926002600155019060243590610f01565b6001805580f35b606490602087519162461bcd60e51b8352820152601f60248201527f5265656e7472616e637947756172643a207265656e7472616e742063616c6c006044820152fd5b8480fd5b9190503461015b578060031936011261015b577f54c748141fc198c70e7d58367206946dbbc0a9ff7410e00ccc22b5080b67c1ce913560243561039c61064d565b816002558060035582519182526020820152a180f35b90503461015b578160031936011261015b578160209360ff926103d3610632565b903582528186528282206001600160a01b039091168252855220549151911615158152f35b5050346101195781600319360112610119576020906003549051908152f35b505034610119578160031936011261011957517f00000000000000000000000000000000000000000000000000000000000000006001600160a01b03168152602090f35b83915034610119578260031936011261011957610476610632565b90336001600160a01b0383160361049257906101589135610a0f565b608490602085519162461bcd60e51b8352820152602f60248201527f416363657373436f6e74726f6c3a2063616e206f6e6c792072656e6f756e636560448201526e103937b632b9903337b91039b2b63360891b6064820152fd5b5050346101195781600319360112610119576020906002549051908152f35b90503461015b578160031936011261015b573590610528610632565b908284528360205261053f60018286200154610863565b82845260208481528185206001600160a01b039093168086529290528084205460ff161561056b578380f35b828452836020528084208285526020528320600160ff1982541617905533917f2f8788117e7eff1d82e926ec794901d17c78024a50270940304540a733656f0d8480a43880808380f35b90503461015b57602036600319011261015b57816020936001923581528085522001549051908152f35b84913461015b57602036600319011261015b573563ffffffff60e01b811680910361015b5760209250637965db0b60e01b8114908115610621575b5015158152f35b6301ffc9a760e01b1490508361061a565b602435906001600160a01b038216820361064857565b600080fd5b3360009081527f316a51056d8b2401ab04c48d9973add294eadde229c785c6d19cde93785467ef60209081526040808320549092907f71840dc4906352362b0cdaf79870196c8e42acafade72d5d5a6d59291253ceb19060ff16156106b25750505050565b6106bb33610ae9565b8451916106c78361098f565b6042835284830193606036863783511561084f576030855383519060019182101561084f5790607860218601536041915b8183116107e15750505061079f5761074d9385936107859361077660489461079b9951988576020b1b1b2b9b9a1b7b73a3937b61d1030b1b1b7bab73a1604d1b8b97880152825192839160378901910161096c565b8401917001034b99036b4b9b9b4b733903937b6329607d1b60378401525180938684019061096c565b010360288101855201836109c1565b5162461bcd60e51b8152918291600483016109e3565b0390fd5b60648486519062461bcd60e51b825280600483015260248201527f537472696e67733a20686578206c656e67746820696e73756666696369656e746044820152fd5b909192600f8116601081101561083b576f181899199a1a9b1b9c1cb0b131b232b360811b901a6108118588610ac2565b5360041c928015610827576000190191906106f8565b634e487b7160e01b82526011600452602482fd5b634e487b7160e01b83526032600452602483fd5b634e487b7160e01b81526032600452602490fd5b6000818152602090808252604092838220338352835260ff84832054161561088b5750505050565b61089433610ae9565b8451916108a08361098f565b6042835284830193606036863783511561084f576030855383519060019182101561084f5790607860218601536041915b8183116109265750505061079f5761074d9385936107859361077660489461079b9951988576020b1b1b2b9b9a1b7b73a3937b61d1030b1b1b7bab73a1604d1b8b97880152825192839160378901910161096c565b909192600f8116601081101561083b576f181899199a1a9b1b9c1cb0b131b232b360811b901a6109568588610ac2565b5360041c928015610827576000190191906108d1565b60005b83811061097f5750506000910152565b818101518382015260200161096f565b6080810190811067ffffffffffffffff8211176109ab57604052565b634e487b7160e01b600052604160045260246000fd5b90601f8019910116810190811067ffffffffffffffff8211176109ab57604052565b60409160208252610a03815180928160208601526020868601910161096c565b601f01601f1916010190565b9060009180835282602052604083209160018060a01b03169182845260205260ff604084205416610a3f57505050565b80835282602052604083208284526020526040832060ff1981541690557ff6391f5c32d9c69d2a47ea670b442974b53935d1edc7fd64eb21e047a839171b339380a4565b91908201809211610a9057565b634e487b7160e01b600052601160045260246000fd5b67ffffffffffffffff81116109ab57601f01601f191660200190565b908151811015610ad3570160200190565b634e487b7160e01b600052603260045260246000fd5b604051906060820182811067ffffffffffffffff8211176109ab57604052602a8252602082016040368237825115610ad357603090538151600190811015610ad357607860218401536029905b808211610b8a575050610b465790565b606460405162461bcd60e51b815260206004820152602060248201527f537472696e67733a20686578206c656e67746820696e73756666696369656e746044820152fd5b9091600f81166010811015610be3576f181899199a1a9b1b9c1cb0b131b232b360811b901a610bb98486610ac2565b5360041c918015610bce576000190190610b36565b60246000634e487b7160e01b81526011600452fd5b60246000634e487b7160e01b81526032600452fd5b908115610d3f577f000000000000000000000000000000000000000000000000000000000000000091604080516020906323b872dd60e01b828201523360248201523060448201528360648201526064815260a081019581871067ffffffffffffffff8811176109ab57610c728392602498865282610d43565b610c7e85600454610a83565b6004558351968780926370a0823160e01b825230600483015260018060a01b03165afa948515610d3457600095610ce3575b50937f78d425cd780dedc6eeb91f9c08388fdfd7ebcd0008ffb9da76e7e996d2865d5c92939482519485528401523392a2565b8181813d8311610d2d575b610cf881836109c1565b81010312610d29575194507f78d425cd780dedc6eeb91f9c08388fdfd7ebcd0008ffb9da76e7e996d2865d5c610cb0565b8580fd5b503d610cee565b82513d6000823e3d90fd5b9050565b60018060a01b031690604051604081019080821067ffffffffffffffff8311176109ab57610dd3916040526020938482527f5361666545524332303a206c6f772d6c6576656c2063616c6c206661696c6564858301526000808587829751910182855af13d15610e6c573d91610db883610aa6565b92610dc660405194856109c1565b83523d868885013e610e70565b805191821591848315610e45575b505050905015610dee5750565b6084906040519062461bcd60e51b82526004820152602a60248201527f5361666545524332303a204552433230206f7065726174696f6e20646964206e6044820152691bdd081cdd58d8d9595960b21b6064820152fd5b91938180945001031261011957820151908115158203610e69575080388084610de1565b80fd5b6060915b91929015610ed25750815115610e84575090565b3b15610e8d5790565b60405162461bcd60e51b815260206004820152601d60248201527f416464726573733a2063616c6c20746f206e6f6e2d636f6e74726163740000006044820152606490fd5b825190915015610ee55750805190602001fd5b60405162461bcd60e51b815290819061079b90600483016109e3565b90926001600160a01b0391821680156110d25784156110cb577f000000000000000000000000000000000000000000000000000000000000000094604094855160209763a9059cbb60e01b89830152846024830152836044830152604482526080820182811067ffffffffffffffff8211176109ab578992610f85918a5282610d43565b610f9184600554610a83565b60055560248851809881936370a0823160e01b8352306004840152165afa9485156110c057600095611091575b50610fc884610aa6565b610fd4875191826109c1565b848152878101923686840111610648578360809287857f5f2d574e5c5675133882a585a05d133fdd8a9ca1f004dfc7208bc8be93ac9d20973760008b898301015251902095808951948593845260608c850152816060850152848401376000828201840152888201889052601f01601f19168101030190a360035480821061105d575b50505050565b7f8c2ad368cd2f8fbc34557809dd077b30fbf88d914281ed54b3ebbaa7a7dee006938351928352820152a138808080611057565b90948782813d83116110b9575b6110a881836109c1565b81010312610e695750519338610fbe565b503d61109e565b86513d6000823e3d90fd5b5050505050565b60405162461bcd60e51b815260206004820152601960248201527f496e737572616e6365526573657276653a207a65726f20746f000000000000006044820152606490fdfea264697066735822122034cde49775622e7763d22ff7a29080646fbbb1a4bc851a5df3d8fd680043b6c864736f6c634300081300332f8788117e7eff1d82e926ec794901d17c78024a50270940304540a733656f0d",
  "linkReferences": {},
  "deployedLinkReferences": {},
  "immutableReferences": {
    "18621": [
      {
        "length": 32,
        "start": 427
      },
      {
        "length": 32,
        "start": 1068
      },
      {
        "length": 32,
        "start": 3073
      },
      {
        "length": 32,
        "start": 3868
      }
    ]
  },
  "inputSourceName": "project/contracts/InsuranceReserve.sol",
  "buildInfoId": "solc-0_8_19-1ef7364bee65fe47cce44adf0cd306f2b04bd606"
}